{"contracts/PredictionMarketFactory.sol":{"PredictionMarketFactory":{"abi":[{"inputs":[{"internalType":"address","name":"_defaultCollateralToken","type":"address"}],"stateMutability":"nonpayable","type":"constructor"},{"inputs":[],"name":"DuplicateOptionLabel","type":"error"},{"inputs":[],"name":"EmptyOptionLabel","type":"error"},{"inputs":[],"name":"InvalidEndTime","type":"error"},{"inputs":[],"name":"InvalidOptionsCount","type":"error"},{"inputs":[],"name":"InvalidQuestion","type":"error"},{"inputs":[],"name":"InvalidToken","type":"error"},{"inputs":[],"name":"NotOwner","type":"error"},{"anonymous":false,"inputs":[{"indexed":true,"internalType":"address","name":"newResolver","type":"address"}],"name":"DefaultResolverUpdated","type":"event"},{"anonymous":false,"inputs":[{"indexed":true,"internalType":"address","name":"newToken","type":"address"}],"name":"DefaultTokenUpdated","type":"event"},{"anonymous":false,"inputs":[{"indexed":true,"internalType":"address","name":"marketAddress","type":"address"},{"indexed":true,"internalType":"address","name":"creator","type":"address"},{"indexed":false,"internalType":"string","name":"question","type":"string"},{"indexed":false,"internalType":"uint256","name":"endTime","type":"uint256"},{"indexed":false,"internalType":"address","name":"collateralToken","type":"address"},{"indexed":false,"internalType":"string[]","name":"options","type":"string[]"}],"name":"MarketCreated","type":"event"},{"anonymous":false,"inputs":[{"indexed":true,"internalType":"address","name":"previousOwner","type":"address"},{"indexed":true,"internalType":"address","name":"newOwner","type":"address"}],"name":"OwnershipTransferred","type":"event"},{"inputs":[{"internalType":"uint256","name":"","type":"uint256"}],"name":"allMarkets","outputs":[{"internalType":"address","name":"","type":"address"}],"stateMutability":"view","type":"function"},{"inputs":[{"internalType":"string","name":"_question","type":"string"},{"internalType":"uint256","name":"_endTime","type":"uint256"},{"internalType":"address","name":"_collateralToken","type":"address"},{"internalType":"string[]","name":"_options","type":"string[]"}],"name":"createMarket","outputs":[{"internalType":"address","name":"marketAddress","type":"address"}],"stateMutability":"nonpayable","type":"function"},{"inputs":[{"internalType":"string","name":"_question","type":"string"},{"internalType":"uint256","name":"_endTime","type":"uint256"},{"internalType":"string[]","name":"_options","type":"string[]"}],"name":"createMarketSimple","outputs":[{"internalType":"address","name":"","type":"address"}],"stateMutability":"nonpayable","type":"function"},{"inputs":[],"name":"defaultCollateralToken","outputs":[{"internalType":"address","name":"","type":"address"}],"stateMutability":"view","type":"function"},{"inputs":[],"name":"defaultResolver","outputs":[{"internalType":"address","name":"","type":"address"}],"stateMutability":"view","type":"function"},{"inputs":[],"name":"getActiveMarkets","outputs":[{"internalType":"address[]","name":"","type":"address[]"}],"stateMutability":"view","type":"function"},{"inputs":[],"name":"getAllMarkets","outputs":[{"internalType":"address[]","name":"","type":"address[]"}],"stateMutability":"view","type":"function"},{"inputs":[{"internalType":"address","name":"creator","type":"address"}],"name":"getMarketsByCreator","outputs":[{"internalType":"address[]","name":"","type":"address[]"}],"stateMutability":"view","type":"function"},{"inputs":[{"internalType":"uint256","name":"offset","type":"uint256"},{"internalType":"uint256","name":"limit","type":"uint256"}],"name":"getMarketsPaginated","outputs":[{"internalType":"address[]","name":"markets","type":"address[]"},{"internalType":"uint256","name":"total","type":"uint256"}],"stateMutability":"view","type":"function"},{"inputs":[],"name":"getTotalMarkets","outputs":[{"internalType":"uint256","name":"","type":"uint256"}],"stateMutability":"view","type":"function"},{"inputs":[{"internalType":"address","name":"","type":"address"}],"name":"isValidMarket","outputs":[{"internalType":"bool","name":"","type":"bool"}],"stateMutability":"view","type":"function"},{"inputs":[{"internalType":"address","name":"","type":"address"},{"internalType":"uint256","name":"","type":"uint256"}],"name":"marketsByCreator","outputs":[{"internalType":"address","name":"","type":"address"}],"stateMutability":"view","type":"function"},{"inputs":[],"name":"owner","outputs":[{"internalType":"address","name":"","type":"address"}],"stateMutability":"view","type":"function"},{"inputs":[{"internalType":"address","name":"_token","type":"address"}],"name":"setDefaultCollateralToken","outputs":[],"stateMutability":"nonpayable","type":"function"},{"inputs":[{"internalType":"address","name":"_resolver","type":"address"}],"name":"setDefaultResolver","outputs":[],"stateMutability":"nonpayable","type":"function"},{"inputs":[{"internalType":"address","name":"newOwner","type":"address"}],"name":"transferOwnership","outputs":[],"stateMutability":"nonpayable","type":"function"}],"evm":{"bytecode":{"linkReferences":{},"object":"608060405234801561001057600080fd5b506040516144a03803806144a083398101604081905261002f91610089565b6001600160a01b0381166100565760405163c1ab6dc160e01b815260040160405180910390fd5b60008054336001600160a01b031991821617909155600180549091166001600160a01b03929092169190911790556100b9565b60006020828403121561009b57600080fd5b81516001600160a01b03811681146100b257600080fd5b9392505050565b6143d8806100c86000396000f3fe60806040523480156200001157600080fd5b5060043610620001155760003560e01c8063a5e973c311620000a3578063c66485b2116200006e578063c66485b21462000264578063e1e966dc146200027b578063e99c80bd1462000292578063f2fde38b14620002a957600080fd5b8063a5e973c31462000201578063aec572f9146200021a578063b0772d0b1462000241578063c60d4fb4146200024b57600080fd5b806381ebf20911620000e457806381ebf20914620001b0578063824ce5c314620001c2578063828eab0e14620001d95780638da5cb5b14620001ed57600080fd5b80630bd98782146200011a57806313ba3d14146200014b57806352d84d1e146200016257806358e6309f1462000179575b600080fd5b6001546200012e906001600160a01b031681565b6040516001600160a01b0390911681526020015b60405180910390f35b6200012e6200015c36600462000d33565b620002c0565b6200012e6200017336600462000d62565b620002f9565b6200019f6200018a36600462000d7c565b60056020526000908152604090205460ff1681565b604051901515815260200162000142565b60035460405190815260200162000142565b6200012e620001d336600462000f0f565b62000324565b6002546200012e906001600160a01b031681565b6000546200012e906001600160a01b031681565b6200020b620003a0565b60405162000142919062000fc9565b620002316200022b36600462000fde565b6200061c565b6040516200014292919062001001565b6200020b6200074e565b620002626200025c36600462000d7c565b620007b2565b005b620002626200027536600462000d7c565b62000850565b6200012e6200028c36600462001025565b620008c6565b6200020b620002a336600462000d7c565b62000bf0565b62000262620002ba36600462000d7c565b62000c68565b60046020528160005260406000208181548110620002dd57600080fd5b6000918252602090912001546001600160a01b03169150829050565b600381815481106200030a57600080fd5b6000918252602090912001546001600160a01b0316905081565b60405163387a59b760e21b8152600090309063e1e966dc906200035290879087908690889060040162001151565b6020604051808303816000875af115801562000372573d6000803e3d6000fd5b505050506040513d601f19601f820116820180604052508101906200039891906200119b565b949350505050565b60606000805b6003548110156200048457600060038281548110620003c957620003c9620011bb565b60009182526020822001546001600160a01b03169150816001600160a01b031663e0e081d76040518163ffffffff1660e01b8152600401602060405180830381865afa1580156200041e573d6000803e3d6000fd5b505050506040513d601f19601f82011682018060405250810190620004449190620011e7565b6002811115620004585762000458620011d1565b036200046e57826200046a8162001220565b9350505b50806200047b8162001220565b915050620003a6565b5060008167ffffffffffffffff811115620004a357620004a362000da3565b604051908082528060200260200182016040528015620004cd578160200160208202803683370190505b5090506000805b6003548110156200061357600060038281548110620004f757620004f7620011bb565b60009182526020822001546001600160a01b03169150816001600160a01b031663e0e081d76040518163ffffffff1660e01b8152600401602060405180830381865afa1580156200054c573d6000803e3d6000fd5b505050506040513d601f19601f82011682018060405250810190620005729190620011e7565b6002811115620005865762000586620011d1565b03620005fd5760038281548110620005a257620005a2620011bb565b9060005260206000200160009054906101000a90046001600160a01b0316848481518110620005d557620005d5620011bb565b6001600160a01b039092166020928302919091019091015282620005f98162001220565b9350505b50806200060a8162001220565b915050620004d4565b50909392505050565b6003546060908084106200064157604080516000815260208101909152915062000747565b60006200064f84866200123c565b9050818111156200065d5750805b60006200066b868362001258565b90508067ffffffffffffffff81111562000689576200068962000da3565b604051908082528060200260200182016040528015620006b3578160200160208202803683370190505b50935060005b8181101562000743576003620006d082896200123c565b81548110620006e357620006e3620011bb565b9060005260206000200160009054906101000a90046001600160a01b0316858281518110620007165762000716620011bb565b6001600160a01b0390921660209283029190910190910152806200073a8162001220565b915050620006b9565b5050505b9250929050565b60606003805480602002602001604051908101604052809291908181526020018280548015620007a857602002820191906000526020600020905b81546001600160a01b0316815260019091019060200180831162000789575b5050505050905090565b6000546001600160a01b03163314620007de576040516330cd747160e01b815260040160405180910390fd5b6001600160a01b038116620008065760405163c1ab6dc160e01b815260040160405180910390fd5b600180546001600160a01b0319166001600160a01b0383169081179091556040517f2ffae89a4970d1ff9bf1a765b00d7eee23cd328cdaaab85b7ce9e5379c1ece3290600090a250565b6000546001600160a01b031633146200087c576040516330cd747160e01b815260040160405180910390fd5b600280546001600160a01b0319166001600160a01b0383169081179091556040517f743e12bb7b0cef03137d6c82257f44c9c2109a2f6af62ef243166aae5368bb9190600090a250565b60008451600003620008eb5760405163103c380960e31b815260040160405180910390fd5b4284116200090c576040516338af65f760e01b815260040160405180910390fd5b6002825110806200091e575060048251115b156200093d5760405163447074b560e01b815260040160405180910390fd5b60005b825181101562000a37578281815181106200095f576200095f620011bb565b6020026020010151516000036200098957604051633887f29360e11b815260040160405180910390fd5b6000620009988260016200123c565b90505b835181101562000a2157838181518110620009ba57620009ba620011bb565b602002602001015180519060200120848381518110620009de57620009de620011bb565b6020026020010151805190602001200362000a0c576040516348a4bd6d60e11b815260040160405180910390fd5b8062000a188162001220565b9150506200099b565b508062000a2e8162001220565b91505062000940565b5060006001600160a01b0384161562000a51578362000a5e565b6001546001600160a01b03165b90506000338288888760405162000a759062000d0c565b62000a859594939291906200126e565b604051809103906000f08015801562000aa2573d6000803e3d6000fd5b506002549093508391506001600160a01b03161562000b1d5760025460405163272a1d9360e11b81526001600160a01b03918216600482015290821690634e543b2690602401600060405180830381600087803b15801562000b0357600080fd5b505af115801562000b18573d6000803e3d6000fd5b505050505b6003805460018181019092557fc2575a0e9e593c00f959f8c92f12db2869c3395a3b0502d05e2516446f71f85b0180546001600160a01b0386166001600160a01b0319918216811790925533600081815260046020908152604080832080548089018255908452828420018054909516861790945584825260059052829020805460ff1916909417909355517fb25c61408bd39498d98384cf5e268bf78dfbc7cfe8a5dc526393c0e796d9ecd79062000bde908b908b9088908b9062001151565b60405180910390a35050949350505050565b6001600160a01b03811660009081526004602090815260409182902080548351818402810184019094528084526060939283018282801562000c5c57602002820191906000526020600020905b81546001600160a01b0316815260019091019060200180831162000c3d575b50505050509050919050565b6000546001600160a01b0316331462000c94576040516330cd747160e01b815260040160405180910390fd5b6001600160a01b03811662000cbc5760405163c1ab6dc160e01b815260040160405180910390fd5b600080546001600160a01b038381166001600160a01b0319831681178455604051919092169283917f8be0079c531659141344cd1fd0a4f28419497f9722a3daafe3b4186f6b6457e09190a35050565b6130ec80620012b783390190565b6001600160a01b038116811462000d3057600080fd5b50565b6000806040838503121562000d4757600080fd5b823562000d548162000d1a565b946020939093013593505050565b60006020828403121562000d7557600080fd5b5035919050565b60006020828403121562000d8f57600080fd5b813562000d9c8162000d1a565b9392505050565b634e487b7160e01b600052604160045260246000fd5b604051601f8201601f1916810167ffffffffffffffff8111828210171562000de55762000de562000da3565b604052919050565b600082601f83011262000dff57600080fd5b813567ffffffffffffffff81111562000e1c5762000e1c62000da3565b62000e31601f8201601f191660200162000db9565b81815284602083860101111562000e4757600080fd5b816020850160208301376000918101602001919091529392505050565b600082601f83011262000e7657600080fd5b8135602067ffffffffffffffff8083111562000e965762000e9662000da3565b8260051b62000ea783820162000db9565b938452858101830193838101908886111562000ec257600080fd5b84880192505b8583101562000f035782358481111562000ee25760008081fd5b62000ef28a87838c010162000ded565b835250918401919084019062000ec8565b98975050505050505050565b60008060006060848603121562000f2557600080fd5b833567ffffffffffffffff8082111562000f3e57600080fd5b62000f4c8783880162000ded565b945060208601359350604086013591508082111562000f6a57600080fd5b5062000f798682870162000e64565b9150509250925092565b600081518084526020808501945080840160005b8381101562000fbe5781516001600160a01b03168752958201959082019060010162000f97565b509495945050505050565b60208152600062000d9c602083018462000f83565b6000806040838503121562000ff257600080fd5b50508035926020909101359150565b60408152600062001016604083018562000f83565b90508260208301529392505050565b600080600080608085870312156200103c57600080fd5b843567ffffffffffffffff808211156200105557600080fd5b620010638883890162000ded565b955060208701359450604087013591506200107e8262000d1a565b909250606086013590808211156200109557600080fd5b50620010a48782880162000e64565b91505092959194509250565b6000815180845260005b81811015620010d857602081850181015186830182015201620010ba565b506000602082860101526020601f19601f83011685010191505092915050565b600081518084526020808501808196508360051b8101915082860160005b858110156200114457828403895262001131848351620010b0565b9885019893509084019060010162001116565b5091979650505050505050565b608081526000620011666080830187620010b0565b602083018690526001600160a01b03851660408401528281036060840152620011908185620010f8565b979650505050505050565b600060208284031215620011ae57600080fd5b815162000d9c8162000d1a565b634e487b7160e01b600052603260045260246000fd5b634e487b7160e01b600052602160045260246000fd5b600060208284031215620011fa57600080fd5b81516003811062000d9c57600080fd5b634e487b7160e01b600052601160045260246000fd5b6000600182016200123557620012356200120a565b5060010190565b808201808211156200125257620012526200120a565b92915050565b818103818111156200125257620012526200120a565b6001600160a01b0386811682528516602082015260a0604082018190526000906200129c90830186620010b0565b846060840152828103608084015262000f038185620010f856fe60806040523480156200001157600080fd5b50604051620030ec380380620030ec833981016040819052620000349162000650565b42821162000055576040516338af65f760e01b815260040160405180910390fd5b6001600160a01b0384166200007d5760405163162908e360e11b815260040160405180910390fd5b6001600160a01b038516620000a55760405163162908e360e11b815260040160405180910390fd5b8251600003620000c85760405163162908e360e11b815260040160405180910390fd5b600281511080620000da575060048151115b15620000f95760405163447074b560e01b815260040160405180910390fd5b60005b81518160ff1610156200020257818160ff16815181106200012157620001216200077a565b6020026020010151516000036200014b57604051633887f29360e11b815260040160405180910390fd5b60006200015a826001620007a6565b90505b82518160ff161015620001ec57828160ff16815181106200018257620001826200077a565b602002602001015180519060200120838360ff1681518110620001a957620001a96200077a565b60200260200101518051906020012003620001d7576040516348a4bd6d60e11b815260040160405180910390fd5b80620001e381620007c8565b9150506200015d565b5080620001f981620007c8565b915050620000fc565b50600080546001600160a01b038088166001600160a01b0319928316179092556002805492871692909116919091179055600362000241848262000879565b5060048290554260055560068054825161ffff1990911661010060ff831602179091556200027790600790602084019062000386565b5080516001600160401b038111156200029457620002946200056d565b604051908082528060200260200182016040528015620002be578160200160208202803683370190505b508051620002d591600c91602090910190620003e3565b5080516001600160401b03811115620002f257620002f26200056d565b6040519080825280602002602001820160405280156200031c578160200160208202803683370190505b50805162000333916008916020909101906200042f565b50846001600160a01b03167fe7abea24bbdeca3299ee22e1cdbad24cbb950a3754a487ee187e61dc3f096ed4848484604051620003739392919062000973565b60405180910390a25050505050620009f2565b828054828255906000526020600020908101928215620003d1579160200282015b82811115620003d15782518290620003c0908262000879565b5091602001919060010190620003a7565b50620003df929150620004d6565b5090565b82805482825590600052602060002090810192821562000421579160200282015b828111156200042157825182559160200191906001019062000404565b50620003df929150620004f7565b82805482825590600052602060002090601f01602090048101928215620004215791602002820160005b838211156200049857835183826101000a81548160ff021916908315150217905550926020019260010160208160000104928301926001030262000459565b8015620004c75782816101000a81549060ff021916905560010160208160000104928301926001030262000498565b5050620003df929150620004f7565b80821115620003df576000620004ed82826200050e565b50600101620004d6565b5b80821115620003df5760008155600101620004f8565b5080546200051c90620007ea565b6000825580601f106200052d575050565b601f0160209004906000526020600020908101906200054d9190620004f7565b50565b80516001600160a01b03811681146200056857600080fd5b919050565b634e487b7160e01b600052604160045260246000fd5b604051601f8201601f191681016001600160401b0381118282101715620005ae57620005ae6200056d565b604052919050565b60005b83811015620005d3578181015183820152602001620005b9565b50506000910152565b600082601f830112620005ee57600080fd5b81516001600160401b038111156200060a576200060a6200056d565b6200061f601f8201601f191660200162000583565b8181528460208386010111156200063557600080fd5b62000648826020830160208701620005b6565b949350505050565b600080600080600060a086880312156200066957600080fd5b620006748662000550565b945060206200068581880162000550565b60408801519095506001600160401b0380821115620006a357600080fd5b620006b18a838b01620005dc565b9550606089015194506080890151915080821115620006cf57600080fd5b818901915089601f830112620006e457600080fd5b815181811115620006f957620006f96200056d565b8060051b6200070a85820162000583565b918252838101850191858101908d8411156200072557600080fd5b86860192505b838310156200076657825185811115620007455760008081fd5b620007558f89838a0101620005dc565b83525091860191908601906200072b565b809750505050505050509295509295909350565b634e487b7160e01b600052603260045260246000fd5b634e487b7160e01b600052601160045260246000fd5b60ff8181168382160190811115620007c257620007c262000790565b92915050565b600060ff821660ff8103620007e157620007e162000790565b60010192915050565b600181811c90821680620007ff57607f821691505b6020821081036200082057634e487b7160e01b600052602260045260246000fd5b50919050565b601f8211156200087457600081815260208120601f850160051c810160208610156200084f5750805b601f850160051c820191505b8181101562000870578281556001016200085b565b5050505b505050565b81516001600160401b038111156200089557620008956200056d565b620008ad81620008a68454620007ea565b8462000826565b602080601f831160018114620008e55760008415620008cc5750858301515b600019600386901b1c1916600185901b17855562000870565b600085815260208120601f198616915b828110156200091657888601518255948401946001909101908401620008f5565b5085821015620009355787850151600019600388901b60f8161c191681555b5050505050600190811b01905550565b600081518084526200095f816020860160208601620005b6565b601f01601f19169290920160200192915050565b60608152600062000988606083018662000945565b6020858185015283820360408501528185518084528284019150828160051b85010183880160005b83811015620009e257601f19878403018552620009cf83835162000945565b94860194925090850190600101620009b0565b50909a9950505050505050505050565b6126ea8062000a026000396000f3fe608060405234801561001057600080fd5b50600436106102265760003560e01c80636bfefd6b11610130578063bc29ca45116100b8578063dd9089aa1161007c578063dd9089aa146104a0578063e0e081d7146104b3578063e32fe90b146104cd578063ef0fc35c146104f1578063f2ccb3971461050457600080fd5b8063bc29ca4514610467578063c235253f14610474578063cf09e0d014610487578063d5002f2e14610490578063dac6270d1461049857600080fd5b8063a1e512d7116100ff578063a1e512d71461041c578063ab125b641461042f578063b2016bd414610444578063b401faf114610457578063b5545a3c1461045f57600080fd5b80636bfefd6b146103e15780636f9fb98a146103e957806373b2e80e146103f157806375f4d6771461041457600080fd5b80633f0826c5116101b35780634e543b26116101825780634e543b26146103725780634ea64d17146103875780635b7c2dad1461039a57806368ea18ec146103bb5780636a87c474146103ce57600080fd5b80633f0826c5146103225780633fad9ae0146103425780634a02476e1461034a5780634c5be5741461035d57600080fd5b806313f2dad0116101fa57806313f2dad0146102bf57806323341a05146102d257806324fdf5af146102f15780632f31d130146103045780633197cbb61461031957600080fd5b806280cb821461022b57806302d05d3f1461024857806304f3bcec146102735780631158bd1314610286575b600080fd5b610233610517565b60405190151581526020015b60405180910390f35b60005461025b906001600160a01b031681565b6040516001600160a01b03909116815260200161023f565b60015461025b906001600160a01b031681565b6102b1610294366004612100565b600a60209081526000928352604080842090915290825290205481565b60405190815260200161023f565b6102b16102cd366004612133565b610544565b6102da610565565b60405161023f9b9a9998979695949392919061228f565b6102b16102ff366004612382565b6107ff565b61030c61091a565b60405161023f91906123d5565b6102b160045481565b6103356103303660046123e8565b610992565b60405161023f9190612403565b610335610a73565b610233610358366004612133565b610b01565b610365610b35565b60405161023f9190612416565b610385610380366004612429565b610c9d565b005b6102b1610395366004612444565b610d3b565b6103ad6103a8366004612429565b610db8565b60405161023f92919061246e565b6103856103c9366004612492565b610ea9565b6103856103dc366004612492565b6110ed565b6103856112cd565b6102b1611369565b6102336103ff366004612429565b600b6020526000908152604090205460ff1681565b6102b16113d6565b6102b161042a3660046123e8565b611437565b6104376114d7565b60405161023f91906124d4565b60025461025b906001600160a01b031681565b6103856115b0565b610385611893565b6009546102339060ff1681565b6102b1610482366004612100565b611a6a565b6102b160055481565b610365611ab8565b6102b1611b0f565b6103856104ae366004612444565b611b2e565b6006546104c09060ff1681565b60405161023f91906124e7565b6006546104df90610100900460ff1681565b60405160ff909116815260200161023f565b6103356104ff366004612133565b611d59565b610385610512366004612444565b611d84565b60008060065460ff16600281111561053157610531612192565b14801561053f575060045442105b905090565b600c818154811061055457600080fd5b600091825260209091200154905081565b600080546001546004546005546006548594606094869485948594859489948594859488946001600160a01b039485169490931692600392919060ff808216916101009004166007600c60086105b96113d6565b8880546105c5906124f5565b80601f01602080910402602001604051908101604052809291908181526020018280546105f1906124f5565b801561063e5780601f106106135761010080835404028352916020019161063e565b820191906000526020600020905b81548152906001019060200180831161062157829003601f168201915b5050505050985083805480602002602001604051908101604052809291908181526020016000905b82821015610712578382906000526020600020018054610685906124f5565b80601f01602080910402602001604051908101604052809291908181526020018280546106b1906124f5565b80156106fe5780601f106106d3576101008083540402835291602001916106fe565b820191906000526020600020905b8154815290600101906020018083116106e157829003601f168201915b505050505081526020019060010190610666565b5050505093508280548060200260200160405190810160405280929190818152602001828054801561076357602002820191906000526020600020905b81548152602001906001019080831161074f575b50505050509250818054806020026020016040519081016040528092919081815260200182805480156107d557602002820191906000526020600020906000905b825461010083900a900460ff1615158152602060019283018181049485019490930390920291018084116107a45790505b505050505091509a509a509a509a509a509a509a509a509a509a509a50909192939495969798999a565b60008061080a6113d6565b90508060000361081e576000915050610913565b60008060005b858110156108e357600087878381811061084057610840612529565b905060200201602081019061085591906123e8565b60065490915060ff610100909104811690821610156108d0576001600160a01b0389166000908152600a6020908152604080832060ff8516845290915290205461089f9085612555565b9350600c8160ff16815481106108b7576108b7612529565b9060005260206000200154836108cd9190612555565b92505b50806108db81612568565b915050610824565b50806000036108f85760009350505050610913565b806109038484612581565b61090d91906125ae565b93505050505b9392505050565b6060600880548060200260200160405190810160405280929190818152602001828054801561098857602002820191906000526020600020906000905b825461010083900a900460ff1615158152602060019283018181049485019490930390920291018084116109575790505b5050505050905090565b60065460609060ff6101009091048116908316106109c357604051632a71953160e01b815260040160405180910390fd5b60078260ff16815481106109d9576109d9612529565b9060005260206000200180546109ee906124f5565b80601f0160208091040260200160405190810160405280929190818152602001828054610a1a906124f5565b8015610a675780601f10610a3c57610100808354040283529160200191610a67565b820191906000526020600020905b815481529060010190602001808311610a4a57829003601f168201915b50505050509050919050565b60038054610a80906124f5565b80601f0160208091040260200160405190810160405280929190818152602001828054610aac906124f5565b8015610af95780601f10610ace57610100808354040283529160200191610af9565b820191906000526020600020905b815481529060010190602001808311610adc57829003601f168201915b505050505081565b60088181548110610b1157600080fd5b9060005260206000209060209182820401919006915054906101000a900460ff1681565b60606000610b416113d6565b600654909150600090610100900460ff1667ffffffffffffffff811115610b6a57610b6a6125c2565b604051908082528060200260200182016040528015610b93578160200160208202803683370190505b50905081600003610c1157600654600090610bb890610100900460ff166127106125d8565b61ffff16905060005b60065460ff61010090910481169082161015610c0a5781838260ff1681518110610bed57610bed612529565b602090810291909101015280610c02816125f9565b915050610bc1565b5050610c97565b60005b60065460ff61010090910481169082161015610c955782600c8260ff1681548110610c4157610c41612529565b9060005260206000200154612710610c599190612581565b610c6391906125ae565b828260ff1681518110610c7857610c78612529565b602090810291909101015280610c8d816125f9565b915050610c14565b505b92915050565b6000546001600160a01b03163314610cc85760405163ea8e4eb560e01b815260040160405180910390fd5b6001546001600160a01b031615610cf257604051630dcdc26f60e21b815260040160405180910390fd5b6001600160a01b038116610d195760405163162908e360e11b815260040160405180910390fd5b600180546001600160a01b0319166001600160a01b0392909216919091179055565b60065460009060ff610100909104811690841610610d5b57506000610c97565b6000610d656113d6565b905080600003610d79576000915050610c97565b80600c8560ff1681548110610d9057610d90612529565b906000526020600020015484610da69190612581565b610db091906125ae565b949350505050565b6006546060906000908190610100900460ff1667ffffffffffffffff811115610de357610de36125c2565b604051908082528060200260200182016040528015610e0c578160200160208202803683370190505b50905060005b60065460ff61010090910481169082161015610e81576001600160a01b0385166000908152600a6020908152604080832060ff85168085529252909120548351909184918110610e6457610e64612529565b602090810291909101015280610e79816125f9565b915050610e12565b506001600160a01b039093166000908152600b6020526040902054929360ff90931692915050565b6000546001600160a01b03163314610ed45760405163ea8e4eb560e01b815260040160405180910390fd5b600060065460ff166002811115610eed57610eed612192565b14610f0b57604051635a90bb8d60e11b815260040160405180910390fd5b600454421015610f2e5760405163493ab14960e11b815260040160405180910390fd5b6000819003610f50576040516362a0260560e01b815260040160405180910390fd5b600654610100900460ff16811115610f7b57604051632375825160e21b815260040160405180910390fd5b60005b81811015611089576000838383818110610f9a57610f9a612529565b9050602002016020810190610faf91906123e8565b60065490915060ff610100909104811690821610610fe057604051632a71953160e01b815260040160405180910390fd5b60088160ff1681548110610ff657610ff6612529565b90600052602060002090602091828204019190069054906101000a900460ff1615611034576040516305a1e9cd60e11b815260040160405180910390fd5b600160088260ff168154811061104c5761104c612529565b90600052602060002090602091828204019190066101000a81548160ff02191690831515021790555050808061108190612568565b915050610f7e565b5060098054600160ff1991821681179092556006805490911690911790557f442db8bb9fc4313fc02c098d0fd4d70fead65b4deca9c5087724e3f02927c20882826110d26113d6565b6040516110e193929190612618565b60405180910390a15050565b6001546001600160a01b0316331461111857604051635d154fe160e11b815260040160405180910390fd5b600060065460ff16600281111561113157611131612192565b1461114f57604051635a90bb8d60e11b815260040160405180910390fd5b6004544210156111725760405163493ab14960e11b815260040160405180910390fd5b6000819003611194576040516362a0260560e01b815260040160405180910390fd5b600654610100900460ff168111156111bf57604051632375825160e21b815260040160405180910390fd5b60005b818110156110895760008383838181106111de576111de612529565b90506020020160208101906111f391906123e8565b60065490915060ff61010090910481169082161061122457604051632a71953160e01b815260040160405180910390fd5b60088160ff168154811061123a5761123a612529565b90600052602060002090602091828204019190069054906101000a900460ff1615611278576040516305a1e9cd60e11b815260040160405180910390fd5b600160088260ff168154811061129057611290612529565b90600052602060002090602091828204019190066101000a81548160ff0219169083151502179055505080806112c590612568565b9150506111c2565b6000546001600160a01b031633146112f85760405163ea8e4eb560e01b815260040160405180910390fd5b600060065460ff16600281111561131157611311612192565b1461132f57604051635a90bb8d60e11b815260040160405180910390fd5b6006805460ff1916600217905560405133907f996fafab197beb99fff6fdc975bb6cf90352f2c733c76ef37c2e27f17d7d424b90600090a2565b6002546040516370a0823160e01b81523060048201526000916001600160a01b0316906370a0823190602401602060405180830381865afa1580156113b2573d6000803e3d6000fd5b505050506040513d601f19601f8201168201806040525081019061053f9190612666565b600080805b60065460ff6101009091048116908216101561143157600c8160ff168154811061140757611407612529565b90600052602060002001548261141d9190612555565b915080611429816125f9565b9150506113db565b50919050565b60065460009060ff61010090910481169083161061146857604051632a71953160e01b815260040160405180910390fd5b60006114726113d6565b90508060000361149e5760065461149390610100900460ff166127106125d8565b61ffff169392505050565b80600c8460ff16815481106114b5576114b5612529565b90600052602060002001546127106114cd9190612581565b61091391906125ae565b60606007805480602002602001604051908101604052809291908181526020016000905b828210156115a757838290600052602060002001805461151a906124f5565b80601f0160208091040260200160405190810160405280929190818152602001828054611546906124f5565b80156115935780601f1061156857610100808354040283529160200191611593565b820191906000526020600020905b81548152906001019060200180831161157657829003601f168201915b5050505050815260200190600101906114fb565b50505050905090565b600d5460ff16156115d4576040516345f5ce8b60e11b815260040160405180910390fd5b600d805460ff1916600190811790915560065460ff1660028111156115fb576115fb612192565b146116195760405163174b639360e11b815260040160405180910390fd5b336000908152600b602052604090205460ff161561164a57604051630c8d9eab60e31b815260040160405180910390fd5b60008060005b60065460ff6101009091048116908216101561170c5760088160ff168154811061167c5761167c612529565b90600052602060002090602091828204019190069054906101000a900460ff16156116fa57336000908152600a6020908152604080832060ff851684529091529020546116c99084612555565b9250600c8160ff16815481106116e1576116e1612529565b9060005260206000200154826116f79190612555565b91505b80611704816125f9565b915050611650565b508160000361172e576040516312d37ee560e31b815260040160405180910390fd5b60006117386113d6565b90506000826117478386612581565b61175191906125ae565b336000908152600b60205260408120805460ff191660011790559091505b60065460ff610100909104811690821610156117b557336000908152600a6020908152604080832060ff85168452909152812055806117ad816125f9565b91505061176f565b5060025460405163a9059cbb60e01b8152336004820152602481018390526000916001600160a01b03169063a9059cbb906044016020604051808303816000875af1158015611808573d6000803e3d6000fd5b505050506040513d601f19601f8201168201806040525081019061182c919061267f565b90508061184c576040516312171d8360e31b815260040160405180910390fd5b60405182815233907fd8138f8a3f377c5259ca548e70e4c2de94f129f5a11036a15b69513cba2b426a906020015b60405180910390a25050600d805460ff19169055505050565b600d5460ff16156118b7576040516345f5ce8b60e11b815260040160405180910390fd5b600d805460ff19166001179055600260065460ff1660028111156118dd576118dd612192565b146118fb57604051630a5a0fc560e31b815260040160405180910390fd5b6000805b60065460ff6101009091048116908216101561196f57336000908152600a6020908152604080832060ff8516845290915290205461193d9083612555565b336000908152600a6020908152604080832060ff86168452909152812055915080611967816125f9565b9150506118ff565b50806000036119915760405163f76aef6560e01b815260040160405180910390fd5b60025460405163a9059cbb60e01b8152336004820152602481018390526000916001600160a01b03169063a9059cbb906044016020604051808303816000875af11580156119e3573d6000803e3d6000fd5b505050506040513d601f19601f82011682018060405250810190611a07919061267f565b905080611a27576040516312171d8360e31b815260040160405180910390fd5b60405182815233907fd7dee2702d63ad89917b6a4da9981c90c4d24f8c2bdfd64c604ecae57d8d06519060200160405180910390a25050600d805460ff19169055565b60065460009060ff610100909104811690831610611a8a57506000610c97565b506001600160a01b0382166000908152600a6020908152604080832060ff8516845290915290205492915050565b6060600c80548060200260200160405190810160405280929190818152602001828054801561098857602002820191906000526020600020905b815481526020019060010190808311611af2575050505050905090565b60006004544210611b205750600090565b4260045461053f91906126a1565b600060065460ff166002811115611b4757611b47612192565b14611b6557604051635a90bb8d60e11b815260040160405180910390fd5b6004544210611b875760405163262b753160e21b815260040160405180910390fd5b600d5460ff1615611bab576040516345f5ce8b60e11b815260040160405180910390fd5b600d805460ff19166001179055600654610100900460ff90811690831610611be657604051632a71953160e01b815260040160405180910390fd5b80600003611c075760405163162908e360e11b815260040160405180910390fd5b6002546040516323b872dd60e01b8152336004820152306024820152604481018390526000916001600160a01b0316906323b872dd906064016020604051808303816000875af1158015611c5f573d6000803e3d6000fd5b505050506040513d601f19601f82011682018060405250810190611c83919061267f565b905080611ca3576040516312171d8360e31b815260040160405180910390fd5b336000908152600a6020908152604080832060ff8716845290915281208054849290611cd0908490612555565b9250508190555081600c8460ff1681548110611cee57611cee612529565b906000526020600020016000828254611d079190612555565b90915550506040805160ff851681526020810184905233917f2af4933e21b80ecd7f6a3577faeee6c93449142bd87ddfa24a82b344be71dd17910160405180910390a25050600d805460ff1916905550565b60078181548110611d6957600080fd5b906000526020600020016000915090508054610a80906124f5565b600060065460ff166002811115611d9d57611d9d612192565b14611dbb57604051635a90bb8d60e11b815260040160405180910390fd5b6004544210611ddd5760405163262b753160e21b815260040160405180910390fd5b600d5460ff1615611e01576040516345f5ce8b60e11b815260040160405180910390fd5b600d805460ff19166001179055600654610100900460ff90811690831610611e3c57604051632a71953160e01b815260040160405180910390fd5b80600003611e5d5760405163162908e360e11b815260040160405180910390fd5b336000908152600a6020908152604080832060ff86168452909152902054811115611e9b57604051633999656760e01b815260040160405180910390fd5b6000611ea56113d6565b905080600003611ec85760405163bb55fd2760e01b815260040160405180910390fd5b600081600c8560ff1681548110611ee157611ee1612529565b906000526020600020015484611ef79190612581565b611f0191906125ae565b6002546040516370a0823160e01b815230600482015291925082916001600160a01b03909116906370a0823190602401602060405180830381865afa158015611f4e573d6000803e3d6000fd5b505050506040513d601f19601f82011682018060405250810190611f729190612666565b1015611f915760405163bb55fd2760e01b815260040160405180910390fd5b336000908152600a6020908152604080832060ff8816845290915281208054859290611fbe9084906126a1565b9250508190555082600c8560ff1681548110611fdc57611fdc612529565b906000526020600020016000828254611ff591906126a1565b909155505060025460405163a9059cbb60e01b8152336004820152602481018390526000916001600160a01b03169063a9059cbb906044016020604051808303816000875af115801561204c573d6000803e3d6000fd5b505050506040513d601f19601f82011682018060405250810190612070919061267f565b905080612090576040516312171d8360e31b815260040160405180910390fd5b6040805160ff871681526020810186905290810183905233907faa68026cba73386b81aaef0208a11ad1c3f8d1306cf0734631f076b7baea05ba9060600161187a565b80356001600160a01b03811681146120ea57600080fd5b919050565b803560ff811681146120ea57600080fd5b6000806040838503121561211357600080fd5b61211c836120d3565b915061212a602084016120ef565b90509250929050565b60006020828403121561214557600080fd5b5035919050565b6000815180845260005b8181101561217257602081850181015186830182015201612156565b506000602082860101526020601f19601f83011685010191505092915050565b634e487b7160e01b600052602160045260246000fd5b600381106121c657634e487b7160e01b600052602160045260246000fd5b9052565b600082825180855260208086019550808260051b84010181860160005b8481101561221557601f1986840301895261220383835161214c565b988401989250908301906001016121e7565b5090979650505050505050565b600081518084526020808501945080840160005b8381101561225257815187529582019590820190600101612236565b509495945050505050565b600081518084526020808501945080840160005b83811015612252578151151587529582019590820190600101612271565b6001600160a01b038c811682528b166020820152610160604082018190526000906122bc8382018d61214c565b90508a60608401528960808401526122d760a084018a6121a8565b60ff881660c084015282810360e08401526122f281886121ca565b90508281036101008401526123078187612222565b905082810361012084015261231c818661225d565b915050826101408301529c9b505050505050505050505050565b60008083601f84011261234857600080fd5b50813567ffffffffffffffff81111561236057600080fd5b6020830191508360208260051b850101111561237b57600080fd5b9250929050565b60008060006040848603121561239757600080fd5b6123a0846120d3565b9250602084013567ffffffffffffffff8111156123bc57600080fd5b6123c886828701612336565b9497909650939450505050565b602081526000610913602083018461225d565b6000602082840312156123fa57600080fd5b610913826120ef565b602081526000610913602083018461214c565b6020815260006109136020830184612222565b60006020828403121561243b57600080fd5b610913826120d3565b6000806040838503121561245757600080fd5b612460836120ef565b946020939093013593505050565b6040815260006124816040830185612222565b905082151560208301529392505050565b600080602083850312156124a557600080fd5b823567ffffffffffffffff8111156124bc57600080fd5b6124c885828601612336565b90969095509350505050565b60208152600061091360208301846121ca565b60208101610c9782846121a8565b600181811c9082168061250957607f821691505b60208210810361143157634e487b7160e01b600052602260045260246000fd5b634e487b7160e01b600052603260045260246000fd5b634e487b7160e01b600052601160045260246000fd5b80820180821115610c9757610c9761253f565b60006001820161257a5761257a61253f565b5060010190565b8082028115828204841417610c9757610c9761253f565b634e487b7160e01b600052601260045260246000fd5b6000826125bd576125bd612598565b500490565b634e487b7160e01b600052604160045260246000fd5b600061ffff808416806125ed576125ed612598565b92169190910492915050565b600060ff821660ff810361260f5761260f61253f565b60010192915050565b6040808252810183905260008460608301825b868110156126535760ff61263e846120ef565b1682526020928301929091019060010161262b565b5060209390930193909352509392505050565b60006020828403121561267857600080fd5b5051919050565b60006020828403121561269157600080fd5b8151801515811461091357600080fd5b81810381811115610c9757610c9761253f56fea2646970667358221220a8318ec8e4c2f898f7273ad6905f853e9a6f66a0007ed8c5584952eaf41106d864736f6c63430008140033a26469706673582212202ee69e92fd80c3507fe729dd41173cef37130f8e619c7cbaf0361ec1c6897b0464736f6c63430008140033","opcodes":"PUSH1 0x80 PUSH1 0x40 MSTORE CALLVALUE DUP1 ISZERO PUSH2 0x10 JUMPI PUSH1 0x0 DUP1 REVERT JUMPDEST POP PUSH1 0x40 MLOAD PUSH2 0x44A0 CODESIZE SUB DUP1 PUSH2 0x44A0 DUP4 CODECOPY DUP2 ADD PUSH1 0x40 DUP2 SWAP1 MSTORE PUSH2 0x2F SWAP2 PUSH2 0x89 JUMP JUMPDEST PUSH1 0x1 PUSH1 0x1 PUSH1 0xA0 SHL SUB DUP2 AND PUSH2 0x56 JUMPI PUSH1 0x40 MLOAD PUSH4 0xC1AB6DC1 PUSH1 0xE0 SHL DUP2 MSTORE PUSH1 0x4 ADD PUSH1 0x40 MLOAD DUP1 SWAP2 SUB SWAP1 REVERT JUMPDEST PUSH1 0x0 DUP1 SLOAD CALLER PUSH1 0x1 PUSH1 0x1 PUSH1 0xA0 SHL SUB NOT SWAP2 DUP3 AND OR SWAP1 SWAP2 SSTORE PUSH1 0x1 DUP1 SLOAD SWAP1 SWAP2 AND PUSH1 0x1 PUSH1 0x1 PUSH1 0xA0 SHL SUB SWAP3 SWAP1 SWAP3 AND SWAP2 SWAP1 SWAP2 OR SWAP1 SSTORE PUSH2 0xB9 JUMP JUMPDEST PUSH1 0x0 PUSH1 0x20 DUP3 DUP5 SUB SLT ISZERO PUSH2 0x9B JUMPI PUSH1 0x0 DUP1 REVERT JUMPDEST DUP2 MLOAD PUSH1 0x1 PUSH1 0x1 PUSH1 0xA0 SHL SUB DUP2 AND DUP2 EQ PUSH2 0xB2 JUMPI PUSH1 0x0 DUP1 REVERT JUMPDEST SWAP4 SWAP3 POP POP POP JUMP JUMPDEST PUSH2 0x43D8 DUP1 PUSH2 0xC8 PUSH1 0x0 CODECOPY PUSH1 0x0 RETURN INVALID PUSH1 0x80 PUSH1 0x40 MSTORE CALLVALUE DUP1 ISZERO PUSH3 0x11 JUMPI PUSH1 0x0 DUP1 REVERT JUMPDEST POP PUSH1 0x4 CALLDATASIZE LT PUSH3 0x115 JUMPI PUSH1 0x0 CALLDATALOAD PUSH1 0xE0 SHR DUP1 PUSH4 0xA5E973C3 GT PUSH3 0xA3 JUMPI DUP1 PUSH4 0xC66485B2 GT PUSH3 0x6E JUMPI DUP1 PUSH4 0xC66485B2 EQ PUSH3 0x264 JUMPI DUP1 PUSH4 0xE1E966DC EQ PUSH3 0x27B JUMPI DUP1 PUSH4 0xE99C80BD EQ PUSH3 0x292 JUMPI DUP1 PUSH4 0xF2FDE38B EQ PUSH3 0x2A9 JUMPI PUSH1 0x0 DUP1 REVERT JUMPDEST DUP1 PUSH4 0xA5E973C3 EQ PUSH3 0x201 JUMPI DUP1 PUSH4 0xAEC572F9 EQ PUSH3 0x21A JUMPI DUP1 PUSH4 0xB0772D0B EQ PUSH3 0x241 JUMPI DUP1 PUSH4 0xC60D4FB4 EQ PUSH3 0x24B JUMPI PUSH1 0x0 DUP1 REVERT JUMPDEST DUP1 PUSH4 0x81EBF209 GT PUSH3 0xE4 JUMPI DUP1 PUSH4 0x81EBF209 EQ PUSH3 0x1B0 JUMPI DUP1 PUSH4 0x824CE5C3 EQ PUSH3 0x1C2 JUMPI DUP1 PUSH4 0x828EAB0E EQ PUSH3 0x1D9 JUMPI DUP1 PUSH4 0x8DA5CB5B EQ PUSH3 0x1ED JUMPI PUSH1 0x0 DUP1 REVERT JUMPDEST DUP1 PUSH4 0xBD98782 EQ PUSH3 0x11A JUMPI DUP1 PUSH4 0x13BA3D14 EQ PUSH3 0x14B JUMPI DUP1 PUSH4 0x52D84D1E EQ PUSH3 0x162 JUMPI DUP1 PUSH4 0x58E6309F EQ PUSH3 0x179 JUMPI JUMPDEST PUSH1 0x0 DUP1 REVERT JUMPDEST PUSH1 0x1 SLOAD PUSH3 0x12E SWAP1 PUSH1 0x1 PUSH1 0x1 PUSH1 0xA0 SHL SUB AND DUP2 JUMP JUMPDEST PUSH1 0x40 MLOAD PUSH1 0x1 PUSH1 0x1 PUSH1 0xA0 SHL SUB SWAP1 SWAP2 AND DUP2 MSTORE PUSH1 0x20 ADD JUMPDEST PUSH1 0x40 MLOAD DUP1 SWAP2 SUB SWAP1 RETURN JUMPDEST PUSH3 0x12E PUSH3 0x15C CALLDATASIZE PUSH1 0x4 PUSH3 0xD33 JUMP JUMPDEST PUSH3 0x2C0 JUMP JUMPDEST PUSH3 0x12E PUSH3 0x173 CALLDATASIZE PUSH1 0x4 PUSH3 0xD62 JUMP JUMPDEST PUSH3 0x2F9 JUMP JUMPDEST PUSH3 0x19F PUSH3 0x18A CALLDATASIZE PUSH1 0x4 PUSH3 0xD7C JUMP JUMPDEST PUSH1 0x5 PUSH1 0x20 MSTORE PUSH1 0x0 SWAP1 DUP2 MSTORE PUSH1 0x40 SWAP1 KECCAK256 SLOAD PUSH1 0xFF AND DUP2 JUMP JUMPDEST PUSH1 0x40 MLOAD SWAP1 ISZERO ISZERO DUP2 MSTORE PUSH1 0x20 ADD PUSH3 0x142 JUMP JUMPDEST PUSH1 0x3 SLOAD PUSH1 0x40 MLOAD SWAP1 DUP2 MSTORE PUSH1 0x20 ADD PUSH3 0x142 JUMP JUMPDEST PUSH3 0x12E PUSH3 0x1D3 CALLDATASIZE PUSH1 0x4 PUSH3 0xF0F JUMP JUMPDEST PUSH3 0x324 JUMP JUMPDEST PUSH1 0x2 SLOAD PUSH3 0x12E SWAP1 PUSH1 0x1 PUSH1 0x1 PUSH1 0xA0 SHL SUB AND DUP2 JUMP JUMPDEST PUSH1 0x0 SLOAD PUSH3 0x12E SWAP1 PUSH1 0x1 PUSH1 0x1 PUSH1 0xA0 SHL SUB AND DUP2 JUMP JUMPDEST PUSH3 0x20B PUSH3 0x3A0 JUMP JUMPDEST PUSH1 0x40 MLOAD PUSH3 0x142 SWAP2 SWAP1 PUSH3 0xFC9 JUMP JUMPDEST PUSH3 0x231 PUSH3 0x22B CALLDATASIZE PUSH1 0x4 PUSH3 0xFDE JUMP JUMPDEST PUSH3 0x61C JUMP JUMPDEST PUSH1 0x40 MLOAD PUSH3 0x142 SWAP3 SWAP2 SWAP1 PUSH3 0x1001 JUMP JUMPDEST PUSH3 0x20B PUSH3 0x74E JUMP JUMPDEST PUSH3 0x262 PUSH3 0x25C CALLDATASIZE PUSH1 0x4 PUSH3 0xD7C JUMP JUMPDEST PUSH3 0x7B2 JUMP JUMPDEST STOP JUMPDEST PUSH3 0x262 PUSH3 0x275 CALLDATASIZE PUSH1 0x4 PUSH3 0xD7C JUMP JUMPDEST PUSH3 0x850 JUMP JUMPDEST PUSH3 0x12E PUSH3 0x28C CALLDATASIZE PUSH1 0x4 PUSH3 0x1025 JUMP JUMPDEST PUSH3 0x8C6 JUMP JUMPDEST PUSH3 0x20B PUSH3 0x2A3 CALLDATASIZE PUSH1 0x4 PUSH3 0xD7C JUMP JUMPDEST PUSH3 0xBF0 JUMP JUMPDEST PUSH3 0x262 PUSH3 0x2BA CALLDATASIZE PUSH1 0x4 PUSH3 0xD7C JUMP JUMPDEST PUSH3 0xC68 JUMP JUMPDEST PUSH1 0x4 PUSH1 0x20 MSTORE DUP2 PUSH1 0x0 MSTORE PUSH1 0x40 PUSH1 0x0 KECCAK256 DUP2 DUP2 SLOAD DUP2 LT PUSH3 0x2DD JUMPI PUSH1 0x0 DUP1 REVERT JUMPDEST PUSH1 0x0 SWAP2 DUP3 MSTORE PUSH1 0x20 SWAP1 SWAP2 KECCAK256 ADD SLOAD PUSH1 0x1 PUSH1 0x1 PUSH1 0xA0 SHL SUB AND SWAP2 POP DUP3 SWAP1 POP JUMP JUMPDEST PUSH1 0x3 DUP2 DUP2 SLOAD DUP2 LT PUSH3 0x30A JUMPI PUSH1 0x0 DUP1 REVERT JUMPDEST PUSH1 0x0 SWAP2 DUP3 MSTORE PUSH1 0x20 SWAP1 SWAP2 KECCAK256 ADD SLOAD PUSH1 0x1 PUSH1 0x1 PUSH1 0xA0 SHL SUB AND SWAP1 POP DUP2 JUMP JUMPDEST PUSH1 0x40 MLOAD PUSH4 0x387A59B7 PUSH1 0xE2 SHL DUP2 MSTORE PUSH1 0x0 SWAP1 ADDRESS SWAP1 PUSH4 0xE1E966DC SWAP1 PUSH3 0x352 SWAP1 DUP8 SWAP1 DUP8 SWAP1 DUP7 SWAP1 DUP9 SWAP1 PUSH1 0x4 ADD PUSH3 0x1151 JUMP JUMPDEST PUSH1 0x20 PUSH1 0x40 MLOAD DUP1 DUP4 SUB DUP2 PUSH1 0x0 DUP8 GAS CALL ISZERO DUP1 ISZERO PUSH3 0x372 JUMPI RETURNDATASIZE PUSH1 0x0 DUP1 RETURNDATACOPY RETURNDATASIZE PUSH1 0x0 REVERT JUMPDEST POP POP POP POP PUSH1 0x40 MLOAD RETURNDATASIZE PUSH1 0x1F NOT PUSH1 0x1F DUP3 ADD AND DUP3 ADD DUP1 PUSH1 0x40 MSTORE POP DUP2 ADD SWAP1 PUSH3 0x398 SWAP2 SWAP1 PUSH3 0x119B JUMP JUMPDEST SWAP5 SWAP4 POP POP POP POP JUMP JUMPDEST PUSH1 0x60 PUSH1 0x0 DUP1 JUMPDEST PUSH1 0x3 SLOAD DUP2 LT ISZERO PUSH3 0x484 JUMPI PUSH1 0x0 PUSH1 0x3 DUP3 DUP2 SLOAD DUP2 LT PUSH3 0x3C9 JUMPI PUSH3 0x3C9 PUSH3 0x11BB JUMP JUMPDEST PUSH1 0x0 SWAP2 DUP3 MSTORE PUSH1 0x20 DUP3 KECCAK256 ADD SLOAD PUSH1 0x1 PUSH1 0x1 PUSH1 0xA0 SHL SUB AND SWAP2 POP DUP2 PUSH1 0x1 PUSH1 0x1 PUSH1 0xA0 SHL SUB AND PUSH4 0xE0E081D7 PUSH1 0x40 MLOAD DUP2 PUSH4 0xFFFFFFFF AND PUSH1 0xE0 SHL DUP2 MSTORE PUSH1 0x4 ADD PUSH1 0x20 PUSH1 0x40 MLOAD DUP1 DUP4 SUB DUP2 DUP7 GAS STATICCALL ISZERO DUP1 ISZERO PUSH3 0x41E JUMPI RETURNDATASIZE PUSH1 0x0 DUP1 RETURNDATACOPY RETURNDATASIZE PUSH1 0x0 REVERT JUMPDEST POP POP POP POP PUSH1 0x40 MLOAD RETURNDATASIZE PUSH1 0x1F NOT PUSH1 0x1F DUP3 ADD AND DUP3 ADD DUP1 PUSH1 0x40 MSTORE POP DUP2 ADD SWAP1 PUSH3 0x444 SWAP2 SWAP1 PUSH3 0x11E7 JUMP JUMPDEST PUSH1 0x2 DUP2 GT ISZERO PUSH3 0x458 JUMPI PUSH3 0x458 PUSH3 0x11D1 JUMP JUMPDEST SUB PUSH3 0x46E JUMPI DUP3 PUSH3 0x46A DUP2 PUSH3 0x1220 JUMP JUMPDEST SWAP4 POP POP JUMPDEST POP DUP1 PUSH3 0x47B DUP2 PUSH3 0x1220 JUMP JUMPDEST SWAP2 POP POP PUSH3 0x3A6 JUMP JUMPDEST POP PUSH1 0x0 DUP2 PUSH8 0xFFFFFFFFFFFFFFFF DUP2 GT ISZERO PUSH3 0x4A3 JUMPI PUSH3 0x4A3 PUSH3 0xDA3 JUMP JUMPDEST PUSH1 0x40 MLOAD SWAP1 DUP1 DUP3 MSTORE DUP1 PUSH1 0x20 MUL PUSH1 0x20 ADD DUP3 ADD PUSH1 0x40 MSTORE DUP1 ISZERO PUSH3 0x4CD JUMPI DUP2 PUSH1 0x20 ADD PUSH1 0x20 DUP3 MUL DUP1 CALLDATASIZE DUP4 CALLDATACOPY ADD SWAP1 POP JUMPDEST POP SWAP1 POP PUSH1 0x0 DUP1 JUMPDEST PUSH1 0x3 SLOAD DUP2 LT ISZERO PUSH3 0x613 JUMPI PUSH1 0x0 PUSH1 0x3 DUP3 DUP2 SLOAD DUP2 LT PUSH3 0x4F7 JUMPI PUSH3 0x4F7 PUSH3 0x11BB JUMP JUMPDEST PUSH1 0x0 SWAP2 DUP3 MSTORE PUSH1 0x20 DUP3 KECCAK256 ADD SLOAD PUSH1 0x1 PUSH1 0x1 PUSH1 0xA0 SHL SUB AND SWAP2 POP DUP2 PUSH1 0x1 PUSH1 0x1 PUSH1 0xA0 SHL SUB AND PUSH4 0xE0E081D7 PUSH1 0x40 MLOAD DUP2 PUSH4 0xFFFFFFFF AND PUSH1 0xE0 SHL DUP2 MSTORE PUSH1 0x4 ADD PUSH1 0x20 PUSH1 0x40 MLOAD DUP1 DUP4 SUB DUP2 DUP7 GAS STATICCALL ISZERO DUP1 ISZERO PUSH3 0x54C JUMPI RETURNDATASIZE PUSH1 0x0 DUP1 RETURNDATACOPY RETURNDATASIZE PUSH1 0x0 REVERT JUMPDEST POP POP POP POP PUSH1 0x40 MLOAD RETURNDATASIZE PUSH1 0x1F NOT PUSH1 0x1F DUP3 ADD AND DUP3 ADD DUP1 PUSH1 0x40 MSTORE POP DUP2 ADD SWAP1 PUSH3 0x572 SWAP2 SWAP1 PUSH3 0x11E7 JUMP JUMPDEST PUSH1 0x2 DUP2 GT ISZERO PUSH3 0x586 JUMPI PUSH3 0x586 PUSH3 0x11D1 JUMP JUMPDEST SUB PUSH3 0x5FD JUMPI PUSH1 0x3 DUP3 DUP2 SLOAD DUP2 LT PUSH3 0x5A2 JUMPI PUSH3 0x5A2 PUSH3 0x11BB JUMP JUMPDEST SWAP1 PUSH1 0x0 MSTORE PUSH1 0x20 PUSH1 0x0 KECCAK256 ADD PUSH1 0x0 SWAP1 SLOAD SWAP1 PUSH2 0x100 EXP SWAP1 DIV PUSH1 0x1 PUSH1 0x1 PUSH1 0xA0 SHL SUB AND DUP5 DUP5 DUP2 MLOAD DUP2 LT PUSH3 0x5D5 JUMPI PUSH3 0x5D5 PUSH3 0x11BB JUMP JUMPDEST PUSH1 0x1 PUSH1 0x1 PUSH1 0xA0 SHL SUB SWAP1 SWAP3 AND PUSH1 0x20 SWAP3 DUP4 MUL SWAP2 SWAP1 SWAP2 ADD SWAP1 SWAP2 ADD MSTORE DUP3 PUSH3 0x5F9 DUP2 PUSH3 0x1220 JUMP JUMPDEST SWAP4 POP POP JUMPDEST POP DUP1 PUSH3 0x60A DUP2 PUSH3 0x1220 JUMP JUMPDEST SWAP2 POP POP PUSH3 0x4D4 JUMP JUMPDEST POP SWAP1 SWAP4 SWAP3 POP POP POP JUMP JUMPDEST PUSH1 0x3 SLOAD PUSH1 0x60 SWAP1 DUP1 DUP5 LT PUSH3 0x641 JUMPI PUSH1 0x40 DUP1 MLOAD PUSH1 0x0 DUP2 MSTORE PUSH1 0x20 DUP2 ADD SWAP1 SWAP2 MSTORE SWAP2 POP PUSH3 0x747 JUMP JUMPDEST PUSH1 0x0 PUSH3 0x64F DUP5 DUP7 PUSH3 0x123C JUMP JUMPDEST SWAP1 POP DUP2 DUP2 GT ISZERO PUSH3 0x65D JUMPI POP DUP1 JUMPDEST PUSH1 0x0 PUSH3 0x66B DUP7 DUP4 PUSH3 0x1258 JUMP JUMPDEST SWAP1 POP DUP1 PUSH8 0xFFFFFFFFFFFFFFFF DUP2 GT ISZERO PUSH3 0x689 JUMPI PUSH3 0x689 PUSH3 0xDA3 JUMP JUMPDEST PUSH1 0x40 MLOAD SWAP1 DUP1 DUP3 MSTORE DUP1 PUSH1 0x20 MUL PUSH1 0x20 ADD DUP3 ADD PUSH1 0x40 MSTORE DUP1 ISZERO PUSH3 0x6B3 JUMPI DUP2 PUSH1 0x20 ADD PUSH1 0x20 DUP3 MUL DUP1 CALLDATASIZE DUP4 CALLDATACOPY ADD SWAP1 POP JUMPDEST POP SWAP4 POP PUSH1 0x0 JUMPDEST DUP2 DUP2 LT ISZERO PUSH3 0x743 JUMPI PUSH1 0x3 PUSH3 0x6D0 DUP3 DUP10 PUSH3 0x123C JUMP JUMPDEST DUP2 SLOAD DUP2 LT PUSH3 0x6E3 JUMPI PUSH3 0x6E3 PUSH3 0x11BB JUMP JUMPDEST SWAP1 PUSH1 0x0 MSTORE PUSH1 0x20 PUSH1 0x0 KECCAK256 ADD PUSH1 0x0 SWAP1 SLOAD SWAP1 PUSH2 0x100 EXP SWAP1 DIV PUSH1 0x1 PUSH1 0x1 PUSH1 0xA0 SHL SUB AND DUP6 DUP3 DUP2 MLOAD DUP2 LT PUSH3 0x716 JUMPI PUSH3 0x716 PUSH3 0x11BB JUMP JUMPDEST PUSH1 0x1 PUSH1 0x1 PUSH1 0xA0 SHL SUB SWAP1 SWAP3 AND PUSH1 0x20 SWAP3 DUP4 MUL SWAP2 SWAP1 SWAP2 ADD SWAP1 SWAP2 ADD MSTORE DUP1 PUSH3 0x73A DUP2 PUSH3 0x1220 JUMP JUMPDEST SWAP2 POP POP PUSH3 0x6B9 JUMP JUMPDEST POP POP POP JUMPDEST SWAP3 POP SWAP3 SWAP1 POP JUMP JUMPDEST PUSH1 0x60 PUSH1 0x3 DUP1 SLOAD DUP1 PUSH1 0x20 MUL PUSH1 0x20 ADD PUSH1 0x40 MLOAD SWAP1 DUP2 ADD PUSH1 0x40 MSTORE DUP1 SWAP3 SWAP2 SWAP1 DUP2 DUP2 MSTORE PUSH1 0x20 ADD DUP3 DUP1 SLOAD DUP1 ISZERO PUSH3 0x7A8 JUMPI PUSH1 0x20 MUL DUP3 ADD SWAP2 SWAP1 PUSH1 0x0 MSTORE PUSH1 0x20 PUSH1 0x0 KECCAK256 SWAP1 JUMPDEST DUP2 SLOAD PUSH1 0x1 PUSH1 0x1 PUSH1 0xA0 SHL SUB AND DUP2 MSTORE PUSH1 0x1 SWAP1 SWAP2 ADD SWAP1 PUSH1 0x20 ADD DUP1 DUP4 GT PUSH3 0x789 JUMPI JUMPDEST POP POP POP POP POP SWAP1 POP SWAP1 JUMP JUMPDEST PUSH1 0x0 SLOAD PUSH1 0x1 PUSH1 0x1 PUSH1 0xA0 SHL SUB AND CALLER EQ PUSH3 0x7DE JUMPI PUSH1 0x40 MLOAD PUSH4 0x30CD7471 PUSH1 0xE0 SHL DUP2 MSTORE PUSH1 0x4 ADD PUSH1 0x40 MLOAD DUP1 SWAP2 SUB SWAP1 REVERT JUMPDEST PUSH1 0x1 PUSH1 0x1 PUSH1 0xA0 SHL SUB DUP2 AND PUSH3 0x806 JUMPI PUSH1 0x40 MLOAD PUSH4 0xC1AB6DC1 PUSH1 0xE0 SHL DUP2 MSTORE PUSH1 0x4 ADD PUSH1 0x40 MLOAD DUP1 SWAP2 SUB SWAP1 REVERT JUMPDEST PUSH1 0x1 DUP1 SLOAD PUSH1 0x1 PUSH1 0x1 PUSH1 0xA0 SHL SUB NOT AND PUSH1 0x1 PUSH1 0x1 PUSH1 0xA0 SHL SUB DUP4 AND SWAP1 DUP2 OR SWAP1 SWAP2 SSTORE PUSH1 0x40 MLOAD PUSH32 0x2FFAE89A4970D1FF9BF1A765B00D7EEE23CD328CDAAAB85B7CE9E5379C1ECE32 SWAP1 PUSH1 0x0 SWAP1 LOG2 POP JUMP JUMPDEST PUSH1 0x0 SLOAD PUSH1 0x1 PUSH1 0x1 PUSH1 0xA0 SHL SUB AND CALLER EQ PUSH3 0x87C JUMPI PUSH1 0x40 MLOAD PUSH4 0x30CD7471 PUSH1 0xE0 SHL DUP2 MSTORE PUSH1 0x4 ADD PUSH1 0x40 MLOAD DUP1 SWAP2 SUB SWAP1 REVERT JUMPDEST PUSH1 0x2 DUP1 SLOAD PUSH1 0x1 PUSH1 0x1 PUSH1 0xA0 SHL SUB NOT AND PUSH1 0x1 PUSH1 0x1 PUSH1 0xA0 SHL SUB DUP4 AND SWAP1 DUP2 OR SWAP1 SWAP2 SSTORE PUSH1 0x40 MLOAD PUSH32 0x743E12BB7B0CEF03137D6C82257F44C9C2109A2F6AF62EF243166AAE5368BB91 SWAP1 PUSH1 0x0 SWAP1 LOG2 POP JUMP JUMPDEST PUSH1 0x0 DUP5 MLOAD PUSH1 0x0 SUB PUSH3 0x8EB JUMPI PUSH1 0x40 MLOAD PUSH4 0x103C3809 PUSH1 0xE3 SHL DUP2 MSTORE PUSH1 0x4 ADD PUSH1 0x40 MLOAD DUP1 SWAP2 SUB SWAP1 REVERT JUMPDEST TIMESTAMP DUP5 GT PUSH3 0x90C JUMPI PUSH1 0x40 MLOAD PUSH4 0x38AF65F7 PUSH1 0xE0 SHL DUP2 MSTORE PUSH1 0x4 ADD PUSH1 0x40 MLOAD DUP1 SWAP2 SUB SWAP1 REVERT JUMPDEST PUSH1 0x2 DUP3 MLOAD LT DUP1 PUSH3 0x91E JUMPI POP PUSH1 0x4 DUP3 MLOAD GT JUMPDEST ISZERO PUSH3 0x93D JUMPI PUSH1 0x40 MLOAD PUSH4 0x447074B5 PUSH1 0xE0 SHL DUP2 MSTORE PUSH1 0x4 ADD PUSH1 0x40 MLOAD DUP1 SWAP2 SUB SWAP1 REVERT JUMPDEST PUSH1 0x0 JUMPDEST DUP3 MLOAD DUP2 LT ISZERO PUSH3 0xA37 JUMPI DUP3 DUP2 DUP2 MLOAD DUP2 LT PUSH3 0x95F JUMPI PUSH3 0x95F PUSH3 0x11BB JUMP JUMPDEST PUSH1 0x20 MUL PUSH1 0x20 ADD ADD MLOAD MLOAD PUSH1 0x0 SUB PUSH3 0x989 JUMPI PUSH1 0x40 MLOAD PUSH4 0x3887F293 PUSH1 0xE1 SHL DUP2 MSTORE PUSH1 0x4 ADD PUSH1 0x40 MLOAD DUP1 SWAP2 SUB SWAP1 REVERT JUMPDEST PUSH1 0x0 PUSH3 0x998 DUP3 PUSH1 0x1 PUSH3 0x123C JUMP JUMPDEST SWAP1 POP JUMPDEST DUP4 MLOAD DUP2 LT ISZERO PUSH3 0xA21 JUMPI DUP4 DUP2 DUP2 MLOAD DUP2 LT PUSH3 0x9BA JUMPI PUSH3 0x9BA PUSH3 0x11BB JUMP JUMPDEST PUSH1 0x20 MUL PUSH1 0x20 ADD ADD MLOAD DUP1 MLOAD SWAP1 PUSH1 0x20 ADD KECCAK256 DUP5 DUP4 DUP2 MLOAD DUP2 LT PUSH3 0x9DE JUMPI PUSH3 0x9DE PUSH3 0x11BB JUMP JUMPDEST PUSH1 0x20 MUL PUSH1 0x20 ADD ADD MLOAD DUP1 MLOAD SWAP1 PUSH1 0x20 ADD KECCAK256 SUB PUSH3 0xA0C JUMPI PUSH1 0x40 MLOAD PUSH4 0x48A4BD6D PUSH1 0xE1 SHL DUP2 MSTORE PUSH1 0x4 ADD PUSH1 0x40 MLOAD DUP1 SWAP2 SUB SWAP1 REVERT JUMPDEST DUP1 PUSH3 0xA18 DUP2 PUSH3 0x1220 JUMP JUMPDEST SWAP2 POP POP PUSH3 0x99B JUMP JUMPDEST POP DUP1 PUSH3 0xA2E DUP2 PUSH3 0x1220 JUMP JUMPDEST SWAP2 POP POP PUSH3 0x940 JUMP JUMPDEST POP PUSH1 0x0 PUSH1 0x1 PUSH1 0x1 PUSH1 0xA0 SHL SUB DUP5 AND ISZERO PUSH3 0xA51 JUMPI DUP4 PUSH3 0xA5E JUMP JUMPDEST PUSH1 0x1 SLOAD PUSH1 0x1 PUSH1 0x1 PUSH1 0xA0 SHL SUB AND JUMPDEST SWAP1 POP PUSH1 0x0 CALLER DUP3 DUP9 DUP9 DUP8 PUSH1 0x40 MLOAD PUSH3 0xA75 SWAP1 PUSH3 0xD0C JUMP JUMPDEST PUSH3 0xA85 SWAP6 SWAP5 SWAP4 SWAP3 SWAP2 SWAP1 PUSH3 0x126E JUMP JUMPDEST PUSH1 0x40 MLOAD DUP1 SWAP2 SUB SWAP1 PUSH1 0x0 CREATE DUP1 ISZERO DUP1 ISZERO PUSH3 0xAA2 JUMPI RETURNDATASIZE PUSH1 0x0 DUP1 RETURNDATACOPY RETURNDATASIZE PUSH1 0x0 REVERT JUMPDEST POP PUSH1 0x2 SLOAD SWAP1 SWAP4 POP DUP4 SWAP2 POP PUSH1 0x1 PUSH1 0x1 PUSH1 0xA0 SHL SUB AND ISZERO PUSH3 0xB1D JUMPI PUSH1 0x2 SLOAD PUSH1 0x40 MLOAD PUSH4 0x272A1D93 PUSH1 0xE1 SHL DUP2 MSTORE PUSH1 0x1 PUSH1 0x1 PUSH1 0xA0 SHL SUB SWAP2 DUP3 AND PUSH1 0x4 DUP3 ADD MSTORE SWAP1 DUP3 AND SWAP1 PUSH4 0x4E543B26 SWAP1 PUSH1 0x24 ADD PUSH1 0x0 PUSH1 0x40 MLOAD DUP1 DUP4 SUB DUP2 PUSH1 0x0 DUP8 DUP1 EXTCODESIZE ISZERO DUP1 ISZERO PUSH3 0xB03 JUMPI PUSH1 0x0 DUP1 REVERT JUMPDEST POP GAS CALL ISZERO DUP1 ISZERO PUSH3 0xB18 JUMPI RETURNDATASIZE PUSH1 0x0 DUP1 RETURNDATACOPY RETURNDATASIZE PUSH1 0x0 REVERT JUMPDEST POP POP POP POP JUMPDEST PUSH1 0x3 DUP1 SLOAD PUSH1 0x1 DUP2 DUP2 ADD SWAP1 SWAP3 SSTORE PUSH32 0xC2575A0E9E593C00F959F8C92F12DB2869C3395A3B0502D05E2516446F71F85B ADD DUP1 SLOAD PUSH1 0x1 PUSH1 0x1 PUSH1 0xA0 SHL SUB DUP7 AND PUSH1 0x1 PUSH1 0x1 PUSH1 0xA0 SHL SUB NOT SWAP2 DUP3 AND DUP2 OR SWAP1 SWAP3 SSTORE CALLER PUSH1 0x0 DUP2 DUP2 MSTORE PUSH1 0x4 PUSH1 0x20 SWAP1 DUP2 MSTORE PUSH1 0x40 DUP1 DUP4 KECCAK256 DUP1 SLOAD DUP1 DUP10 ADD DUP3 SSTORE SWAP1 DUP5 MSTORE DUP3 DUP5 KECCAK256 ADD DUP1 SLOAD SWAP1 SWAP6 AND DUP7 OR SWAP1 SWAP5 SSTORE DUP5 DUP3 MSTORE PUSH1 0x5 SWAP1 MSTORE DUP3 SWAP1 KECCAK256 DUP1 SLOAD PUSH1 0xFF NOT AND SWAP1 SWAP5 OR SWAP1 SWAP4 SSTORE MLOAD PUSH32 0xB25C61408BD39498D98384CF5E268BF78DFBC7CFE8A5DC526393C0E796D9ECD7 SWAP1 PUSH3 0xBDE SWAP1 DUP12 SWAP1 DUP12 SWAP1 DUP9 SWAP1 DUP12 SWAP1 PUSH3 0x1151 JUMP JUMPDEST PUSH1 0x40 MLOAD DUP1 SWAP2 SUB SWAP1 LOG3 POP POP SWAP5 SWAP4 POP POP POP POP JUMP JUMPDEST PUSH1 0x1 PUSH1 0x1 PUSH1 0xA0 SHL SUB DUP2 AND PUSH1 0x0 SWAP1 DUP2 MSTORE PUSH1 0x4 PUSH1 0x20 SWAP1 DUP2 MSTORE PUSH1 0x40 SWAP2 DUP3 SWAP1 KECCAK256 DUP1 SLOAD DUP4 MLOAD DUP2 DUP5 MUL DUP2 ADD DUP5 ADD SWAP1 SWAP5 MSTORE DUP1 DUP5 MSTORE PUSH1 0x60 SWAP4 SWAP3 DUP4 ADD DUP3 DUP3 DUP1 ISZERO PUSH3 0xC5C JUMPI PUSH1 0x20 MUL DUP3 ADD SWAP2 SWAP1 PUSH1 0x0 MSTORE PUSH1 0x20 PUSH1 0x0 KECCAK256 SWAP1 JUMPDEST DUP2 SLOAD PUSH1 0x1 PUSH1 0x1 PUSH1 0xA0 SHL SUB AND DUP2 MSTORE PUSH1 0x1 SWAP1 SWAP2 ADD SWAP1 PUSH1 0x20 ADD DUP1 DUP4 GT PUSH3 0xC3D JUMPI JUMPDEST POP POP POP POP POP SWAP1 POP SWAP2 SWAP1 POP JUMP JUMPDEST PUSH1 0x0 SLOAD PUSH1 0x1 PUSH1 0x1 PUSH1 0xA0 SHL SUB AND CALLER EQ PUSH3 0xC94 JUMPI PUSH1 0x40 MLOAD PUSH4 0x30CD7471 PUSH1 0xE0 SHL DUP2 MSTORE PUSH1 0x4 ADD PUSH1 0x40 MLOAD DUP1 SWAP2 SUB SWAP1 REVERT JUMPDEST PUSH1 0x1 PUSH1 0x1 PUSH1 0xA0 SHL SUB DUP2 AND PUSH3 0xCBC JUMPI PUSH1 0x40 MLOAD PUSH4 0xC1AB6DC1 PUSH1 0xE0 SHL DUP2 MSTORE PUSH1 0x4 ADD PUSH1 0x40 MLOAD DUP1 SWAP2 SUB SWAP1 REVERT JUMPDEST PUSH1 0x0 DUP1 SLOAD PUSH1 0x1 PUSH1 0x1 PUSH1 0xA0 SHL SUB DUP4 DUP2 AND PUSH1 0x1 PUSH1 0x1 PUSH1 0xA0 SHL SUB NOT DUP4 AND DUP2 OR DUP5 SSTORE PUSH1 0x40 MLOAD SWAP2 SWAP1 SWAP3 AND SWAP3 DUP4 SWAP2 PUSH32 0x8BE0079C531659141344CD1FD0A4F28419497F9722A3DAAFE3B4186F6B6457E0 SWAP2 SWAP1 LOG3 POP POP JUMP JUMPDEST PUSH2 0x30EC DUP1 PUSH3 0x12B7 DUP4 CODECOPY ADD SWAP1 JUMP JUMPDEST PUSH1 0x1 PUSH1 0x1 PUSH1 0xA0 SHL SUB DUP2 AND DUP2 EQ PUSH3 0xD30 JUMPI PUSH1 0x0 DUP1 REVERT JUMPDEST POP JUMP JUMPDEST PUSH1 0x0 DUP1 PUSH1 0x40 DUP4 DUP6 SUB SLT ISZERO PUSH3 0xD47 JUMPI PUSH1 0x0 DUP1 REVERT JUMPDEST DUP3 CALLDATALOAD PUSH3 0xD54 DUP2 PUSH3 0xD1A JUMP JUMPDEST SWAP5 PUSH1 0x20 SWAP4 SWAP1 SWAP4 ADD CALLDATALOAD SWAP4 POP POP POP JUMP JUMPDEST PUSH1 0x0 PUSH1 0x20 DUP3 DUP5 SUB SLT ISZERO PUSH3 0xD75 JUMPI PUSH1 0x0 DUP1 REVERT JUMPDEST POP CALLDATALOAD SWAP2 SWAP1 POP JUMP JUMPDEST PUSH1 0x0 PUSH1 0x20 DUP3 DUP5 SUB SLT ISZERO PUSH3 0xD8F JUMPI PUSH1 0x0 DUP1 REVERT JUMPDEST DUP2 CALLDATALOAD PUSH3 0xD9C DUP2 PUSH3 0xD1A JUMP JUMPDEST SWAP4 SWAP3 POP POP POP JUMP JUMPDEST PUSH4 0x4E487B71 PUSH1 0xE0 SHL PUSH1 0x0 MSTORE PUSH1 0x41 PUSH1 0x4 MSTORE PUSH1 0x24 PUSH1 0x0 REVERT JUMPDEST PUSH1 0x40 MLOAD PUSH1 0x1F DUP3 ADD PUSH1 0x1F NOT AND DUP2 ADD PUSH8 0xFFFFFFFFFFFFFFFF DUP2 GT DUP3 DUP3 LT OR ISZERO PUSH3 0xDE5 JUMPI PUSH3 0xDE5 PUSH3 0xDA3 JUMP JUMPDEST PUSH1 0x40 MSTORE SWAP2 SWAP1 POP JUMP JUMPDEST PUSH1 0x0 DUP3 PUSH1 0x1F DUP4 ADD SLT PUSH3 0xDFF JUMPI PUSH1 0x0 DUP1 REVERT JUMPDEST DUP2 CALLDATALOAD PUSH8 0xFFFFFFFFFFFFFFFF DUP2 GT ISZERO PUSH3 0xE1C JUMPI PUSH3 0xE1C PUSH3 0xDA3 JUMP JUMPDEST PUSH3 0xE31 PUSH1 0x1F DUP3 ADD PUSH1 0x1F NOT AND PUSH1 0x20 ADD PUSH3 0xDB9 JUMP JUMPDEST DUP2 DUP2 MSTORE DUP5 PUSH1 0x20 DUP4 DUP7 ADD ADD GT ISZERO PUSH3 0xE47 JUMPI PUSH1 0x0 DUP1 REVERT JUMPDEST DUP2 PUSH1 0x20 DUP6 ADD PUSH1 0x20 DUP4 ADD CALLDATACOPY PUSH1 0x0 SWAP2 DUP2 ADD PUSH1 0x20 ADD SWAP2 SWAP1 SWAP2 MSTORE SWAP4 SWAP3 POP POP POP JUMP JUMPDEST PUSH1 0x0 DUP3 PUSH1 0x1F DUP4 ADD SLT PUSH3 0xE76 JUMPI PUSH1 0x0 DUP1 REVERT JUMPDEST DUP2 CALLDATALOAD PUSH1 0x20 PUSH8 0xFFFFFFFFFFFFFFFF DUP1 DUP4 GT ISZERO PUSH3 0xE96 JUMPI PUSH3 0xE96 PUSH3 0xDA3 JUMP JUMPDEST DUP3 PUSH1 0x5 SHL PUSH3 0xEA7 DUP4 DUP3 ADD PUSH3 0xDB9 JUMP JUMPDEST SWAP4 DUP5 MSTORE DUP6 DUP2 ADD DUP4 ADD SWAP4 DUP4 DUP2 ADD SWAP1 DUP9 DUP7 GT ISZERO PUSH3 0xEC2 JUMPI PUSH1 0x0 DUP1 REVERT JUMPDEST DUP5 DUP9 ADD SWAP3 POP JUMPDEST DUP6 DUP4 LT ISZERO PUSH3 0xF03 JUMPI DUP3 CALLDATALOAD DUP5 DUP2 GT ISZERO PUSH3 0xEE2 JUMPI PUSH1 0x0 DUP1 DUP2 REVERT JUMPDEST PUSH3 0xEF2 DUP11 DUP8 DUP4 DUP13 ADD ADD PUSH3 0xDED JUMP JUMPDEST DUP4 MSTORE POP SWAP2 DUP5 ADD SWAP2 SWAP1 DUP5 ADD SWAP1 PUSH3 0xEC8 JUMP JUMPDEST SWAP9 SWAP8 POP POP POP POP POP POP POP POP JUMP JUMPDEST PUSH1 0x0 DUP1 PUSH1 0x0 PUSH1 0x60 DUP5 DUP7 SUB SLT ISZERO PUSH3 0xF25 JUMPI PUSH1 0x0 DUP1 REVERT JUMPDEST DUP4 CALLDATALOAD PUSH8 0xFFFFFFFFFFFFFFFF DUP1 DUP3 GT ISZERO PUSH3 0xF3E JUMPI PUSH1 0x0 DUP1 REVERT JUMPDEST PUSH3 0xF4C DUP8 DUP4 DUP9 ADD PUSH3 0xDED JUMP JUMPDEST SWAP5 POP PUSH1 0x20 DUP7 ADD CALLDATALOAD SWAP4 POP PUSH1 0x40 DUP7 ADD CALLDATALOAD SWAP2 POP DUP1 DUP3 GT ISZERO PUSH3 0xF6A JUMPI PUSH1 0x0 DUP1 REVERT JUMPDEST POP PUSH3 0xF79 DUP7 DUP3 DUP8 ADD PUSH3 0xE64 JUMP JUMPDEST SWAP2 POP POP SWAP3 POP SWAP3 POP SWAP3 JUMP JUMPDEST PUSH1 0x0 DUP2 MLOAD DUP1 DUP5 MSTORE PUSH1 0x20 DUP1 DUP6 ADD SWAP5 POP DUP1 DUP5 ADD PUSH1 0x0 JUMPDEST DUP4 DUP2 LT ISZERO PUSH3 0xFBE JUMPI DUP2 MLOAD PUSH1 0x1 PUSH1 0x1 PUSH1 0xA0 SHL SUB AND DUP8 MSTORE SWAP6 DUP3 ADD SWAP6 SWAP1 DUP3 ADD SWAP1 PUSH1 0x1 ADD PUSH3 0xF97 JUMP JUMPDEST POP SWAP5 SWAP6 SWAP5 POP POP POP POP POP JUMP JUMPDEST PUSH1 0x20 DUP2 MSTORE PUSH1 0x0 PUSH3 0xD9C PUSH1 0x20 DUP4 ADD DUP5 PUSH3 0xF83 JUMP JUMPDEST PUSH1 0x0 DUP1 PUSH1 0x40 DUP4 DUP6 SUB SLT ISZERO PUSH3 0xFF2 JUMPI PUSH1 0x0 DUP1 REVERT JUMPDEST POP POP DUP1 CALLDATALOAD SWAP3 PUSH1 0x20 SWAP1 SWAP2 ADD CALLDATALOAD SWAP2 POP JUMP JUMPDEST PUSH1 0x40 DUP2 MSTORE PUSH1 0x0 PUSH3 0x1016 PUSH1 0x40 DUP4 ADD DUP6 PUSH3 0xF83 JUMP JUMPDEST SWAP1 POP DUP3 PUSH1 0x20 DUP4 ADD MSTORE SWAP4 SWAP3 POP POP POP JUMP JUMPDEST PUSH1 0x0 DUP1 PUSH1 0x0 DUP1 PUSH1 0x80 DUP6 DUP8 SUB SLT ISZERO PUSH3 0x103C JUMPI PUSH1 0x0 DUP1 REVERT JUMPDEST DUP5 CALLDATALOAD PUSH8 0xFFFFFFFFFFFFFFFF DUP1 DUP3 GT ISZERO PUSH3 0x1055 JUMPI PUSH1 0x0 DUP1 REVERT JUMPDEST PUSH3 0x1063 DUP9 DUP4 DUP10 ADD PUSH3 0xDED JUMP JUMPDEST SWAP6 POP PUSH1 0x20 DUP8 ADD CALLDATALOAD SWAP5 POP PUSH1 0x40 DUP8 ADD CALLDATALOAD SWAP2 POP PUSH3 0x107E DUP3 PUSH3 0xD1A JUMP JUMPDEST SWAP1 SWAP3 POP PUSH1 0x60 DUP7 ADD CALLDATALOAD SWAP1 DUP1 DUP3 GT ISZERO PUSH3 0x1095 JUMPI PUSH1 0x0 DUP1 REVERT JUMPDEST POP PUSH3 0x10A4 DUP8 DUP3 DUP9 ADD PUSH3 0xE64 JUMP JUMPDEST SWAP2 POP POP SWAP3 SWAP6 SWAP2 SWAP5 POP SWAP3 POP JUMP JUMPDEST PUSH1 0x0 DUP2 MLOAD DUP1 DUP5 MSTORE PUSH1 0x0 JUMPDEST DUP2 DUP2 LT ISZERO PUSH3 0x10D8 JUMPI PUSH1 0x20 DUP2 DUP6 ADD DUP2 ADD MLOAD DUP7 DUP4 ADD DUP3 ADD MSTORE ADD PUSH3 0x10BA JUMP JUMPDEST POP PUSH1 0x0 PUSH1 0x20 DUP3 DUP7 ADD ADD MSTORE PUSH1 0x20 PUSH1 0x1F NOT PUSH1 0x1F DUP4 ADD AND DUP6 ADD ADD SWAP2 POP POP SWAP3 SWAP2 POP POP JUMP JUMPDEST PUSH1 0x0 DUP2 MLOAD DUP1 DUP5 MSTORE PUSH1 0x20 DUP1 DUP6 ADD DUP1 DUP2 SWAP7 POP DUP4 PUSH1 0x5 SHL DUP2 ADD SWAP2 POP DUP3 DUP7 ADD PUSH1 0x0 JUMPDEST DUP6 DUP2 LT ISZERO PUSH3 0x1144 JUMPI DUP3 DUP5 SUB DUP10 MSTORE PUSH3 0x1131 DUP5 DUP4 MLOAD PUSH3 0x10B0 JUMP JUMPDEST SWAP9 DUP6 ADD SWAP9 SWAP4 POP SWAP1 DUP5 ADD SWAP1 PUSH1 0x1 ADD PUSH3 0x1116 JUMP JUMPDEST POP SWAP2 SWAP8 SWAP7 POP POP POP POP POP POP POP JUMP JUMPDEST PUSH1 0x80 DUP2 MSTORE PUSH1 0x0 PUSH3 0x1166 PUSH1 0x80 DUP4 ADD DUP8 PUSH3 0x10B0 JUMP JUMPDEST PUSH1 0x20 DUP4 ADD DUP7 SWAP1 MSTORE PUSH1 0x1 PUSH1 0x1 PUSH1 0xA0 SHL SUB DUP6 AND PUSH1 0x40 DUP5 ADD MSTORE DUP3 DUP2 SUB PUSH1 0x60 DUP5 ADD MSTORE PUSH3 0x1190 DUP2 DUP6 PUSH3 0x10F8 JUMP JUMPDEST SWAP8 SWAP7 POP POP POP POP POP POP POP JUMP JUMPDEST PUSH1 0x0 PUSH1 0x20 DUP3 DUP5 SUB SLT ISZERO PUSH3 0x11AE JUMPI PUSH1 0x0 DUP1 REVERT JUMPDEST DUP2 MLOAD PUSH3 0xD9C DUP2 PUSH3 0xD1A JUMP JUMPDEST PUSH4 0x4E487B71 PUSH1 0xE0 SHL PUSH1 0x0 MSTORE PUSH1 0x32 PUSH1 0x4 MSTORE PUSH1 0x24 PUSH1 0x0 REVERT JUMPDEST PUSH4 0x4E487B71 PUSH1 0xE0 SHL PUSH1 0x0 MSTORE PUSH1 0x21 PUSH1 0x4 MSTORE PUSH1 0x24 PUSH1 0x0 REVERT JUMPDEST PUSH1 0x0 PUSH1 0x20 DUP3 DUP5 SUB SLT ISZERO PUSH3 0x11FA JUMPI PUSH1 0x0 DUP1 REVERT JUMPDEST DUP2 MLOAD PUSH1 0x3 DUP2 LT PUSH3 0xD9C JUMPI PUSH1 0x0 DUP1 REVERT JUMPDEST PUSH4 0x4E487B71 PUSH1 0xE0 SHL PUSH1 0x0 MSTORE PUSH1 0x11 PUSH1 0x4 MSTORE PUSH1 0x24 PUSH1 0x0 REVERT JUMPDEST PUSH1 0x0 PUSH1 0x1 DUP3 ADD PUSH3 0x1235 JUMPI PUSH3 0x1235 PUSH3 0x120A JUMP JUMPDEST POP PUSH1 0x1 ADD SWAP1 JUMP JUMPDEST DUP1 DUP3 ADD DUP1 DUP3 GT ISZERO PUSH3 0x1252 JUMPI PUSH3 0x1252 PUSH3 0x120A JUMP JUMPDEST SWAP3 SWAP2 POP POP JUMP JUMPDEST DUP2 DUP2 SUB DUP2 DUP2 GT ISZERO PUSH3 0x1252 JUMPI PUSH3 0x1252 PUSH3 0x120A JUMP JUMPDEST PUSH1 0x1 PUSH1 0x1 PUSH1 0xA0 SHL SUB DUP7 DUP2 AND DUP3 MSTORE DUP6 AND PUSH1 0x20 DUP3 ADD MSTORE PUSH1 0xA0 PUSH1 0x40 DUP3 ADD DUP2 SWAP1 MSTORE PUSH1 0x0 SWAP1 PUSH3 0x129C SWAP1 DUP4 ADD DUP7 PUSH3 0x10B0 JUMP JUMPDEST DUP5 PUSH1 0x60 DUP5 ADD MSTORE DUP3 DUP2 SUB PUSH1 0x80 DUP5 ADD MSTORE PUSH3 0xF03 DUP2 DUP6 PUSH3 0x10F8 JUMP INVALID PUSH1 0x80 PUSH1 0x40 MSTORE CALLVALUE DUP1 ISZERO PUSH3 0x11 JUMPI PUSH1 0x0 DUP1 REVERT JUMPDEST POP PUSH1 0x40 MLOAD PUSH3 0x30EC CODESIZE SUB DUP1 PUSH3 0x30EC DUP4 CODECOPY DUP2 ADD PUSH1 0x40 DUP2 SWAP1 MSTORE PUSH3 0x34 SWAP2 PUSH3 0x650 JUMP JUMPDEST TIMESTAMP DUP3 GT PUSH3 0x55 JUMPI PUSH1 0x40 MLOAD PUSH4 0x38AF65F7 PUSH1 0xE0 SHL DUP2 MSTORE PUSH1 0x4 ADD PUSH1 0x40 MLOAD DUP1 SWAP2 SUB SWAP1 REVERT JUMPDEST PUSH1 0x1 PUSH1 0x1 PUSH1 0xA0 SHL SUB DUP5 AND PUSH3 0x7D JUMPI PUSH1 0x40 MLOAD PUSH4 0x162908E3 PUSH1 0xE1 SHL DUP2 MSTORE PUSH1 0x4 ADD PUSH1 0x40 MLOAD DUP1 SWAP2 SUB SWAP1 REVERT JUMPDEST PUSH1 0x1 PUSH1 0x1 PUSH1 0xA0 SHL SUB DUP6 AND PUSH3 0xA5 JUMPI PUSH1 0x40 MLOAD PUSH4 0x162908E3 PUSH1 0xE1 SHL DUP2 MSTORE PUSH1 0x4 ADD PUSH1 0x40 MLOAD DUP1 SWAP2 SUB SWAP1 REVERT JUMPDEST DUP3 MLOAD PUSH1 0x0 SUB PUSH3 0xC8 JUMPI PUSH1 0x40 MLOAD PUSH4 0x162908E3 PUSH1 0xE1 SHL DUP2 MSTORE PUSH1 0x4 ADD PUSH1 0x40 MLOAD DUP1 SWAP2 SUB SWAP1 REVERT JUMPDEST PUSH1 0x2 DUP2 MLOAD LT DUP1 PUSH3 0xDA JUMPI POP PUSH1 0x4 DUP2 MLOAD GT JUMPDEST ISZERO PUSH3 0xF9 JUMPI PUSH1 0x40 MLOAD PUSH4 0x447074B5 PUSH1 0xE0 SHL DUP2 MSTORE PUSH1 0x4 ADD PUSH1 0x40 MLOAD DUP1 SWAP2 SUB SWAP1 REVERT JUMPDEST PUSH1 0x0 JUMPDEST DUP2 MLOAD DUP2 PUSH1 0xFF AND LT ISZERO PUSH3 0x202 JUMPI DUP2 DUP2 PUSH1 0xFF AND DUP2 MLOAD DUP2 LT PUSH3 0x121 JUMPI PUSH3 0x121 PUSH3 0x77A JUMP JUMPDEST PUSH1 0x20 MUL PUSH1 0x20 ADD ADD MLOAD MLOAD PUSH1 0x0 SUB PUSH3 0x14B JUMPI PUSH1 0x40 MLOAD PUSH4 0x3887F293 PUSH1 0xE1 SHL DUP2 MSTORE PUSH1 0x4 ADD PUSH1 0x40 MLOAD DUP1 SWAP2 SUB SWAP1 REVERT JUMPDEST PUSH1 0x0 PUSH3 0x15A DUP3 PUSH1 0x1 PUSH3 0x7A6 JUMP JUMPDEST SWAP1 POP JUMPDEST DUP3 MLOAD DUP2 PUSH1 0xFF AND LT ISZERO PUSH3 0x1EC JUMPI DUP3 DUP2 PUSH1 0xFF AND DUP2 MLOAD DUP2 LT PUSH3 0x182 JUMPI PUSH3 0x182 PUSH3 0x77A JUMP JUMPDEST PUSH1 0x20 MUL PUSH1 0x20 ADD ADD MLOAD DUP1 MLOAD SWAP1 PUSH1 0x20 ADD KECCAK256 DUP4 DUP4 PUSH1 0xFF AND DUP2 MLOAD DUP2 LT PUSH3 0x1A9 JUMPI PUSH3 0x1A9 PUSH3 0x77A JUMP JUMPDEST PUSH1 0x20 MUL PUSH1 0x20 ADD ADD MLOAD DUP1 MLOAD SWAP1 PUSH1 0x20 ADD KECCAK256 SUB PUSH3 0x1D7 JUMPI PUSH1 0x40 MLOAD PUSH4 0x48A4BD6D PUSH1 0xE1 SHL DUP2 MSTORE PUSH1 0x4 ADD PUSH1 0x40 MLOAD DUP1 SWAP2 SUB SWAP1 REVERT JUMPDEST DUP1 PUSH3 0x1E3 DUP2 PUSH3 0x7C8 JUMP JUMPDEST SWAP2 POP POP PUSH3 0x15D JUMP JUMPDEST POP DUP1 PUSH3 0x1F9 DUP2 PUSH3 0x7C8 JUMP JUMPDEST SWAP2 POP POP PUSH3 0xFC JUMP JUMPDEST POP PUSH1 0x0 DUP1 SLOAD PUSH1 0x1 PUSH1 0x1 PUSH1 0xA0 SHL SUB DUP1 DUP9 AND PUSH1 0x1 PUSH1 0x1 PUSH1 0xA0 SHL SUB NOT SWAP3 DUP4 AND OR SWAP1 SWAP3 SSTORE PUSH1 0x2 DUP1 SLOAD SWAP3 DUP8 AND SWAP3 SWAP1 SWAP2 AND SWAP2 SWAP1 SWAP2 OR SWAP1 SSTORE PUSH1 0x3 PUSH3 0x241 DUP5 DUP3 PUSH3 0x879 JUMP JUMPDEST POP PUSH1 0x4 DUP3 SWAP1 SSTORE TIMESTAMP PUSH1 0x5 SSTORE PUSH1 0x6 DUP1 SLOAD DUP3 MLOAD PUSH2 0xFFFF NOT SWAP1 SWAP2 AND PUSH2 0x100 PUSH1 0xFF DUP4 AND MUL OR SWAP1 SWAP2 SSTORE PUSH3 0x277 SWAP1 PUSH1 0x7 SWAP1 PUSH1 0x20 DUP5 ADD SWAP1 PUSH3 0x386 JUMP JUMPDEST POP DUP1 MLOAD PUSH1 0x1 PUSH1 0x1 PUSH1 0x40 SHL SUB DUP2 GT ISZERO PUSH3 0x294 JUMPI PUSH3 0x294 PUSH3 0x56D JUMP JUMPDEST PUSH1 0x40 MLOAD SWAP1 DUP1 DUP3 MSTORE DUP1 PUSH1 0x20 MUL PUSH1 0x20 ADD DUP3 ADD PUSH1 0x40 MSTORE DUP1 ISZERO PUSH3 0x2BE JUMPI DUP2 PUSH1 0x20 ADD PUSH1 0x20 DUP3 MUL DUP1 CALLDATASIZE DUP4 CALLDATACOPY ADD SWAP1 POP JUMPDEST POP DUP1 MLOAD PUSH3 0x2D5 SWAP2 PUSH1 0xC SWAP2 PUSH1 0x20 SWAP1 SWAP2 ADD SWAP1 PUSH3 0x3E3 JUMP JUMPDEST POP DUP1 MLOAD PUSH1 0x1 PUSH1 0x1 PUSH1 0x40 SHL SUB DUP2 GT ISZERO PUSH3 0x2F2 JUMPI PUSH3 0x2F2 PUSH3 0x56D JUMP JUMPDEST PUSH1 0x40 MLOAD SWAP1 DUP1 DUP3 MSTORE DUP1 PUSH1 0x20 MUL PUSH1 0x20 ADD DUP3 ADD PUSH1 0x40 MSTORE DUP1 ISZERO PUSH3 0x31C JUMPI DUP2 PUSH1 0x20 ADD PUSH1 0x20 DUP3 MUL DUP1 CALLDATASIZE DUP4 CALLDATACOPY ADD SWAP1 POP JUMPDEST POP DUP1 MLOAD PUSH3 0x333 SWAP2 PUSH1 0x8 SWAP2 PUSH1 0x20 SWAP1 SWAP2 ADD SWAP1 PUSH3 0x42F JUMP JUMPDEST POP DUP5 PUSH1 0x1 PUSH1 0x1 PUSH1 0xA0 SHL SUB AND PUSH32 0xE7ABEA24BBDECA3299EE22E1CDBAD24CBB950A3754A487EE187E61DC3F096ED4 DUP5 DUP5 DUP5 PUSH1 0x40 MLOAD PUSH3 0x373 SWAP4 SWAP3 SWAP2 SWAP1 PUSH3 0x973 JUMP JUMPDEST PUSH1 0x40 MLOAD DUP1 SWAP2 SUB SWAP1 LOG2 POP POP POP POP POP PUSH3 0x9F2 JUMP JUMPDEST DUP3 DUP1 SLOAD DUP3 DUP3 SSTORE SWAP1 PUSH1 0x0 MSTORE PUSH1 0x20 PUSH1 0x0 KECCAK256 SWAP1 DUP2 ADD SWAP3 DUP3 ISZERO PUSH3 0x3D1 JUMPI SWAP2 PUSH1 0x20 MUL DUP3 ADD JUMPDEST DUP3 DUP2 GT ISZERO PUSH3 0x3D1 JUMPI DUP3 MLOAD DUP3 SWAP1 PUSH3 0x3C0 SWAP1 DUP3 PUSH3 0x879 JUMP JUMPDEST POP SWAP2 PUSH1 0x20 ADD SWAP2 SWAP1 PUSH1 0x1 ADD SWAP1 PUSH3 0x3A7 JUMP JUMPDEST POP PUSH3 0x3DF SWAP3 SWAP2 POP PUSH3 0x4D6 JUMP JUMPDEST POP SWAP1 JUMP JUMPDEST DUP3 DUP1 SLOAD DUP3 DUP3 SSTORE SWAP1 PUSH1 0x0 MSTORE PUSH1 0x20 PUSH1 0x0 KECCAK256 SWAP1 DUP2 ADD SWAP3 DUP3 ISZERO PUSH3 0x421 JUMPI SWAP2 PUSH1 0x20 MUL DUP3 ADD JUMPDEST DUP3 DUP2 GT ISZERO PUSH3 0x421 JUMPI DUP3 MLOAD DUP3 SSTORE SWAP2 PUSH1 0x20 ADD SWAP2 SWAP1 PUSH1 0x1 ADD SWAP1 PUSH3 0x404 JUMP JUMPDEST POP PUSH3 0x3DF SWAP3 SWAP2 POP PUSH3 0x4F7 JUMP JUMPDEST DUP3 DUP1 SLOAD DUP3 DUP3 SSTORE SWAP1 PUSH1 0x0 MSTORE PUSH1 0x20 PUSH1 0x0 KECCAK256 SWAP1 PUSH1 0x1F ADD PUSH1 0x20 SWAP1 DIV DUP2 ADD SWAP3 DUP3 ISZERO PUSH3 0x421 JUMPI SWAP2 PUSH1 0x20 MUL DUP3 ADD PUSH1 0x0 JUMPDEST DUP4 DUP3 GT ISZERO PUSH3 0x498 JUMPI DUP4 MLOAD DUP4 DUP3 PUSH2 0x100 EXP DUP2 SLOAD DUP2 PUSH1 0xFF MUL NOT AND SWAP1 DUP4 ISZERO ISZERO MUL OR SWAP1 SSTORE POP SWAP3 PUSH1 0x20 ADD SWAP3 PUSH1 0x1 ADD PUSH1 0x20 DUP2 PUSH1 0x0 ADD DIV SWAP3 DUP4 ADD SWAP3 PUSH1 0x1 SUB MUL PUSH3 0x459 JUMP JUMPDEST DUP1 ISZERO PUSH3 0x4C7 JUMPI DUP3 DUP2 PUSH2 0x100 EXP DUP2 SLOAD SWAP1 PUSH1 0xFF MUL NOT AND SWAP1 SSTORE PUSH1 0x1 ADD PUSH1 0x20 DUP2 PUSH1 0x0 ADD DIV SWAP3 DUP4 ADD SWAP3 PUSH1 0x1 SUB MUL PUSH3 0x498 JUMP JUMPDEST POP POP PUSH3 0x3DF SWAP3 SWAP2 POP PUSH3 0x4F7 JUMP JUMPDEST DUP1 DUP3 GT ISZERO PUSH3 0x3DF JUMPI PUSH1 0x0 PUSH3 0x4ED DUP3 DUP3 PUSH3 0x50E JUMP JUMPDEST POP PUSH1 0x1 ADD PUSH3 0x4D6 JUMP JUMPDEST JUMPDEST DUP1 DUP3 GT ISZERO PUSH3 0x3DF JUMPI PUSH1 0x0 DUP2 SSTORE PUSH1 0x1 ADD PUSH3 0x4F8 JUMP JUMPDEST POP DUP1 SLOAD PUSH3 0x51C SWAP1 PUSH3 0x7EA JUMP JUMPDEST PUSH1 0x0 DUP3 SSTORE DUP1 PUSH1 0x1F LT PUSH3 0x52D JUMPI POP POP JUMP JUMPDEST PUSH1 0x1F ADD PUSH1 0x20 SWAP1 DIV SWAP1 PUSH1 0x0 MSTORE PUSH1 0x20 PUSH1 0x0 KECCAK256 SWAP1 DUP2 ADD SWAP1 PUSH3 0x54D SWAP2 SWAP1 PUSH3 0x4F7 JUMP JUMPDEST POP JUMP JUMPDEST DUP1 MLOAD PUSH1 0x1 PUSH1 0x1 PUSH1 0xA0 SHL SUB DUP2 AND DUP2 EQ PUSH3 0x568 JUMPI PUSH1 0x0 DUP1 REVERT JUMPDEST SWAP2 SWAP1 POP JUMP JUMPDEST PUSH4 0x4E487B71 PUSH1 0xE0 SHL PUSH1 0x0 MSTORE PUSH1 0x41 PUSH1 0x4 MSTORE PUSH1 0x24 PUSH1 0x0 REVERT JUMPDEST PUSH1 0x40 MLOAD PUSH1 0x1F DUP3 ADD PUSH1 0x1F NOT AND DUP2 ADD PUSH1 0x1 PUSH1 0x1 PUSH1 0x40 SHL SUB DUP2 GT DUP3 DUP3 LT OR ISZERO PUSH3 0x5AE JUMPI PUSH3 0x5AE PUSH3 0x56D JUMP JUMPDEST PUSH1 0x40 MSTORE SWAP2 SWAP1 POP JUMP JUMPDEST PUSH1 0x0 JUMPDEST DUP4 DUP2 LT ISZERO PUSH3 0x5D3 JUMPI DUP2 DUP2 ADD MLOAD DUP4 DUP3 ADD MSTORE PUSH1 0x20 ADD PUSH3 0x5B9 JUMP JUMPDEST POP POP PUSH1 0x0 SWAP2 ADD MSTORE JUMP JUMPDEST PUSH1 0x0 DUP3 PUSH1 0x1F DUP4 ADD SLT PUSH3 0x5EE JUMPI PUSH1 0x0 DUP1 REVERT JUMPDEST DUP2 MLOAD PUSH1 0x1 PUSH1 0x1 PUSH1 0x40 SHL SUB DUP2 GT ISZERO PUSH3 0x60A JUMPI PUSH3 0x60A PUSH3 0x56D JUMP JUMPDEST PUSH3 0x61F PUSH1 0x1F DUP3 ADD PUSH1 0x1F NOT AND PUSH1 0x20 ADD PUSH3 0x583 JUMP JUMPDEST DUP2 DUP2 MSTORE DUP5 PUSH1 0x20 DUP4 DUP7 ADD ADD GT ISZERO PUSH3 0x635 JUMPI PUSH1 0x0 DUP1 REVERT JUMPDEST PUSH3 0x648 DUP3 PUSH1 0x20 DUP4 ADD PUSH1 0x20 DUP8 ADD PUSH3 0x5B6 JUMP JUMPDEST SWAP5 SWAP4 POP POP POP POP JUMP JUMPDEST PUSH1 0x0 DUP1 PUSH1 0x0 DUP1 PUSH1 0x0 PUSH1 0xA0 DUP7 DUP9 SUB SLT ISZERO PUSH3 0x669 JUMPI PUSH1 0x0 DUP1 REVERT JUMPDEST PUSH3 0x674 DUP7 PUSH3 0x550 JUMP JUMPDEST SWAP5 POP PUSH1 0x20 PUSH3 0x685 DUP2 DUP9 ADD PUSH3 0x550 JUMP JUMPDEST PUSH1 0x40 DUP9 ADD MLOAD SWAP1 SWAP6 POP PUSH1 0x1 PUSH1 0x1 PUSH1 0x40 SHL SUB DUP1 DUP3 GT ISZERO PUSH3 0x6A3 JUMPI PUSH1 0x0 DUP1 REVERT JUMPDEST PUSH3 0x6B1 DUP11 DUP4 DUP12 ADD PUSH3 0x5DC JUMP JUMPDEST SWAP6 POP PUSH1 0x60 DUP10 ADD MLOAD SWAP5 POP PUSH1 0x80 DUP10 ADD MLOAD SWAP2 POP DUP1 DUP3 GT ISZERO PUSH3 0x6CF JUMPI PUSH1 0x0 DUP1 REVERT JUMPDEST DUP2 DUP10 ADD SWAP2 POP DUP10 PUSH1 0x1F DUP4 ADD SLT PUSH3 0x6E4 JUMPI PUSH1 0x0 DUP1 REVERT JUMPDEST DUP2 MLOAD DUP2 DUP2 GT ISZERO PUSH3 0x6F9 JUMPI PUSH3 0x6F9 PUSH3 0x56D JUMP JUMPDEST DUP1 PUSH1 0x5 SHL PUSH3 0x70A DUP6 DUP3 ADD PUSH3 0x583 JUMP JUMPDEST SWAP2 DUP3 MSTORE DUP4 DUP2 ADD DUP6 ADD SWAP2 DUP6 DUP2 ADD SWAP1 DUP14 DUP5 GT ISZERO PUSH3 0x725 JUMPI PUSH1 0x0 DUP1 REVERT JUMPDEST DUP7 DUP7 ADD SWAP3 POP JUMPDEST DUP4 DUP4 LT ISZERO PUSH3 0x766 JUMPI DUP3 MLOAD DUP6 DUP2 GT ISZERO PUSH3 0x745 JUMPI PUSH1 0x0 DUP1 DUP2 REVERT JUMPDEST PUSH3 0x755 DUP16 DUP10 DUP4 DUP11 ADD ADD PUSH3 0x5DC JUMP JUMPDEST DUP4 MSTORE POP SWAP2 DUP7 ADD SWAP2 SWAP1 DUP7 ADD SWAP1 PUSH3 0x72B JUMP JUMPDEST DUP1 SWAP8 POP POP POP POP POP POP POP POP SWAP3 SWAP6 POP SWAP3 SWAP6 SWAP1 SWAP4 POP JUMP JUMPDEST PUSH4 0x4E487B71 PUSH1 0xE0 SHL PUSH1 0x0 MSTORE PUSH1 0x32 PUSH1 0x4 MSTORE PUSH1 0x24 PUSH1 0x0 REVERT JUMPDEST PUSH4 0x4E487B71 PUSH1 0xE0 SHL PUSH1 0x0 MSTORE PUSH1 0x11 PUSH1 0x4 MSTORE PUSH1 0x24 PUSH1 0x0 REVERT JUMPDEST PUSH1 0xFF DUP2 DUP2 AND DUP4 DUP3 AND ADD SWAP1 DUP2 GT ISZERO PUSH3 0x7C2 JUMPI PUSH3 0x7C2 PUSH3 0x790 JUMP JUMPDEST SWAP3 SWAP2 POP POP JUMP JUMPDEST PUSH1 0x0 PUSH1 0xFF DUP3 AND PUSH1 0xFF DUP2 SUB PUSH3 0x7E1 JUMPI PUSH3 0x7E1 PUSH3 0x790 JUMP JUMPDEST PUSH1 0x1 ADD SWAP3 SWAP2 POP POP JUMP JUMPDEST PUSH1 0x1 DUP2 DUP2 SHR SWAP1 DUP3 AND DUP1 PUSH3 0x7FF JUMPI PUSH1 0x7F DUP3 AND SWAP2 POP JUMPDEST PUSH1 0x20 DUP3 LT DUP2 SUB PUSH3 0x820 JUMPI PUSH4 0x4E487B71 PUSH1 0xE0 SHL PUSH1 0x0 MSTORE PUSH1 0x22 PUSH1 0x4 MSTORE PUSH1 0x24 PUSH1 0x0 REVERT JUMPDEST POP SWAP2 SWAP1 POP JUMP JUMPDEST PUSH1 0x1F DUP3 GT ISZERO PUSH3 0x874 JUMPI PUSH1 0x0 DUP2 DUP2 MSTORE PUSH1 0x20 DUP2 KECCAK256 PUSH1 0x1F DUP6 ADD PUSH1 0x5 SHR DUP2 ADD PUSH1 0x20 DUP7 LT ISZERO PUSH3 0x84F JUMPI POP DUP1 JUMPDEST PUSH1 0x1F DUP6 ADD PUSH1 0x5 SHR DUP3 ADD SWAP2 POP JUMPDEST DUP2 DUP2 LT ISZERO PUSH3 0x870 JUMPI DUP3 DUP2 SSTORE PUSH1 0x1 ADD PUSH3 0x85B JUMP JUMPDEST POP POP POP JUMPDEST POP POP POP JUMP JUMPDEST DUP2 MLOAD PUSH1 0x1 PUSH1 0x1 PUSH1 0x40 SHL SUB DUP2 GT ISZERO PUSH3 0x895 JUMPI PUSH3 0x895 PUSH3 0x56D JUMP JUMPDEST PUSH3 0x8AD DUP2 PUSH3 0x8A6 DUP5 SLOAD PUSH3 0x7EA JUMP JUMPDEST DUP5 PUSH3 0x826 JUMP JUMPDEST PUSH1 0x20 DUP1 PUSH1 0x1F DUP4 GT PUSH1 0x1 DUP2 EQ PUSH3 0x8E5 JUMPI PUSH1 0x0 DUP5 ISZERO PUSH3 0x8CC JUMPI POP DUP6 DUP4 ADD MLOAD JUMPDEST PUSH1 0x0 NOT PUSH1 0x3 DUP7 SWAP1 SHL SHR NOT AND PUSH1 0x1 DUP6 SWAP1 SHL OR DUP6 SSTORE PUSH3 0x870 JUMP JUMPDEST PUSH1 0x0 DUP6 DUP2 MSTORE PUSH1 0x20 DUP2 KECCAK256 PUSH1 0x1F NOT DUP7 AND SWAP2 JUMPDEST DUP3 DUP2 LT ISZERO PUSH3 0x916 JUMPI DUP9 DUP7 ADD MLOAD DUP3 SSTORE SWAP5 DUP5 ADD SWAP5 PUSH1 0x1 SWAP1 SWAP2 ADD SWAP1 DUP5 ADD PUSH3 0x8F5 JUMP JUMPDEST POP DUP6 DUP3 LT ISZERO PUSH3 0x935 JUMPI DUP8 DUP6 ADD MLOAD PUSH1 0x0 NOT PUSH1 0x3 DUP9 SWAP1 SHL PUSH1 0xF8 AND SHR NOT AND DUP2 SSTORE JUMPDEST POP POP POP POP POP PUSH1 0x1 SWAP1 DUP2 SHL ADD SWAP1 SSTORE POP JUMP JUMPDEST PUSH1 0x0 DUP2 MLOAD DUP1 DUP5 MSTORE PUSH3 0x95F DUP2 PUSH1 0x20 DUP7 ADD PUSH1 0x20 DUP7 ADD PUSH3 0x5B6 JUMP JUMPDEST PUSH1 0x1F ADD PUSH1 0x1F NOT AND SWAP3 SWAP1 SWAP3 ADD PUSH1 0x20 ADD SWAP3 SWAP2 POP POP JUMP JUMPDEST PUSH1 0x60 DUP2 MSTORE PUSH1 0x0 PUSH3 0x988 PUSH1 0x60 DUP4 ADD DUP7 PUSH3 0x945 JUMP JUMPDEST PUSH1 0x20 DUP6 DUP2 DUP6 ADD MSTORE DUP4 DUP3 SUB PUSH1 0x40 DUP6 ADD MSTORE DUP2 DUP6 MLOAD DUP1 DUP5 MSTORE DUP3 DUP5 ADD SWAP2 POP DUP3 DUP2 PUSH1 0x5 SHL DUP6 ADD ADD DUP4 DUP9 ADD PUSH1 0x0 JUMPDEST DUP4 DUP2 LT ISZERO PUSH3 0x9E2 JUMPI PUSH1 0x1F NOT DUP8 DUP5 SUB ADD DUP6 MSTORE PUSH3 0x9CF DUP4 DUP4 MLOAD PUSH3 0x945 JUMP JUMPDEST SWAP5 DUP7 ADD SWAP5 SWAP3 POP SWAP1 DUP6 ADD SWAP1 PUSH1 0x1 ADD PUSH3 0x9B0 JUMP JUMPDEST POP SWAP1 SWAP11 SWAP10 POP POP POP POP POP POP POP POP POP POP JUMP JUMPDEST PUSH2 0x26EA DUP1 PUSH3 0xA02 PUSH1 0x0 CODECOPY PUSH1 0x0 RETURN INVALID PUSH1 0x80 PUSH1 0x40 MSTORE CALLVALUE DUP1 ISZERO PUSH2 0x10 JUMPI PUSH1 0x0 DUP1 REVERT JUMPDEST POP PUSH1 0x4 CALLDATASIZE LT PUSH2 0x226 JUMPI PUSH1 0x0 CALLDATALOAD PUSH1 0xE0 SHR DUP1 PUSH4 0x6BFEFD6B GT PUSH2 0x130 JUMPI DUP1 PUSH4 0xBC29CA45 GT PUSH2 0xB8 JUMPI DUP1 PUSH4 0xDD9089AA GT PUSH2 0x7C JUMPI DUP1 PUSH4 0xDD9089AA EQ PUSH2 0x4A0 JUMPI DUP1 PUSH4 0xE0E081D7 EQ PUSH2 0x4B3 JUMPI DUP1 PUSH4 0xE32FE90B EQ PUSH2 0x4CD JUMPI DUP1 PUSH4 0xEF0FC35C EQ PUSH2 0x4F1 JUMPI DUP1 PUSH4 0xF2CCB397 EQ PUSH2 0x504 JUMPI PUSH1 0x0 DUP1 REVERT JUMPDEST DUP1 PUSH4 0xBC29CA45 EQ PUSH2 0x467 JUMPI DUP1 PUSH4 0xC235253F EQ PUSH2 0x474 JUMPI DUP1 PUSH4 0xCF09E0D0 EQ PUSH2 0x487 JUMPI DUP1 PUSH4 0xD5002F2E EQ PUSH2 0x490 JUMPI DUP1 PUSH4 0xDAC6270D EQ PUSH2 0x498 JUMPI PUSH1 0x0 DUP1 REVERT JUMPDEST DUP1 PUSH4 0xA1E512D7 GT PUSH2 0xFF JUMPI DUP1 PUSH4 0xA1E512D7 EQ PUSH2 0x41C JUMPI DUP1 PUSH4 0xAB125B64 EQ PUSH2 0x42F JUMPI DUP1 PUSH4 0xB2016BD4 EQ PUSH2 0x444 JUMPI DUP1 PUSH4 0xB401FAF1 EQ PUSH2 0x457 JUMPI DUP1 PUSH4 0xB5545A3C EQ PUSH2 0x45F JUMPI PUSH1 0x0 DUP1 REVERT JUMPDEST DUP1 PUSH4 0x6BFEFD6B EQ PUSH2 0x3E1 JUMPI DUP1 PUSH4 0x6F9FB98A EQ PUSH2 0x3E9 JUMPI DUP1 PUSH4 0x73B2E80E EQ PUSH2 0x3F1 JUMPI DUP1 PUSH4 0x75F4D677 EQ PUSH2 0x414 JUMPI PUSH1 0x0 DUP1 REVERT JUMPDEST DUP1 PUSH4 0x3F0826C5 GT PUSH2 0x1B3 JUMPI DUP1 PUSH4 0x4E543B26 GT PUSH2 0x182 JUMPI DUP1 PUSH4 0x4E543B26 EQ PUSH2 0x372 JUMPI DUP1 PUSH4 0x4EA64D17 EQ PUSH2 0x387 JUMPI DUP1 PUSH4 0x5B7C2DAD EQ PUSH2 0x39A JUMPI DUP1 PUSH4 0x68EA18EC EQ PUSH2 0x3BB JUMPI DUP1 PUSH4 0x6A87C474 EQ PUSH2 0x3CE JUMPI PUSH1 0x0 DUP1 REVERT JUMPDEST DUP1 PUSH4 0x3F0826C5 EQ PUSH2 0x322 JUMPI DUP1 PUSH4 0x3FAD9AE0 EQ PUSH2 0x342 JUMPI DUP1 PUSH4 0x4A02476E EQ PUSH2 0x34A JUMPI DUP1 PUSH4 0x4C5BE574 EQ PUSH2 0x35D JUMPI PUSH1 0x0 DUP1 REVERT JUMPDEST DUP1 PUSH4 0x13F2DAD0 GT PUSH2 0x1FA JUMPI DUP1 PUSH4 0x13F2DAD0 EQ PUSH2 0x2BF JUMPI DUP1 PUSH4 0x23341A05 EQ PUSH2 0x2D2 JUMPI DUP1 PUSH4 0x24FDF5AF EQ PUSH2 0x2F1 JUMPI DUP1 PUSH4 0x2F31D130 EQ PUSH2 0x304 JUMPI DUP1 PUSH4 0x3197CBB6 EQ PUSH2 0x319 JUMPI PUSH1 0x0 DUP1 REVERT JUMPDEST DUP1 PUSH3 0x80CB82 EQ PUSH2 0x22B JUMPI DUP1 PUSH4 0x2D05D3F EQ PUSH2 0x248 JUMPI DUP1 PUSH4 0x4F3BCEC EQ PUSH2 0x273 JUMPI DUP1 PUSH4 0x1158BD13 EQ PUSH2 0x286 JUMPI JUMPDEST PUSH1 0x0 DUP1 REVERT JUMPDEST PUSH2 0x233 PUSH2 0x517 JUMP JUMPDEST PUSH1 0x40 MLOAD SWAP1 ISZERO ISZERO DUP2 MSTORE PUSH1 0x20 ADD JUMPDEST PUSH1 0x40 MLOAD DUP1 SWAP2 SUB SWAP1 RETURN JUMPDEST PUSH1 0x0 SLOAD PUSH2 0x25B SWAP1 PUSH1 0x1 PUSH1 0x1 PUSH1 0xA0 SHL SUB AND DUP2 JUMP JUMPDEST PUSH1 0x40 MLOAD PUSH1 0x1 PUSH1 0x1 PUSH1 0xA0 SHL SUB SWAP1 SWAP2 AND DUP2 MSTORE PUSH1 0x20 ADD PUSH2 0x23F JUMP JUMPDEST PUSH1 0x1 SLOAD PUSH2 0x25B SWAP1 PUSH1 0x1 PUSH1 0x1 PUSH1 0xA0 SHL SUB AND DUP2 JUMP JUMPDEST PUSH2 0x2B1 PUSH2 0x294 CALLDATASIZE PUSH1 0x4 PUSH2 0x2100 JUMP JUMPDEST PUSH1 0xA PUSH1 0x20 SWAP1 DUP2 MSTORE PUSH1 0x0 SWAP3 DUP4 MSTORE PUSH1 0x40 DUP1 DUP5 KECCAK256 SWAP1 SWAP2 MSTORE SWAP1 DUP3 MSTORE SWAP1 KECCAK256 SLOAD DUP2 JUMP JUMPDEST PUSH1 0x40 MLOAD SWAP1 DUP2 MSTORE PUSH1 0x20 ADD PUSH2 0x23F JUMP JUMPDEST PUSH2 0x2B1 PUSH2 0x2CD CALLDATASIZE PUSH1 0x4 PUSH2 0x2133 JUMP JUMPDEST PUSH2 0x544 JUMP JUMPDEST PUSH2 0x2DA PUSH2 0x565 JUMP JUMPDEST PUSH1 0x40 MLOAD PUSH2 0x23F SWAP12 SWAP11 SWAP10 SWAP9 SWAP8 SWAP7 SWAP6 SWAP5 SWAP4 SWAP3 SWAP2 SWAP1 PUSH2 0x228F JUMP JUMPDEST PUSH2 0x2B1 PUSH2 0x2FF CALLDATASIZE PUSH1 0x4 PUSH2 0x2382 JUMP JUMPDEST PUSH2 0x7FF JUMP JUMPDEST PUSH2 0x30C PUSH2 0x91A JUMP JUMPDEST PUSH1 0x40 MLOAD PUSH2 0x23F SWAP2 SWAP1 PUSH2 0x23D5 JUMP JUMPDEST PUSH2 0x2B1 PUSH1 0x4 SLOAD DUP2 JUMP JUMPDEST PUSH2 0x335 PUSH2 0x330 CALLDATASIZE PUSH1 0x4 PUSH2 0x23E8 JUMP JUMPDEST PUSH2 0x992 JUMP JUMPDEST PUSH1 0x40 MLOAD PUSH2 0x23F SWAP2 SWAP1 PUSH2 0x2403 JUMP JUMPDEST PUSH2 0x335 PUSH2 0xA73 JUMP JUMPDEST PUSH2 0x233 PUSH2 0x358 CALLDATASIZE PUSH1 0x4 PUSH2 0x2133 JUMP JUMPDEST PUSH2 0xB01 JUMP JUMPDEST PUSH2 0x365 PUSH2 0xB35 JUMP JUMPDEST PUSH1 0x40 MLOAD PUSH2 0x23F SWAP2 SWAP1 PUSH2 0x2416 JUMP JUMPDEST PUSH2 0x385 PUSH2 0x380 CALLDATASIZE PUSH1 0x4 PUSH2 0x2429 JUMP JUMPDEST PUSH2 0xC9D JUMP JUMPDEST STOP JUMPDEST PUSH2 0x2B1 PUSH2 0x395 CALLDATASIZE PUSH1 0x4 PUSH2 0x2444 JUMP JUMPDEST PUSH2 0xD3B JUMP JUMPDEST PUSH2 0x3AD PUSH2 0x3A8 CALLDATASIZE PUSH1 0x4 PUSH2 0x2429 JUMP JUMPDEST PUSH2 0xDB8 JUMP JUMPDEST PUSH1 0x40 MLOAD PUSH2 0x23F SWAP3 SWAP2 SWAP1 PUSH2 0x246E JUMP JUMPDEST PUSH2 0x385 PUSH2 0x3C9 CALLDATASIZE PUSH1 0x4 PUSH2 0x2492 JUMP JUMPDEST PUSH2 0xEA9 JUMP JUMPDEST PUSH2 0x385 PUSH2 0x3DC CALLDATASIZE PUSH1 0x4 PUSH2 0x2492 JUMP JUMPDEST PUSH2 0x10ED JUMP JUMPDEST PUSH2 0x385 PUSH2 0x12CD JUMP JUMPDEST PUSH2 0x2B1 PUSH2 0x1369 JUMP JUMPDEST PUSH2 0x233 PUSH2 0x3FF CALLDATASIZE PUSH1 0x4 PUSH2 0x2429 JUMP JUMPDEST PUSH1 0xB PUSH1 0x20 MSTORE PUSH1 0x0 SWAP1 DUP2 MSTORE PUSH1 0x40 SWAP1 KECCAK256 SLOAD PUSH1 0xFF AND DUP2 JUMP JUMPDEST PUSH2 0x2B1 PUSH2 0x13D6 JUMP JUMPDEST PUSH2 0x2B1 PUSH2 0x42A CALLDATASIZE PUSH1 0x4 PUSH2 0x23E8 JUMP JUMPDEST PUSH2 0x1437 JUMP JUMPDEST PUSH2 0x437 PUSH2 0x14D7 JUMP JUMPDEST PUSH1 0x40 MLOAD PUSH2 0x23F SWAP2 SWAP1 PUSH2 0x24D4 JUMP JUMPDEST PUSH1 0x2 SLOAD PUSH2 0x25B SWAP1 PUSH1 0x1 PUSH1 0x1 PUSH1 0xA0 SHL SUB AND DUP2 JUMP JUMPDEST PUSH2 0x385 PUSH2 0x15B0 JUMP JUMPDEST PUSH2 0x385 PUSH2 0x1893 JUMP JUMPDEST PUSH1 0x9 SLOAD PUSH2 0x233 SWAP1 PUSH1 0xFF AND DUP2 JUMP JUMPDEST PUSH2 0x2B1 PUSH2 0x482 CALLDATASIZE PUSH1 0x4 PUSH2 0x2100 JUMP JUMPDEST PUSH2 0x1A6A JUMP JUMPDEST PUSH2 0x2B1 PUSH1 0x5 SLOAD DUP2 JUMP JUMPDEST PUSH2 0x365 PUSH2 0x1AB8 JUMP JUMPDEST PUSH2 0x2B1 PUSH2 0x1B0F JUMP JUMPDEST PUSH2 0x385 PUSH2 0x4AE CALLDATASIZE PUSH1 0x4 PUSH2 0x2444 JUMP JUMPDEST PUSH2 0x1B2E JUMP JUMPDEST PUSH1 0x6 SLOAD PUSH2 0x4C0 SWAP1 PUSH1 0xFF AND DUP2 JUMP JUMPDEST PUSH1 0x40 MLOAD PUSH2 0x23F SWAP2 SWAP1 PUSH2 0x24E7 JUMP JUMPDEST PUSH1 0x6 SLOAD PUSH2 0x4DF SWAP1 PUSH2 0x100 SWAP1 DIV PUSH1 0xFF AND DUP2 JUMP JUMPDEST PUSH1 0x40 MLOAD PUSH1 0xFF SWAP1 SWAP2 AND DUP2 MSTORE PUSH1 0x20 ADD PUSH2 0x23F JUMP JUMPDEST PUSH2 0x335 PUSH2 0x4FF CALLDATASIZE PUSH1 0x4 PUSH2 0x2133 JUMP JUMPDEST PUSH2 0x1D59 JUMP JUMPDEST PUSH2 0x385 PUSH2 0x512 CALLDATASIZE PUSH1 0x4 PUSH2 0x2444 JUMP JUMPDEST PUSH2 0x1D84 JUMP JUMPDEST PUSH1 0x0 DUP1 PUSH1 0x6 SLOAD PUSH1 0xFF AND PUSH1 0x2 DUP2 GT ISZERO PUSH2 0x531 JUMPI PUSH2 0x531 PUSH2 0x2192 JUMP JUMPDEST EQ DUP1 ISZERO PUSH2 0x53F JUMPI POP PUSH1 0x4 SLOAD TIMESTAMP LT JUMPDEST SWAP1 POP SWAP1 JUMP JUMPDEST PUSH1 0xC DUP2 DUP2 SLOAD DUP2 LT PUSH2 0x554 JUMPI PUSH1 0x0 DUP1 REVERT JUMPDEST PUSH1 0x0 SWAP2 DUP3 MSTORE PUSH1 0x20 SWAP1 SWAP2 KECCAK256 ADD SLOAD SWAP1 POP DUP2 JUMP JUMPDEST PUSH1 0x0 DUP1 SLOAD PUSH1 0x1 SLOAD PUSH1 0x4 SLOAD PUSH1 0x5 SLOAD PUSH1 0x6 SLOAD DUP6 SWAP5 PUSH1 0x60 SWAP5 DUP7 SWAP5 DUP6 SWAP5 DUP6 SWAP5 DUP6 SWAP5 DUP10 SWAP5 DUP6 SWAP5 DUP6 SWAP5 DUP9 SWAP5 PUSH1 0x1 PUSH1 0x1 PUSH1 0xA0 SHL SUB SWAP5 DUP6 AND SWAP5 SWAP1 SWAP4 AND SWAP3 PUSH1 0x3 SWAP3 SWAP2 SWAP1 PUSH1 0xFF DUP1 DUP3 AND SWAP2 PUSH2 0x100 SWAP1 DIV AND PUSH1 0x7 PUSH1 0xC PUSH1 0x8 PUSH2 0x5B9 PUSH2 0x13D6 JUMP JUMPDEST DUP9 DUP1 SLOAD PUSH2 0x5C5 SWAP1 PUSH2 0x24F5 JUMP JUMPDEST DUP1 PUSH1 0x1F ADD PUSH1 0x20 DUP1 SWAP2 DIV MUL PUSH1 0x20 ADD PUSH1 0x40 MLOAD SWAP1 DUP2 ADD PUSH1 0x40 MSTORE DUP1 SWAP3 SWAP2 SWAP1 DUP2 DUP2 MSTORE PUSH1 0x20 ADD DUP3 DUP1 SLOAD PUSH2 0x5F1 SWAP1 PUSH2 0x24F5 JUMP JUMPDEST DUP1 ISZERO PUSH2 0x63E JUMPI DUP1 PUSH1 0x1F LT PUSH2 0x613 JUMPI PUSH2 0x100 DUP1 DUP4 SLOAD DIV MUL DUP4 MSTORE SWAP2 PUSH1 0x20 ADD SWAP2 PUSH2 0x63E JUMP JUMPDEST DUP3 ADD SWAP2 SWAP1 PUSH1 0x0 MSTORE PUSH1 0x20 PUSH1 0x0 KECCAK256 SWAP1 JUMPDEST DUP2 SLOAD DUP2 MSTORE SWAP1 PUSH1 0x1 ADD SWAP1 PUSH1 0x20 ADD DUP1 DUP4 GT PUSH2 0x621 JUMPI DUP3 SWAP1 SUB PUSH1 0x1F AND DUP3 ADD SWAP2 JUMPDEST POP POP POP POP POP SWAP9 POP DUP4 DUP1 SLOAD DUP1 PUSH1 0x20 MUL PUSH1 0x20 ADD PUSH1 0x40 MLOAD SWAP1 DUP2 ADD PUSH1 0x40 MSTORE DUP1 SWAP3 SWAP2 SWAP1 DUP2 DUP2 MSTORE PUSH1 0x20 ADD PUSH1 0x0 SWAP1 JUMPDEST DUP3 DUP3 LT ISZERO PUSH2 0x712 JUMPI DUP4 DUP3 SWAP1 PUSH1 0x0 MSTORE PUSH1 0x20 PUSH1 0x0 KECCAK256 ADD DUP1 SLOAD PUSH2 0x685 SWAP1 PUSH2 0x24F5 JUMP JUMPDEST DUP1 PUSH1 0x1F ADD PUSH1 0x20 DUP1 SWAP2 DIV MUL PUSH1 0x20 ADD PUSH1 0x40 MLOAD SWAP1 DUP2 ADD PUSH1 0x40 MSTORE DUP1 SWAP3 SWAP2 SWAP1 DUP2 DUP2 MSTORE PUSH1 0x20 ADD DUP3 DUP1 SLOAD PUSH2 0x6B1 SWAP1 PUSH2 0x24F5 JUMP JUMPDEST DUP1 ISZERO PUSH2 0x6FE JUMPI DUP1 PUSH1 0x1F LT PUSH2 0x6D3 JUMPI PUSH2 0x100 DUP1 DUP4 SLOAD DIV MUL DUP4 MSTORE SWAP2 PUSH1 0x20 ADD SWAP2 PUSH2 0x6FE JUMP JUMPDEST DUP3 ADD SWAP2 SWAP1 PUSH1 0x0 MSTORE PUSH1 0x20 PUSH1 0x0 KECCAK256 SWAP1 JUMPDEST DUP2 SLOAD DUP2 MSTORE SWAP1 PUSH1 0x1 ADD SWAP1 PUSH1 0x20 ADD DUP1 DUP4 GT PUSH2 0x6E1 JUMPI DUP3 SWAP1 SUB PUSH1 0x1F AND DUP3 ADD SWAP2 JUMPDEST POP POP POP POP POP DUP2 MSTORE PUSH1 0x20 ADD SWAP1 PUSH1 0x1 ADD SWAP1 PUSH2 0x666 JUMP JUMPDEST POP POP POP POP SWAP4 POP DUP3 DUP1 SLOAD DUP1 PUSH1 0x20 MUL PUSH1 0x20 ADD PUSH1 0x40 MLOAD SWAP1 DUP2 ADD PUSH1 0x40 MSTORE DUP1 SWAP3 SWAP2 SWAP1 DUP2 DUP2 MSTORE PUSH1 0x20 ADD DUP3 DUP1 SLOAD DUP1 ISZERO PUSH2 0x763 JUMPI PUSH1 0x20 MUL DUP3 ADD SWAP2 SWAP1 PUSH1 0x0 MSTORE PUSH1 0x20 PUSH1 0x0 KECCAK256 SWAP1 JUMPDEST DUP2 SLOAD DUP2 MSTORE PUSH1 0x20 ADD SWAP1 PUSH1 0x1 ADD SWAP1 DUP1 DUP4 GT PUSH2 0x74F JUMPI JUMPDEST POP POP POP POP POP SWAP3 POP DUP2 DUP1 SLOAD DUP1 PUSH1 0x20 MUL PUSH1 0x20 ADD PUSH1 0x40 MLOAD SWAP1 DUP2 ADD PUSH1 0x40 MSTORE DUP1 SWAP3 SWAP2 SWAP1 DUP2 DUP2 MSTORE PUSH1 0x20 ADD DUP3 DUP1 SLOAD DUP1 ISZERO PUSH2 0x7D5 JUMPI PUSH1 0x20 MUL DUP3 ADD SWAP2 SWAP1 PUSH1 0x0 MSTORE PUSH1 0x20 PUSH1 0x0 KECCAK256 SWAP1 PUSH1 0x0 SWAP1 JUMPDEST DUP3 SLOAD PUSH2 0x100 DUP4 SWAP1 EXP SWAP1 DIV PUSH1 0xFF AND ISZERO ISZERO DUP2 MSTORE PUSH1 0x20 PUSH1 0x1 SWAP3 DUP4 ADD DUP2 DUP2 DIV SWAP5 DUP6 ADD SWAP5 SWAP1 SWAP4 SUB SWAP1 SWAP3 MUL SWAP2 ADD DUP1 DUP5 GT PUSH2 0x7A4 JUMPI SWAP1 POP JUMPDEST POP POP POP POP POP SWAP2 POP SWAP11 POP SWAP11 POP SWAP11 POP SWAP11 POP SWAP11 POP SWAP11 POP SWAP11 POP SWAP11 POP SWAP11 POP SWAP11 POP SWAP11 POP SWAP1 SWAP2 SWAP3 SWAP4 SWAP5 SWAP6 SWAP7 SWAP8 SWAP9 SWAP10 SWAP11 JUMP JUMPDEST PUSH1 0x0 DUP1 PUSH2 0x80A PUSH2 0x13D6 JUMP JUMPDEST SWAP1 POP DUP1 PUSH1 0x0 SUB PUSH2 0x81E JUMPI PUSH1 0x0 SWAP2 POP POP PUSH2 0x913 JUMP JUMPDEST PUSH1 0x0 DUP1 PUSH1 0x0 JUMPDEST DUP6 DUP2 LT ISZERO PUSH2 0x8E3 JUMPI PUSH1 0x0 DUP8 DUP8 DUP4 DUP2 DUP2 LT PUSH2 0x840 JUMPI PUSH2 0x840 PUSH2 0x2529 JUMP JUMPDEST SWAP1 POP PUSH1 0x20 MUL ADD PUSH1 0x20 DUP2 ADD SWAP1 PUSH2 0x855 SWAP2 SWAP1 PUSH2 0x23E8 JUMP JUMPDEST PUSH1 0x6 SLOAD SWAP1 SWAP2 POP PUSH1 0xFF PUSH2 0x100 SWAP1 SWAP2 DIV DUP2 AND SWAP1 DUP3 AND LT ISZERO PUSH2 0x8D0 JUMPI PUSH1 0x1 PUSH1 0x1 PUSH1 0xA0 SHL SUB DUP10 AND PUSH1 0x0 SWAP1 DUP2 MSTORE PUSH1 0xA PUSH1 0x20 SWAP1 DUP2 MSTORE PUSH1 0x40 DUP1 DUP4 KECCAK256 PUSH1 0xFF DUP6 AND DUP5 MSTORE SWAP1 SWAP2 MSTORE SWAP1 KECCAK256 SLOAD PUSH2 0x89F SWAP1 DUP6 PUSH2 0x2555 JUMP JUMPDEST SWAP4 POP PUSH1 0xC DUP2 PUSH1 0xFF AND DUP2 SLOAD DUP2 LT PUSH2 0x8B7 JUMPI PUSH2 0x8B7 PUSH2 0x2529 JUMP JUMPDEST SWAP1 PUSH1 0x0 MSTORE PUSH1 0x20 PUSH1 0x0 KECCAK256 ADD SLOAD DUP4 PUSH2 0x8CD SWAP2 SWAP1 PUSH2 0x2555 JUMP JUMPDEST SWAP3 POP JUMPDEST POP DUP1 PUSH2 0x8DB DUP2 PUSH2 0x2568 JUMP JUMPDEST SWAP2 POP POP PUSH2 0x824 JUMP JUMPDEST POP DUP1 PUSH1 0x0 SUB PUSH2 0x8F8 JUMPI PUSH1 0x0 SWAP4 POP POP POP POP PUSH2 0x913 JUMP JUMPDEST DUP1 PUSH2 0x903 DUP5 DUP5 PUSH2 0x2581 JUMP JUMPDEST PUSH2 0x90D SWAP2 SWAP1 PUSH2 0x25AE JUMP JUMPDEST SWAP4 POP POP POP POP JUMPDEST SWAP4 SWAP3 POP POP POP JUMP JUMPDEST PUSH1 0x60 PUSH1 0x8 DUP1 SLOAD DUP1 PUSH1 0x20 MUL PUSH1 0x20 ADD PUSH1 0x40 MLOAD SWAP1 DUP2 ADD PUSH1 0x40 MSTORE DUP1 SWAP3 SWAP2 SWAP1 DUP2 DUP2 MSTORE PUSH1 0x20 ADD DUP3 DUP1 SLOAD DUP1 ISZERO PUSH2 0x988 JUMPI PUSH1 0x20 MUL DUP3 ADD SWAP2 SWAP1 PUSH1 0x0 MSTORE PUSH1 0x20 PUSH1 0x0 KECCAK256 SWAP1 PUSH1 0x0 SWAP1 JUMPDEST DUP3 SLOAD PUSH2 0x100 DUP4 SWAP1 EXP SWAP1 DIV PUSH1 0xFF AND ISZERO ISZERO DUP2 MSTORE PUSH1 0x20 PUSH1 0x1 SWAP3 DUP4 ADD DUP2 DUP2 DIV SWAP5 DUP6 ADD SWAP5 SWAP1 SWAP4 SUB SWAP1 SWAP3 MUL SWAP2 ADD DUP1 DUP5 GT PUSH2 0x957 JUMPI SWAP1 POP JUMPDEST POP POP POP POP POP SWAP1 POP SWAP1 JUMP JUMPDEST PUSH1 0x6 SLOAD PUSH1 0x60 SWAP1 PUSH1 0xFF PUSH2 0x100 SWAP1 SWAP2 DIV DUP2 AND SWAP1 DUP4 AND LT PUSH2 0x9C3 JUMPI PUSH1 0x40 MLOAD PUSH4 0x2A719531 PUSH1 0xE0 SHL DUP2 MSTORE PUSH1 0x4 ADD PUSH1 0x40 MLOAD DUP1 SWAP2 SUB SWAP1 REVERT JUMPDEST PUSH1 0x7 DUP3 PUSH1 0xFF AND DUP2 SLOAD DUP2 LT PUSH2 0x9D9 JUMPI PUSH2 0x9D9 PUSH2 0x2529 JUMP JUMPDEST SWAP1 PUSH1 0x0 MSTORE PUSH1 0x20 PUSH1 0x0 KECCAK256 ADD DUP1 SLOAD PUSH2 0x9EE SWAP1 PUSH2 0x24F5 JUMP JUMPDEST DUP1 PUSH1 0x1F ADD PUSH1 0x20 DUP1 SWAP2 DIV MUL PUSH1 0x20 ADD PUSH1 0x40 MLOAD SWAP1 DUP2 ADD PUSH1 0x40 MSTORE DUP1 SWAP3 SWAP2 SWAP1 DUP2 DUP2 MSTORE PUSH1 0x20 ADD DUP3 DUP1 SLOAD PUSH2 0xA1A SWAP1 PUSH2 0x24F5 JUMP JUMPDEST DUP1 ISZERO PUSH2 0xA67 JUMPI DUP1 PUSH1 0x1F LT PUSH2 0xA3C JUMPI PUSH2 0x100 DUP1 DUP4 SLOAD DIV MUL DUP4 MSTORE SWAP2 PUSH1 0x20 ADD SWAP2 PUSH2 0xA67 JUMP JUMPDEST DUP3 ADD SWAP2 SWAP1 PUSH1 0x0 MSTORE PUSH1 0x20 PUSH1 0x0 KECCAK256 SWAP1 JUMPDEST DUP2 SLOAD DUP2 MSTORE SWAP1 PUSH1 0x1 ADD SWAP1 PUSH1 0x20 ADD DUP1 DUP4 GT PUSH2 0xA4A JUMPI DUP3 SWAP1 SUB PUSH1 0x1F AND DUP3 ADD SWAP2 JUMPDEST POP POP POP POP POP SWAP1 POP SWAP2 SWAP1 POP JUMP JUMPDEST PUSH1 0x3 DUP1 SLOAD PUSH2 0xA80 SWAP1 PUSH2 0x24F5 JUMP JUMPDEST DUP1 PUSH1 0x1F ADD PUSH1 0x20 DUP1 SWAP2 DIV MUL PUSH1 0x20 ADD PUSH1 0x40 MLOAD SWAP1 DUP2 ADD PUSH1 0x40 MSTORE DUP1 SWAP3 SWAP2 SWAP1 DUP2 DUP2 MSTORE PUSH1 0x20 ADD DUP3 DUP1 SLOAD PUSH2 0xAAC SWAP1 PUSH2 0x24F5 JUMP JUMPDEST DUP1 ISZERO PUSH2 0xAF9 JUMPI DUP1 PUSH1 0x1F LT PUSH2 0xACE JUMPI PUSH2 0x100 DUP1 DUP4 SLOAD DIV MUL DUP4 MSTORE SWAP2 PUSH1 0x20 ADD SWAP2 PUSH2 0xAF9 JUMP JUMPDEST DUP3 ADD SWAP2 SWAP1 PUSH1 0x0 MSTORE PUSH1 0x20 PUSH1 0x0 KECCAK256 SWAP1 JUMPDEST DUP2 SLOAD DUP2 MSTORE SWAP1 PUSH1 0x1 ADD SWAP1 PUSH1 0x20 ADD DUP1 DUP4 GT PUSH2 0xADC JUMPI DUP3 SWAP1 SUB PUSH1 0x1F AND DUP3 ADD SWAP2 JUMPDEST POP POP POP POP POP DUP2 JUMP JUMPDEST PUSH1 0x8 DUP2 DUP2 SLOAD DUP2 LT PUSH2 0xB11 JUMPI PUSH1 0x0 DUP1 REVERT JUMPDEST SWAP1 PUSH1 0x0 MSTORE PUSH1 0x20 PUSH1 0x0 KECCAK256 SWAP1 PUSH1 0x20 SWAP2 DUP3 DUP3 DIV ADD SWAP2 SWAP1 MOD SWAP2 POP SLOAD SWAP1 PUSH2 0x100 EXP SWAP1 DIV PUSH1 0xFF AND DUP2 JUMP JUMPDEST PUSH1 0x60 PUSH1 0x0 PUSH2 0xB41 PUSH2 0x13D6 JUMP JUMPDEST PUSH1 0x6 SLOAD SWAP1 SWAP2 POP PUSH1 0x0 SWAP1 PUSH2 0x100 SWAP1 DIV PUSH1 0xFF AND PUSH8 0xFFFFFFFFFFFFFFFF DUP2 GT ISZERO PUSH2 0xB6A JUMPI PUSH2 0xB6A PUSH2 0x25C2 JUMP JUMPDEST PUSH1 0x40 MLOAD SWAP1 DUP1 DUP3 MSTORE DUP1 PUSH1 0x20 MUL PUSH1 0x20 ADD DUP3 ADD PUSH1 0x40 MSTORE DUP1 ISZERO PUSH2 0xB93 JUMPI DUP2 PUSH1 0x20 ADD PUSH1 0x20 DUP3 MUL DUP1 CALLDATASIZE DUP4 CALLDATACOPY ADD SWAP1 POP JUMPDEST POP SWAP1 POP DUP2 PUSH1 0x0 SUB PUSH2 0xC11 JUMPI PUSH1 0x6 SLOAD PUSH1 0x0 SWAP1 PUSH2 0xBB8 SWAP1 PUSH2 0x100 SWAP1 DIV PUSH1 0xFF AND PUSH2 0x2710 PUSH2 0x25D8 JUMP JUMPDEST PUSH2 0xFFFF AND SWAP1 POP PUSH1 0x0 JUMPDEST PUSH1 0x6 SLOAD PUSH1 0xFF PUSH2 0x100 SWAP1 SWAP2 DIV DUP2 AND SWAP1 DUP3 AND LT ISZERO PUSH2 0xC0A JUMPI DUP2 DUP4 DUP3 PUSH1 0xFF AND DUP2 MLOAD DUP2 LT PUSH2 0xBED JUMPI PUSH2 0xBED PUSH2 0x2529 JUMP JUMPDEST PUSH1 0x20 SWAP1 DUP2 MUL SWAP2 SWAP1 SWAP2 ADD ADD MSTORE DUP1 PUSH2 0xC02 DUP2 PUSH2 0x25F9 JUMP JUMPDEST SWAP2 POP POP PUSH2 0xBC1 JUMP JUMPDEST POP POP PUSH2 0xC97 JUMP JUMPDEST PUSH1 0x0 JUMPDEST PUSH1 0x6 SLOAD PUSH1 0xFF PUSH2 0x100 SWAP1 SWAP2 DIV DUP2 AND SWAP1 DUP3 AND LT ISZERO PUSH2 0xC95 JUMPI DUP3 PUSH1 0xC DUP3 PUSH1 0xFF AND DUP2 SLOAD DUP2 LT PUSH2 0xC41 JUMPI PUSH2 0xC41 PUSH2 0x2529 JUMP JUMPDEST SWAP1 PUSH1 0x0 MSTORE PUSH1 0x20 PUSH1 0x0 KECCAK256 ADD SLOAD PUSH2 0x2710 PUSH2 0xC59 SWAP2 SWAP1 PUSH2 0x2581 JUMP JUMPDEST PUSH2 0xC63 SWAP2 SWAP1 PUSH2 0x25AE JUMP JUMPDEST DUP3 DUP3 PUSH1 0xFF AND DUP2 MLOAD DUP2 LT PUSH2 0xC78 JUMPI PUSH2 0xC78 PUSH2 0x2529 JUMP JUMPDEST PUSH1 0x20 SWAP1 DUP2 MUL SWAP2 SWAP1 SWAP2 ADD ADD MSTORE DUP1 PUSH2 0xC8D DUP2 PUSH2 0x25F9 JUMP JUMPDEST SWAP2 POP POP PUSH2 0xC14 JUMP JUMPDEST POP JUMPDEST SWAP3 SWAP2 POP POP JUMP JUMPDEST PUSH1 0x0 SLOAD PUSH1 0x1 PUSH1 0x1 PUSH1 0xA0 SHL SUB AND CALLER EQ PUSH2 0xCC8 JUMPI PUSH1 0x40 MLOAD PUSH4 0xEA8E4EB5 PUSH1 0xE0 SHL DUP2 MSTORE PUSH1 0x4 ADD PUSH1 0x40 MLOAD DUP1 SWAP2 SUB SWAP1 REVERT JUMPDEST PUSH1 0x1 SLOAD PUSH1 0x1 PUSH1 0x1 PUSH1 0xA0 SHL SUB AND ISZERO PUSH2 0xCF2 JUMPI PUSH1 0x40 MLOAD PUSH4 0xDCDC26F PUSH1 0xE2 SHL DUP2 MSTORE PUSH1 0x4 ADD PUSH1 0x40 MLOAD DUP1 SWAP2 SUB SWAP1 REVERT JUMPDEST PUSH1 0x1 PUSH1 0x1 PUSH1 0xA0 SHL SUB DUP2 AND PUSH2 0xD19 JUMPI PUSH1 0x40 MLOAD PUSH4 0x162908E3 PUSH1 0xE1 SHL DUP2 MSTORE PUSH1 0x4 ADD PUSH1 0x40 MLOAD DUP1 SWAP2 SUB SWAP1 REVERT JUMPDEST PUSH1 0x1 DUP1 SLOAD PUSH1 0x1 PUSH1 0x1 PUSH1 0xA0 SHL SUB NOT AND PUSH1 0x1 PUSH1 0x1 PUSH1 0xA0 SHL SUB SWAP3 SWAP1 SWAP3 AND SWAP2 SWAP1 SWAP2 OR SWAP1 SSTORE JUMP JUMPDEST PUSH1 0x6 SLOAD PUSH1 0x0 SWAP1 PUSH1 0xFF PUSH2 0x100 SWAP1 SWAP2 DIV DUP2 AND SWAP1 DUP5 AND LT PUSH2 0xD5B JUMPI POP PUSH1 0x0 PUSH2 0xC97 JUMP JUMPDEST PUSH1 0x0 PUSH2 0xD65 PUSH2 0x13D6 JUMP JUMPDEST SWAP1 POP DUP1 PUSH1 0x0 SUB PUSH2 0xD79 JUMPI PUSH1 0x0 SWAP2 POP POP PUSH2 0xC97 JUMP JUMPDEST DUP1 PUSH1 0xC DUP6 PUSH1 0xFF AND DUP2 SLOAD DUP2 LT PUSH2 0xD90 JUMPI PUSH2 0xD90 PUSH2 0x2529 JUMP JUMPDEST SWAP1 PUSH1 0x0 MSTORE PUSH1 0x20 PUSH1 0x0 KECCAK256 ADD SLOAD DUP5 PUSH2 0xDA6 SWAP2 SWAP1 PUSH2 0x2581 JUMP JUMPDEST PUSH2 0xDB0 SWAP2 SWAP1 PUSH2 0x25AE JUMP JUMPDEST SWAP5 SWAP4 POP POP POP POP JUMP JUMPDEST PUSH1 0x6 SLOAD PUSH1 0x60 SWAP1 PUSH1 0x0 SWAP1 DUP2 SWAP1 PUSH2 0x100 SWAP1 DIV PUSH1 0xFF AND PUSH8 0xFFFFFFFFFFFFFFFF DUP2 GT ISZERO PUSH2 0xDE3 JUMPI PUSH2 0xDE3 PUSH2 0x25C2 JUMP JUMPDEST PUSH1 0x40 MLOAD SWAP1 DUP1 DUP3 MSTORE DUP1 PUSH1 0x20 MUL PUSH1 0x20 ADD DUP3 ADD PUSH1 0x40 MSTORE DUP1 ISZERO PUSH2 0xE0C JUMPI DUP2 PUSH1 0x20 ADD PUSH1 0x20 DUP3 MUL DUP1 CALLDATASIZE DUP4 CALLDATACOPY ADD SWAP1 POP JUMPDEST POP SWAP1 POP PUSH1 0x0 JUMPDEST PUSH1 0x6 SLOAD PUSH1 0xFF PUSH2 0x100 SWAP1 SWAP2 DIV DUP2 AND SWAP1 DUP3 AND LT ISZERO PUSH2 0xE81 JUMPI PUSH1 0x1 PUSH1 0x1 PUSH1 0xA0 SHL SUB DUP6 AND PUSH1 0x0 SWAP1 DUP2 MSTORE PUSH1 0xA PUSH1 0x20 SWAP1 DUP2 MSTORE PUSH1 0x40 DUP1 DUP4 KECCAK256 PUSH1 0xFF DUP6 AND DUP1 DUP6 MSTORE SWAP3 MSTORE SWAP1 SWAP2 KECCAK256 SLOAD DUP4 MLOAD SWAP1 SWAP2 DUP5 SWAP2 DUP2 LT PUSH2 0xE64 JUMPI PUSH2 0xE64 PUSH2 0x2529 JUMP JUMPDEST PUSH1 0x20 SWAP1 DUP2 MUL SWAP2 SWAP1 SWAP2 ADD ADD MSTORE DUP1 PUSH2 0xE79 DUP2 PUSH2 0x25F9 JUMP JUMPDEST SWAP2 POP POP PUSH2 0xE12 JUMP JUMPDEST POP PUSH1 0x1 PUSH1 0x1 PUSH1 0xA0 SHL SUB SWAP1 SWAP4 AND PUSH1 0x0 SWAP1 DUP2 MSTORE PUSH1 0xB PUSH1 0x20 MSTORE PUSH1 0x40 SWAP1 KECCAK256 SLOAD SWAP3 SWAP4 PUSH1 0xFF SWAP1 SWAP4 AND SWAP3 SWAP2 POP POP JUMP JUMPDEST PUSH1 0x0 SLOAD PUSH1 0x1 PUSH1 0x1 PUSH1 0xA0 SHL SUB AND CALLER EQ PUSH2 0xED4 JUMPI PUSH1 0x40 MLOAD PUSH4 0xEA8E4EB5 PUSH1 0xE0 SHL DUP2 MSTORE PUSH1 0x4 ADD PUSH1 0x40 MLOAD DUP1 SWAP2 SUB SWAP1 REVERT JUMPDEST PUSH1 0x0 PUSH1 0x6 SLOAD PUSH1 0xFF AND PUSH1 0x2 DUP2 GT ISZERO PUSH2 0xEED JUMPI PUSH2 0xEED PUSH2 0x2192 JUMP JUMPDEST EQ PUSH2 0xF0B JUMPI PUSH1 0x40 MLOAD PUSH4 0x5A90BB8D PUSH1 0xE1 SHL DUP2 MSTORE PUSH1 0x4 ADD PUSH1 0x40 MLOAD DUP1 SWAP2 SUB SWAP1 REVERT JUMPDEST PUSH1 0x4 SLOAD TIMESTAMP LT ISZERO PUSH2 0xF2E JUMPI PUSH1 0x40 MLOAD PUSH4 0x493AB149 PUSH1 0xE1 SHL DUP2 MSTORE PUSH1 0x4 ADD PUSH1 0x40 MLOAD DUP1 SWAP2 SUB SWAP1 REVERT JUMPDEST PUSH1 0x0 DUP2 SWAP1 SUB PUSH2 0xF50 JUMPI PUSH1 0x40 MLOAD PUSH4 0x62A02605 PUSH1 0xE0 SHL DUP2 MSTORE PUSH1 0x4 ADD PUSH1 0x40 MLOAD DUP1 SWAP2 SUB SWAP1 REVERT JUMPDEST PUSH1 0x6 SLOAD PUSH2 0x100 SWAP1 DIV PUSH1 0xFF AND DUP2 GT ISZERO PUSH2 0xF7B JUMPI PUSH1 0x40 MLOAD PUSH4 0x23758251 PUSH1 0xE2 SHL DUP2 MSTORE PUSH1 0x4 ADD PUSH1 0x40 MLOAD DUP1 SWAP2 SUB SWAP1 REVERT JUMPDEST PUSH1 0x0 JUMPDEST DUP2 DUP2 LT ISZERO PUSH2 0x1089 JUMPI PUSH1 0x0 DUP4 DUP4 DUP4 DUP2 DUP2 LT PUSH2 0xF9A JUMPI PUSH2 0xF9A PUSH2 0x2529 JUMP JUMPDEST SWAP1 POP PUSH1 0x20 MUL ADD PUSH1 0x20 DUP2 ADD SWAP1 PUSH2 0xFAF SWAP2 SWAP1 PUSH2 0x23E8 JUMP JUMPDEST PUSH1 0x6 SLOAD SWAP1 SWAP2 POP PUSH1 0xFF PUSH2 0x100 SWAP1 SWAP2 DIV DUP2 AND SWAP1 DUP3 AND LT PUSH2 0xFE0 JUMPI PUSH1 0x40 MLOAD PUSH4 0x2A719531 PUSH1 0xE0 SHL DUP2 MSTORE PUSH1 0x4 ADD PUSH1 0x40 MLOAD DUP1 SWAP2 SUB SWAP1 REVERT JUMPDEST PUSH1 0x8 DUP2 PUSH1 0xFF AND DUP2 SLOAD DUP2 LT PUSH2 0xFF6 JUMPI PUSH2 0xFF6 PUSH2 0x2529 JUMP JUMPDEST SWAP1 PUSH1 0x0 MSTORE PUSH1 0x20 PUSH1 0x0 KECCAK256 SWAP1 PUSH1 0x20 SWAP2 DUP3 DUP3 DIV ADD SWAP2 SWAP1 MOD SWAP1 SLOAD SWAP1 PUSH2 0x100 EXP SWAP1 DIV PUSH1 0xFF AND ISZERO PUSH2 0x1034 JUMPI PUSH1 0x40 MLOAD PUSH4 0x5A1E9CD PUSH1 0xE1 SHL DUP2 MSTORE PUSH1 0x4 ADD PUSH1 0x40 MLOAD DUP1 SWAP2 SUB SWAP1 REVERT JUMPDEST PUSH1 0x1 PUSH1 0x8 DUP3 PUSH1 0xFF AND DUP2 SLOAD DUP2 LT PUSH2 0x104C JUMPI PUSH2 0x104C PUSH2 0x2529 JUMP JUMPDEST SWAP1 PUSH1 0x0 MSTORE PUSH1 0x20 PUSH1 0x0 KECCAK256 SWAP1 PUSH1 0x20 SWAP2 DUP3 DUP3 DIV ADD SWAP2 SWAP1 MOD PUSH2 0x100 EXP DUP2 SLOAD DUP2 PUSH1 0xFF MUL NOT AND SWAP1 DUP4 ISZERO ISZERO MUL OR SWAP1 SSTORE POP POP DUP1 DUP1 PUSH2 0x1081 SWAP1 PUSH2 0x2568 JUMP JUMPDEST SWAP2 POP POP PUSH2 0xF7E JUMP JUMPDEST POP PUSH1 0x9 DUP1 SLOAD PUSH1 0x1 PUSH1 0xFF NOT SWAP2 DUP3 AND DUP2 OR SWAP1 SWAP3 SSTORE PUSH1 0x6 DUP1 SLOAD SWAP1 SWAP2 AND SWAP1 SWAP2 OR SWAP1 SSTORE PUSH32 0x442DB8BB9FC4313FC02C098D0FD4D70FEAD65B4DECA9C5087724E3F02927C208 DUP3 DUP3 PUSH2 0x10D2 PUSH2 0x13D6 JUMP JUMPDEST PUSH1 0x40 MLOAD PUSH2 0x10E1 SWAP4 SWAP3 SWAP2 SWAP1 PUSH2 0x2618 JUMP JUMPDEST PUSH1 0x40 MLOAD DUP1 SWAP2 SUB SWAP1 LOG1 POP POP JUMP JUMPDEST PUSH1 0x1 SLOAD PUSH1 0x1 PUSH1 0x1 PUSH1 0xA0 SHL SUB AND CALLER EQ PUSH2 0x1118 JUMPI PUSH1 0x40 MLOAD PUSH4 0x5D154FE1 PUSH1 0xE1 SHL DUP2 MSTORE PUSH1 0x4 ADD PUSH1 0x40 MLOAD DUP1 SWAP2 SUB SWAP1 REVERT JUMPDEST PUSH1 0x0 PUSH1 0x6 SLOAD PUSH1 0xFF AND PUSH1 0x2 DUP2 GT ISZERO PUSH2 0x1131 JUMPI PUSH2 0x1131 PUSH2 0x2192 JUMP JUMPDEST EQ PUSH2 0x114F JUMPI PUSH1 0x40 MLOAD PUSH4 0x5A90BB8D PUSH1 0xE1 SHL DUP2 MSTORE PUSH1 0x4 ADD PUSH1 0x40 MLOAD DUP1 SWAP2 SUB SWAP1 REVERT JUMPDEST PUSH1 0x4 SLOAD TIMESTAMP LT ISZERO PUSH2 0x1172 JUMPI PUSH1 0x40 MLOAD PUSH4 0x493AB149 PUSH1 0xE1 SHL DUP2 MSTORE PUSH1 0x4 ADD PUSH1 0x40 MLOAD DUP1 SWAP2 SUB SWAP1 REVERT JUMPDEST PUSH1 0x0 DUP2 SWAP1 SUB PUSH2 0x1194 JUMPI PUSH1 0x40 MLOAD PUSH4 0x62A02605 PUSH1 0xE0 SHL DUP2 MSTORE PUSH1 0x4 ADD PUSH1 0x40 MLOAD DUP1 SWAP2 SUB SWAP1 REVERT JUMPDEST PUSH1 0x6 SLOAD PUSH2 0x100 SWAP1 DIV PUSH1 0xFF AND DUP2 GT ISZERO PUSH2 0x11BF JUMPI PUSH1 0x40 MLOAD PUSH4 0x23758251 PUSH1 0xE2 SHL DUP2 MSTORE PUSH1 0x4 ADD PUSH1 0x40 MLOAD DUP1 SWAP2 SUB SWAP1 REVERT JUMPDEST PUSH1 0x0 JUMPDEST DUP2 DUP2 LT ISZERO PUSH2 0x1089 JUMPI PUSH1 0x0 DUP4 DUP4 DUP4 DUP2 DUP2 LT PUSH2 0x11DE JUMPI PUSH2 0x11DE PUSH2 0x2529 JUMP JUMPDEST SWAP1 POP PUSH1 0x20 MUL ADD PUSH1 0x20 DUP2 ADD SWAP1 PUSH2 0x11F3 SWAP2 SWAP1 PUSH2 0x23E8 JUMP JUMPDEST PUSH1 0x6 SLOAD SWAP1 SWAP2 POP PUSH1 0xFF PUSH2 0x100 SWAP1 SWAP2 DIV DUP2 AND SWAP1 DUP3 AND LT PUSH2 0x1224 JUMPI PUSH1 0x40 MLOAD PUSH4 0x2A719531 PUSH1 0xE0 SHL DUP2 MSTORE PUSH1 0x4 ADD PUSH1 0x40 MLOAD DUP1 SWAP2 SUB SWAP1 REVERT JUMPDEST PUSH1 0x8 DUP2 PUSH1 0xFF AND DUP2 SLOAD DUP2 LT PUSH2 0x123A JUMPI PUSH2 0x123A PUSH2 0x2529 JUMP JUMPDEST SWAP1 PUSH1 0x0 MSTORE PUSH1 0x20 PUSH1 0x0 KECCAK256 SWAP1 PUSH1 0x20 SWAP2 DUP3 DUP3 DIV ADD SWAP2 SWAP1 MOD SWAP1 SLOAD SWAP1 PUSH2 0x100 EXP SWAP1 DIV PUSH1 0xFF AND ISZERO PUSH2 0x1278 JUMPI PUSH1 0x40 MLOAD PUSH4 0x5A1E9CD PUSH1 0xE1 SHL DUP2 MSTORE PUSH1 0x4 ADD PUSH1 0x40 MLOAD DUP1 SWAP2 SUB SWAP1 REVERT JUMPDEST PUSH1 0x1 PUSH1 0x8 DUP3 PUSH1 0xFF AND DUP2 SLOAD DUP2 LT PUSH2 0x1290 JUMPI PUSH2 0x1290 PUSH2 0x2529 JUMP JUMPDEST SWAP1 PUSH1 0x0 MSTORE PUSH1 0x20 PUSH1 0x0 KECCAK256 SWAP1 PUSH1 0x20 SWAP2 DUP3 DUP3 DIV ADD SWAP2 SWAP1 MOD PUSH2 0x100 EXP DUP2 SLOAD DUP2 PUSH1 0xFF MUL NOT AND SWAP1 DUP4 ISZERO ISZERO MUL OR SWAP1 SSTORE POP POP DUP1 DUP1 PUSH2 0x12C5 SWAP1 PUSH2 0x2568 JUMP JUMPDEST SWAP2 POP POP PUSH2 0x11C2 JUMP JUMPDEST PUSH1 0x0 SLOAD PUSH1 0x1 PUSH1 0x1 PUSH1 0xA0 SHL SUB AND CALLER EQ PUSH2 0x12F8 JUMPI PUSH1 0x40 MLOAD PUSH4 0xEA8E4EB5 PUSH1 0xE0 SHL DUP2 MSTORE PUSH1 0x4 ADD PUSH1 0x40 MLOAD DUP1 SWAP2 SUB SWAP1 REVERT JUMPDEST PUSH1 0x0 PUSH1 0x6 SLOAD PUSH1 0xFF AND PUSH1 0x2 DUP2 GT ISZERO PUSH2 0x1311 JUMPI PUSH2 0x1311 PUSH2 0x2192 JUMP JUMPDEST EQ PUSH2 0x132F JUMPI PUSH1 0x40 MLOAD PUSH4 0x5A90BB8D PUSH1 0xE1 SHL DUP2 MSTORE PUSH1 0x4 ADD PUSH1 0x40 MLOAD DUP1 SWAP2 SUB SWAP1 REVERT JUMPDEST PUSH1 0x6 DUP1 SLOAD PUSH1 0xFF NOT AND PUSH1 0x2 OR SWAP1 SSTORE PUSH1 0x40 MLOAD CALLER SWAP1 PUSH32 0x996FAFAB197BEB99FFF6FDC975BB6CF90352F2C733C76EF37C2E27F17D7D424B SWAP1 PUSH1 0x0 SWAP1 LOG2 JUMP JUMPDEST PUSH1 0x2 SLOAD PUSH1 0x40 MLOAD PUSH4 0x70A08231 PUSH1 0xE0 SHL DUP2 MSTORE ADDRESS PUSH1 0x4 DUP3 ADD MSTORE PUSH1 0x0 SWAP2 PUSH1 0x1 PUSH1 0x1 PUSH1 0xA0 SHL SUB AND SWAP1 PUSH4 0x70A08231 SWAP1 PUSH1 0x24 ADD PUSH1 0x20 PUSH1 0x40 MLOAD DUP1 DUP4 SUB DUP2 DUP7 GAS STATICCALL ISZERO DUP1 ISZERO PUSH2 0x13B2 JUMPI RETURNDATASIZE PUSH1 0x0 DUP1 RETURNDATACOPY RETURNDATASIZE PUSH1 0x0 REVERT JUMPDEST POP POP POP POP PUSH1 0x40 MLOAD RETURNDATASIZE PUSH1 0x1F NOT PUSH1 0x1F DUP3 ADD AND DUP3 ADD DUP1 PUSH1 0x40 MSTORE POP DUP2 ADD SWAP1 PUSH2 0x53F SWAP2 SWAP1 PUSH2 0x2666 JUMP JUMPDEST PUSH1 0x0 DUP1 DUP1 JUMPDEST PUSH1 0x6 SLOAD PUSH1 0xFF PUSH2 0x100 SWAP1 SWAP2 DIV DUP2 AND SWAP1 DUP3 AND LT ISZERO PUSH2 0x1431 JUMPI PUSH1 0xC DUP2 PUSH1 0xFF AND DUP2 SLOAD DUP2 LT PUSH2 0x1407 JUMPI PUSH2 0x1407 PUSH2 0x2529 JUMP JUMPDEST SWAP1 PUSH1 0x0 MSTORE PUSH1 0x20 PUSH1 0x0 KECCAK256 ADD SLOAD DUP3 PUSH2 0x141D SWAP2 SWAP1 PUSH2 0x2555 JUMP JUMPDEST SWAP2 POP DUP1 PUSH2 0x1429 DUP2 PUSH2 0x25F9 JUMP JUMPDEST SWAP2 POP POP PUSH2 0x13DB JUMP JUMPDEST POP SWAP2 SWAP1 POP JUMP JUMPDEST PUSH1 0x6 SLOAD PUSH1 0x0 SWAP1 PUSH1 0xFF PUSH2 0x100 SWAP1 SWAP2 DIV DUP2 AND SWAP1 DUP4 AND LT PUSH2 0x1468 JUMPI PUSH1 0x40 MLOAD PUSH4 0x2A719531 PUSH1 0xE0 SHL DUP2 MSTORE PUSH1 0x4 ADD PUSH1 0x40 MLOAD DUP1 SWAP2 SUB SWAP1 REVERT JUMPDEST PUSH1 0x0 PUSH2 0x1472 PUSH2 0x13D6 JUMP JUMPDEST SWAP1 POP DUP1 PUSH1 0x0 SUB PUSH2 0x149E JUMPI PUSH1 0x6 SLOAD PUSH2 0x1493 SWAP1 PUSH2 0x100 SWAP1 DIV PUSH1 0xFF AND PUSH2 0x2710 PUSH2 0x25D8 JUMP JUMPDEST PUSH2 0xFFFF AND SWAP4 SWAP3 POP POP POP JUMP JUMPDEST DUP1 PUSH1 0xC DUP5 PUSH1 0xFF AND DUP2 SLOAD DUP2 LT PUSH2 0x14B5 JUMPI PUSH2 0x14B5 PUSH2 0x2529 JUMP JUMPDEST SWAP1 PUSH1 0x0 MSTORE PUSH1 0x20 PUSH1 0x0 KECCAK256 ADD SLOAD PUSH2 0x2710 PUSH2 0x14CD SWAP2 SWAP1 PUSH2 0x2581 JUMP JUMPDEST PUSH2 0x913 SWAP2 SWAP1 PUSH2 0x25AE JUMP JUMPDEST PUSH1 0x60 PUSH1 0x7 DUP1 SLOAD DUP1 PUSH1 0x20 MUL PUSH1 0x20 ADD PUSH1 0x40 MLOAD SWAP1 DUP2 ADD PUSH1 0x40 MSTORE DUP1 SWAP3 SWAP2 SWAP1 DUP2 DUP2 MSTORE PUSH1 0x20 ADD PUSH1 0x0 SWAP1 JUMPDEST DUP3 DUP3 LT ISZERO PUSH2 0x15A7 JUMPI DUP4 DUP3 SWAP1 PUSH1 0x0 MSTORE PUSH1 0x20 PUSH1 0x0 KECCAK256 ADD DUP1 SLOAD PUSH2 0x151A SWAP1 PUSH2 0x24F5 JUMP JUMPDEST DUP1 PUSH1 0x1F ADD PUSH1 0x20 DUP1 SWAP2 DIV MUL PUSH1 0x20 ADD PUSH1 0x40 MLOAD SWAP1 DUP2 ADD PUSH1 0x40 MSTORE DUP1 SWAP3 SWAP2 SWAP1 DUP2 DUP2 MSTORE PUSH1 0x20 ADD DUP3 DUP1 SLOAD PUSH2 0x1546 SWAP1 PUSH2 0x24F5 JUMP JUMPDEST DUP1 ISZERO PUSH2 0x1593 JUMPI DUP1 PUSH1 0x1F LT PUSH2 0x1568 JUMPI PUSH2 0x100 DUP1 DUP4 SLOAD DIV MUL DUP4 MSTORE SWAP2 PUSH1 0x20 ADD SWAP2 PUSH2 0x1593 JUMP JUMPDEST DUP3 ADD SWAP2 SWAP1 PUSH1 0x0 MSTORE PUSH1 0x20 PUSH1 0x0 KECCAK256 SWAP1 JUMPDEST DUP2 SLOAD DUP2 MSTORE SWAP1 PUSH1 0x1 ADD SWAP1 PUSH1 0x20 ADD DUP1 DUP4 GT PUSH2 0x1576 JUMPI DUP3 SWAP1 SUB PUSH1 0x1F AND DUP3 ADD SWAP2 JUMPDEST POP POP POP POP POP DUP2 MSTORE PUSH1 0x20 ADD SWAP1 PUSH1 0x1 ADD SWAP1 PUSH2 0x14FB JUMP JUMPDEST POP POP POP POP SWAP1 POP SWAP1 JUMP JUMPDEST PUSH1 0xD SLOAD PUSH1 0xFF AND ISZERO PUSH2 0x15D4 JUMPI PUSH1 0x40 MLOAD PUSH4 0x45F5CE8B PUSH1 0xE1 SHL DUP2 MSTORE PUSH1 0x4 ADD PUSH1 0x40 MLOAD DUP1 SWAP2 SUB SWAP1 REVERT JUMPDEST PUSH1 0xD DUP1 SLOAD PUSH1 0xFF NOT AND PUSH1 0x1 SWAP1 DUP2 OR SWAP1 SWAP2 SSTORE PUSH1 0x6 SLOAD PUSH1 0xFF AND PUSH1 0x2 DUP2 GT ISZERO PUSH2 0x15FB JUMPI PUSH2 0x15FB PUSH2 0x2192 JUMP JUMPDEST EQ PUSH2 0x1619 JUMPI PUSH1 0x40 MLOAD PUSH4 0x174B6393 PUSH1 0xE1 SHL DUP2 MSTORE PUSH1 0x4 ADD PUSH1 0x40 MLOAD DUP1 SWAP2 SUB SWAP1 REVERT JUMPDEST CALLER PUSH1 0x0 SWAP1 DUP2 MSTORE PUSH1 0xB PUSH1 0x20 MSTORE PUSH1 0x40 SWAP1 KECCAK256 SLOAD PUSH1 0xFF AND ISZERO PUSH2 0x164A JUMPI PUSH1 0x40 MLOAD PUSH4 0xC8D9EAB PUSH1 0xE3 SHL DUP2 MSTORE PUSH1 0x4 ADD PUSH1 0x40 MLOAD DUP1 SWAP2 SUB SWAP1 REVERT JUMPDEST PUSH1 0x0 DUP1 PUSH1 0x0 JUMPDEST PUSH1 0x6 SLOAD PUSH1 0xFF PUSH2 0x100 SWAP1 SWAP2 DIV DUP2 AND SWAP1 DUP3 AND LT ISZERO PUSH2 0x170C JUMPI PUSH1 0x8 DUP2 PUSH1 0xFF AND DUP2 SLOAD DUP2 LT PUSH2 0x167C JUMPI PUSH2 0x167C PUSH2 0x2529 JUMP JUMPDEST SWAP1 PUSH1 0x0 MSTORE PUSH1 0x20 PUSH1 0x0 KECCAK256 SWAP1 PUSH1 0x20 SWAP2 DUP3 DUP3 DIV ADD SWAP2 SWAP1 MOD SWAP1 SLOAD SWAP1 PUSH2 0x100 EXP SWAP1 DIV PUSH1 0xFF AND ISZERO PUSH2 0x16FA JUMPI CALLER PUSH1 0x0 SWAP1 DUP2 MSTORE PUSH1 0xA PUSH1 0x20 SWAP1 DUP2 MSTORE PUSH1 0x40 DUP1 DUP4 KECCAK256 PUSH1 0xFF DUP6 AND DUP5 MSTORE SWAP1 SWAP2 MSTORE SWAP1 KECCAK256 SLOAD PUSH2 0x16C9 SWAP1 DUP5 PUSH2 0x2555 JUMP JUMPDEST SWAP3 POP PUSH1 0xC DUP2 PUSH1 0xFF AND DUP2 SLOAD DUP2 LT PUSH2 0x16E1 JUMPI PUSH2 0x16E1 PUSH2 0x2529 JUMP JUMPDEST SWAP1 PUSH1 0x0 MSTORE PUSH1 0x20 PUSH1 0x0 KECCAK256 ADD SLOAD DUP3 PUSH2 0x16F7 SWAP2 SWAP1 PUSH2 0x2555 JUMP JUMPDEST SWAP2 POP JUMPDEST DUP1 PUSH2 0x1704 DUP2 PUSH2 0x25F9 JUMP JUMPDEST SWAP2 POP POP PUSH2 0x1650 JUMP JUMPDEST POP DUP2 PUSH1 0x0 SUB PUSH2 0x172E JUMPI PUSH1 0x40 MLOAD PUSH4 0x12D37EE5 PUSH1 0xE3 SHL DUP2 MSTORE PUSH1 0x4 ADD PUSH1 0x40 MLOAD DUP1 SWAP2 SUB SWAP1 REVERT JUMPDEST PUSH1 0x0 PUSH2 0x1738 PUSH2 0x13D6 JUMP JUMPDEST SWAP1 POP PUSH1 0x0 DUP3 PUSH2 0x1747 DUP4 DUP7 PUSH2 0x2581 JUMP JUMPDEST PUSH2 0x1751 SWAP2 SWAP1 PUSH2 0x25AE JUMP JUMPDEST CALLER PUSH1 0x0 SWAP1 DUP2 MSTORE PUSH1 0xB PUSH1 0x20 MSTORE PUSH1 0x40 DUP2 KECCAK256 DUP1 SLOAD PUSH1 0xFF NOT AND PUSH1 0x1 OR SWAP1 SSTORE SWAP1 SWAP2 POP JUMPDEST PUSH1 0x6 SLOAD PUSH1 0xFF PUSH2 0x100 SWAP1 SWAP2 DIV DUP2 AND SWAP1 DUP3 AND LT ISZERO PUSH2 0x17B5 JUMPI CALLER PUSH1 0x0 SWAP1 DUP2 MSTORE PUSH1 0xA PUSH1 0x20 SWAP1 DUP2 MSTORE PUSH1 0x40 DUP1 DUP4 KECCAK256 PUSH1 0xFF DUP6 AND DUP5 MSTORE SWAP1 SWAP2 MSTORE DUP2 KECCAK256 SSTORE DUP1 PUSH2 0x17AD DUP2 PUSH2 0x25F9 JUMP JUMPDEST SWAP2 POP POP PUSH2 0x176F JUMP JUMPDEST POP PUSH1 0x2 SLOAD PUSH1 0x40 MLOAD PUSH4 0xA9059CBB PUSH1 0xE0 SHL DUP2 MSTORE CALLER PUSH1 0x4 DUP3 ADD MSTORE PUSH1 0x24 DUP2 ADD DUP4 SWAP1 MSTORE PUSH1 0x0 SWAP2 PUSH1 0x1 PUSH1 0x1 PUSH1 0xA0 SHL SUB AND SWAP1 PUSH4 0xA9059CBB SWAP1 PUSH1 0x44 ADD PUSH1 0x20 PUSH1 0x40 MLOAD DUP1 DUP4 SUB DUP2 PUSH1 0x0 DUP8 GAS CALL ISZERO DUP1 ISZERO PUSH2 0x1808 JUMPI RETURNDATASIZE PUSH1 0x0 DUP1 RETURNDATACOPY RETURNDATASIZE PUSH1 0x0 REVERT JUMPDEST POP POP POP POP PUSH1 0x40 MLOAD RETURNDATASIZE PUSH1 0x1F NOT PUSH1 0x1F DUP3 ADD AND DUP3 ADD DUP1 PUSH1 0x40 MSTORE POP DUP2 ADD SWAP1 PUSH2 0x182C SWAP2 SWAP1 PUSH2 0x267F JUMP JUMPDEST SWAP1 POP DUP1 PUSH2 0x184C JUMPI PUSH1 0x40 MLOAD PUSH4 0x12171D83 PUSH1 0xE3 SHL DUP2 MSTORE PUSH1 0x4 ADD PUSH1 0x40 MLOAD DUP1 SWAP2 SUB SWAP1 REVERT JUMPDEST PUSH1 0x40 MLOAD DUP3 DUP2 MSTORE CALLER SWAP1 PUSH32 0xD8138F8A3F377C5259CA548E70E4C2DE94F129F5A11036A15B69513CBA2B426A SWAP1 PUSH1 0x20 ADD JUMPDEST PUSH1 0x40 MLOAD DUP1 SWAP2 SUB SWAP1 LOG2 POP POP PUSH1 0xD DUP1 SLOAD PUSH1 0xFF NOT AND SWAP1 SSTORE POP POP POP JUMP JUMPDEST PUSH1 0xD SLOAD PUSH1 0xFF AND ISZERO PUSH2 0x18B7 JUMPI PUSH1 0x40 MLOAD PUSH4 0x45F5CE8B PUSH1 0xE1 SHL DUP2 MSTORE PUSH1 0x4 ADD PUSH1 0x40 MLOAD DUP1 SWAP2 SUB SWAP1 REVERT JUMPDEST PUSH1 0xD DUP1 SLOAD PUSH1 0xFF NOT AND PUSH1 0x1 OR SWAP1 SSTORE PUSH1 0x2 PUSH1 0x6 SLOAD PUSH1 0xFF AND PUSH1 0x2 DUP2 GT ISZERO PUSH2 0x18DD JUMPI PUSH2 0x18DD PUSH2 0x2192 JUMP JUMPDEST EQ PUSH2 0x18FB JUMPI PUSH1 0x40 MLOAD PUSH4 0xA5A0FC5 PUSH1 0xE3 SHL DUP2 MSTORE PUSH1 0x4 ADD PUSH1 0x40 MLOAD DUP1 SWAP2 SUB SWAP1 REVERT JUMPDEST PUSH1 0x0 DUP1 JUMPDEST PUSH1 0x6 SLOAD PUSH1 0xFF PUSH2 0x100 SWAP1 SWAP2 DIV DUP2 AND SWAP1 DUP3 AND LT ISZERO PUSH2 0x196F JUMPI CALLER PUSH1 0x0 SWAP1 DUP2 MSTORE PUSH1 0xA PUSH1 0x20 SWAP1 DUP2 MSTORE PUSH1 0x40 DUP1 DUP4 KECCAK256 PUSH1 0xFF DUP6 AND DUP5 MSTORE SWAP1 SWAP2 MSTORE SWAP1 KECCAK256 SLOAD PUSH2 0x193D SWAP1 DUP4 PUSH2 0x2555 JUMP JUMPDEST CALLER PUSH1 0x0 SWAP1 DUP2 MSTORE PUSH1 0xA PUSH1 0x20 SWAP1 DUP2 MSTORE PUSH1 0x40 DUP1 DUP4 KECCAK256 PUSH1 0xFF DUP7 AND DUP5 MSTORE SWAP1 SWAP2 MSTORE DUP2 KECCAK256 SSTORE SWAP2 POP DUP1 PUSH2 0x1967 DUP2 PUSH2 0x25F9 JUMP JUMPDEST SWAP2 POP POP PUSH2 0x18FF JUMP JUMPDEST POP DUP1 PUSH1 0x0 SUB PUSH2 0x1991 JUMPI PUSH1 0x40 MLOAD PUSH4 0xF76AEF65 PUSH1 0xE0 SHL DUP2 MSTORE PUSH1 0x4 ADD PUSH1 0x40 MLOAD DUP1 SWAP2 SUB SWAP1 REVERT JUMPDEST PUSH1 0x2 SLOAD PUSH1 0x40 MLOAD PUSH4 0xA9059CBB PUSH1 0xE0 SHL DUP2 MSTORE CALLER PUSH1 0x4 DUP3 ADD MSTORE PUSH1 0x24 DUP2 ADD DUP4 SWAP1 MSTORE PUSH1 0x0 SWAP2 PUSH1 0x1 PUSH1 0x1 PUSH1 0xA0 SHL SUB AND SWAP1 PUSH4 0xA9059CBB SWAP1 PUSH1 0x44 ADD PUSH1 0x20 PUSH1 0x40 MLOAD DUP1 DUP4 SUB DUP2 PUSH1 0x0 DUP8 GAS CALL ISZERO DUP1 ISZERO PUSH2 0x19E3 JUMPI RETURNDATASIZE PUSH1 0x0 DUP1 RETURNDATACOPY RETURNDATASIZE PUSH1 0x0 REVERT JUMPDEST POP POP POP POP PUSH1 0x40 MLOAD RETURNDATASIZE PUSH1 0x1F NOT PUSH1 0x1F DUP3 ADD AND DUP3 ADD DUP1 PUSH1 0x40 MSTORE POP DUP2 ADD SWAP1 PUSH2 0x1A07 SWAP2 SWAP1 PUSH2 0x267F JUMP JUMPDEST SWAP1 POP DUP1 PUSH2 0x1A27 JUMPI PUSH1 0x40 MLOAD PUSH4 0x12171D83 PUSH1 0xE3 SHL DUP2 MSTORE PUSH1 0x4 ADD PUSH1 0x40 MLOAD DUP1 SWAP2 SUB SWAP1 REVERT JUMPDEST PUSH1 0x40 MLOAD DUP3 DUP2 MSTORE CALLER SWAP1 PUSH32 0xD7DEE2702D63AD89917B6A4DA9981C90C4D24F8C2BDFD64C604ECAE57D8D0651 SWAP1 PUSH1 0x20 ADD PUSH1 0x40 MLOAD DUP1 SWAP2 SUB SWAP1 LOG2 POP POP PUSH1 0xD DUP1 SLOAD PUSH1 0xFF NOT AND SWAP1 SSTORE JUMP JUMPDEST PUSH1 0x6 SLOAD PUSH1 0x0 SWAP1 PUSH1 0xFF PUSH2 0x100 SWAP1 SWAP2 DIV DUP2 AND SWAP1 DUP4 AND LT PUSH2 0x1A8A JUMPI POP PUSH1 0x0 PUSH2 0xC97 JUMP JUMPDEST POP PUSH1 0x1 PUSH1 0x1 PUSH1 0xA0 SHL SUB DUP3 AND PUSH1 0x0 SWAP1 DUP2 MSTORE PUSH1 0xA PUSH1 0x20 SWAP1 DUP2 MSTORE PUSH1 0x40 DUP1 DUP4 KECCAK256 PUSH1 0xFF DUP6 AND DUP5 MSTORE SWAP1 SWAP2 MSTORE SWAP1 KECCAK256 SLOAD SWAP3 SWAP2 POP POP JUMP JUMPDEST PUSH1 0x60 PUSH1 0xC DUP1 SLOAD DUP1 PUSH1 0x20 MUL PUSH1 0x20 ADD PUSH1 0x40 MLOAD SWAP1 DUP2 ADD PUSH1 0x40 MSTORE DUP1 SWAP3 SWAP2 SWAP1 DUP2 DUP2 MSTORE PUSH1 0x20 ADD DUP3 DUP1 SLOAD DUP1 ISZERO PUSH2 0x988 JUMPI PUSH1 0x20 MUL DUP3 ADD SWAP2 SWAP1 PUSH1 0x0 MSTORE PUSH1 0x20 PUSH1 0x0 KECCAK256 SWAP1 JUMPDEST DUP2 SLOAD DUP2 MSTORE PUSH1 0x20 ADD SWAP1 PUSH1 0x1 ADD SWAP1 DUP1 DUP4 GT PUSH2 0x1AF2 JUMPI POP POP POP POP POP SWAP1 POP SWAP1 JUMP JUMPDEST PUSH1 0x0 PUSH1 0x4 SLOAD TIMESTAMP LT PUSH2 0x1B20 JUMPI POP PUSH1 0x0 SWAP1 JUMP JUMPDEST TIMESTAMP PUSH1 0x4 SLOAD PUSH2 0x53F SWAP2 SWAP1 PUSH2 0x26A1 JUMP JUMPDEST PUSH1 0x0 PUSH1 0x6 SLOAD PUSH1 0xFF AND PUSH1 0x2 DUP2 GT ISZERO PUSH2 0x1B47 JUMPI PUSH2 0x1B47 PUSH2 0x2192 JUMP JUMPDEST EQ PUSH2 0x1B65 JUMPI PUSH1 0x40 MLOAD PUSH4 0x5A90BB8D PUSH1 0xE1 SHL DUP2 MSTORE PUSH1 0x4 ADD PUSH1 0x40 MLOAD DUP1 SWAP2 SUB SWAP1 REVERT JUMPDEST PUSH1 0x4 SLOAD TIMESTAMP LT PUSH2 0x1B87 JUMPI PUSH1 0x40 MLOAD PUSH4 0x262B7531 PUSH1 0xE2 SHL DUP2 MSTORE PUSH1 0x4 ADD PUSH1 0x40 MLOAD DUP1 SWAP2 SUB SWAP1 REVERT JUMPDEST PUSH1 0xD SLOAD PUSH1 0xFF AND ISZERO PUSH2 0x1BAB JUMPI PUSH1 0x40 MLOAD PUSH4 0x45F5CE8B PUSH1 0xE1 SHL DUP2 MSTORE PUSH1 0x4 ADD PUSH1 0x40 MLOAD DUP1 SWAP2 SUB SWAP1 REVERT JUMPDEST PUSH1 0xD DUP1 SLOAD PUSH1 0xFF NOT AND PUSH1 0x1 OR SWAP1 SSTORE PUSH1 0x6 SLOAD PUSH2 0x100 SWAP1 DIV PUSH1 0xFF SWAP1 DUP2 AND SWAP1 DUP4 AND LT PUSH2 0x1BE6 JUMPI PUSH1 0x40 MLOAD PUSH4 0x2A719531 PUSH1 0xE0 SHL DUP2 MSTORE PUSH1 0x4 ADD PUSH1 0x40 MLOAD DUP1 SWAP2 SUB SWAP1 REVERT JUMPDEST DUP1 PUSH1 0x0 SUB PUSH2 0x1C07 JUMPI PUSH1 0x40 MLOAD PUSH4 0x162908E3 PUSH1 0xE1 SHL DUP2 MSTORE PUSH1 0x4 ADD PUSH1 0x40 MLOAD DUP1 SWAP2 SUB SWAP1 REVERT JUMPDEST PUSH1 0x2 SLOAD PUSH1 0x40 MLOAD PUSH4 0x23B872DD PUSH1 0xE0 SHL DUP2 MSTORE CALLER PUSH1 0x4 DUP3 ADD MSTORE ADDRESS PUSH1 0x24 DUP3 ADD MSTORE PUSH1 0x44 DUP2 ADD DUP4 SWAP1 MSTORE PUSH1 0x0 SWAP2 PUSH1 0x1 PUSH1 0x1 PUSH1 0xA0 SHL SUB AND SWAP1 PUSH4 0x23B872DD SWAP1 PUSH1 0x64 ADD PUSH1 0x20 PUSH1 0x40 MLOAD DUP1 DUP4 SUB DUP2 PUSH1 0x0 DUP8 GAS CALL ISZERO DUP1 ISZERO PUSH2 0x1C5F JUMPI RETURNDATASIZE PUSH1 0x0 DUP1 RETURNDATACOPY RETURNDATASIZE PUSH1 0x0 REVERT JUMPDEST POP POP POP POP PUSH1 0x40 MLOAD RETURNDATASIZE PUSH1 0x1F NOT PUSH1 0x1F DUP3 ADD AND DUP3 ADD DUP1 PUSH1 0x40 MSTORE POP DUP2 ADD SWAP1 PUSH2 0x1C83 SWAP2 SWAP1 PUSH2 0x267F JUMP JUMPDEST SWAP1 POP DUP1 PUSH2 0x1CA3 JUMPI PUSH1 0x40 MLOAD PUSH4 0x12171D83 PUSH1 0xE3 SHL DUP2 MSTORE PUSH1 0x4 ADD PUSH1 0x40 MLOAD DUP1 SWAP2 SUB SWAP1 REVERT JUMPDEST CALLER PUSH1 0x0 SWAP1 DUP2 MSTORE PUSH1 0xA PUSH1 0x20 SWAP1 DUP2 MSTORE PUSH1 0x40 DUP1 DUP4 KECCAK256 PUSH1 0xFF DUP8 AND DUP5 MSTORE SWAP1 SWAP2 MSTORE DUP2 KECCAK256 DUP1 SLOAD DUP5 SWAP3 SWAP1 PUSH2 0x1CD0 SWAP1 DUP5 SWAP1 PUSH2 0x2555 JUMP JUMPDEST SWAP3 POP POP DUP2 SWAP1 SSTORE POP DUP2 PUSH1 0xC DUP5 PUSH1 0xFF AND DUP2 SLOAD DUP2 LT PUSH2 0x1CEE JUMPI PUSH2 0x1CEE PUSH2 0x2529 JUMP JUMPDEST SWAP1 PUSH1 0x0 MSTORE PUSH1 0x20 PUSH1 0x0 KECCAK256 ADD PUSH1 0x0 DUP3 DUP3 SLOAD PUSH2 0x1D07 SWAP2 SWAP1 PUSH2 0x2555 JUMP JUMPDEST SWAP1 SWAP2 SSTORE POP POP PUSH1 0x40 DUP1 MLOAD PUSH1 0xFF DUP6 AND DUP2 MSTORE PUSH1 0x20 DUP2 ADD DUP5 SWAP1 MSTORE CALLER SWAP2 PUSH32 0x2AF4933E21B80ECD7F6A3577FAEEE6C93449142BD87DDFA24A82B344BE71DD17 SWAP2 ADD PUSH1 0x40 MLOAD DUP1 SWAP2 SUB SWAP1 LOG2 POP POP PUSH1 0xD DUP1 SLOAD PUSH1 0xFF NOT AND SWAP1 SSTORE POP JUMP JUMPDEST PUSH1 0x7 DUP2 DUP2 SLOAD DUP2 LT PUSH2 0x1D69 JUMPI PUSH1 0x0 DUP1 REVERT JUMPDEST SWAP1 PUSH1 0x0 MSTORE PUSH1 0x20 PUSH1 0x0 KECCAK256 ADD PUSH1 0x0 SWAP2 POP SWAP1 POP DUP1 SLOAD PUSH2 0xA80 SWAP1 PUSH2 0x24F5 JUMP JUMPDEST PUSH1 0x0 PUSH1 0x6 SLOAD PUSH1 0xFF AND PUSH1 0x2 DUP2 GT ISZERO PUSH2 0x1D9D JUMPI PUSH2 0x1D9D PUSH2 0x2192 JUMP JUMPDEST EQ PUSH2 0x1DBB JUMPI PUSH1 0x40 MLOAD PUSH4 0x5A90BB8D PUSH1 0xE1 SHL DUP2 MSTORE PUSH1 0x4 ADD PUSH1 0x40 MLOAD DUP1 SWAP2 SUB SWAP1 REVERT JUMPDEST PUSH1 0x4 SLOAD TIMESTAMP LT PUSH2 0x1DDD JUMPI PUSH1 0x40 MLOAD PUSH4 0x262B7531 PUSH1 0xE2 SHL DUP2 MSTORE PUSH1 0x4 ADD PUSH1 0x40 MLOAD DUP1 SWAP2 SUB SWAP1 REVERT JUMPDEST PUSH1 0xD SLOAD PUSH1 0xFF AND ISZERO PUSH2 0x1E01 JUMPI PUSH1 0x40 MLOAD PUSH4 0x45F5CE8B PUSH1 0xE1 SHL DUP2 MSTORE PUSH1 0x4 ADD PUSH1 0x40 MLOAD DUP1 SWAP2 SUB SWAP1 REVERT JUMPDEST PUSH1 0xD DUP1 SLOAD PUSH1 0xFF NOT AND PUSH1 0x1 OR SWAP1 SSTORE PUSH1 0x6 SLOAD PUSH2 0x100 SWAP1 DIV PUSH1 0xFF SWAP1 DUP2 AND SWAP1 DUP4 AND LT PUSH2 0x1E3C JUMPI PUSH1 0x40 MLOAD PUSH4 0x2A719531 PUSH1 0xE0 SHL DUP2 MSTORE PUSH1 0x4 ADD PUSH1 0x40 MLOAD DUP1 SWAP2 SUB SWAP1 REVERT JUMPDEST DUP1 PUSH1 0x0 SUB PUSH2 0x1E5D JUMPI PUSH1 0x40 MLOAD PUSH4 0x162908E3 PUSH1 0xE1 SHL DUP2 MSTORE PUSH1 0x4 ADD PUSH1 0x40 MLOAD DUP1 SWAP2 SUB SWAP1 REVERT JUMPDEST CALLER PUSH1 0x0 SWAP1 DUP2 MSTORE PUSH1 0xA PUSH1 0x20 SWAP1 DUP2 MSTORE PUSH1 0x40 DUP1 DUP4 KECCAK256 PUSH1 0xFF DUP7 AND DUP5 MSTORE SWAP1 SWAP2 MSTORE SWAP1 KECCAK256 SLOAD DUP2 GT ISZERO PUSH2 0x1E9B JUMPI PUSH1 0x40 MLOAD PUSH4 0x39996567 PUSH1 0xE0 SHL DUP2 MSTORE PUSH1 0x4 ADD PUSH1 0x40 MLOAD DUP1 SWAP2 SUB SWAP1 REVERT JUMPDEST PUSH1 0x0 PUSH2 0x1EA5 PUSH2 0x13D6 JUMP JUMPDEST SWAP1 POP DUP1 PUSH1 0x0 SUB PUSH2 0x1EC8 JUMPI PUSH1 0x40 MLOAD PUSH4 0xBB55FD27 PUSH1 0xE0 SHL DUP2 MSTORE PUSH1 0x4 ADD PUSH1 0x40 MLOAD DUP1 SWAP2 SUB SWAP1 REVERT JUMPDEST PUSH1 0x0 DUP2 PUSH1 0xC DUP6 PUSH1 0xFF AND DUP2 SLOAD DUP2 LT PUSH2 0x1EE1 JUMPI PUSH2 0x1EE1 PUSH2 0x2529 JUMP JUMPDEST SWAP1 PUSH1 0x0 MSTORE PUSH1 0x20 PUSH1 0x0 KECCAK256 ADD SLOAD DUP5 PUSH2 0x1EF7 SWAP2 SWAP1 PUSH2 0x2581 JUMP JUMPDEST PUSH2 0x1F01 SWAP2 SWAP1 PUSH2 0x25AE JUMP JUMPDEST PUSH1 0x2 SLOAD PUSH1 0x40 MLOAD PUSH4 0x70A08231 PUSH1 0xE0 SHL DUP2 MSTORE ADDRESS PUSH1 0x4 DUP3 ADD MSTORE SWAP2 SWAP3 POP DUP3 SWAP2 PUSH1 0x1 PUSH1 0x1 PUSH1 0xA0 SHL SUB SWAP1 SWAP2 AND SWAP1 PUSH4 0x70A08231 SWAP1 PUSH1 0x24 ADD PUSH1 0x20 PUSH1 0x40 MLOAD DUP1 DUP4 SUB DUP2 DUP7 GAS STATICCALL ISZERO DUP1 ISZERO PUSH2 0x1F4E JUMPI RETURNDATASIZE PUSH1 0x0 DUP1 RETURNDATACOPY RETURNDATASIZE PUSH1 0x0 REVERT JUMPDEST POP POP POP POP PUSH1 0x40 MLOAD RETURNDATASIZE PUSH1 0x1F NOT PUSH1 0x1F DUP3 ADD AND DUP3 ADD DUP1 PUSH1 0x40 MSTORE POP DUP2 ADD SWAP1 PUSH2 0x1F72 SWAP2 SWAP1 PUSH2 0x2666 JUMP JUMPDEST LT ISZERO PUSH2 0x1F91 JUMPI PUSH1 0x40 MLOAD PUSH4 0xBB55FD27 PUSH1 0xE0 SHL DUP2 MSTORE PUSH1 0x4 ADD PUSH1 0x40 MLOAD DUP1 SWAP2 SUB SWAP1 REVERT JUMPDEST CALLER PUSH1 0x0 SWAP1 DUP2 MSTORE PUSH1 0xA PUSH1 0x20 SWAP1 DUP2 MSTORE PUSH1 0x40 DUP1 DUP4 KECCAK256 PUSH1 0xFF DUP9 AND DUP5 MSTORE SWAP1 SWAP2 MSTORE DUP2 KECCAK256 DUP1 SLOAD DUP6 SWAP3 SWAP1 PUSH2 0x1FBE SWAP1 DUP5 SWAP1 PUSH2 0x26A1 JUMP JUMPDEST SWAP3 POP POP DUP2 SWAP1 SSTORE POP DUP3 PUSH1 0xC DUP6 PUSH1 0xFF AND DUP2 SLOAD DUP2 LT PUSH2 0x1FDC JUMPI PUSH2 0x1FDC PUSH2 0x2529 JUMP JUMPDEST SWAP1 PUSH1 0x0 MSTORE PUSH1 0x20 PUSH1 0x0 KECCAK256 ADD PUSH1 0x0 DUP3 DUP3 SLOAD PUSH2 0x1FF5 SWAP2 SWAP1 PUSH2 0x26A1 JUMP JUMPDEST SWAP1 SWAP2 SSTORE POP POP PUSH1 0x2 SLOAD PUSH1 0x40 MLOAD PUSH4 0xA9059CBB PUSH1 0xE0 SHL DUP2 MSTORE CALLER PUSH1 0x4 DUP3 ADD MSTORE PUSH1 0x24 DUP2 ADD DUP4 SWAP1 MSTORE PUSH1 0x0 SWAP2 PUSH1 0x1 PUSH1 0x1 PUSH1 0xA0 SHL SUB AND SWAP1 PUSH4 0xA9059CBB SWAP1 PUSH1 0x44 ADD PUSH1 0x20 PUSH1 0x40 MLOAD DUP1 DUP4 SUB DUP2 PUSH1 0x0 DUP8 GAS CALL ISZERO DUP1 ISZERO PUSH2 0x204C JUMPI RETURNDATASIZE PUSH1 0x0 DUP1 RETURNDATACOPY RETURNDATASIZE PUSH1 0x0 REVERT JUMPDEST POP POP POP POP PUSH1 0x40 MLOAD RETURNDATASIZE PUSH1 0x1F NOT PUSH1 0x1F DUP3 ADD AND DUP3 ADD DUP1 PUSH1 0x40 MSTORE POP DUP2 ADD SWAP1 PUSH2 0x2070 SWAP2 SWAP1 PUSH2 0x267F JUMP JUMPDEST SWAP1 POP DUP1 PUSH2 0x2090 JUMPI PUSH1 0x40 MLOAD PUSH4 0x12171D83 PUSH1 0xE3 SHL DUP2 MSTORE PUSH1 0x4 ADD PUSH1 0x40 MLOAD DUP1 SWAP2 SUB SWAP1 REVERT JUMPDEST PUSH1 0x40 DUP1 MLOAD PUSH1 0xFF DUP8 AND DUP2 MSTORE PUSH1 0x20 DUP2 ADD DUP7 SWAP1 MSTORE SWAP1 DUP2 ADD DUP4 SWAP1 MSTORE CALLER SWAP1 PUSH32 0xAA68026CBA73386B81AAEF0208A11AD1C3F8D1306CF0734631F076B7BAEA05BA SWAP1 PUSH1 0x60 ADD PUSH2 0x187A JUMP JUMPDEST DUP1 CALLDATALOAD PUSH1 0x1 PUSH1 0x1 PUSH1 0xA0 SHL SUB DUP2 AND DUP2 EQ PUSH2 0x20EA JUMPI PUSH1 0x0 DUP1 REVERT JUMPDEST SWAP2 SWAP1 POP JUMP JUMPDEST DUP1 CALLDATALOAD PUSH1 0xFF DUP2 AND DUP2 EQ PUSH2 0x20EA JUMPI PUSH1 0x0 DUP1 REVERT JUMPDEST PUSH1 0x0 DUP1 PUSH1 0x40 DUP4 DUP6 SUB SLT ISZERO PUSH2 0x2113 JUMPI PUSH1 0x0 DUP1 REVERT JUMPDEST PUSH2 0x211C DUP4 PUSH2 0x20D3 JUMP JUMPDEST SWAP2 POP PUSH2 0x212A PUSH1 0x20 DUP5 ADD PUSH2 0x20EF JUMP JUMPDEST SWAP1 POP SWAP3 POP SWAP3 SWAP1 POP JUMP JUMPDEST PUSH1 0x0 PUSH1 0x20 DUP3 DUP5 SUB SLT ISZERO PUSH2 0x2145 JUMPI PUSH1 0x0 DUP1 REVERT JUMPDEST POP CALLDATALOAD SWAP2 SWAP1 POP JUMP JUMPDEST PUSH1 0x0 DUP2 MLOAD DUP1 DUP5 MSTORE PUSH1 0x0 JUMPDEST DUP2 DUP2 LT ISZERO PUSH2 0x2172 JUMPI PUSH1 0x20 DUP2 DUP6 ADD DUP2 ADD MLOAD DUP7 DUP4 ADD DUP3 ADD MSTORE ADD PUSH2 0x2156 JUMP JUMPDEST POP PUSH1 0x0 PUSH1 0x20 DUP3 DUP7 ADD ADD MSTORE PUSH1 0x20 PUSH1 0x1F NOT PUSH1 0x1F DUP4 ADD AND DUP6 ADD ADD SWAP2 POP POP SWAP3 SWAP2 POP POP JUMP JUMPDEST PUSH4 0x4E487B71 PUSH1 0xE0 SHL PUSH1 0x0 MSTORE PUSH1 0x21 PUSH1 0x4 MSTORE PUSH1 0x24 PUSH1 0x0 REVERT JUMPDEST PUSH1 0x3 DUP2 LT PUSH2 0x21C6 JUMPI PUSH4 0x4E487B71 PUSH1 0xE0 SHL PUSH1 0x0 MSTORE PUSH1 0x21 PUSH1 0x4 MSTORE PUSH1 0x24 PUSH1 0x0 REVERT JUMPDEST SWAP1 MSTORE JUMP JUMPDEST PUSH1 0x0 DUP3 DUP3 MLOAD DUP1 DUP6 MSTORE PUSH1 0x20 DUP1 DUP7 ADD SWAP6 POP DUP1 DUP3 PUSH1 0x5 SHL DUP5 ADD ADD DUP2 DUP7 ADD PUSH1 0x0 JUMPDEST DUP5 DUP2 LT ISZERO PUSH2 0x2215 JUMPI PUSH1 0x1F NOT DUP7 DUP5 SUB ADD DUP10 MSTORE PUSH2 0x2203 DUP4 DUP4 MLOAD PUSH2 0x214C JUMP JUMPDEST SWAP9 DUP5 ADD SWAP9 SWAP3 POP SWAP1 DUP4 ADD SWAP1 PUSH1 0x1 ADD PUSH2 0x21E7 JUMP JUMPDEST POP SWAP1 SWAP8 SWAP7 POP POP POP POP POP POP POP JUMP JUMPDEST PUSH1 0x0 DUP2 MLOAD DUP1 DUP5 MSTORE PUSH1 0x20 DUP1 DUP6 ADD SWAP5 POP DUP1 DUP5 ADD PUSH1 0x0 JUMPDEST DUP4 DUP2 LT ISZERO PUSH2 0x2252 JUMPI DUP2 MLOAD DUP8 MSTORE SWAP6 DUP3 ADD SWAP6 SWAP1 DUP3 ADD SWAP1 PUSH1 0x1 ADD PUSH2 0x2236 JUMP JUMPDEST POP SWAP5 SWAP6 SWAP5 POP POP POP POP POP JUMP JUMPDEST PUSH1 0x0 DUP2 MLOAD DUP1 DUP5 MSTORE PUSH1 0x20 DUP1 DUP6 ADD SWAP5 POP DUP1 DUP5 ADD PUSH1 0x0 JUMPDEST DUP4 DUP2 LT ISZERO PUSH2 0x2252 JUMPI DUP2 MLOAD ISZERO ISZERO DUP8 MSTORE SWAP6 DUP3 ADD SWAP6 SWAP1 DUP3 ADD SWAP1 PUSH1 0x1 ADD PUSH2 0x2271 JUMP JUMPDEST PUSH1 0x1 PUSH1 0x1 PUSH1 0xA0 SHL SUB DUP13 DUP2 AND DUP3 MSTORE DUP12 AND PUSH1 0x20 DUP3 ADD MSTORE PUSH2 0x160 PUSH1 0x40 DUP3 ADD DUP2 SWAP1 MSTORE PUSH1 0x0 SWAP1 PUSH2 0x22BC DUP4 DUP3 ADD DUP14 PUSH2 0x214C JUMP JUMPDEST SWAP1 POP DUP11 PUSH1 0x60 DUP5 ADD MSTORE DUP10 PUSH1 0x80 DUP5 ADD MSTORE PUSH2 0x22D7 PUSH1 0xA0 DUP5 ADD DUP11 PUSH2 0x21A8 JUMP JUMPDEST PUSH1 0xFF DUP9 AND PUSH1 0xC0 DUP5 ADD MSTORE DUP3 DUP2 SUB PUSH1 0xE0 DUP5 ADD MSTORE PUSH2 0x22F2 DUP2 DUP9 PUSH2 0x21CA JUMP JUMPDEST SWAP1 POP DUP3 DUP2 SUB PUSH2 0x100 DUP5 ADD MSTORE PUSH2 0x2307 DUP2 DUP8 PUSH2 0x2222 JUMP JUMPDEST SWAP1 POP DUP3 DUP2 SUB PUSH2 0x120 DUP5 ADD MSTORE PUSH2 0x231C DUP2 DUP7 PUSH2 0x225D JUMP JUMPDEST SWAP2 POP POP DUP3 PUSH2 0x140 DUP4 ADD MSTORE SWAP13 SWAP12 POP POP POP POP POP POP POP POP POP POP POP POP JUMP JUMPDEST PUSH1 0x0 DUP1 DUP4 PUSH1 0x1F DUP5 ADD SLT PUSH2 0x2348 JUMPI PUSH1 0x0 DUP1 REVERT JUMPDEST POP DUP2 CALLDATALOAD PUSH8 0xFFFFFFFFFFFFFFFF DUP2 GT ISZERO PUSH2 0x2360 JUMPI PUSH1 0x0 DUP1 REVERT JUMPDEST PUSH1 0x20 DUP4 ADD SWAP2 POP DUP4 PUSH1 0x20 DUP3 PUSH1 0x5 SHL DUP6 ADD ADD GT ISZERO PUSH2 0x237B JUMPI PUSH1 0x0 DUP1 REVERT JUMPDEST SWAP3 POP SWAP3 SWAP1 POP JUMP JUMPDEST PUSH1 0x0 DUP1 PUSH1 0x0 PUSH1 0x40 DUP5 DUP7 SUB SLT ISZERO PUSH2 0x2397 JUMPI PUSH1 0x0 DUP1 REVERT JUMPDEST PUSH2 0x23A0 DUP5 PUSH2 0x20D3 JUMP JUMPDEST SWAP3 POP PUSH1 0x20 DUP5 ADD CALLDATALOAD PUSH8 0xFFFFFFFFFFFFFFFF DUP2 GT ISZERO PUSH2 0x23BC JUMPI PUSH1 0x0 DUP1 REVERT JUMPDEST PUSH2 0x23C8 DUP7 DUP3 DUP8 ADD PUSH2 0x2336 JUMP JUMPDEST SWAP5 SWAP8 SWAP1 SWAP7 POP SWAP4 SWAP5 POP POP POP POP JUMP JUMPDEST PUSH1 0x20 DUP2 MSTORE PUSH1 0x0 PUSH2 0x913 PUSH1 0x20 DUP4 ADD DUP5 PUSH2 0x225D JUMP JUMPDEST PUSH1 0x0 PUSH1 0x20 DUP3 DUP5 SUB SLT ISZERO PUSH2 0x23FA JUMPI PUSH1 0x0 DUP1 REVERT JUMPDEST PUSH2 0x913 DUP3 PUSH2 0x20EF JUMP JUMPDEST PUSH1 0x20 DUP2 MSTORE PUSH1 0x0 PUSH2 0x913 PUSH1 0x20 DUP4 ADD DUP5 PUSH2 0x214C JUMP JUMPDEST PUSH1 0x20 DUP2 MSTORE PUSH1 0x0 PUSH2 0x913 PUSH1 0x20 DUP4 ADD DUP5 PUSH2 0x2222 JUMP JUMPDEST PUSH1 0x0 PUSH1 0x20 DUP3 DUP5 SUB SLT ISZERO PUSH2 0x243B JUMPI PUSH1 0x0 DUP1 REVERT JUMPDEST PUSH2 0x913 DUP3 PUSH2 0x20D3 JUMP JUMPDEST PUSH1 0x0 DUP1 PUSH1 0x40 DUP4 DUP6 SUB SLT ISZERO PUSH2 0x2457 JUMPI PUSH1 0x0 DUP1 REVERT JUMPDEST PUSH2 0x2460 DUP4 PUSH2 0x20EF JUMP JUMPDEST SWAP5 PUSH1 0x20 SWAP4 SWAP1 SWAP4 ADD CALLDATALOAD SWAP4 POP POP POP JUMP JUMPDEST PUSH1 0x40 DUP2 MSTORE PUSH1 0x0 PUSH2 0x2481 PUSH1 0x40 DUP4 ADD DUP6 PUSH2 0x2222 JUMP JUMPDEST SWAP1 POP DUP3 ISZERO ISZERO PUSH1 0x20 DUP4 ADD MSTORE SWAP4 SWAP3 POP POP POP JUMP JUMPDEST PUSH1 0x0 DUP1 PUSH1 0x20 DUP4 DUP6 SUB SLT ISZERO PUSH2 0x24A5 JUMPI PUSH1 0x0 DUP1 REVERT JUMPDEST DUP3 CALLDATALOAD PUSH8 0xFFFFFFFFFFFFFFFF DUP2 GT ISZERO PUSH2 0x24BC JUMPI PUSH1 0x0 DUP1 REVERT JUMPDEST PUSH2 0x24C8 DUP6 DUP3 DUP7 ADD PUSH2 0x2336 JUMP JUMPDEST SWAP1 SWAP7 SWAP1 SWAP6 POP SWAP4 POP POP POP POP JUMP JUMPDEST PUSH1 0x20 DUP2 MSTORE PUSH1 0x0 PUSH2 0x913 PUSH1 0x20 DUP4 ADD DUP5 PUSH2 0x21CA JUMP JUMPDEST PUSH1 0x20 DUP2 ADD PUSH2 0xC97 DUP3 DUP5 PUSH2 0x21A8 JUMP JUMPDEST PUSH1 0x1 DUP2 DUP2 SHR SWAP1 DUP3 AND DUP1 PUSH2 0x2509 JUMPI PUSH1 0x7F DUP3 AND SWAP2 POP JUMPDEST PUSH1 0x20 DUP3 LT DUP2 SUB PUSH2 0x1431 JUMPI PUSH4 0x4E487B71 PUSH1 0xE0 SHL PUSH1 0x0 MSTORE PUSH1 0x22 PUSH1 0x4 MSTORE PUSH1 0x24 PUSH1 0x0 REVERT JUMPDEST PUSH4 0x4E487B71 PUSH1 0xE0 SHL PUSH1 0x0 MSTORE PUSH1 0x32 PUSH1 0x4 MSTORE PUSH1 0x24 PUSH1 0x0 REVERT JUMPDEST PUSH4 0x4E487B71 PUSH1 0xE0 SHL PUSH1 0x0 MSTORE PUSH1 0x11 PUSH1 0x4 MSTORE PUSH1 0x24 PUSH1 0x0 REVERT JUMPDEST DUP1 DUP3 ADD DUP1 DUP3 GT ISZERO PUSH2 0xC97 JUMPI PUSH2 0xC97 PUSH2 0x253F JUMP JUMPDEST PUSH1 0x0 PUSH1 0x1 DUP3 ADD PUSH2 0x257A JUMPI PUSH2 0x257A PUSH2 0x253F JUMP JUMPDEST POP PUSH1 0x1 ADD SWAP1 JUMP JUMPDEST DUP1 DUP3 MUL DUP2 ISZERO DUP3 DUP3 DIV DUP5 EQ OR PUSH2 0xC97 JUMPI PUSH2 0xC97 PUSH2 0x253F JUMP JUMPDEST PUSH4 0x4E487B71 PUSH1 0xE0 SHL PUSH1 0x0 MSTORE PUSH1 0x12 PUSH1 0x4 MSTORE PUSH1 0x24 PUSH1 0x0 REVERT JUMPDEST PUSH1 0x0 DUP3 PUSH2 0x25BD JUMPI PUSH2 0x25BD PUSH2 0x2598 JUMP JUMPDEST POP DIV SWAP1 JUMP JUMPDEST PUSH4 0x4E487B71 PUSH1 0xE0 SHL PUSH1 0x0 MSTORE PUSH1 0x41 PUSH1 0x4 MSTORE PUSH1 0x24 PUSH1 0x0 REVERT JUMPDEST PUSH1 0x0 PUSH2 0xFFFF DUP1 DUP5 AND DUP1 PUSH2 0x25ED JUMPI PUSH2 0x25ED PUSH2 0x2598 JUMP JUMPDEST SWAP3 AND SWAP2 SWAP1 SWAP2 DIV SWAP3 SWAP2 POP POP JUMP JUMPDEST PUSH1 0x0 PUSH1 0xFF DUP3 AND PUSH1 0xFF DUP2 SUB PUSH2 0x260F JUMPI PUSH2 0x260F PUSH2 0x253F JUMP JUMPDEST PUSH1 0x1 ADD SWAP3 SWAP2 POP POP JUMP JUMPDEST PUSH1 0x40 DUP1 DUP3 MSTORE DUP2 ADD DUP4 SWAP1 MSTORE PUSH1 0x0 DUP5 PUSH1 0x60 DUP4 ADD DUP3 JUMPDEST DUP7 DUP2 LT ISZERO PUSH2 0x2653 JUMPI PUSH1 0xFF PUSH2 0x263E DUP5 PUSH2 0x20EF JUMP JUMPDEST AND DUP3 MSTORE PUSH1 0x20 SWAP3 DUP4 ADD SWAP3 SWAP1 SWAP2 ADD SWAP1 PUSH1 0x1 ADD PUSH2 0x262B JUMP JUMPDEST POP PUSH1 0x20 SWAP4 SWAP1 SWAP4 ADD SWAP4 SWAP1 SWAP4 MSTORE POP SWAP4 SWAP3 POP POP POP JUMP JUMPDEST PUSH1 0x0 PUSH1 0x20 DUP3 DUP5 SUB SLT ISZERO PUSH2 0x2678 JUMPI PUSH1 0x0 DUP1 REVERT JUMPDEST POP MLOAD SWAP2 SWAP1 POP JUMP JUMPDEST PUSH1 0x0 PUSH1 0x20 DUP3 DUP5 SUB SLT ISZERO PUSH2 0x2691 JUMPI PUSH1 0x0 DUP1 REVERT JUMPDEST DUP2 MLOAD DUP1 ISZERO ISZERO DUP2 EQ PUSH2 0x913 JUMPI PUSH1 0x0 DUP1 REVERT JUMPDEST DUP2 DUP2 SUB DUP2 DUP2 GT ISZERO PUSH2 0xC97 JUMPI PUSH2 0xC97 PUSH2 0x253F JUMP INVALID LOG2 PUSH5 0x6970667358 0x22 SLT KECCAK256 0xA8 BALANCE DUP15 0xC8 0xE4 0xC2 0xF8 SWAP9 0xF7 0x27 GASPRICE 0xD6 SWAP1 PUSH0 DUP6 RETURNDATACOPY SWAP11 PUSH16 0x66A0007ED8C5584952EAF41106D86473 PUSH16 0x6C63430008140033A264697066735822 SLT KECCAK256 0x2E 0xE6 SWAP15 SWAP3 REVERT DUP1 0xC3 POP PUSH32 0xE729DD41173CEF37130F8E619C7CBAF0361EC1C6897B0464736F6C6343000814 STOP CALLER "},"methodIdentifiers":{"allMarkets(uint256)":"52d84d1e","createMarket(string,uint256,address,string[])":"e1e966dc","createMarketSimple(string,uint256,string[])":"824ce5c3","defaultCollateralToken()":"0bd98782","defaultResolver()":"828eab0e","getActiveMarkets()":"a5e973c3","getAllMarkets()":"b0772d0b","getMarketsByCreator(address)":"e99c80bd","getMarketsPaginated(uint256,uint256)":"aec572f9","getTotalMarkets()":"81ebf209","isValidMarket(address)":"58e6309f","marketsByCreator(address,uint256)":"13ba3d14","owner()":"8da5cb5b","setDefaultCollateralToken(address)":"c60d4fb4","setDefaultResolver(address)":"c66485b2","transferOwnership(address)":"f2fde38b"}}}}}