{"contracts/mocks/MockOptimisticOracle.sol":{"MockOptimisticOracle":{"abi":[{"anonymous":false,"inputs":[{"indexed":true,"internalType":"address","name":"requester","type":"address"},{"indexed":true,"internalType":"address","name":"proposer","type":"address"},{"indexed":false,"internalType":"bytes32","name":"identifier","type":"bytes32"},{"indexed":false,"internalType":"uint256","name":"timestamp","type":"uint256"},{"indexed":false,"internalType":"bytes","name":"ancillaryData","type":"bytes"},{"indexed":false,"internalType":"int256","name":"proposedPrice","type":"int256"}],"name":"PriceProposed","type":"event"},{"anonymous":false,"inputs":[{"indexed":true,"internalType":"address","name":"requester","type":"address"},{"indexed":false,"internalType":"bytes32","name":"identifier","type":"bytes32"},{"indexed":false,"internalType":"uint256","name":"timestamp","type":"uint256"},{"indexed":false,"internalType":"bytes","name":"ancillaryData","type":"bytes"}],"name":"PriceRequested","type":"event"},{"anonymous":false,"inputs":[{"indexed":true,"internalType":"address","name":"requester","type":"address"},{"indexed":false,"internalType":"bytes32","name":"identifier","type":"bytes32"},{"indexed":false,"internalType":"uint256","name":"timestamp","type":"uint256"},{"indexed":false,"internalType":"bytes","name":"ancillaryData","type":"bytes"},{"indexed":false,"internalType":"int256","name":"price","type":"int256"}],"name":"PriceSettled","type":"event"},{"inputs":[],"name":"defaultLiveness","outputs":[{"internalType":"uint256","name":"","type":"uint256"}],"stateMutability":"view","type":"function"},{"inputs":[{"internalType":"address","name":"requester","type":"address"},{"internalType":"bytes32","name":"identifier","type":"bytes32"},{"internalType":"uint256","name":"timestamp","type":"uint256"},{"internalType":"bytes","name":"ancillaryData","type":"bytes"}],"name":"getRequest","outputs":[{"components":[{"internalType":"address","name":"proposer","type":"address"},{"internalType":"address","name":"disputer","type":"address"},{"internalType":"contract IERC20","name":"currency","type":"address"},{"internalType":"bool","name":"settled","type":"bool"},{"internalType":"bool","name":"refundOnDispute","type":"bool"},{"internalType":"int256","name":"proposedPrice","type":"int256"},{"internalType":"int256","name":"resolvedPrice","type":"int256"},{"internalType":"uint256","name":"expirationTime","type":"uint256"},{"internalType":"uint256","name":"reward","type":"uint256"},{"internalType":"uint256","name":"finalFee","type":"uint256"},{"internalType":"uint256","name":"bond","type":"uint256"},{"internalType":"uint256","name":"customLiveness","type":"uint256"}],"internalType":"struct MockOptimisticOracle.Request","name":"","type":"tuple"}],"stateMutability":"view","type":"function"},{"inputs":[{"internalType":"address","name":"requester","type":"address"},{"internalType":"bytes32","name":"identifier","type":"bytes32"},{"internalType":"uint256","name":"timestamp","type":"uint256"},{"internalType":"bytes","name":"ancillaryData","type":"bytes"}],"name":"getState","outputs":[{"internalType":"uint8","name":"","type":"uint8"}],"stateMutability":"view","type":"function"},{"inputs":[{"internalType":"address","name":"requester","type":"address"},{"internalType":"bytes32","name":"identifier","type":"bytes32"},{"internalType":"uint256","name":"timestamp","type":"uint256"},{"internalType":"bytes","name":"ancillaryData","type":"bytes"}],"name":"hasPrice","outputs":[{"internalType":"bool","name":"","type":"bool"}],"stateMutability":"view","type":"function"},{"inputs":[{"internalType":"bytes32","name":"","type":"bytes32"}],"name":"mockPrices","outputs":[{"internalType":"int256","name":"","type":"int256"}],"stateMutability":"view","type":"function"},{"inputs":[{"internalType":"address","name":"requester","type":"address"},{"internalType":"bytes32","name":"identifier","type":"bytes32"},{"internalType":"uint256","name":"timestamp","type":"uint256"},{"internalType":"bytes","name":"ancillaryData","type":"bytes"},{"internalType":"int256","name":"price","type":"int256"}],"name":"mockSettle","outputs":[],"stateMutability":"nonpayable","type":"function"},{"inputs":[{"internalType":"address","name":"requester","type":"address"},{"internalType":"bytes32","name":"identifier","type":"bytes32"},{"internalType":"uint256","name":"timestamp","type":"uint256"},{"internalType":"bytes","name":"ancillaryData","type":"bytes"},{"internalType":"int256","name":"proposedPrice","type":"int256"}],"name":"proposePrice","outputs":[{"internalType":"uint256","name":"","type":"uint256"}],"stateMutability":"nonpayable","type":"function"},{"inputs":[{"internalType":"bytes32","name":"identifier","type":"bytes32"},{"internalType":"uint256","name":"timestamp","type":"uint256"},{"internalType":"bytes","name":"ancillaryData","type":"bytes"},{"internalType":"contract IERC20","name":"currency","type":"address"},{"internalType":"uint256","name":"reward","type":"uint256"}],"name":"requestPrice","outputs":[{"internalType":"uint256","name":"","type":"uint256"}],"stateMutability":"nonpayable","type":"function"},{"inputs":[{"internalType":"address","name":"","type":"address"},{"internalType":"bytes32","name":"","type":"bytes32"},{"internalType":"uint256","name":"","type":"uint256"},{"internalType":"bytes32","name":"","type":"bytes32"}],"name":"requests","outputs":[{"internalType":"address","name":"proposer","type":"address"},{"internalType":"address","name":"disputer","type":"address"},{"internalType":"contract IERC20","name":"currency","type":"address"},{"internalType":"bool","name":"settled","type":"bool"},{"internalType":"bool","name":"refundOnDispute","type":"bool"},{"internalType":"int256","name":"proposedPrice","type":"int256"},{"internalType":"int256","name":"resolvedPrice","type":"int256"},{"internalType":"uint256","name":"expirationTime","type":"uint256"},{"internalType":"uint256","name":"reward","type":"uint256"},{"internalType":"uint256","name":"finalFee","type":"uint256"},{"internalType":"uint256","name":"bond","type":"uint256"},{"internalType":"uint256","name":"customLiveness","type":"uint256"}],"stateMutability":"view","type":"function"},{"inputs":[{"internalType":"bytes32","name":"identifier","type":"bytes32"},{"internalType":"uint256","name":"timestamp","type":"uint256"},{"internalType":"bytes","name":"ancillaryData","type":"bytes"},{"internalType":"uint256","name":"customLiveness","type":"uint256"}],"name":"setCustomLiveness","outputs":[],"stateMutability":"nonpayable","type":"function"},{"inputs":[{"internalType":"uint256","name":"_liveness","type":"uint256"}],"name":"setDefaultLiveness","outputs":[],"stateMutability":"nonpayable","type":"function"},{"inputs":[{"internalType":"bytes","name":"ancillaryData","type":"bytes"},{"internalType":"int256","name":"price","type":"int256"}],"name":"setMockPrice","outputs":[],"stateMutability":"nonpayable","type":"function"},{"inputs":[{"internalType":"address","name":"requester","type":"address"},{"internalType":"bytes32","name":"identifier","type":"bytes32"},{"internalType":"uint256","name":"timestamp","type":"uint256"},{"internalType":"bytes","name":"ancillaryData","type":"bytes"}],"name":"settle","outputs":[{"internalType":"uint256","name":"","type":"uint256"}],"stateMutability":"nonpayable","type":"function"}],"evm":{"bytecode":{"linkReferences":{},"object":"6080604052601e60025534801561001557600080fd5b50610fcb806100256000396000f3fe608060405234801561001057600080fd5b50600436106100cf5760003560e01c8063a6e217521161008c578063ba4b930c11610066578063ba4b930c146102d4578063bc58ccaa146102f9578063eacb036614610364578063fe4e19831461038457600080fd5b8063a6e2175214610279578063a9904f9b146102a1578063b8b4f908146102c157600080fd5b806311df92f1146100d45780633bd142d7146100fa578063473c45fe146101f957806353d00117146102405780635e9a79a91461025357806398df318614610266575b600080fd5b6100e76100e2366004610be2565b61038d565b6040519081526020015b60405180910390f35b61018f610108366004610c4d565b6000602081815294815260408082208652938152838120855291825282822090935291825290208054600182015460028301546003840154600485015460058601546006870154600788015460088901546009909901546001600160a01b03988916999789169887169760ff600160a01b8904811698600160a81b9004169695949392918c565b604080516001600160a01b039d8e1681529b8d1660208d015299909b16988a01989098529515156060890152931515608088015260a087019290925260c086015260e0850152610100840152610120830152610140820152610160810191909152610180016100f1565b61023e610207366004610c88565b8151602092830120336000908152808452604080822096825295845285812094815293835284842090845290915291902060090155565b005b61023e61024e366004610ce0565b600255565b6100e7610261366004610cf9565b6105d3565b61023e610274366004610d5c565b6106ff565b61023e610287366004610dc7565b815160209283012060009081526001909252604090912055565b6102b46102af366004610cf9565b6107b6565b6040516100f19190610e0c565b6100e76102cf366004610d5c565b610911565b6102e76102e2366004610cf9565b6109d0565b60405160ff90911681526020016100f1565b610354610307366004610cf9565b80516020918201206001600160a01b03949094166000908152808252604080822094825293825283812092815291815282822093825292909252902060020154600160a01b900460ff1690565b60405190151581526020016100f1565b6100e7610372366004610ce0565b60016020526000908152604090205481565b6100e760025481565b6000808480519060200120905060405180610180016040528060006001600160a01b0316815260200160006001600160a01b03168152602001856001600160a01b031681526020016000151581526020016000151581526020016000815260200160008152602001600081526020018481526020016000815260200160008152602001600254815250600080336001600160a01b03166001600160a01b0316815260200190815260200160002060008981526020019081526020016000206000888152602001908152602001600020600083815260200190815260200160002060008201518160000160006101000a8154816001600160a01b0302191690836001600160a01b0316021790555060208201518160010160006101000a8154816001600160a01b0302191690836001600160a01b0316021790555060408201518160020160006101000a8154816001600160a01b0302191690836001600160a01b0316021790555060608201518160020160146101000a81548160ff02191690831515021790555060808201518160020160156101000a81548160ff02191690831515021790555060a0820151816003015560c0820151816004015560e082015181600501556101008201518160060155610120820151816007015561014082015181600801556101608201518160090155905050336001600160a01b03167fbb08fed781e2e75a1647c0d4b0119baf4e43cdf243a2537ab5847123662731e38888886040516105be93929190610f16565b60405180910390a25060009695505050505050565b80516020808301919091206001600160a01b03861660009081528083526040808220878352845280822086835284528082208383529093529182206002810154600160a01b900460ff16156106605760405162461bcd60e51b815260206004820152600f60248201526e105b1c9958591e481cd95d1d1b1959608a1b604482015260640160405180910390fd5b60038101546000838152600160205260409020541561068a57506000828152600160205260409020545b60028201805460ff60a01b1916600160a01b179055600482018190556040516001600160a01b038916907f60af647f87e36435e9838b56ac518ed95b7d94510c0ecdf688c9b1c97be8b621906106e7908a908a908a908790610f3e565b60405180910390a2600093505050505b949350505050565b81516020808401919091206001600160a01b038716600081815280845260408082208983528552808220888352855280822084835290945283902060028101805460ff60a01b1916600160a01b1790556004810185905580546001600160a01b031916331781556003810185905592519192917f60af647f87e36435e9838b56ac518ed95b7d94510c0ecdf688c9b1c97be8b621906107a5908990899089908990610f3e565b60405180910390a250505050505050565b61083960405180610180016040528060006001600160a01b0316815260200160006001600160a01b0316815260200160006001600160a01b03168152602001600015158152602001600015158152602001600081526020016000815260200160008152602001600081526020016000815260200160008152602001600081525090565b5080516020918201206001600160a01b0394851660009081528083526040808220958252948352848120938152928252838320908352815290829020825161018081018452815485168152600182015485169281019290925260028101549384169282019290925260ff600160a01b8404811615156060830152600160a81b90930490921615156080830152600381015460a0830152600481015460c0830152600581015460e08301526006810154610100830152600781015461012083015260088101546101408301526009015461016082015290565b81516020808401919091206001600160a01b038716600090815280835260408082208883528452808220878352845280822083835290935291822080546001600160a01b031916331781556003810184905560098101546109729042610f6e565b600582015560405133906001600160a01b038a16907f5b7ce8faf2c6b708259d38d609c0c058c6e1f2d66fab4a8ba22b3f1aa924cdf9906109ba908b908b908b908b90610f3e565b60405180910390a3506000979650505050505050565b80516020808301919091206001600160a01b0380871660009081528084526040808220888352855280822087835285528082208483528552808220815161018081018352815485168152600182015485169681019690965260028101549384169186019190915260ff600160a01b840481161580156060880152600160a81b9094041615156080860152600381015460a0860152600481015460c0860152600581015460e0860152600681015461010086015260078101546101208601526008810154610140860152600901546101608501529290610ab4576006925050506106f7565b80516001600160a01b031615801590610ad157508060e001514210155b15610ae1576004925050506106f7565b80516001600160a01b031615610afc576002925050506106f7565b60408101516001600160a01b031615610b1a576001925050506106f7565b5060009695505050505050565b634e487b7160e01b600052604160045260246000fd5b600082601f830112610b4e57600080fd5b813567ffffffffffffffff80821115610b6957610b69610b27565b604051601f8301601f19908116603f01168101908282118183101715610b9157610b91610b27565b81604052838152866020858801011115610baa57600080fd5b836020870160208301376000602085830101528094505050505092915050565b6001600160a01b0381168114610bdf57600080fd5b50565b600080600080600060a08688031215610bfa57600080fd5b8535945060208601359350604086013567ffffffffffffffff811115610c1f57600080fd5b610c2b88828901610b3d565b9350506060860135610c3c81610bca565b949793965091946080013592915050565b60008060008060808587031215610c6357600080fd5b8435610c6e81610bca565b966020860135965060408601359560600135945092505050565b60008060008060808587031215610c9e57600080fd5b8435935060208501359250604085013567ffffffffffffffff811115610cc357600080fd5b610ccf87828801610b3d565b949793965093946060013593505050565b600060208284031215610cf257600080fd5b5035919050565b60008060008060808587031215610d0f57600080fd5b8435610d1a81610bca565b93506020850135925060408501359150606085013567ffffffffffffffff811115610d4457600080fd5b610d5087828801610b3d565b91505092959194509250565b600080600080600060a08688031215610d7457600080fd5b8535610d7f81610bca565b94506020860135935060408601359250606086013567ffffffffffffffff811115610da957600080fd5b610db588828901610b3d565b95989497509295608001359392505050565b60008060408385031215610dda57600080fd5b823567ffffffffffffffff811115610df157600080fd5b610dfd85828601610b3d565b95602094909401359450505050565b81516001600160a01b0316815261018081016020830151610e3860208401826001600160a01b03169052565b506040830151610e5360408401826001600160a01b03169052565b506060830151610e67606084018215159052565b506080830151610e7b608084018215159052565b5060a083015160a083015260c083015160c083015260e083015160e083015261010080840151818401525061012080840151818401525061014080840151818401525061016080840151818401525092915050565b6000815180845260005b81811015610ef657602081850181015186830182015201610eda565b506000602082860101526020601f19601f83011685010191505092915050565b838152826020820152606060408201526000610f356060830184610ed0565b95945050505050565b848152836020820152608060408201526000610f5d6080830185610ed0565b905082606083015295945050505050565b80820180821115610f8f57634e487b7160e01b600052601160045260246000fd5b9291505056fea26469706673582212201feef53b143bdf11fc675b4c1ccf2be869296e6e53f56da8f6669a1c805c674564736f6c63430008140033","opcodes":"PUSH1 0x80 PUSH1 0x40 MSTORE PUSH1 0x1E PUSH1 0x2 SSTORE CALLVALUE DUP1 ISZERO PUSH2 0x15 JUMPI PUSH1 0x0 DUP1 REVERT JUMPDEST POP PUSH2 0xFCB DUP1 PUSH2 0x25 PUSH1 0x0 CODECOPY PUSH1 0x0 RETURN INVALID PUSH1 0x80 PUSH1 0x40 MSTORE CALLVALUE DUP1 ISZERO PUSH2 0x10 JUMPI PUSH1 0x0 DUP1 REVERT JUMPDEST POP PUSH1 0x4 CALLDATASIZE LT PUSH2 0xCF JUMPI PUSH1 0x0 CALLDATALOAD PUSH1 0xE0 SHR DUP1 PUSH4 0xA6E21752 GT PUSH2 0x8C JUMPI DUP1 PUSH4 0xBA4B930C GT PUSH2 0x66 JUMPI DUP1 PUSH4 0xBA4B930C EQ PUSH2 0x2D4 JUMPI DUP1 PUSH4 0xBC58CCAA EQ PUSH2 0x2F9 JUMPI DUP1 PUSH4 0xEACB0366 EQ PUSH2 0x364 JUMPI DUP1 PUSH4 0xFE4E1983 EQ PUSH2 0x384 JUMPI PUSH1 0x0 DUP1 REVERT JUMPDEST DUP1 PUSH4 0xA6E21752 EQ PUSH2 0x279 JUMPI DUP1 PUSH4 0xA9904F9B EQ PUSH2 0x2A1 JUMPI DUP1 PUSH4 0xB8B4F908 EQ PUSH2 0x2C1 JUMPI PUSH1 0x0 DUP1 REVERT JUMPDEST DUP1 PUSH4 0x11DF92F1 EQ PUSH2 0xD4 JUMPI DUP1 PUSH4 0x3BD142D7 EQ PUSH2 0xFA JUMPI DUP1 PUSH4 0x473C45FE EQ PUSH2 0x1F9 JUMPI DUP1 PUSH4 0x53D00117 EQ PUSH2 0x240 JUMPI DUP1 PUSH4 0x5E9A79A9 EQ PUSH2 0x253 JUMPI DUP1 PUSH4 0x98DF3186 EQ PUSH2 0x266 JUMPI JUMPDEST PUSH1 0x0 DUP1 REVERT JUMPDEST PUSH2 0xE7 PUSH2 0xE2 CALLDATASIZE PUSH1 0x4 PUSH2 0xBE2 JUMP JUMPDEST PUSH2 0x38D JUMP JUMPDEST PUSH1 0x40 MLOAD SWAP1 DUP2 MSTORE PUSH1 0x20 ADD JUMPDEST PUSH1 0x40 MLOAD DUP1 SWAP2 SUB SWAP1 RETURN JUMPDEST PUSH2 0x18F PUSH2 0x108 CALLDATASIZE PUSH1 0x4 PUSH2 0xC4D JUMP JUMPDEST PUSH1 0x0 PUSH1 0x20 DUP2 DUP2 MSTORE SWAP5 DUP2 MSTORE PUSH1 0x40 DUP1 DUP3 KECCAK256 DUP7 MSTORE SWAP4 DUP2 MSTORE DUP4 DUP2 KECCAK256 DUP6 MSTORE SWAP2 DUP3 MSTORE DUP3 DUP3 KECCAK256 SWAP1 SWAP4 MSTORE SWAP2 DUP3 MSTORE SWAP1 KECCAK256 DUP1 SLOAD PUSH1 0x1 DUP3 ADD SLOAD PUSH1 0x2 DUP4 ADD SLOAD PUSH1 0x3 DUP5 ADD SLOAD PUSH1 0x4 DUP6 ADD SLOAD PUSH1 0x5 DUP7 ADD SLOAD PUSH1 0x6 DUP8 ADD SLOAD PUSH1 0x7 DUP9 ADD SLOAD PUSH1 0x8 DUP10 ADD SLOAD PUSH1 0x9 SWAP1 SWAP10 ADD SLOAD PUSH1 0x1 PUSH1 0x1 PUSH1 0xA0 SHL SUB SWAP9 DUP10 AND SWAP10 SWAP8 DUP10 AND SWAP9 DUP8 AND SWAP8 PUSH1 0xFF PUSH1 0x1 PUSH1 0xA0 SHL DUP10 DIV DUP2 AND SWAP9 PUSH1 0x1 PUSH1 0xA8 SHL SWAP1 DIV AND SWAP7 SWAP6 SWAP5 SWAP4 SWAP3 SWAP2 DUP13 JUMP JUMPDEST PUSH1 0x40 DUP1 MLOAD PUSH1 0x1 PUSH1 0x1 PUSH1 0xA0 SHL SUB SWAP14 DUP15 AND DUP2 MSTORE SWAP12 DUP14 AND PUSH1 0x20 DUP14 ADD MSTORE SWAP10 SWAP1 SWAP12 AND SWAP9 DUP11 ADD SWAP9 SWAP1 SWAP9 MSTORE SWAP6 ISZERO ISZERO PUSH1 0x60 DUP10 ADD MSTORE SWAP4 ISZERO ISZERO PUSH1 0x80 DUP9 ADD MSTORE PUSH1 0xA0 DUP8 ADD SWAP3 SWAP1 SWAP3 MSTORE PUSH1 0xC0 DUP7 ADD MSTORE PUSH1 0xE0 DUP6 ADD MSTORE PUSH2 0x100 DUP5 ADD MSTORE PUSH2 0x120 DUP4 ADD MSTORE PUSH2 0x140 DUP3 ADD MSTORE PUSH2 0x160 DUP2 ADD SWAP2 SWAP1 SWAP2 MSTORE PUSH2 0x180 ADD PUSH2 0xF1 JUMP JUMPDEST PUSH2 0x23E PUSH2 0x207 CALLDATASIZE PUSH1 0x4 PUSH2 0xC88 JUMP JUMPDEST DUP2 MLOAD PUSH1 0x20 SWAP3 DUP4 ADD KECCAK256 CALLER PUSH1 0x0 SWAP1 DUP2 MSTORE DUP1 DUP5 MSTORE PUSH1 0x40 DUP1 DUP3 KECCAK256 SWAP7 DUP3 MSTORE SWAP6 DUP5 MSTORE DUP6 DUP2 KECCAK256 SWAP5 DUP2 MSTORE SWAP4 DUP4 MSTORE DUP5 DUP5 KECCAK256 SWAP1 DUP5 MSTORE SWAP1 SWAP2 MSTORE SWAP2 SWAP1 KECCAK256 PUSH1 0x9 ADD SSTORE JUMP JUMPDEST STOP JUMPDEST PUSH2 0x23E PUSH2 0x24E CALLDATASIZE PUSH1 0x4 PUSH2 0xCE0 JUMP JUMPDEST PUSH1 0x2 SSTORE JUMP JUMPDEST PUSH2 0xE7 PUSH2 0x261 CALLDATASIZE PUSH1 0x4 PUSH2 0xCF9 JUMP JUMPDEST PUSH2 0x5D3 JUMP JUMPDEST PUSH2 0x23E PUSH2 0x274 CALLDATASIZE PUSH1 0x4 PUSH2 0xD5C JUMP JUMPDEST PUSH2 0x6FF JUMP JUMPDEST PUSH2 0x23E PUSH2 0x287 CALLDATASIZE PUSH1 0x4 PUSH2 0xDC7 JUMP JUMPDEST DUP2 MLOAD PUSH1 0x20 SWAP3 DUP4 ADD KECCAK256 PUSH1 0x0 SWAP1 DUP2 MSTORE PUSH1 0x1 SWAP1 SWAP3 MSTORE PUSH1 0x40 SWAP1 SWAP2 KECCAK256 SSTORE JUMP JUMPDEST PUSH2 0x2B4 PUSH2 0x2AF CALLDATASIZE PUSH1 0x4 PUSH2 0xCF9 JUMP JUMPDEST PUSH2 0x7B6 JUMP JUMPDEST PUSH1 0x40 MLOAD PUSH2 0xF1 SWAP2 SWAP1 PUSH2 0xE0C JUMP JUMPDEST PUSH2 0xE7 PUSH2 0x2CF CALLDATASIZE PUSH1 0x4 PUSH2 0xD5C JUMP JUMPDEST PUSH2 0x911 JUMP JUMPDEST PUSH2 0x2E7 PUSH2 0x2E2 CALLDATASIZE PUSH1 0x4 PUSH2 0xCF9 JUMP JUMPDEST PUSH2 0x9D0 JUMP JUMPDEST PUSH1 0x40 MLOAD PUSH1 0xFF SWAP1 SWAP2 AND DUP2 MSTORE PUSH1 0x20 ADD PUSH2 0xF1 JUMP JUMPDEST PUSH2 0x354 PUSH2 0x307 CALLDATASIZE PUSH1 0x4 PUSH2 0xCF9 JUMP JUMPDEST DUP1 MLOAD PUSH1 0x20 SWAP2 DUP3 ADD KECCAK256 PUSH1 0x1 PUSH1 0x1 PUSH1 0xA0 SHL SUB SWAP5 SWAP1 SWAP5 AND PUSH1 0x0 SWAP1 DUP2 MSTORE DUP1 DUP3 MSTORE PUSH1 0x40 DUP1 DUP3 KECCAK256 SWAP5 DUP3 MSTORE SWAP4 DUP3 MSTORE DUP4 DUP2 KECCAK256 SWAP3 DUP2 MSTORE SWAP2 DUP2 MSTORE DUP3 DUP3 KECCAK256 SWAP4 DUP3 MSTORE SWAP3 SWAP1 SWAP3 MSTORE SWAP1 KECCAK256 PUSH1 0x2 ADD SLOAD PUSH1 0x1 PUSH1 0xA0 SHL SWAP1 DIV PUSH1 0xFF AND SWAP1 JUMP JUMPDEST PUSH1 0x40 MLOAD SWAP1 ISZERO ISZERO DUP2 MSTORE PUSH1 0x20 ADD PUSH2 0xF1 JUMP JUMPDEST PUSH2 0xE7 PUSH2 0x372 CALLDATASIZE PUSH1 0x4 PUSH2 0xCE0 JUMP JUMPDEST PUSH1 0x1 PUSH1 0x20 MSTORE PUSH1 0x0 SWAP1 DUP2 MSTORE PUSH1 0x40 SWAP1 KECCAK256 SLOAD DUP2 JUMP JUMPDEST PUSH2 0xE7 PUSH1 0x2 SLOAD DUP2 JUMP JUMPDEST PUSH1 0x0 DUP1 DUP5 DUP1 MLOAD SWAP1 PUSH1 0x20 ADD KECCAK256 SWAP1 POP PUSH1 0x40 MLOAD DUP1 PUSH2 0x180 ADD PUSH1 0x40 MSTORE DUP1 PUSH1 0x0 PUSH1 0x1 PUSH1 0x1 PUSH1 0xA0 SHL SUB AND DUP2 MSTORE PUSH1 0x20 ADD PUSH1 0x0 PUSH1 0x1 PUSH1 0x1 PUSH1 0xA0 SHL SUB AND DUP2 MSTORE PUSH1 0x20 ADD DUP6 PUSH1 0x1 PUSH1 0x1 PUSH1 0xA0 SHL SUB AND DUP2 MSTORE PUSH1 0x20 ADD PUSH1 0x0 ISZERO ISZERO DUP2 MSTORE PUSH1 0x20 ADD PUSH1 0x0 ISZERO ISZERO DUP2 MSTORE PUSH1 0x20 ADD PUSH1 0x0 DUP2 MSTORE PUSH1 0x20 ADD PUSH1 0x0 DUP2 MSTORE PUSH1 0x20 ADD PUSH1 0x0 DUP2 MSTORE PUSH1 0x20 ADD DUP5 DUP2 MSTORE PUSH1 0x20 ADD PUSH1 0x0 DUP2 MSTORE PUSH1 0x20 ADD PUSH1 0x0 DUP2 MSTORE PUSH1 0x20 ADD PUSH1 0x2 SLOAD DUP2 MSTORE POP PUSH1 0x0 DUP1 CALLER PUSH1 0x1 PUSH1 0x1 PUSH1 0xA0 SHL SUB AND PUSH1 0x1 PUSH1 0x1 PUSH1 0xA0 SHL SUB AND DUP2 MSTORE PUSH1 0x20 ADD SWAP1 DUP2 MSTORE PUSH1 0x20 ADD PUSH1 0x0 KECCAK256 PUSH1 0x0 DUP10 DUP2 MSTORE PUSH1 0x20 ADD SWAP1 DUP2 MSTORE PUSH1 0x20 ADD PUSH1 0x0 KECCAK256 PUSH1 0x0 DUP9 DUP2 MSTORE PUSH1 0x20 ADD SWAP1 DUP2 MSTORE PUSH1 0x20 ADD PUSH1 0x0 KECCAK256 PUSH1 0x0 DUP4 DUP2 MSTORE PUSH1 0x20 ADD SWAP1 DUP2 MSTORE PUSH1 0x20 ADD PUSH1 0x0 KECCAK256 PUSH1 0x0 DUP3 ADD MLOAD DUP2 PUSH1 0x0 ADD PUSH1 0x0 PUSH2 0x100 EXP DUP2 SLOAD DUP2 PUSH1 0x1 PUSH1 0x1 PUSH1 0xA0 SHL SUB MUL NOT AND SWAP1 DUP4 PUSH1 0x1 PUSH1 0x1 PUSH1 0xA0 SHL SUB AND MUL OR SWAP1 SSTORE POP PUSH1 0x20 DUP3 ADD MLOAD DUP2 PUSH1 0x1 ADD PUSH1 0x0 PUSH2 0x100 EXP DUP2 SLOAD DUP2 PUSH1 0x1 PUSH1 0x1 PUSH1 0xA0 SHL SUB MUL NOT AND SWAP1 DUP4 PUSH1 0x1 PUSH1 0x1 PUSH1 0xA0 SHL SUB AND MUL OR SWAP1 SSTORE POP PUSH1 0x40 DUP3 ADD MLOAD DUP2 PUSH1 0x2 ADD PUSH1 0x0 PUSH2 0x100 EXP DUP2 SLOAD DUP2 PUSH1 0x1 PUSH1 0x1 PUSH1 0xA0 SHL SUB MUL NOT AND SWAP1 DUP4 PUSH1 0x1 PUSH1 0x1 PUSH1 0xA0 SHL SUB AND MUL OR SWAP1 SSTORE POP PUSH1 0x60 DUP3 ADD MLOAD DUP2 PUSH1 0x2 ADD PUSH1 0x14 PUSH2 0x100 EXP DUP2 SLOAD DUP2 PUSH1 0xFF MUL NOT AND SWAP1 DUP4 ISZERO ISZERO MUL OR SWAP1 SSTORE POP PUSH1 0x80 DUP3 ADD MLOAD DUP2 PUSH1 0x2 ADD PUSH1 0x15 PUSH2 0x100 EXP DUP2 SLOAD DUP2 PUSH1 0xFF MUL NOT AND SWAP1 DUP4 ISZERO ISZERO MUL OR SWAP1 SSTORE POP PUSH1 0xA0 DUP3 ADD MLOAD DUP2 PUSH1 0x3 ADD SSTORE PUSH1 0xC0 DUP3 ADD MLOAD DUP2 PUSH1 0x4 ADD SSTORE PUSH1 0xE0 DUP3 ADD MLOAD DUP2 PUSH1 0x5 ADD SSTORE PUSH2 0x100 DUP3 ADD MLOAD DUP2 PUSH1 0x6 ADD SSTORE PUSH2 0x120 DUP3 ADD MLOAD DUP2 PUSH1 0x7 ADD SSTORE PUSH2 0x140 DUP3 ADD MLOAD DUP2 PUSH1 0x8 ADD SSTORE PUSH2 0x160 DUP3 ADD MLOAD DUP2 PUSH1 0x9 ADD SSTORE SWAP1 POP POP CALLER PUSH1 0x1 PUSH1 0x1 PUSH1 0xA0 SHL SUB AND PUSH32 0xBB08FED781E2E75A1647C0D4B0119BAF4E43CDF243A2537AB5847123662731E3 DUP9 DUP9 DUP9 PUSH1 0x40 MLOAD PUSH2 0x5BE SWAP4 SWAP3 SWAP2 SWAP1 PUSH2 0xF16 JUMP JUMPDEST PUSH1 0x40 MLOAD DUP1 SWAP2 SUB SWAP1 LOG2 POP PUSH1 0x0 SWAP7 SWAP6 POP POP POP POP POP POP JUMP JUMPDEST DUP1 MLOAD PUSH1 0x20 DUP1 DUP4 ADD SWAP2 SWAP1 SWAP2 KECCAK256 PUSH1 0x1 PUSH1 0x1 PUSH1 0xA0 SHL SUB DUP7 AND PUSH1 0x0 SWAP1 DUP2 MSTORE DUP1 DUP4 MSTORE PUSH1 0x40 DUP1 DUP3 KECCAK256 DUP8 DUP4 MSTORE DUP5 MSTORE DUP1 DUP3 KECCAK256 DUP7 DUP4 MSTORE DUP5 MSTORE DUP1 DUP3 KECCAK256 DUP4 DUP4 MSTORE SWAP1 SWAP4 MSTORE SWAP2 DUP3 KECCAK256 PUSH1 0x2 DUP2 ADD SLOAD PUSH1 0x1 PUSH1 0xA0 SHL SWAP1 DIV PUSH1 0xFF AND ISZERO PUSH2 0x660 JUMPI PUSH1 0x40 MLOAD PUSH3 0x461BCD PUSH1 0xE5 SHL DUP2 MSTORE PUSH1 0x20 PUSH1 0x4 DUP3 ADD MSTORE PUSH1 0xF PUSH1 0x24 DUP3 ADD MSTORE PUSH15 0x105B1C9958591E481CD95D1D1B1959 PUSH1 0x8A SHL PUSH1 0x44 DUP3 ADD MSTORE PUSH1 0x64 ADD PUSH1 0x40 MLOAD DUP1 SWAP2 SUB SWAP1 REVERT JUMPDEST PUSH1 0x3 DUP2 ADD SLOAD PUSH1 0x0 DUP4 DUP2 MSTORE PUSH1 0x1 PUSH1 0x20 MSTORE PUSH1 0x40 SWAP1 KECCAK256 SLOAD ISZERO PUSH2 0x68A JUMPI POP PUSH1 0x0 DUP3 DUP2 MSTORE PUSH1 0x1 PUSH1 0x20 MSTORE PUSH1 0x40 SWAP1 KECCAK256 SLOAD JUMPDEST PUSH1 0x2 DUP3 ADD DUP1 SLOAD PUSH1 0xFF PUSH1 0xA0 SHL NOT AND PUSH1 0x1 PUSH1 0xA0 SHL OR SWAP1 SSTORE PUSH1 0x4 DUP3 ADD DUP2 SWAP1 SSTORE PUSH1 0x40 MLOAD PUSH1 0x1 PUSH1 0x1 PUSH1 0xA0 SHL SUB DUP10 AND SWAP1 PUSH32 0x60AF647F87E36435E9838B56AC518ED95B7D94510C0ECDF688C9B1C97BE8B621 SWAP1 PUSH2 0x6E7 SWAP1 DUP11 SWAP1 DUP11 SWAP1 DUP11 SWAP1 DUP8 SWAP1 PUSH2 0xF3E JUMP JUMPDEST PUSH1 0x40 MLOAD DUP1 SWAP2 SUB SWAP1 LOG2 PUSH1 0x0 SWAP4 POP POP POP POP JUMPDEST SWAP5 SWAP4 POP POP POP POP JUMP JUMPDEST DUP2 MLOAD PUSH1 0x20 DUP1 DUP5 ADD SWAP2 SWAP1 SWAP2 KECCAK256 PUSH1 0x1 PUSH1 0x1 PUSH1 0xA0 SHL SUB DUP8 AND PUSH1 0x0 DUP2 DUP2 MSTORE DUP1 DUP5 MSTORE PUSH1 0x40 DUP1 DUP3 KECCAK256 DUP10 DUP4 MSTORE DUP6 MSTORE DUP1 DUP3 KECCAK256 DUP9 DUP4 MSTORE DUP6 MSTORE DUP1 DUP3 KECCAK256 DUP5 DUP4 MSTORE SWAP1 SWAP5 MSTORE DUP4 SWAP1 KECCAK256 PUSH1 0x2 DUP2 ADD DUP1 SLOAD PUSH1 0xFF PUSH1 0xA0 SHL NOT AND PUSH1 0x1 PUSH1 0xA0 SHL OR SWAP1 SSTORE PUSH1 0x4 DUP2 ADD DUP6 SWAP1 SSTORE DUP1 SLOAD PUSH1 0x1 PUSH1 0x1 PUSH1 0xA0 SHL SUB NOT AND CALLER OR DUP2 SSTORE PUSH1 0x3 DUP2 ADD DUP6 SWAP1 SSTORE SWAP3 MLOAD SWAP2 SWAP3 SWAP2 PUSH32 0x60AF647F87E36435E9838B56AC518ED95B7D94510C0ECDF688C9B1C97BE8B621 SWAP1 PUSH2 0x7A5 SWAP1 DUP10 SWAP1 DUP10 SWAP1 DUP10 SWAP1 DUP10 SWAP1 PUSH2 0xF3E JUMP JUMPDEST PUSH1 0x40 MLOAD DUP1 SWAP2 SUB SWAP1 LOG2 POP POP POP POP POP POP POP JUMP JUMPDEST PUSH2 0x839 PUSH1 0x40 MLOAD DUP1 PUSH2 0x180 ADD PUSH1 0x40 MSTORE DUP1 PUSH1 0x0 PUSH1 0x1 PUSH1 0x1 PUSH1 0xA0 SHL SUB AND DUP2 MSTORE PUSH1 0x20 ADD PUSH1 0x0 PUSH1 0x1 PUSH1 0x1 PUSH1 0xA0 SHL SUB AND DUP2 MSTORE PUSH1 0x20 ADD PUSH1 0x0 PUSH1 0x1 PUSH1 0x1 PUSH1 0xA0 SHL SUB AND DUP2 MSTORE PUSH1 0x20 ADD PUSH1 0x0 ISZERO ISZERO DUP2 MSTORE PUSH1 0x20 ADD PUSH1 0x0 ISZERO ISZERO DUP2 MSTORE PUSH1 0x20 ADD PUSH1 0x0 DUP2 MSTORE PUSH1 0x20 ADD PUSH1 0x0 DUP2 MSTORE PUSH1 0x20 ADD PUSH1 0x0 DUP2 MSTORE PUSH1 0x20 ADD PUSH1 0x0 DUP2 MSTORE PUSH1 0x20 ADD PUSH1 0x0 DUP2 MSTORE PUSH1 0x20 ADD PUSH1 0x0 DUP2 MSTORE PUSH1 0x20 ADD PUSH1 0x0 DUP2 MSTORE POP SWAP1 JUMP JUMPDEST POP DUP1 MLOAD PUSH1 0x20 SWAP2 DUP3 ADD KECCAK256 PUSH1 0x1 PUSH1 0x1 PUSH1 0xA0 SHL SUB SWAP5 DUP6 AND PUSH1 0x0 SWAP1 DUP2 MSTORE DUP1 DUP4 MSTORE PUSH1 0x40 DUP1 DUP3 KECCAK256 SWAP6 DUP3 MSTORE SWAP5 DUP4 MSTORE DUP5 DUP2 KECCAK256 SWAP4 DUP2 MSTORE SWAP3 DUP3 MSTORE DUP4 DUP4 KECCAK256 SWAP1 DUP4 MSTORE DUP2 MSTORE SWAP1 DUP3 SWAP1 KECCAK256 DUP3 MLOAD PUSH2 0x180 DUP2 ADD DUP5 MSTORE DUP2 SLOAD DUP6 AND DUP2 MSTORE PUSH1 0x1 DUP3 ADD SLOAD DUP6 AND SWAP3 DUP2 ADD SWAP3 SWAP1 SWAP3 MSTORE PUSH1 0x2 DUP2 ADD SLOAD SWAP4 DUP5 AND SWAP3 DUP3 ADD SWAP3 SWAP1 SWAP3 MSTORE PUSH1 0xFF PUSH1 0x1 PUSH1 0xA0 SHL DUP5 DIV DUP2 AND ISZERO ISZERO PUSH1 0x60 DUP4 ADD MSTORE PUSH1 0x1 PUSH1 0xA8 SHL SWAP1 SWAP4 DIV SWAP1 SWAP3 AND ISZERO ISZERO PUSH1 0x80 DUP4 ADD MSTORE PUSH1 0x3 DUP2 ADD SLOAD PUSH1 0xA0 DUP4 ADD MSTORE PUSH1 0x4 DUP2 ADD SLOAD PUSH1 0xC0 DUP4 ADD MSTORE PUSH1 0x5 DUP2 ADD SLOAD PUSH1 0xE0 DUP4 ADD MSTORE PUSH1 0x6 DUP2 ADD SLOAD PUSH2 0x100 DUP4 ADD MSTORE PUSH1 0x7 DUP2 ADD SLOAD PUSH2 0x120 DUP4 ADD MSTORE PUSH1 0x8 DUP2 ADD SLOAD PUSH2 0x140 DUP4 ADD MSTORE PUSH1 0x9 ADD SLOAD PUSH2 0x160 DUP3 ADD MSTORE SWAP1 JUMP JUMPDEST DUP2 MLOAD PUSH1 0x20 DUP1 DUP5 ADD SWAP2 SWAP1 SWAP2 KECCAK256 PUSH1 0x1 PUSH1 0x1 PUSH1 0xA0 SHL SUB DUP8 AND PUSH1 0x0 SWAP1 DUP2 MSTORE DUP1 DUP4 MSTORE PUSH1 0x40 DUP1 DUP3 KECCAK256 DUP9 DUP4 MSTORE DUP5 MSTORE DUP1 DUP3 KECCAK256 DUP8 DUP4 MSTORE DUP5 MSTORE DUP1 DUP3 KECCAK256 DUP4 DUP4 MSTORE SWAP1 SWAP4 MSTORE SWAP2 DUP3 KECCAK256 DUP1 SLOAD PUSH1 0x1 PUSH1 0x1 PUSH1 0xA0 SHL SUB NOT AND CALLER OR DUP2 SSTORE PUSH1 0x3 DUP2 ADD DUP5 SWAP1 SSTORE PUSH1 0x9 DUP2 ADD SLOAD PUSH2 0x972 SWAP1 TIMESTAMP PUSH2 0xF6E JUMP JUMPDEST PUSH1 0x5 DUP3 ADD SSTORE PUSH1 0x40 MLOAD CALLER SWAP1 PUSH1 0x1 PUSH1 0x1 PUSH1 0xA0 SHL SUB DUP11 AND SWAP1 PUSH32 0x5B7CE8FAF2C6B708259D38D609C0C058C6E1F2D66FAB4A8BA22B3F1AA924CDF9 SWAP1 PUSH2 0x9BA SWAP1 DUP12 SWAP1 DUP12 SWAP1 DUP12 SWAP1 DUP12 SWAP1 PUSH2 0xF3E JUMP JUMPDEST PUSH1 0x40 MLOAD DUP1 SWAP2 SUB SWAP1 LOG3 POP PUSH1 0x0 SWAP8 SWAP7 POP POP POP POP POP POP POP JUMP JUMPDEST DUP1 MLOAD PUSH1 0x20 DUP1 DUP4 ADD SWAP2 SWAP1 SWAP2 KECCAK256 PUSH1 0x1 PUSH1 0x1 PUSH1 0xA0 SHL SUB DUP1 DUP8 AND PUSH1 0x0 SWAP1 DUP2 MSTORE DUP1 DUP5 MSTORE PUSH1 0x40 DUP1 DUP3 KECCAK256 DUP9 DUP4 MSTORE DUP6 MSTORE DUP1 DUP3 KECCAK256 DUP8 DUP4 MSTORE DUP6 MSTORE DUP1 DUP3 KECCAK256 DUP5 DUP4 MSTORE DUP6 MSTORE DUP1 DUP3 KECCAK256 DUP2 MLOAD PUSH2 0x180 DUP2 ADD DUP4 MSTORE DUP2 SLOAD DUP6 AND DUP2 MSTORE PUSH1 0x1 DUP3 ADD SLOAD DUP6 AND SWAP7 DUP2 ADD SWAP7 SWAP1 SWAP7 MSTORE PUSH1 0x2 DUP2 ADD SLOAD SWAP4 DUP5 AND SWAP2 DUP7 ADD SWAP2 SWAP1 SWAP2 MSTORE PUSH1 0xFF PUSH1 0x1 PUSH1 0xA0 SHL DUP5 DIV DUP2 AND ISZERO DUP1 ISZERO PUSH1 0x60 DUP9 ADD MSTORE PUSH1 0x1 PUSH1 0xA8 SHL SWAP1 SWAP5 DIV AND ISZERO ISZERO PUSH1 0x80 DUP7 ADD MSTORE PUSH1 0x3 DUP2 ADD SLOAD PUSH1 0xA0 DUP7 ADD MSTORE PUSH1 0x4 DUP2 ADD SLOAD PUSH1 0xC0 DUP7 ADD MSTORE PUSH1 0x5 DUP2 ADD SLOAD PUSH1 0xE0 DUP7 ADD MSTORE PUSH1 0x6 DUP2 ADD SLOAD PUSH2 0x100 DUP7 ADD MSTORE PUSH1 0x7 DUP2 ADD SLOAD PUSH2 0x120 DUP7 ADD MSTORE PUSH1 0x8 DUP2 ADD SLOAD PUSH2 0x140 DUP7 ADD MSTORE PUSH1 0x9 ADD SLOAD PUSH2 0x160 DUP6 ADD MSTORE SWAP3 SWAP1 PUSH2 0xAB4 JUMPI PUSH1 0x6 SWAP3 POP POP POP PUSH2 0x6F7 JUMP JUMPDEST DUP1 MLOAD PUSH1 0x1 PUSH1 0x1 PUSH1 0xA0 SHL SUB AND ISZERO DUP1 ISZERO SWAP1 PUSH2 0xAD1 JUMPI POP DUP1 PUSH1 0xE0 ADD MLOAD TIMESTAMP LT ISZERO JUMPDEST ISZERO PUSH2 0xAE1 JUMPI PUSH1 0x4 SWAP3 POP POP POP PUSH2 0x6F7 JUMP JUMPDEST DUP1 MLOAD PUSH1 0x1 PUSH1 0x1 PUSH1 0xA0 SHL SUB AND ISZERO PUSH2 0xAFC JUMPI PUSH1 0x2 SWAP3 POP POP POP PUSH2 0x6F7 JUMP JUMPDEST PUSH1 0x40 DUP2 ADD MLOAD PUSH1 0x1 PUSH1 0x1 PUSH1 0xA0 SHL SUB AND ISZERO PUSH2 0xB1A JUMPI PUSH1 0x1 SWAP3 POP POP POP PUSH2 0x6F7 JUMP JUMPDEST POP PUSH1 0x0 SWAP7 SWAP6 POP POP POP POP POP POP JUMP JUMPDEST PUSH4 0x4E487B71 PUSH1 0xE0 SHL PUSH1 0x0 MSTORE PUSH1 0x41 PUSH1 0x4 MSTORE PUSH1 0x24 PUSH1 0x0 REVERT JUMPDEST PUSH1 0x0 DUP3 PUSH1 0x1F DUP4 ADD SLT PUSH2 0xB4E JUMPI PUSH1 0x0 DUP1 REVERT JUMPDEST DUP2 CALLDATALOAD PUSH8 0xFFFFFFFFFFFFFFFF DUP1 DUP3 GT ISZERO PUSH2 0xB69 JUMPI PUSH2 0xB69 PUSH2 0xB27 JUMP JUMPDEST PUSH1 0x40 MLOAD PUSH1 0x1F DUP4 ADD PUSH1 0x1F NOT SWAP1 DUP2 AND PUSH1 0x3F ADD AND DUP2 ADD SWAP1 DUP3 DUP3 GT DUP2 DUP4 LT OR ISZERO PUSH2 0xB91 JUMPI PUSH2 0xB91 PUSH2 0xB27 JUMP JUMPDEST DUP2 PUSH1 0x40 MSTORE DUP4 DUP2 MSTORE DUP7 PUSH1 0x20 DUP6 DUP9 ADD ADD GT ISZERO PUSH2 0xBAA JUMPI PUSH1 0x0 DUP1 REVERT JUMPDEST DUP4 PUSH1 0x20 DUP8 ADD PUSH1 0x20 DUP4 ADD CALLDATACOPY PUSH1 0x0 PUSH1 0x20 DUP6 DUP4 ADD ADD MSTORE DUP1 SWAP5 POP POP POP POP POP SWAP3 SWAP2 POP POP JUMP JUMPDEST PUSH1 0x1 PUSH1 0x1 PUSH1 0xA0 SHL SUB DUP2 AND DUP2 EQ PUSH2 0xBDF JUMPI PUSH1 0x0 DUP1 REVERT JUMPDEST POP JUMP JUMPDEST PUSH1 0x0 DUP1 PUSH1 0x0 DUP1 PUSH1 0x0 PUSH1 0xA0 DUP7 DUP9 SUB SLT ISZERO PUSH2 0xBFA JUMPI PUSH1 0x0 DUP1 REVERT JUMPDEST DUP6 CALLDATALOAD SWAP5 POP PUSH1 0x20 DUP7 ADD CALLDATALOAD SWAP4 POP PUSH1 0x40 DUP7 ADD CALLDATALOAD PUSH8 0xFFFFFFFFFFFFFFFF DUP2 GT ISZERO PUSH2 0xC1F JUMPI PUSH1 0x0 DUP1 REVERT JUMPDEST PUSH2 0xC2B DUP9 DUP3 DUP10 ADD PUSH2 0xB3D JUMP JUMPDEST SWAP4 POP POP PUSH1 0x60 DUP7 ADD CALLDATALOAD PUSH2 0xC3C DUP2 PUSH2 0xBCA JUMP JUMPDEST SWAP5 SWAP8 SWAP4 SWAP7 POP SWAP2 SWAP5 PUSH1 0x80 ADD CALLDATALOAD SWAP3 SWAP2 POP POP JUMP JUMPDEST PUSH1 0x0 DUP1 PUSH1 0x0 DUP1 PUSH1 0x80 DUP6 DUP8 SUB SLT ISZERO PUSH2 0xC63 JUMPI PUSH1 0x0 DUP1 REVERT JUMPDEST DUP5 CALLDATALOAD PUSH2 0xC6E DUP2 PUSH2 0xBCA JUMP JUMPDEST SWAP7 PUSH1 0x20 DUP7 ADD CALLDATALOAD SWAP7 POP PUSH1 0x40 DUP7 ADD CALLDATALOAD SWAP6 PUSH1 0x60 ADD CALLDATALOAD SWAP5 POP SWAP3 POP POP POP JUMP JUMPDEST PUSH1 0x0 DUP1 PUSH1 0x0 DUP1 PUSH1 0x80 DUP6 DUP8 SUB SLT ISZERO PUSH2 0xC9E JUMPI PUSH1 0x0 DUP1 REVERT JUMPDEST DUP5 CALLDATALOAD SWAP4 POP PUSH1 0x20 DUP6 ADD CALLDATALOAD SWAP3 POP PUSH1 0x40 DUP6 ADD CALLDATALOAD PUSH8 0xFFFFFFFFFFFFFFFF DUP2 GT ISZERO PUSH2 0xCC3 JUMPI PUSH1 0x0 DUP1 REVERT JUMPDEST PUSH2 0xCCF DUP8 DUP3 DUP9 ADD PUSH2 0xB3D JUMP JUMPDEST SWAP5 SWAP8 SWAP4 SWAP7 POP SWAP4 SWAP5 PUSH1 0x60 ADD CALLDATALOAD SWAP4 POP POP POP JUMP JUMPDEST PUSH1 0x0 PUSH1 0x20 DUP3 DUP5 SUB SLT ISZERO PUSH2 0xCF2 JUMPI PUSH1 0x0 DUP1 REVERT JUMPDEST POP CALLDATALOAD SWAP2 SWAP1 POP JUMP JUMPDEST PUSH1 0x0 DUP1 PUSH1 0x0 DUP1 PUSH1 0x80 DUP6 DUP8 SUB SLT ISZERO PUSH2 0xD0F JUMPI PUSH1 0x0 DUP1 REVERT JUMPDEST DUP5 CALLDATALOAD PUSH2 0xD1A DUP2 PUSH2 0xBCA JUMP JUMPDEST SWAP4 POP PUSH1 0x20 DUP6 ADD CALLDATALOAD SWAP3 POP PUSH1 0x40 DUP6 ADD CALLDATALOAD SWAP2 POP PUSH1 0x60 DUP6 ADD CALLDATALOAD PUSH8 0xFFFFFFFFFFFFFFFF DUP2 GT ISZERO PUSH2 0xD44 JUMPI PUSH1 0x0 DUP1 REVERT JUMPDEST PUSH2 0xD50 DUP8 DUP3 DUP9 ADD PUSH2 0xB3D JUMP JUMPDEST SWAP2 POP POP SWAP3 SWAP6 SWAP2 SWAP5 POP SWAP3 POP JUMP JUMPDEST PUSH1 0x0 DUP1 PUSH1 0x0 DUP1 PUSH1 0x0 PUSH1 0xA0 DUP7 DUP9 SUB SLT ISZERO PUSH2 0xD74 JUMPI PUSH1 0x0 DUP1 REVERT JUMPDEST DUP6 CALLDATALOAD PUSH2 0xD7F DUP2 PUSH2 0xBCA JUMP JUMPDEST SWAP5 POP PUSH1 0x20 DUP7 ADD CALLDATALOAD SWAP4 POP PUSH1 0x40 DUP7 ADD CALLDATALOAD SWAP3 POP PUSH1 0x60 DUP7 ADD CALLDATALOAD PUSH8 0xFFFFFFFFFFFFFFFF DUP2 GT ISZERO PUSH2 0xDA9 JUMPI PUSH1 0x0 DUP1 REVERT JUMPDEST PUSH2 0xDB5 DUP9 DUP3 DUP10 ADD PUSH2 0xB3D JUMP JUMPDEST SWAP6 SWAP9 SWAP5 SWAP8 POP SWAP3 SWAP6 PUSH1 0x80 ADD CALLDATALOAD SWAP4 SWAP3 POP POP POP JUMP JUMPDEST PUSH1 0x0 DUP1 PUSH1 0x40 DUP4 DUP6 SUB SLT ISZERO PUSH2 0xDDA JUMPI PUSH1 0x0 DUP1 REVERT JUMPDEST DUP3 CALLDATALOAD PUSH8 0xFFFFFFFFFFFFFFFF DUP2 GT ISZERO PUSH2 0xDF1 JUMPI PUSH1 0x0 DUP1 REVERT JUMPDEST PUSH2 0xDFD DUP6 DUP3 DUP7 ADD PUSH2 0xB3D JUMP JUMPDEST SWAP6 PUSH1 0x20 SWAP5 SWAP1 SWAP5 ADD CALLDATALOAD SWAP5 POP POP POP POP JUMP JUMPDEST DUP2 MLOAD PUSH1 0x1 PUSH1 0x1 PUSH1 0xA0 SHL SUB AND DUP2 MSTORE PUSH2 0x180 DUP2 ADD PUSH1 0x20 DUP4 ADD MLOAD PUSH2 0xE38 PUSH1 0x20 DUP5 ADD DUP3 PUSH1 0x1 PUSH1 0x1 PUSH1 0xA0 SHL SUB AND SWAP1 MSTORE JUMP JUMPDEST POP PUSH1 0x40 DUP4 ADD MLOAD PUSH2 0xE53 PUSH1 0x40 DUP5 ADD DUP3 PUSH1 0x1 PUSH1 0x1 PUSH1 0xA0 SHL SUB AND SWAP1 MSTORE JUMP JUMPDEST POP PUSH1 0x60 DUP4 ADD MLOAD PUSH2 0xE67 PUSH1 0x60 DUP5 ADD DUP3 ISZERO ISZERO SWAP1 MSTORE JUMP JUMPDEST POP PUSH1 0x80 DUP4 ADD MLOAD PUSH2 0xE7B PUSH1 0x80 DUP5 ADD DUP3 ISZERO ISZERO SWAP1 MSTORE JUMP JUMPDEST POP PUSH1 0xA0 DUP4 ADD MLOAD PUSH1 0xA0 DUP4 ADD MSTORE PUSH1 0xC0 DUP4 ADD MLOAD PUSH1 0xC0 DUP4 ADD MSTORE PUSH1 0xE0 DUP4 ADD MLOAD PUSH1 0xE0 DUP4 ADD MSTORE PUSH2 0x100 DUP1 DUP5 ADD MLOAD DUP2 DUP5 ADD MSTORE POP PUSH2 0x120 DUP1 DUP5 ADD MLOAD DUP2 DUP5 ADD MSTORE POP PUSH2 0x140 DUP1 DUP5 ADD MLOAD DUP2 DUP5 ADD MSTORE POP PUSH2 0x160 DUP1 DUP5 ADD MLOAD DUP2 DUP5 ADD MSTORE POP SWAP3 SWAP2 POP POP JUMP JUMPDEST PUSH1 0x0 DUP2 MLOAD DUP1 DUP5 MSTORE PUSH1 0x0 JUMPDEST DUP2 DUP2 LT ISZERO PUSH2 0xEF6 JUMPI PUSH1 0x20 DUP2 DUP6 ADD DUP2 ADD MLOAD DUP7 DUP4 ADD DUP3 ADD MSTORE ADD PUSH2 0xEDA JUMP JUMPDEST POP PUSH1 0x0 PUSH1 0x20 DUP3 DUP7 ADD ADD MSTORE PUSH1 0x20 PUSH1 0x1F NOT PUSH1 0x1F DUP4 ADD AND DUP6 ADD ADD SWAP2 POP POP SWAP3 SWAP2 POP POP JUMP JUMPDEST DUP4 DUP2 MSTORE DUP3 PUSH1 0x20 DUP3 ADD MSTORE PUSH1 0x60 PUSH1 0x40 DUP3 ADD MSTORE PUSH1 0x0 PUSH2 0xF35 PUSH1 0x60 DUP4 ADD DUP5 PUSH2 0xED0 JUMP JUMPDEST SWAP6 SWAP5 POP POP POP POP POP JUMP JUMPDEST DUP5 DUP2 MSTORE DUP4 PUSH1 0x20 DUP3 ADD MSTORE PUSH1 0x80 PUSH1 0x40 DUP3 ADD MSTORE PUSH1 0x0 PUSH2 0xF5D PUSH1 0x80 DUP4 ADD DUP6 PUSH2 0xED0 JUMP JUMPDEST SWAP1 POP DUP3 PUSH1 0x60 DUP4 ADD MSTORE SWAP6 SWAP5 POP POP POP POP POP JUMP JUMPDEST DUP1 DUP3 ADD DUP1 DUP3 GT ISZERO PUSH2 0xF8F JUMPI PUSH4 0x4E487B71 PUSH1 0xE0 SHL PUSH1 0x0 MSTORE PUSH1 0x11 PUSH1 0x4 MSTORE PUSH1 0x24 PUSH1 0x0 REVERT JUMPDEST SWAP3 SWAP2 POP POP JUMP INVALID LOG2 PUSH5 0x6970667358 0x22 SLT KECCAK256 0x1F 0xEE CREATE2 EXTCODESIZE EQ EXTCODESIZE 0xDF GT 0xFC PUSH8 0x5B4C1CCF2BE86929 PUSH15 0x6E53F56DA8F6669A1C805C67456473 PUSH16 0x6C634300081400330000000000000000 "},"methodIdentifiers":{"defaultLiveness()":"fe4e1983","getRequest(address,bytes32,uint256,bytes)":"a9904f9b","getState(address,bytes32,uint256,bytes)":"ba4b930c","hasPrice(address,bytes32,uint256,bytes)":"bc58ccaa","mockPrices(bytes32)":"eacb0366","mockSettle(address,bytes32,uint256,bytes,int256)":"98df3186","proposePrice(address,bytes32,uint256,bytes,int256)":"b8b4f908","requestPrice(bytes32,uint256,bytes,address,uint256)":"11df92f1","requests(address,bytes32,uint256,bytes32)":"3bd142d7","setCustomLiveness(bytes32,uint256,bytes,uint256)":"473c45fe","setDefaultLiveness(uint256)":"53d00117","setMockPrice(bytes,int256)":"a6e21752","settle(address,bytes32,uint256,bytes)":"5e9a79a9"}}}}}