{"contracts/BatchPrediction.sol":{"BatchPrediction":{"abi":[{"inputs":[],"stateMutability":"nonpayable","type":"constructor"},{"anonymous":false,"inputs":[{"indexed":true,"internalType":"address","name":"user","type":"address"},{"indexed":false,"internalType":"uint256","name":"totalAmount","type":"uint256"},{"indexed":false,"internalType":"uint256","name":"marketsCount","type":"uint256"}],"name":"BatchPredictionExecuted","type":"event"},{"anonymous":false,"inputs":[{"indexed":true,"internalType":"address","name":"user","type":"address"},{"indexed":true,"internalType":"address","name":"market","type":"address"},{"indexed":false,"internalType":"uint8","name":"optionIndex","type":"uint8"},{"indexed":false,"internalType":"uint256","name":"amount","type":"uint256"},{"indexed":false,"internalType":"string","name":"reason","type":"string"}],"name":"PredictionFailed","type":"event"},{"anonymous":false,"inputs":[{"indexed":true,"internalType":"address","name":"user","type":"address"},{"indexed":true,"internalType":"address","name":"market","type":"address"},{"indexed":false,"internalType":"uint8","name":"optionIndex","type":"uint8"},{"indexed":false,"internalType":"uint256","name":"amount","type":"uint256"}],"name":"PredictionPlaced","type":"event"},{"inputs":[{"components":[{"internalType":"address","name":"market","type":"address"},{"internalType":"uint8","name":"optionIndex","type":"uint8"},{"internalType":"uint256","name":"amount","type":"uint256"}],"internalType":"struct BatchPrediction.Prediction[]","name":"predictions","type":"tuple[]"}],"name":"batchPredict","outputs":[],"stateMutability":"payable","type":"function"},{"inputs":[{"internalType":"address[]","name":"markets","type":"address[]"},{"internalType":"uint8[]","name":"optionIndices","type":"uint8[]"},{"internalType":"uint256[]","name":"amounts","type":"uint256[]"}],"name":"batchPredictSimple","outputs":[],"stateMutability":"payable","type":"function"},{"inputs":[],"name":"emergencyWithdraw","outputs":[],"stateMutability":"nonpayable","type":"function"},{"inputs":[],"name":"owner","outputs":[{"internalType":"address","name":"","type":"address"}],"stateMutability":"view","type":"function"},{"inputs":[{"internalType":"address","name":"newOwner","type":"address"}],"name":"transferOwnership","outputs":[],"stateMutability":"nonpayable","type":"function"},{"inputs":[{"internalType":"address[]","name":"markets","type":"address[]"},{"internalType":"uint256[]","name":"amounts","type":"uint256[]"}],"name":"validatePredictions","outputs":[{"internalType":"bool[]","name":"valid","type":"bool[]"},{"internalType":"uint256","name":"totalAmount","type":"uint256"}],"stateMutability":"view","type":"function"},{"stateMutability":"payable","type":"receive"}],"evm":{"bytecode":{"linkReferences":{},"object":"608060405234801561001057600080fd5b50600080546001600160a01b031916331790556116a4806100326000396000f3fe6080604052600436106100595760003560e01c806309a456d1146100655780635c3708401461009c5780638da5cb5b146100b1578063a5ba8f3d146100e9578063db2e21bc146100fc578063f2fde38b1461011157600080fd5b3661006057005b600080fd5b34801561007157600080fd5b506100856100803660046111a1565b610131565b60405161009392919061120d565b60405180910390f35b6100af6100aa366004611257565b61030c565b005b3480156100bd57600080fd5b506000546100d1906001600160a01b031681565b6040516001600160a01b039091168152602001610093565b6100af6100f73660046112cc565b6108a7565b34801561010857600080fd5b506100af610f8b565b34801561011d57600080fd5b506100af61012c366004611366565b6110a5565b606060008483146101815760405162461bcd60e51b8152602060048201526015602482015274082e4e4c2f240d8cadccee8d040dad2e6dac2e8c6d605b1b60448201526064015b60405180910390fd5b8467ffffffffffffffff81111561019a5761019a611396565b6040519080825280602002602001820160405280156101c3578160200160208202803683370190505b5091506000905060005b85811015610302578686828181106101e7576101e76113ac565b90506020020160208101906101fc9190611366565b6001600160a01b03166280cb826040518163ffffffff1660e01b8152600401602060405180830381865afa925050508015610254575060408051601f3d908101601f19168201909252610251918101906113c2565b60015b61028157600083828151811061026c5761026c6113ac565b911515602092830291909101909101526102ca565b8080156102a65750600086868481811061029d5761029d6113ac565b90506020020135115b8483815181106102b8576102b86113ac565b91151560209283029190910190910152505b8484828181106102dc576102dc6113ac565b90506020020135826102ee91906113fa565b9150806102fa81611413565b9150506101cd565b5094509492505050565b806103535760405162461bcd60e51b8152602060048201526017602482015276139bc81c1c99591a58dd1a5bdb9cc81c1c9bdd9a591959604a1b6044820152606401610178565b60148111156103a45760405162461bcd60e51b815260206004820152601d60248201527f546f6f206d616e792070726564696374696f6e7320286d6178203230290000006044820152606401610178565b6000805b828110156103eb578383828181106103c2576103c26113ac565b90506060020160400135826103d791906113fa565b9150806103e381611413565b9150506103a8565b50803410156104345760405162461bcd60e51b8152602060048201526015602482015274125b9cdd59999a58da595b9d08135395081cd95b9d605a1b6044820152606401610178565b60008060005b8481101561077c5736868683818110610455576104556113ac565b9050606002019050806040013560000361046f575061076a565b61047c6020820182611366565b6001600160a01b03166280cb826040518163ffffffff1660e01b8152600401602060405180830381865afa9250505080156104d4575060408051601f3d908101601f191682019092526104d1918101906113c2565b60015b61052f576104e56020820182611366565b6001600160a01b03163360008051602061164f83398151915261050e604085016020860161142c565b846040013560405161052192919061144f565b60405180910390a35061076a565b8061058c576105416020830183611366565b6001600160a01b03163360008051602061164f83398151915261056a604086016020870161142c565b856040013560405161057d929190611488565b60405180910390a3505061076a565b5061059a6020820182611366565b6001600160a01b03166334f5e9f9604083018035906105bc906020860161142c565b6040516001600160e01b031960e085901b16815260ff90911660048201526024016000604051808303818588803b1580156105f657600080fd5b505af193505050508015610608575060015b6106e4576106146114c2565b806308c379a00361068c5750610628611519565b80610633575061068e565b6106406020830183611366565b6001600160a01b03163360008051602061164f833981519152610669604086016020870161142c565b85604001358560405161067e939291906115a3565b60405180910390a350610768565b505b61069b6020820182611366565b6001600160a01b03163360008051602061164f8339815191526106c4604085016020860161142c565b84604001356040516106d7929190611603565b60405180910390a3610768565b6106f16020820182611366565b6001600160a01b0316337fec8f68f6e626bee2111ea756bc6eb802491f00831828ef7b1034fdfa94fe65d961072c604085016020860161142c565b6040805160ff90921682528086013560208301520160405180910390a38361075381611413565b945061076590506040820135846113fa565b92505b505b8061077481611413565b91505061043a565b50600082116107c65760405162461bcd60e51b8152602060048201526016602482015275105b1b081c1c99591a58dd1a5bdb9cc819985a5b195960521b6044820152606401610178565b604080518281526020810184905233917fe5e7e5911f47e9468f18a24e088393cdf63159247f5065466c34a6cfeb41068e910160405180910390a2600061080d823461163b565b9050801561089f57604051600090339083908381818185875af1925050503d8060008114610857576040519150601f19603f3d011682016040523d82523d6000602084013e61085c565b606091505b505090508061089d5760405162461bcd60e51b815260206004820152600d60248201526c1499599d5b990819985a5b1959609a1b6044820152606401610178565b505b505050505050565b84831480156108b557508481145b6108f95760405162461bcd60e51b8152602060048201526015602482015274082e4e4c2f240d8cadccee8d040dad2e6dac2e8c6d605b1b6044820152606401610178565b846109405760405162461bcd60e51b8152602060048201526017602482015276139bc81c1c99591a58dd1a5bdb9cc81c1c9bdd9a591959604a1b6044820152606401610178565b60148511156109915760405162461bcd60e51b815260206004820152601d60248201527f546f6f206d616e792070726564696374696f6e7320286d6178203230290000006044820152606401610178565b60008567ffffffffffffffff8111156109ac576109ac611396565b6040519080825280602002602001820160405280156109f757816020015b60408051606081018252600080825260208083018290529282015282526000199092019101816109ca5790505b50905060005b86811015610ac0576040518060600160405280898984818110610a2257610a226113ac565b9050602002016020810190610a379190611366565b6001600160a01b03168152602001878784818110610a5757610a576113ac565b9050602002016020810190610a6c919061142c565b60ff168152602001858584818110610a8657610a866113ac565b90506020020135815250828281518110610aa257610aa26113ac565b60200260200101819052508080610ab890611413565b9150506109fd565b506000805b8251811015610b0b57828181518110610ae057610ae06113ac565b60200260200101516040015182610af791906113fa565b915080610b0381611413565b915050610ac5565b5080341015610b545760405162461bcd60e51b8152602060048201526015602482015274125b9cdd59999a58da595b9d08135395081cd95b9d605a1b6044820152606401610178565b60008060005b8451811015610e5b576000858281518110610b7757610b776113ac565b602002602001015190508060400151600003610b935750610e49565b80600001516001600160a01b03166280cb826040518163ffffffff1660e01b8152600401602060405180830381865afa925050508015610bf0575060408051601f3d908101601f19168201909252610bed918101906113c2565b60015b610c415780600001516001600160a01b0316336001600160a01b031660008051602061164f83398151915283602001518460400151604051610c3392919061144f565b60405180910390a350610e49565b80610c945781600001516001600160a01b0316336001600160a01b031660008051602061164f83398151915284602001518560400151604051610c85929190611488565b60405180910390a35050610e49565b508051604080830151602084015191516334f5e9f960e01b815260ff90921660048301526001600160a01b03909216916334f5e9f9916024016000604051808303818588803b158015610ce657600080fd5b505af193505050508015610cf8575060015b610dc057610d046114c2565b806308c379a003610d725750610d18611519565b80610d235750610d74565b81600001516001600160a01b0316336001600160a01b031660008051602061164f8339815191528460200151856040015185604051610d64939291906115a3565b60405180910390a350610e47565b505b80600001516001600160a01b0316336001600160a01b031660008051602061164f83398151915283602001518460400151604051610db3929190611603565b60405180910390a3610e47565b80600001516001600160a01b0316336001600160a01b03167fec8f68f6e626bee2111ea756bc6eb802491f00831828ef7b1034fdfa94fe65d983602001518460400151604051610e1f92919060ff929092168252602082015260400190565b60405180910390a383610e3181611413565b945050806040015183610e4491906113fa565b92505b505b80610e5381611413565b915050610b5a565b5060008211610ea55760405162461bcd60e51b8152602060048201526016602482015275105b1b081c1c99591a58dd1a5bdb9cc819985a5b195960521b6044820152606401610178565b604080518281526020810184905233917fe5e7e5911f47e9468f18a24e088393cdf63159247f5065466c34a6cfeb41068e910160405180910390a26000610eec823461163b565b90508015610f7e57604051600090339083908381818185875af1925050503d8060008114610f36576040519150601f19603f3d011682016040523d82523d6000602084013e610f3b565b606091505b5050905080610f7c5760405162461bcd60e51b815260206004820152600d60248201526c1499599d5b990819985a5b1959609a1b6044820152606401610178565b505b5050505050505050505050565b6000546001600160a01b03163314610fd15760405162461bcd60e51b81526020600482015260096024820152682737ba1037bbb732b960b91b6044820152606401610178565b478061100c5760405162461bcd60e51b815260206004820152600a6024820152694e6f2062616c616e636560b01b6044820152606401610178565b600080546040516001600160a01b039091169083908381818185875af1925050503d8060008114611059576040519150601f19603f3d011682016040523d82523d6000602084013e61105e565b606091505b50509050806110a15760405162461bcd60e51b815260206004820152600f60248201526e15da5d1a191c985dc819985a5b1959608a1b6044820152606401610178565b5050565b6000546001600160a01b031633146110eb5760405162461bcd60e51b81526020600482015260096024820152682737ba1037bbb732b960b91b6044820152606401610178565b6001600160a01b0381166111335760405162461bcd60e51b815260206004820152600f60248201526e496e76616c6964206164647265737360881b6044820152606401610178565b600080546001600160a01b0319166001600160a01b0392909216919091179055565b60008083601f84011261116757600080fd5b50813567ffffffffffffffff81111561117f57600080fd5b6020830191508360208260051b850101111561119a57600080fd5b9250929050565b600080600080604085870312156111b757600080fd5b843567ffffffffffffffff808211156111cf57600080fd5b6111db88838901611155565b909650945060208701359150808211156111f457600080fd5b5061120187828801611155565b95989497509550505050565b604080825283519082018190526000906020906060840190828701845b8281101561124857815115158452928401929084019060010161122a565b50505092019290925292915050565b6000806020838503121561126a57600080fd5b823567ffffffffffffffff8082111561128257600080fd5b818501915085601f83011261129657600080fd5b8135818111156112a557600080fd5b8660206060830285010111156112ba57600080fd5b60209290920196919550909350505050565b600080600080600080606087890312156112e557600080fd5b863567ffffffffffffffff808211156112fd57600080fd5b6113098a838b01611155565b9098509650602089013591508082111561132257600080fd5b61132e8a838b01611155565b9096509450604089013591508082111561134757600080fd5b5061135489828a01611155565b979a9699509497509295939492505050565b60006020828403121561137857600080fd5b81356001600160a01b038116811461138f57600080fd5b9392505050565b634e487b7160e01b600052604160045260246000fd5b634e487b7160e01b600052603260045260246000fd5b6000602082840312156113d457600080fd5b8151801515811461138f57600080fd5b634e487b7160e01b600052601160045260246000fd5b8082018082111561140d5761140d6113e4565b92915050565b600060018201611425576114256113e4565b5060010190565b60006020828403121561143e57600080fd5b813560ff8116811461138f57600080fd5b60ff9290921682526020820152606060408201819052600e908201526d125b9d985b1a59081b585c9ad95d60921b608082015260a00190565b60ff9290921682526020820152606060408201819052600f908201526e26b0b935b2ba103737ba1037b832b760891b608082015260a00190565b600060033d11156114db5760046000803e5060005160e01c5b90565b601f8201601f1916810167ffffffffffffffff8111828210171561151257634e487b7160e01b600052604160045260246000fd5b6040525050565b600060443d10156115275790565b6040516003193d81016004833e81513d67ffffffffffffffff816024840111818411171561155757505050505090565b828501915081518181111561156f5750505050505090565b843d87010160208285010111156115895750505050505090565b611598602082860101876114de565b509095945050505050565b60ff8416815260006020848184015260606040840152835180606085015260005b818110156115e0578581018301518582016080015282016115c4565b506000608082860101526080601f19601f83011685010192505050949350505050565b60ff9290921682526020820152606060408201819052600d908201526c2ab735b737bbb71032b93937b960991b608082015260a00190565b8181038181111561140d5761140d6113e456feea9e6abf71a11cd21d9db5ab5f834c7b53f6a765b0b5b4ef1e45e70fbdd92748a26469706673582212206dc4fa0738fbd75f15a43d6f3fe35be072bb9983734f435d0d8f25e64ad898bf64736f6c63430008140033","opcodes":"PUSH1 0x80 PUSH1 0x40 MSTORE CALLVALUE DUP1 ISZERO PUSH2 0x10 JUMPI PUSH1 0x0 DUP1 REVERT JUMPDEST POP PUSH1 0x0 DUP1 SLOAD PUSH1 0x1 PUSH1 0x1 PUSH1 0xA0 SHL SUB NOT AND CALLER OR SWAP1 SSTORE PUSH2 0x16A4 DUP1 PUSH2 0x32 PUSH1 0x0 CODECOPY PUSH1 0x0 RETURN INVALID PUSH1 0x80 PUSH1 0x40 MSTORE PUSH1 0x4 CALLDATASIZE LT PUSH2 0x59 JUMPI PUSH1 0x0 CALLDATALOAD PUSH1 0xE0 SHR DUP1 PUSH4 0x9A456D1 EQ PUSH2 0x65 JUMPI DUP1 PUSH4 0x5C370840 EQ PUSH2 0x9C JUMPI DUP1 PUSH4 0x8DA5CB5B EQ PUSH2 0xB1 JUMPI DUP1 PUSH4 0xA5BA8F3D EQ PUSH2 0xE9 JUMPI DUP1 PUSH4 0xDB2E21BC EQ PUSH2 0xFC JUMPI DUP1 PUSH4 0xF2FDE38B EQ PUSH2 0x111 JUMPI PUSH1 0x0 DUP1 REVERT JUMPDEST CALLDATASIZE PUSH2 0x60 JUMPI STOP JUMPDEST PUSH1 0x0 DUP1 REVERT JUMPDEST CALLVALUE DUP1 ISZERO PUSH2 0x71 JUMPI PUSH1 0x0 DUP1 REVERT JUMPDEST POP PUSH2 0x85 PUSH2 0x80 CALLDATASIZE PUSH1 0x4 PUSH2 0x11A1 JUMP JUMPDEST PUSH2 0x131 JUMP JUMPDEST PUSH1 0x40 MLOAD PUSH2 0x93 SWAP3 SWAP2 SWAP1 PUSH2 0x120D JUMP JUMPDEST PUSH1 0x40 MLOAD DUP1 SWAP2 SUB SWAP1 RETURN JUMPDEST PUSH2 0xAF PUSH2 0xAA CALLDATASIZE PUSH1 0x4 PUSH2 0x1257 JUMP JUMPDEST PUSH2 0x30C JUMP JUMPDEST STOP JUMPDEST CALLVALUE DUP1 ISZERO PUSH2 0xBD JUMPI PUSH1 0x0 DUP1 REVERT JUMPDEST POP PUSH1 0x0 SLOAD PUSH2 0xD1 SWAP1 PUSH1 0x1 PUSH1 0x1 PUSH1 0xA0 SHL SUB AND DUP2 JUMP JUMPDEST PUSH1 0x40 MLOAD PUSH1 0x1 PUSH1 0x1 PUSH1 0xA0 SHL SUB SWAP1 SWAP2 AND DUP2 MSTORE PUSH1 0x20 ADD PUSH2 0x93 JUMP JUMPDEST PUSH2 0xAF PUSH2 0xF7 CALLDATASIZE PUSH1 0x4 PUSH2 0x12CC JUMP JUMPDEST PUSH2 0x8A7 JUMP JUMPDEST CALLVALUE DUP1 ISZERO PUSH2 0x108 JUMPI PUSH1 0x0 DUP1 REVERT JUMPDEST POP PUSH2 0xAF PUSH2 0xF8B JUMP JUMPDEST CALLVALUE DUP1 ISZERO PUSH2 0x11D JUMPI PUSH1 0x0 DUP1 REVERT JUMPDEST POP PUSH2 0xAF PUSH2 0x12C CALLDATASIZE PUSH1 0x4 PUSH2 0x1366 JUMP JUMPDEST PUSH2 0x10A5 JUMP JUMPDEST PUSH1 0x60 PUSH1 0x0 DUP5 DUP4 EQ PUSH2 0x181 JUMPI PUSH1 0x40 MLOAD PUSH3 0x461BCD PUSH1 0xE5 SHL DUP2 MSTORE PUSH1 0x20 PUSH1 0x4 DUP3 ADD MSTORE PUSH1 0x15 PUSH1 0x24 DUP3 ADD MSTORE PUSH21 0x82E4E4C2F240D8CADCCEE8D040DAD2E6DAC2E8C6D PUSH1 0x5B SHL PUSH1 0x44 DUP3 ADD MSTORE PUSH1 0x64 ADD JUMPDEST PUSH1 0x40 MLOAD DUP1 SWAP2 SUB SWAP1 REVERT JUMPDEST DUP5 PUSH8 0xFFFFFFFFFFFFFFFF DUP2 GT ISZERO PUSH2 0x19A JUMPI PUSH2 0x19A PUSH2 0x1396 JUMP JUMPDEST PUSH1 0x40 MLOAD SWAP1 DUP1 DUP3 MSTORE DUP1 PUSH1 0x20 MUL PUSH1 0x20 ADD DUP3 ADD PUSH1 0x40 MSTORE DUP1 ISZERO PUSH2 0x1C3 JUMPI DUP2 PUSH1 0x20 ADD PUSH1 0x20 DUP3 MUL DUP1 CALLDATASIZE DUP4 CALLDATACOPY ADD SWAP1 POP JUMPDEST POP SWAP2 POP PUSH1 0x0 SWAP1 POP PUSH1 0x0 JUMPDEST DUP6 DUP2 LT ISZERO PUSH2 0x302 JUMPI DUP7 DUP7 DUP3 DUP2 DUP2 LT PUSH2 0x1E7 JUMPI PUSH2 0x1E7 PUSH2 0x13AC JUMP JUMPDEST SWAP1 POP PUSH1 0x20 MUL ADD PUSH1 0x20 DUP2 ADD SWAP1 PUSH2 0x1FC SWAP2 SWAP1 PUSH2 0x1366 JUMP JUMPDEST PUSH1 0x1 PUSH1 0x1 PUSH1 0xA0 SHL SUB AND PUSH3 0x80CB82 PUSH1 0x40 MLOAD DUP2 PUSH4 0xFFFFFFFF AND PUSH1 0xE0 SHL DUP2 MSTORE PUSH1 0x4 ADD PUSH1 0x20 PUSH1 0x40 MLOAD DUP1 DUP4 SUB DUP2 DUP7 GAS STATICCALL SWAP3 POP POP POP DUP1 ISZERO PUSH2 0x254 JUMPI POP PUSH1 0x40 DUP1 MLOAD PUSH1 0x1F RETURNDATASIZE SWAP1 DUP2 ADD PUSH1 0x1F NOT AND DUP3 ADD SWAP1 SWAP3 MSTORE PUSH2 0x251 SWAP2 DUP2 ADD SWAP1 PUSH2 0x13C2 JUMP JUMPDEST PUSH1 0x1 JUMPDEST PUSH2 0x281 JUMPI PUSH1 0x0 DUP4 DUP3 DUP2 MLOAD DUP2 LT PUSH2 0x26C JUMPI PUSH2 0x26C PUSH2 0x13AC JUMP JUMPDEST SWAP2 ISZERO ISZERO PUSH1 0x20 SWAP3 DUP4 MUL SWAP2 SWAP1 SWAP2 ADD SWAP1 SWAP2 ADD MSTORE PUSH2 0x2CA JUMP JUMPDEST DUP1 DUP1 ISZERO PUSH2 0x2A6 JUMPI POP PUSH1 0x0 DUP7 DUP7 DUP5 DUP2 DUP2 LT PUSH2 0x29D JUMPI PUSH2 0x29D PUSH2 0x13AC JUMP JUMPDEST SWAP1 POP PUSH1 0x20 MUL ADD CALLDATALOAD GT JUMPDEST DUP5 DUP4 DUP2 MLOAD DUP2 LT PUSH2 0x2B8 JUMPI PUSH2 0x2B8 PUSH2 0x13AC JUMP JUMPDEST SWAP2 ISZERO ISZERO PUSH1 0x20 SWAP3 DUP4 MUL SWAP2 SWAP1 SWAP2 ADD SWAP1 SWAP2 ADD MSTORE POP JUMPDEST DUP5 DUP5 DUP3 DUP2 DUP2 LT PUSH2 0x2DC JUMPI PUSH2 0x2DC PUSH2 0x13AC JUMP JUMPDEST SWAP1 POP PUSH1 0x20 MUL ADD CALLDATALOAD DUP3 PUSH2 0x2EE SWAP2 SWAP1 PUSH2 0x13FA JUMP JUMPDEST SWAP2 POP DUP1 PUSH2 0x2FA DUP2 PUSH2 0x1413 JUMP JUMPDEST SWAP2 POP POP PUSH2 0x1CD JUMP JUMPDEST POP SWAP5 POP SWAP5 SWAP3 POP POP POP JUMP JUMPDEST DUP1 PUSH2 0x353 JUMPI PUSH1 0x40 MLOAD PUSH3 0x461BCD PUSH1 0xE5 SHL DUP2 MSTORE PUSH1 0x20 PUSH1 0x4 DUP3 ADD MSTORE PUSH1 0x17 PUSH1 0x24 DUP3 ADD MSTORE PUSH23 0x139BC81C1C99591A58DD1A5BDB9CC81C1C9BDD9A591959 PUSH1 0x4A SHL PUSH1 0x44 DUP3 ADD MSTORE PUSH1 0x64 ADD PUSH2 0x178 JUMP JUMPDEST PUSH1 0x14 DUP2 GT ISZERO PUSH2 0x3A4 JUMPI PUSH1 0x40 MLOAD PUSH3 0x461BCD PUSH1 0xE5 SHL DUP2 MSTORE PUSH1 0x20 PUSH1 0x4 DUP3 ADD MSTORE PUSH1 0x1D PUSH1 0x24 DUP3 ADD MSTORE PUSH32 0x546F6F206D616E792070726564696374696F6E7320286D617820323029000000 PUSH1 0x44 DUP3 ADD MSTORE PUSH1 0x64 ADD PUSH2 0x178 JUMP JUMPDEST PUSH1 0x0 DUP1 JUMPDEST DUP3 DUP2 LT ISZERO PUSH2 0x3EB JUMPI DUP4 DUP4 DUP3 DUP2 DUP2 LT PUSH2 0x3C2 JUMPI PUSH2 0x3C2 PUSH2 0x13AC JUMP JUMPDEST SWAP1 POP PUSH1 0x60 MUL ADD PUSH1 0x40 ADD CALLDATALOAD DUP3 PUSH2 0x3D7 SWAP2 SWAP1 PUSH2 0x13FA JUMP JUMPDEST SWAP2 POP DUP1 PUSH2 0x3E3 DUP2 PUSH2 0x1413 JUMP JUMPDEST SWAP2 POP POP PUSH2 0x3A8 JUMP JUMPDEST POP DUP1 CALLVALUE LT ISZERO PUSH2 0x434 JUMPI PUSH1 0x40 MLOAD PUSH3 0x461BCD PUSH1 0xE5 SHL DUP2 MSTORE PUSH1 0x20 PUSH1 0x4 DUP3 ADD MSTORE PUSH1 0x15 PUSH1 0x24 DUP3 ADD MSTORE PUSH21 0x125B9CDD59999A58DA595B9D08135395081CD95B9D PUSH1 0x5A SHL PUSH1 0x44 DUP3 ADD MSTORE PUSH1 0x64 ADD PUSH2 0x178 JUMP JUMPDEST PUSH1 0x0 DUP1 PUSH1 0x0 JUMPDEST DUP5 DUP2 LT ISZERO PUSH2 0x77C JUMPI CALLDATASIZE DUP7 DUP7 DUP4 DUP2 DUP2 LT PUSH2 0x455 JUMPI PUSH2 0x455 PUSH2 0x13AC JUMP JUMPDEST SWAP1 POP PUSH1 0x60 MUL ADD SWAP1 POP DUP1 PUSH1 0x40 ADD CALLDATALOAD PUSH1 0x0 SUB PUSH2 0x46F JUMPI POP PUSH2 0x76A JUMP JUMPDEST PUSH2 0x47C PUSH1 0x20 DUP3 ADD DUP3 PUSH2 0x1366 JUMP JUMPDEST PUSH1 0x1 PUSH1 0x1 PUSH1 0xA0 SHL SUB AND PUSH3 0x80CB82 PUSH1 0x40 MLOAD DUP2 PUSH4 0xFFFFFFFF AND PUSH1 0xE0 SHL DUP2 MSTORE PUSH1 0x4 ADD PUSH1 0x20 PUSH1 0x40 MLOAD DUP1 DUP4 SUB DUP2 DUP7 GAS STATICCALL SWAP3 POP POP POP DUP1 ISZERO PUSH2 0x4D4 JUMPI POP PUSH1 0x40 DUP1 MLOAD PUSH1 0x1F RETURNDATASIZE SWAP1 DUP2 ADD PUSH1 0x1F NOT AND DUP3 ADD SWAP1 SWAP3 MSTORE PUSH2 0x4D1 SWAP2 DUP2 ADD SWAP1 PUSH2 0x13C2 JUMP JUMPDEST PUSH1 0x1 JUMPDEST PUSH2 0x52F JUMPI PUSH2 0x4E5 PUSH1 0x20 DUP3 ADD DUP3 PUSH2 0x1366 JUMP JUMPDEST PUSH1 0x1 PUSH1 0x1 PUSH1 0xA0 SHL SUB AND CALLER PUSH1 0x0 DUP1 MLOAD PUSH1 0x20 PUSH2 0x164F DUP4 CODECOPY DUP2 MLOAD SWAP2 MSTORE PUSH2 0x50E PUSH1 0x40 DUP6 ADD PUSH1 0x20 DUP7 ADD PUSH2 0x142C JUMP JUMPDEST DUP5 PUSH1 0x40 ADD CALLDATALOAD PUSH1 0x40 MLOAD PUSH2 0x521 SWAP3 SWAP2 SWAP1 PUSH2 0x144F JUMP JUMPDEST PUSH1 0x40 MLOAD DUP1 SWAP2 SUB SWAP1 LOG3 POP PUSH2 0x76A JUMP JUMPDEST DUP1 PUSH2 0x58C JUMPI PUSH2 0x541 PUSH1 0x20 DUP4 ADD DUP4 PUSH2 0x1366 JUMP JUMPDEST PUSH1 0x1 PUSH1 0x1 PUSH1 0xA0 SHL SUB AND CALLER PUSH1 0x0 DUP1 MLOAD PUSH1 0x20 PUSH2 0x164F DUP4 CODECOPY DUP2 MLOAD SWAP2 MSTORE PUSH2 0x56A PUSH1 0x40 DUP7 ADD PUSH1 0x20 DUP8 ADD PUSH2 0x142C JUMP JUMPDEST DUP6 PUSH1 0x40 ADD CALLDATALOAD PUSH1 0x40 MLOAD PUSH2 0x57D SWAP3 SWAP2 SWAP1 PUSH2 0x1488 JUMP JUMPDEST PUSH1 0x40 MLOAD DUP1 SWAP2 SUB SWAP1 LOG3 POP POP PUSH2 0x76A JUMP JUMPDEST POP PUSH2 0x59A PUSH1 0x20 DUP3 ADD DUP3 PUSH2 0x1366 JUMP JUMPDEST PUSH1 0x1 PUSH1 0x1 PUSH1 0xA0 SHL SUB AND PUSH4 0x34F5E9F9 PUSH1 0x40 DUP4 ADD DUP1 CALLDATALOAD SWAP1 PUSH2 0x5BC SWAP1 PUSH1 0x20 DUP7 ADD PUSH2 0x142C JUMP JUMPDEST PUSH1 0x40 MLOAD PUSH1 0x1 PUSH1 0x1 PUSH1 0xE0 SHL SUB NOT PUSH1 0xE0 DUP6 SWAP1 SHL AND DUP2 MSTORE PUSH1 0xFF SWAP1 SWAP2 AND PUSH1 0x4 DUP3 ADD MSTORE PUSH1 0x24 ADD PUSH1 0x0 PUSH1 0x40 MLOAD DUP1 DUP4 SUB DUP2 DUP6 DUP9 DUP1 EXTCODESIZE ISZERO DUP1 ISZERO PUSH2 0x5F6 JUMPI PUSH1 0x0 DUP1 REVERT JUMPDEST POP GAS CALL SWAP4 POP POP POP POP DUP1 ISZERO PUSH2 0x608 JUMPI POP PUSH1 0x1 JUMPDEST PUSH2 0x6E4 JUMPI PUSH2 0x614 PUSH2 0x14C2 JUMP JUMPDEST DUP1 PUSH4 0x8C379A0 SUB PUSH2 0x68C JUMPI POP PUSH2 0x628 PUSH2 0x1519 JUMP JUMPDEST DUP1 PUSH2 0x633 JUMPI POP PUSH2 0x68E JUMP JUMPDEST PUSH2 0x640 PUSH1 0x20 DUP4 ADD DUP4 PUSH2 0x1366 JUMP JUMPDEST PUSH1 0x1 PUSH1 0x1 PUSH1 0xA0 SHL SUB AND CALLER PUSH1 0x0 DUP1 MLOAD PUSH1 0x20 PUSH2 0x164F DUP4 CODECOPY DUP2 MLOAD SWAP2 MSTORE PUSH2 0x669 PUSH1 0x40 DUP7 ADD PUSH1 0x20 DUP8 ADD PUSH2 0x142C JUMP JUMPDEST DUP6 PUSH1 0x40 ADD CALLDATALOAD DUP6 PUSH1 0x40 MLOAD PUSH2 0x67E SWAP4 SWAP3 SWAP2 SWAP1 PUSH2 0x15A3 JUMP JUMPDEST PUSH1 0x40 MLOAD DUP1 SWAP2 SUB SWAP1 LOG3 POP PUSH2 0x768 JUMP JUMPDEST POP JUMPDEST PUSH2 0x69B PUSH1 0x20 DUP3 ADD DUP3 PUSH2 0x1366 JUMP JUMPDEST PUSH1 0x1 PUSH1 0x1 PUSH1 0xA0 SHL SUB AND CALLER PUSH1 0x0 DUP1 MLOAD PUSH1 0x20 PUSH2 0x164F DUP4 CODECOPY DUP2 MLOAD SWAP2 MSTORE PUSH2 0x6C4 PUSH1 0x40 DUP6 ADD PUSH1 0x20 DUP7 ADD PUSH2 0x142C JUMP JUMPDEST DUP5 PUSH1 0x40 ADD CALLDATALOAD PUSH1 0x40 MLOAD PUSH2 0x6D7 SWAP3 SWAP2 SWAP1 PUSH2 0x1603 JUMP JUMPDEST PUSH1 0x40 MLOAD DUP1 SWAP2 SUB SWAP1 LOG3 PUSH2 0x768 JUMP JUMPDEST PUSH2 0x6F1 PUSH1 0x20 DUP3 ADD DUP3 PUSH2 0x1366 JUMP JUMPDEST PUSH1 0x1 PUSH1 0x1 PUSH1 0xA0 SHL SUB AND CALLER PUSH32 0xEC8F68F6E626BEE2111EA756BC6EB802491F00831828EF7B1034FDFA94FE65D9 PUSH2 0x72C PUSH1 0x40 DUP6 ADD PUSH1 0x20 DUP7 ADD PUSH2 0x142C JUMP JUMPDEST PUSH1 0x40 DUP1 MLOAD PUSH1 0xFF SWAP1 SWAP3 AND DUP3 MSTORE DUP1 DUP7 ADD CALLDATALOAD PUSH1 0x20 DUP4 ADD MSTORE ADD PUSH1 0x40 MLOAD DUP1 SWAP2 SUB SWAP1 LOG3 DUP4 PUSH2 0x753 DUP2 PUSH2 0x1413 JUMP JUMPDEST SWAP5 POP PUSH2 0x765 SWAP1 POP PUSH1 0x40 DUP3 ADD CALLDATALOAD DUP5 PUSH2 0x13FA JUMP JUMPDEST SWAP3 POP JUMPDEST POP JUMPDEST DUP1 PUSH2 0x774 DUP2 PUSH2 0x1413 JUMP JUMPDEST SWAP2 POP POP PUSH2 0x43A JUMP JUMPDEST POP PUSH1 0x0 DUP3 GT PUSH2 0x7C6 JUMPI PUSH1 0x40 MLOAD PUSH3 0x461BCD PUSH1 0xE5 SHL DUP2 MSTORE PUSH1 0x20 PUSH1 0x4 DUP3 ADD MSTORE PUSH1 0x16 PUSH1 0x24 DUP3 ADD MSTORE PUSH22 0x105B1B081C1C99591A58DD1A5BDB9CC819985A5B1959 PUSH1 0x52 SHL PUSH1 0x44 DUP3 ADD MSTORE PUSH1 0x64 ADD PUSH2 0x178 JUMP JUMPDEST PUSH1 0x40 DUP1 MLOAD DUP3 DUP2 MSTORE PUSH1 0x20 DUP2 ADD DUP5 SWAP1 MSTORE CALLER SWAP2 PUSH32 0xE5E7E5911F47E9468F18A24E088393CDF63159247F5065466C34A6CFEB41068E SWAP2 ADD PUSH1 0x40 MLOAD DUP1 SWAP2 SUB SWAP1 LOG2 PUSH1 0x0 PUSH2 0x80D DUP3 CALLVALUE PUSH2 0x163B JUMP JUMPDEST SWAP1 POP DUP1 ISZERO PUSH2 0x89F JUMPI PUSH1 0x40 MLOAD PUSH1 0x0 SWAP1 CALLER SWAP1 DUP4 SWAP1 DUP4 DUP2 DUP2 DUP2 DUP6 DUP8 GAS CALL SWAP3 POP POP POP RETURNDATASIZE DUP1 PUSH1 0x0 DUP2 EQ PUSH2 0x857 JUMPI PUSH1 0x40 MLOAD SWAP2 POP PUSH1 0x1F NOT PUSH1 0x3F RETURNDATASIZE ADD AND DUP3 ADD PUSH1 0x40 MSTORE RETURNDATASIZE DUP3 MSTORE RETURNDATASIZE PUSH1 0x0 PUSH1 0x20 DUP5 ADD RETURNDATACOPY PUSH2 0x85C JUMP JUMPDEST PUSH1 0x60 SWAP2 POP JUMPDEST POP POP SWAP1 POP DUP1 PUSH2 0x89D JUMPI PUSH1 0x40 MLOAD PUSH3 0x461BCD PUSH1 0xE5 SHL DUP2 MSTORE PUSH1 0x20 PUSH1 0x4 DUP3 ADD MSTORE PUSH1 0xD PUSH1 0x24 DUP3 ADD MSTORE PUSH13 0x1499599D5B990819985A5B1959 PUSH1 0x9A SHL PUSH1 0x44 DUP3 ADD MSTORE PUSH1 0x64 ADD PUSH2 0x178 JUMP JUMPDEST POP JUMPDEST POP POP POP POP POP POP JUMP JUMPDEST DUP5 DUP4 EQ DUP1 ISZERO PUSH2 0x8B5 JUMPI POP DUP5 DUP2 EQ JUMPDEST PUSH2 0x8F9 JUMPI PUSH1 0x40 MLOAD PUSH3 0x461BCD PUSH1 0xE5 SHL DUP2 MSTORE PUSH1 0x20 PUSH1 0x4 DUP3 ADD MSTORE PUSH1 0x15 PUSH1 0x24 DUP3 ADD MSTORE PUSH21 0x82E4E4C2F240D8CADCCEE8D040DAD2E6DAC2E8C6D PUSH1 0x5B SHL PUSH1 0x44 DUP3 ADD MSTORE PUSH1 0x64 ADD PUSH2 0x178 JUMP JUMPDEST DUP5 PUSH2 0x940 JUMPI PUSH1 0x40 MLOAD PUSH3 0x461BCD PUSH1 0xE5 SHL DUP2 MSTORE PUSH1 0x20 PUSH1 0x4 DUP3 ADD MSTORE PUSH1 0x17 PUSH1 0x24 DUP3 ADD MSTORE PUSH23 0x139BC81C1C99591A58DD1A5BDB9CC81C1C9BDD9A591959 PUSH1 0x4A SHL PUSH1 0x44 DUP3 ADD MSTORE PUSH1 0x64 ADD PUSH2 0x178 JUMP JUMPDEST PUSH1 0x14 DUP6 GT ISZERO PUSH2 0x991 JUMPI PUSH1 0x40 MLOAD PUSH3 0x461BCD PUSH1 0xE5 SHL DUP2 MSTORE PUSH1 0x20 PUSH1 0x4 DUP3 ADD MSTORE PUSH1 0x1D PUSH1 0x24 DUP3 ADD MSTORE PUSH32 0x546F6F206D616E792070726564696374696F6E7320286D617820323029000000 PUSH1 0x44 DUP3 ADD MSTORE PUSH1 0x64 ADD PUSH2 0x178 JUMP JUMPDEST PUSH1 0x0 DUP6 PUSH8 0xFFFFFFFFFFFFFFFF DUP2 GT ISZERO PUSH2 0x9AC JUMPI PUSH2 0x9AC PUSH2 0x1396 JUMP JUMPDEST PUSH1 0x40 MLOAD SWAP1 DUP1 DUP3 MSTORE DUP1 PUSH1 0x20 MUL PUSH1 0x20 ADD DUP3 ADD PUSH1 0x40 MSTORE DUP1 ISZERO PUSH2 0x9F7 JUMPI DUP2 PUSH1 0x20 ADD JUMPDEST PUSH1 0x40 DUP1 MLOAD PUSH1 0x60 DUP2 ADD DUP3 MSTORE PUSH1 0x0 DUP1 DUP3 MSTORE PUSH1 0x20 DUP1 DUP4 ADD DUP3 SWAP1 MSTORE SWAP3 DUP3 ADD MSTORE DUP3 MSTORE PUSH1 0x0 NOT SWAP1 SWAP3 ADD SWAP2 ADD DUP2 PUSH2 0x9CA JUMPI SWAP1 POP JUMPDEST POP SWAP1 POP PUSH1 0x0 JUMPDEST DUP7 DUP2 LT ISZERO PUSH2 0xAC0 JUMPI PUSH1 0x40 MLOAD DUP1 PUSH1 0x60 ADD PUSH1 0x40 MSTORE DUP1 DUP10 DUP10 DUP5 DUP2 DUP2 LT PUSH2 0xA22 JUMPI PUSH2 0xA22 PUSH2 0x13AC JUMP JUMPDEST SWAP1 POP PUSH1 0x20 MUL ADD PUSH1 0x20 DUP2 ADD SWAP1 PUSH2 0xA37 SWAP2 SWAP1 PUSH2 0x1366 JUMP JUMPDEST PUSH1 0x1 PUSH1 0x1 PUSH1 0xA0 SHL SUB AND DUP2 MSTORE PUSH1 0x20 ADD DUP8 DUP8 DUP5 DUP2 DUP2 LT PUSH2 0xA57 JUMPI PUSH2 0xA57 PUSH2 0x13AC JUMP JUMPDEST SWAP1 POP PUSH1 0x20 MUL ADD PUSH1 0x20 DUP2 ADD SWAP1 PUSH2 0xA6C SWAP2 SWAP1 PUSH2 0x142C JUMP JUMPDEST PUSH1 0xFF AND DUP2 MSTORE PUSH1 0x20 ADD DUP6 DUP6 DUP5 DUP2 DUP2 LT PUSH2 0xA86 JUMPI PUSH2 0xA86 PUSH2 0x13AC JUMP JUMPDEST SWAP1 POP PUSH1 0x20 MUL ADD CALLDATALOAD DUP2 MSTORE POP DUP3 DUP3 DUP2 MLOAD DUP2 LT PUSH2 0xAA2 JUMPI PUSH2 0xAA2 PUSH2 0x13AC JUMP JUMPDEST PUSH1 0x20 MUL PUSH1 0x20 ADD ADD DUP2 SWAP1 MSTORE POP DUP1 DUP1 PUSH2 0xAB8 SWAP1 PUSH2 0x1413 JUMP JUMPDEST SWAP2 POP POP PUSH2 0x9FD JUMP JUMPDEST POP PUSH1 0x0 DUP1 JUMPDEST DUP3 MLOAD DUP2 LT ISZERO PUSH2 0xB0B JUMPI DUP3 DUP2 DUP2 MLOAD DUP2 LT PUSH2 0xAE0 JUMPI PUSH2 0xAE0 PUSH2 0x13AC JUMP JUMPDEST PUSH1 0x20 MUL PUSH1 0x20 ADD ADD MLOAD PUSH1 0x40 ADD MLOAD DUP3 PUSH2 0xAF7 SWAP2 SWAP1 PUSH2 0x13FA JUMP JUMPDEST SWAP2 POP DUP1 PUSH2 0xB03 DUP2 PUSH2 0x1413 JUMP JUMPDEST SWAP2 POP POP PUSH2 0xAC5 JUMP JUMPDEST POP DUP1 CALLVALUE LT ISZERO PUSH2 0xB54 JUMPI PUSH1 0x40 MLOAD PUSH3 0x461BCD PUSH1 0xE5 SHL DUP2 MSTORE PUSH1 0x20 PUSH1 0x4 DUP3 ADD MSTORE PUSH1 0x15 PUSH1 0x24 DUP3 ADD MSTORE PUSH21 0x125B9CDD59999A58DA595B9D08135395081CD95B9D PUSH1 0x5A SHL PUSH1 0x44 DUP3 ADD MSTORE PUSH1 0x64 ADD PUSH2 0x178 JUMP JUMPDEST PUSH1 0x0 DUP1 PUSH1 0x0 JUMPDEST DUP5 MLOAD DUP2 LT ISZERO PUSH2 0xE5B JUMPI PUSH1 0x0 DUP6 DUP3 DUP2 MLOAD DUP2 LT PUSH2 0xB77 JUMPI PUSH2 0xB77 PUSH2 0x13AC JUMP JUMPDEST PUSH1 0x20 MUL PUSH1 0x20 ADD ADD MLOAD SWAP1 POP DUP1 PUSH1 0x40 ADD MLOAD PUSH1 0x0 SUB PUSH2 0xB93 JUMPI POP PUSH2 0xE49 JUMP JUMPDEST DUP1 PUSH1 0x0 ADD MLOAD PUSH1 0x1 PUSH1 0x1 PUSH1 0xA0 SHL SUB AND PUSH3 0x80CB82 PUSH1 0x40 MLOAD DUP2 PUSH4 0xFFFFFFFF AND PUSH1 0xE0 SHL DUP2 MSTORE PUSH1 0x4 ADD PUSH1 0x20 PUSH1 0x40 MLOAD DUP1 DUP4 SUB DUP2 DUP7 GAS STATICCALL SWAP3 POP POP POP DUP1 ISZERO PUSH2 0xBF0 JUMPI POP PUSH1 0x40 DUP1 MLOAD PUSH1 0x1F RETURNDATASIZE SWAP1 DUP2 ADD PUSH1 0x1F NOT AND DUP3 ADD SWAP1 SWAP3 MSTORE PUSH2 0xBED SWAP2 DUP2 ADD SWAP1 PUSH2 0x13C2 JUMP JUMPDEST PUSH1 0x1 JUMPDEST PUSH2 0xC41 JUMPI DUP1 PUSH1 0x0 ADD MLOAD PUSH1 0x1 PUSH1 0x1 PUSH1 0xA0 SHL SUB AND CALLER PUSH1 0x1 PUSH1 0x1 PUSH1 0xA0 SHL SUB AND PUSH1 0x0 DUP1 MLOAD PUSH1 0x20 PUSH2 0x164F DUP4 CODECOPY DUP2 MLOAD SWAP2 MSTORE DUP4 PUSH1 0x20 ADD MLOAD DUP5 PUSH1 0x40 ADD MLOAD PUSH1 0x40 MLOAD PUSH2 0xC33 SWAP3 SWAP2 SWAP1 PUSH2 0x144F JUMP JUMPDEST PUSH1 0x40 MLOAD DUP1 SWAP2 SUB SWAP1 LOG3 POP PUSH2 0xE49 JUMP JUMPDEST DUP1 PUSH2 0xC94 JUMPI DUP2 PUSH1 0x0 ADD MLOAD PUSH1 0x1 PUSH1 0x1 PUSH1 0xA0 SHL SUB AND CALLER PUSH1 0x1 PUSH1 0x1 PUSH1 0xA0 SHL SUB AND PUSH1 0x0 DUP1 MLOAD PUSH1 0x20 PUSH2 0x164F DUP4 CODECOPY DUP2 MLOAD SWAP2 MSTORE DUP5 PUSH1 0x20 ADD MLOAD DUP6 PUSH1 0x40 ADD MLOAD PUSH1 0x40 MLOAD PUSH2 0xC85 SWAP3 SWAP2 SWAP1 PUSH2 0x1488 JUMP JUMPDEST PUSH1 0x40 MLOAD DUP1 SWAP2 SUB SWAP1 LOG3 POP POP PUSH2 0xE49 JUMP JUMPDEST POP DUP1 MLOAD PUSH1 0x40 DUP1 DUP4 ADD MLOAD PUSH1 0x20 DUP5 ADD MLOAD SWAP2 MLOAD PUSH4 0x34F5E9F9 PUSH1 0xE0 SHL DUP2 MSTORE PUSH1 0xFF SWAP1 SWAP3 AND PUSH1 0x4 DUP4 ADD MSTORE PUSH1 0x1 PUSH1 0x1 PUSH1 0xA0 SHL SUB SWAP1 SWAP3 AND SWAP2 PUSH4 0x34F5E9F9 SWAP2 PUSH1 0x24 ADD PUSH1 0x0 PUSH1 0x40 MLOAD DUP1 DUP4 SUB DUP2 DUP6 DUP9 DUP1 EXTCODESIZE ISZERO DUP1 ISZERO PUSH2 0xCE6 JUMPI PUSH1 0x0 DUP1 REVERT JUMPDEST POP GAS CALL SWAP4 POP POP POP POP DUP1 ISZERO PUSH2 0xCF8 JUMPI POP PUSH1 0x1 JUMPDEST PUSH2 0xDC0 JUMPI PUSH2 0xD04 PUSH2 0x14C2 JUMP JUMPDEST DUP1 PUSH4 0x8C379A0 SUB PUSH2 0xD72 JUMPI POP PUSH2 0xD18 PUSH2 0x1519 JUMP JUMPDEST DUP1 PUSH2 0xD23 JUMPI POP PUSH2 0xD74 JUMP JUMPDEST DUP2 PUSH1 0x0 ADD MLOAD PUSH1 0x1 PUSH1 0x1 PUSH1 0xA0 SHL SUB AND CALLER PUSH1 0x1 PUSH1 0x1 PUSH1 0xA0 SHL SUB AND PUSH1 0x0 DUP1 MLOAD PUSH1 0x20 PUSH2 0x164F DUP4 CODECOPY DUP2 MLOAD SWAP2 MSTORE DUP5 PUSH1 0x20 ADD MLOAD DUP6 PUSH1 0x40 ADD MLOAD DUP6 PUSH1 0x40 MLOAD PUSH2 0xD64 SWAP4 SWAP3 SWAP2 SWAP1 PUSH2 0x15A3 JUMP JUMPDEST PUSH1 0x40 MLOAD DUP1 SWAP2 SUB SWAP1 LOG3 POP PUSH2 0xE47 JUMP JUMPDEST POP JUMPDEST DUP1 PUSH1 0x0 ADD MLOAD PUSH1 0x1 PUSH1 0x1 PUSH1 0xA0 SHL SUB AND CALLER PUSH1 0x1 PUSH1 0x1 PUSH1 0xA0 SHL SUB AND PUSH1 0x0 DUP1 MLOAD PUSH1 0x20 PUSH2 0x164F DUP4 CODECOPY DUP2 MLOAD SWAP2 MSTORE DUP4 PUSH1 0x20 ADD MLOAD DUP5 PUSH1 0x40 ADD MLOAD PUSH1 0x40 MLOAD PUSH2 0xDB3 SWAP3 SWAP2 SWAP1 PUSH2 0x1603 JUMP JUMPDEST PUSH1 0x40 MLOAD DUP1 SWAP2 SUB SWAP1 LOG3 PUSH2 0xE47 JUMP JUMPDEST DUP1 PUSH1 0x0 ADD MLOAD PUSH1 0x1 PUSH1 0x1 PUSH1 0xA0 SHL SUB AND CALLER PUSH1 0x1 PUSH1 0x1 PUSH1 0xA0 SHL SUB AND PUSH32 0xEC8F68F6E626BEE2111EA756BC6EB802491F00831828EF7B1034FDFA94FE65D9 DUP4 PUSH1 0x20 ADD MLOAD DUP5 PUSH1 0x40 ADD MLOAD PUSH1 0x40 MLOAD PUSH2 0xE1F SWAP3 SWAP2 SWAP1 PUSH1 0xFF SWAP3 SWAP1 SWAP3 AND DUP3 MSTORE PUSH1 0x20 DUP3 ADD MSTORE PUSH1 0x40 ADD SWAP1 JUMP JUMPDEST PUSH1 0x40 MLOAD DUP1 SWAP2 SUB SWAP1 LOG3 DUP4 PUSH2 0xE31 DUP2 PUSH2 0x1413 JUMP JUMPDEST SWAP5 POP POP DUP1 PUSH1 0x40 ADD MLOAD DUP4 PUSH2 0xE44 SWAP2 SWAP1 PUSH2 0x13FA JUMP JUMPDEST SWAP3 POP JUMPDEST POP JUMPDEST DUP1 PUSH2 0xE53 DUP2 PUSH2 0x1413 JUMP JUMPDEST SWAP2 POP POP PUSH2 0xB5A JUMP JUMPDEST POP PUSH1 0x0 DUP3 GT PUSH2 0xEA5 JUMPI PUSH1 0x40 MLOAD PUSH3 0x461BCD PUSH1 0xE5 SHL DUP2 MSTORE PUSH1 0x20 PUSH1 0x4 DUP3 ADD MSTORE PUSH1 0x16 PUSH1 0x24 DUP3 ADD MSTORE PUSH22 0x105B1B081C1C99591A58DD1A5BDB9CC819985A5B1959 PUSH1 0x52 SHL PUSH1 0x44 DUP3 ADD MSTORE PUSH1 0x64 ADD PUSH2 0x178 JUMP JUMPDEST PUSH1 0x40 DUP1 MLOAD DUP3 DUP2 MSTORE PUSH1 0x20 DUP2 ADD DUP5 SWAP1 MSTORE CALLER SWAP2 PUSH32 0xE5E7E5911F47E9468F18A24E088393CDF63159247F5065466C34A6CFEB41068E SWAP2 ADD PUSH1 0x40 MLOAD DUP1 SWAP2 SUB SWAP1 LOG2 PUSH1 0x0 PUSH2 0xEEC DUP3 CALLVALUE PUSH2 0x163B JUMP JUMPDEST SWAP1 POP DUP1 ISZERO PUSH2 0xF7E JUMPI PUSH1 0x40 MLOAD PUSH1 0x0 SWAP1 CALLER SWAP1 DUP4 SWAP1 DUP4 DUP2 DUP2 DUP2 DUP6 DUP8 GAS CALL SWAP3 POP POP POP RETURNDATASIZE DUP1 PUSH1 0x0 DUP2 EQ PUSH2 0xF36 JUMPI PUSH1 0x40 MLOAD SWAP2 POP PUSH1 0x1F NOT PUSH1 0x3F RETURNDATASIZE ADD AND DUP3 ADD PUSH1 0x40 MSTORE RETURNDATASIZE DUP3 MSTORE RETURNDATASIZE PUSH1 0x0 PUSH1 0x20 DUP5 ADD RETURNDATACOPY PUSH2 0xF3B JUMP JUMPDEST PUSH1 0x60 SWAP2 POP JUMPDEST POP POP SWAP1 POP DUP1 PUSH2 0xF7C JUMPI PUSH1 0x40 MLOAD PUSH3 0x461BCD PUSH1 0xE5 SHL DUP2 MSTORE PUSH1 0x20 PUSH1 0x4 DUP3 ADD MSTORE PUSH1 0xD PUSH1 0x24 DUP3 ADD MSTORE PUSH13 0x1499599D5B990819985A5B1959 PUSH1 0x9A SHL PUSH1 0x44 DUP3 ADD MSTORE PUSH1 0x64 ADD PUSH2 0x178 JUMP JUMPDEST POP JUMPDEST POP POP POP POP POP POP POP POP POP POP POP JUMP JUMPDEST PUSH1 0x0 SLOAD PUSH1 0x1 PUSH1 0x1 PUSH1 0xA0 SHL SUB AND CALLER EQ PUSH2 0xFD1 JUMPI PUSH1 0x40 MLOAD PUSH3 0x461BCD PUSH1 0xE5 SHL DUP2 MSTORE PUSH1 0x20 PUSH1 0x4 DUP3 ADD MSTORE PUSH1 0x9 PUSH1 0x24 DUP3 ADD MSTORE PUSH9 0x2737BA1037BBB732B9 PUSH1 0xB9 SHL PUSH1 0x44 DUP3 ADD MSTORE PUSH1 0x64 ADD PUSH2 0x178 JUMP JUMPDEST SELFBALANCE DUP1 PUSH2 0x100C JUMPI PUSH1 0x40 MLOAD PUSH3 0x461BCD PUSH1 0xE5 SHL DUP2 MSTORE PUSH1 0x20 PUSH1 0x4 DUP3 ADD MSTORE PUSH1 0xA PUSH1 0x24 DUP3 ADD MSTORE PUSH10 0x4E6F2062616C616E6365 PUSH1 0xB0 SHL PUSH1 0x44 DUP3 ADD MSTORE PUSH1 0x64 ADD PUSH2 0x178 JUMP JUMPDEST PUSH1 0x0 DUP1 SLOAD PUSH1 0x40 MLOAD PUSH1 0x1 PUSH1 0x1 PUSH1 0xA0 SHL SUB SWAP1 SWAP2 AND SWAP1 DUP4 SWAP1 DUP4 DUP2 DUP2 DUP2 DUP6 DUP8 GAS CALL SWAP3 POP POP POP RETURNDATASIZE DUP1 PUSH1 0x0 DUP2 EQ PUSH2 0x1059 JUMPI PUSH1 0x40 MLOAD SWAP2 POP PUSH1 0x1F NOT PUSH1 0x3F RETURNDATASIZE ADD AND DUP3 ADD PUSH1 0x40 MSTORE RETURNDATASIZE DUP3 MSTORE RETURNDATASIZE PUSH1 0x0 PUSH1 0x20 DUP5 ADD RETURNDATACOPY PUSH2 0x105E JUMP JUMPDEST PUSH1 0x60 SWAP2 POP JUMPDEST POP POP SWAP1 POP DUP1 PUSH2 0x10A1 JUMPI PUSH1 0x40 MLOAD PUSH3 0x461BCD PUSH1 0xE5 SHL DUP2 MSTORE PUSH1 0x20 PUSH1 0x4 DUP3 ADD MSTORE PUSH1 0xF PUSH1 0x24 DUP3 ADD MSTORE PUSH15 0x15DA5D1A191C985DC819985A5B1959 PUSH1 0x8A SHL PUSH1 0x44 DUP3 ADD MSTORE PUSH1 0x64 ADD PUSH2 0x178 JUMP JUMPDEST POP POP JUMP JUMPDEST PUSH1 0x0 SLOAD PUSH1 0x1 PUSH1 0x1 PUSH1 0xA0 SHL SUB AND CALLER EQ PUSH2 0x10EB JUMPI PUSH1 0x40 MLOAD PUSH3 0x461BCD PUSH1 0xE5 SHL DUP2 MSTORE PUSH1 0x20 PUSH1 0x4 DUP3 ADD MSTORE PUSH1 0x9 PUSH1 0x24 DUP3 ADD MSTORE PUSH9 0x2737BA1037BBB732B9 PUSH1 0xB9 SHL PUSH1 0x44 DUP3 ADD MSTORE PUSH1 0x64 ADD PUSH2 0x178 JUMP JUMPDEST PUSH1 0x1 PUSH1 0x1 PUSH1 0xA0 SHL SUB DUP2 AND PUSH2 0x1133 JUMPI PUSH1 0x40 MLOAD PUSH3 0x461BCD PUSH1 0xE5 SHL DUP2 MSTORE PUSH1 0x20 PUSH1 0x4 DUP3 ADD MSTORE PUSH1 0xF PUSH1 0x24 DUP3 ADD MSTORE PUSH15 0x496E76616C69642061646472657373 PUSH1 0x88 SHL PUSH1 0x44 DUP3 ADD MSTORE PUSH1 0x64 ADD PUSH2 0x178 JUMP JUMPDEST PUSH1 0x0 DUP1 SLOAD PUSH1 0x1 PUSH1 0x1 PUSH1 0xA0 SHL SUB NOT AND PUSH1 0x1 PUSH1 0x1 PUSH1 0xA0 SHL SUB SWAP3 SWAP1 SWAP3 AND SWAP2 SWAP1 SWAP2 OR SWAP1 SSTORE JUMP JUMPDEST PUSH1 0x0 DUP1 DUP4 PUSH1 0x1F DUP5 ADD SLT PUSH2 0x1167 JUMPI PUSH1 0x0 DUP1 REVERT JUMPDEST POP DUP2 CALLDATALOAD PUSH8 0xFFFFFFFFFFFFFFFF DUP2 GT ISZERO PUSH2 0x117F JUMPI PUSH1 0x0 DUP1 REVERT JUMPDEST PUSH1 0x20 DUP4 ADD SWAP2 POP DUP4 PUSH1 0x20 DUP3 PUSH1 0x5 SHL DUP6 ADD ADD GT ISZERO PUSH2 0x119A JUMPI PUSH1 0x0 DUP1 REVERT JUMPDEST SWAP3 POP SWAP3 SWAP1 POP JUMP JUMPDEST PUSH1 0x0 DUP1 PUSH1 0x0 DUP1 PUSH1 0x40 DUP6 DUP8 SUB SLT ISZERO PUSH2 0x11B7 JUMPI PUSH1 0x0 DUP1 REVERT JUMPDEST DUP5 CALLDATALOAD PUSH8 0xFFFFFFFFFFFFFFFF DUP1 DUP3 GT ISZERO PUSH2 0x11CF JUMPI PUSH1 0x0 DUP1 REVERT JUMPDEST PUSH2 0x11DB DUP9 DUP4 DUP10 ADD PUSH2 0x1155 JUMP JUMPDEST SWAP1 SWAP7 POP SWAP5 POP PUSH1 0x20 DUP8 ADD CALLDATALOAD SWAP2 POP DUP1 DUP3 GT ISZERO PUSH2 0x11F4 JUMPI PUSH1 0x0 DUP1 REVERT JUMPDEST POP PUSH2 0x1201 DUP8 DUP3 DUP9 ADD PUSH2 0x1155 JUMP JUMPDEST SWAP6 SWAP9 SWAP5 SWAP8 POP SWAP6 POP POP POP POP JUMP JUMPDEST PUSH1 0x40 DUP1 DUP3 MSTORE DUP4 MLOAD SWAP1 DUP3 ADD DUP2 SWAP1 MSTORE PUSH1 0x0 SWAP1 PUSH1 0x20 SWAP1 PUSH1 0x60 DUP5 ADD SWAP1 DUP3 DUP8 ADD DUP5 JUMPDEST DUP3 DUP2 LT ISZERO PUSH2 0x1248 JUMPI DUP2 MLOAD ISZERO ISZERO DUP5 MSTORE SWAP3 DUP5 ADD SWAP3 SWAP1 DUP5 ADD SWAP1 PUSH1 0x1 ADD PUSH2 0x122A JUMP JUMPDEST POP POP POP SWAP3 ADD SWAP3 SWAP1 SWAP3 MSTORE SWAP3 SWAP2 POP POP JUMP JUMPDEST PUSH1 0x0 DUP1 PUSH1 0x20 DUP4 DUP6 SUB SLT ISZERO PUSH2 0x126A JUMPI PUSH1 0x0 DUP1 REVERT JUMPDEST DUP3 CALLDATALOAD PUSH8 0xFFFFFFFFFFFFFFFF DUP1 DUP3 GT ISZERO PUSH2 0x1282 JUMPI PUSH1 0x0 DUP1 REVERT JUMPDEST DUP2 DUP6 ADD SWAP2 POP DUP6 PUSH1 0x1F DUP4 ADD SLT PUSH2 0x1296 JUMPI PUSH1 0x0 DUP1 REVERT JUMPDEST DUP2 CALLDATALOAD DUP2 DUP2 GT ISZERO PUSH2 0x12A5 JUMPI PUSH1 0x0 DUP1 REVERT JUMPDEST DUP7 PUSH1 0x20 PUSH1 0x60 DUP4 MUL DUP6 ADD ADD GT ISZERO PUSH2 0x12BA JUMPI PUSH1 0x0 DUP1 REVERT JUMPDEST PUSH1 0x20 SWAP3 SWAP1 SWAP3 ADD SWAP7 SWAP2 SWAP6 POP SWAP1 SWAP4 POP POP POP POP JUMP JUMPDEST PUSH1 0x0 DUP1 PUSH1 0x0 DUP1 PUSH1 0x0 DUP1 PUSH1 0x60 DUP8 DUP10 SUB SLT ISZERO PUSH2 0x12E5 JUMPI PUSH1 0x0 DUP1 REVERT JUMPDEST DUP7 CALLDATALOAD PUSH8 0xFFFFFFFFFFFFFFFF DUP1 DUP3 GT ISZERO PUSH2 0x12FD JUMPI PUSH1 0x0 DUP1 REVERT JUMPDEST PUSH2 0x1309 DUP11 DUP4 DUP12 ADD PUSH2 0x1155 JUMP JUMPDEST SWAP1 SWAP9 POP SWAP7 POP PUSH1 0x20 DUP10 ADD CALLDATALOAD SWAP2 POP DUP1 DUP3 GT ISZERO PUSH2 0x1322 JUMPI PUSH1 0x0 DUP1 REVERT JUMPDEST PUSH2 0x132E DUP11 DUP4 DUP12 ADD PUSH2 0x1155 JUMP JUMPDEST SWAP1 SWAP7 POP SWAP5 POP PUSH1 0x40 DUP10 ADD CALLDATALOAD SWAP2 POP DUP1 DUP3 GT ISZERO PUSH2 0x1347 JUMPI PUSH1 0x0 DUP1 REVERT JUMPDEST POP PUSH2 0x1354 DUP10 DUP3 DUP11 ADD PUSH2 0x1155 JUMP JUMPDEST SWAP8 SWAP11 SWAP7 SWAP10 POP SWAP5 SWAP8 POP SWAP3 SWAP6 SWAP4 SWAP5 SWAP3 POP POP POP JUMP JUMPDEST PUSH1 0x0 PUSH1 0x20 DUP3 DUP5 SUB SLT ISZERO PUSH2 0x1378 JUMPI PUSH1 0x0 DUP1 REVERT JUMPDEST DUP2 CALLDATALOAD PUSH1 0x1 PUSH1 0x1 PUSH1 0xA0 SHL SUB DUP2 AND DUP2 EQ PUSH2 0x138F JUMPI PUSH1 0x0 DUP1 REVERT JUMPDEST SWAP4 SWAP3 POP POP POP JUMP JUMPDEST PUSH4 0x4E487B71 PUSH1 0xE0 SHL PUSH1 0x0 MSTORE PUSH1 0x41 PUSH1 0x4 MSTORE PUSH1 0x24 PUSH1 0x0 REVERT JUMPDEST PUSH4 0x4E487B71 PUSH1 0xE0 SHL PUSH1 0x0 MSTORE PUSH1 0x32 PUSH1 0x4 MSTORE PUSH1 0x24 PUSH1 0x0 REVERT JUMPDEST PUSH1 0x0 PUSH1 0x20 DUP3 DUP5 SUB SLT ISZERO PUSH2 0x13D4 JUMPI PUSH1 0x0 DUP1 REVERT JUMPDEST DUP2 MLOAD DUP1 ISZERO ISZERO DUP2 EQ PUSH2 0x138F JUMPI PUSH1 0x0 DUP1 REVERT JUMPDEST PUSH4 0x4E487B71 PUSH1 0xE0 SHL PUSH1 0x0 MSTORE PUSH1 0x11 PUSH1 0x4 MSTORE PUSH1 0x24 PUSH1 0x0 REVERT JUMPDEST DUP1 DUP3 ADD DUP1 DUP3 GT ISZERO PUSH2 0x140D JUMPI PUSH2 0x140D PUSH2 0x13E4 JUMP JUMPDEST SWAP3 SWAP2 POP POP JUMP JUMPDEST PUSH1 0x0 PUSH1 0x1 DUP3 ADD PUSH2 0x1425 JUMPI PUSH2 0x1425 PUSH2 0x13E4 JUMP JUMPDEST POP PUSH1 0x1 ADD SWAP1 JUMP JUMPDEST PUSH1 0x0 PUSH1 0x20 DUP3 DUP5 SUB SLT ISZERO PUSH2 0x143E JUMPI PUSH1 0x0 DUP1 REVERT JUMPDEST DUP2 CALLDATALOAD PUSH1 0xFF DUP2 AND DUP2 EQ PUSH2 0x138F JUMPI PUSH1 0x0 DUP1 REVERT JUMPDEST PUSH1 0xFF SWAP3 SWAP1 SWAP3 AND DUP3 MSTORE PUSH1 0x20 DUP3 ADD MSTORE PUSH1 0x60 PUSH1 0x40 DUP3 ADD DUP2 SWAP1 MSTORE PUSH1 0xE SWAP1 DUP3 ADD MSTORE PUSH14 0x125B9D985B1A59081B585C9AD95D PUSH1 0x92 SHL PUSH1 0x80 DUP3 ADD MSTORE PUSH1 0xA0 ADD SWAP1 JUMP JUMPDEST PUSH1 0xFF SWAP3 SWAP1 SWAP3 AND DUP3 MSTORE PUSH1 0x20 DUP3 ADD MSTORE PUSH1 0x60 PUSH1 0x40 DUP3 ADD DUP2 SWAP1 MSTORE PUSH1 0xF SWAP1 DUP3 ADD MSTORE PUSH15 0x26B0B935B2BA103737BA1037B832B7 PUSH1 0x89 SHL PUSH1 0x80 DUP3 ADD MSTORE PUSH1 0xA0 ADD SWAP1 JUMP JUMPDEST PUSH1 0x0 PUSH1 0x3 RETURNDATASIZE GT ISZERO PUSH2 0x14DB JUMPI PUSH1 0x4 PUSH1 0x0 DUP1 RETURNDATACOPY POP PUSH1 0x0 MLOAD PUSH1 0xE0 SHR JUMPDEST SWAP1 JUMP JUMPDEST PUSH1 0x1F DUP3 ADD PUSH1 0x1F NOT AND DUP2 ADD PUSH8 0xFFFFFFFFFFFFFFFF DUP2 GT DUP3 DUP3 LT OR ISZERO PUSH2 0x1512 JUMPI PUSH4 0x4E487B71 PUSH1 0xE0 SHL PUSH1 0x0 MSTORE PUSH1 0x41 PUSH1 0x4 MSTORE PUSH1 0x24 PUSH1 0x0 REVERT JUMPDEST PUSH1 0x40 MSTORE POP POP JUMP JUMPDEST PUSH1 0x0 PUSH1 0x44 RETURNDATASIZE LT ISZERO PUSH2 0x1527 JUMPI SWAP1 JUMP JUMPDEST PUSH1 0x40 MLOAD PUSH1 0x3 NOT RETURNDATASIZE DUP2 ADD PUSH1 0x4 DUP4 RETURNDATACOPY DUP2 MLOAD RETURNDATASIZE PUSH8 0xFFFFFFFFFFFFFFFF DUP2 PUSH1 0x24 DUP5 ADD GT DUP2 DUP5 GT OR ISZERO PUSH2 0x1557 JUMPI POP POP POP POP POP SWAP1 JUMP JUMPDEST DUP3 DUP6 ADD SWAP2 POP DUP2 MLOAD DUP2 DUP2 GT ISZERO PUSH2 0x156F JUMPI POP POP POP POP POP POP SWAP1 JUMP JUMPDEST DUP5 RETURNDATASIZE DUP8 ADD ADD PUSH1 0x20 DUP3 DUP6 ADD ADD GT ISZERO PUSH2 0x1589 JUMPI POP POP POP POP POP POP SWAP1 JUMP JUMPDEST PUSH2 0x1598 PUSH1 0x20 DUP3 DUP7 ADD ADD DUP8 PUSH2 0x14DE JUMP JUMPDEST POP SWAP1 SWAP6 SWAP5 POP POP POP POP POP JUMP JUMPDEST PUSH1 0xFF DUP5 AND DUP2 MSTORE PUSH1 0x0 PUSH1 0x20 DUP5 DUP2 DUP5 ADD MSTORE PUSH1 0x60 PUSH1 0x40 DUP5 ADD MSTORE DUP4 MLOAD DUP1 PUSH1 0x60 DUP6 ADD MSTORE PUSH1 0x0 JUMPDEST DUP2 DUP2 LT ISZERO PUSH2 0x15E0 JUMPI DUP6 DUP2 ADD DUP4 ADD MLOAD DUP6 DUP3 ADD PUSH1 0x80 ADD MSTORE DUP3 ADD PUSH2 0x15C4 JUMP JUMPDEST POP PUSH1 0x0 PUSH1 0x80 DUP3 DUP7 ADD ADD MSTORE PUSH1 0x80 PUSH1 0x1F NOT PUSH1 0x1F DUP4 ADD AND DUP6 ADD ADD SWAP3 POP POP POP SWAP5 SWAP4 POP POP POP POP JUMP JUMPDEST PUSH1 0xFF SWAP3 SWAP1 SWAP3 AND DUP3 MSTORE PUSH1 0x20 DUP3 ADD MSTORE PUSH1 0x60 PUSH1 0x40 DUP3 ADD DUP2 SWAP1 MSTORE PUSH1 0xD SWAP1 DUP3 ADD MSTORE PUSH13 0x2AB735B737BBB71032B93937B9 PUSH1 0x99 SHL PUSH1 0x80 DUP3 ADD MSTORE PUSH1 0xA0 ADD SWAP1 JUMP JUMPDEST DUP2 DUP2 SUB DUP2 DUP2 GT ISZERO PUSH2 0x140D JUMPI PUSH2 0x140D PUSH2 0x13E4 JUMP INVALID 0xEA SWAP15 PUSH11 0xBF71A11CD21D9DB5AB5F83 0x4C PUSH28 0x53F6A765B0B5B4EF1E45E70FBDD92748A26469706673582212206DC4 STATICCALL SMOD CODESIZE 0xFB 0xD7 PUSH0 ISZERO LOG4 RETURNDATASIZE PUSH16 0x3FE35BE072BB9983734F435D0D8F25E6 0x4A 0xD8 SWAP9 0xBF PUSH5 0x736F6C6343 STOP ADDMOD EQ STOP CALLER "},"methodIdentifiers":{"batchPredict((address,uint8,uint256)[])":"5c370840","batchPredictSimple(address[],uint8[],uint256[])":"a5ba8f3d","emergencyWithdraw()":"db2e21bc","owner()":"8da5cb5b","transferOwnership(address)":"f2fde38b","validatePredictions(address[],uint256[])":"09a456d1"}}}}}