{"contracts/PredictionMarket.sol":{"PredictionMarket":{"abi":[{"inputs":[{"internalType":"address","name":"_creator","type":"address"},{"internalType":"string","name":"_question","type":"string"},{"internalType":"uint256","name":"_endTime","type":"uint256"},{"internalType":"string[]","name":"_options","type":"string[]"}],"stateMutability":"nonpayable","type":"constructor"},{"inputs":[],"name":"AlreadyClaimed","type":"error"},{"inputs":[],"name":"DuplicateOptionLabel","type":"error"},{"inputs":[],"name":"DuplicateWinner","type":"error"},{"inputs":[],"name":"EmptyOptionLabel","type":"error"},{"inputs":[],"name":"InsufficientLiquidity","type":"error"},{"inputs":[],"name":"InsufficientShares","type":"error"},{"inputs":[],"name":"InvalidAmount","type":"error"},{"inputs":[],"name":"InvalidEndTime","type":"error"},{"inputs":[],"name":"InvalidOption","type":"error"},{"inputs":[],"name":"InvalidOptionsCount","type":"error"},{"inputs":[],"name":"MarketEnded","type":"error"},{"inputs":[],"name":"MarketNotActive","type":"error"},{"inputs":[],"name":"MarketNotCancelled","type":"error"},{"inputs":[],"name":"MarketNotResolved","type":"error"},{"inputs":[],"name":"MarketStillOpen","type":"error"},{"inputs":[],"name":"NoWinnersSpecified","type":"error"},{"inputs":[],"name":"NotAuthorized","type":"error"},{"inputs":[],"name":"NotResolver","type":"error"},{"inputs":[],"name":"NothingToClaim","type":"error"},{"inputs":[],"name":"NothingToRefund","type":"error"},{"inputs":[],"name":"ReentrancyGuard","type":"error"},{"inputs":[],"name":"ResolverAlreadySet","type":"error"},{"inputs":[],"name":"TooManyWinners","type":"error"},{"inputs":[],"name":"TransferFailed","type":"error"},{"anonymous":false,"inputs":[{"indexed":true,"internalType":"address","name":"user","type":"address"},{"indexed":false,"internalType":"uint256","name":"payout","type":"uint256"}],"name":"Claimed","type":"event"},{"anonymous":false,"inputs":[{"indexed":true,"internalType":"address","name":"cancelledBy","type":"address"}],"name":"MarketCancelled","type":"event"},{"anonymous":false,"inputs":[{"indexed":true,"internalType":"address","name":"creator","type":"address"},{"indexed":false,"internalType":"string","name":"question","type":"string"},{"indexed":false,"internalType":"uint256","name":"endTime","type":"uint256"},{"indexed":false,"internalType":"string[]","name":"options","type":"string[]"}],"name":"MarketCreated","type":"event"},{"anonymous":false,"inputs":[{"indexed":false,"internalType":"uint8[]","name":"winnerIndices","type":"uint8[]"},{"indexed":false,"internalType":"uint256","name":"totalPool","type":"uint256"}],"name":"MarketResolved","type":"event"},{"anonymous":false,"inputs":[{"indexed":true,"internalType":"address","name":"user","type":"address"},{"indexed":false,"internalType":"uint256","name":"amount","type":"uint256"}],"name":"Refunded","type":"event"},{"anonymous":false,"inputs":[{"indexed":true,"internalType":"address","name":"buyer","type":"address"},{"indexed":false,"internalType":"uint8","name":"optionIndex","type":"uint8"},{"indexed":false,"internalType":"uint256","name":"amount","type":"uint256"}],"name":"SharesBought","type":"event"},{"anonymous":false,"inputs":[{"indexed":true,"internalType":"address","name":"seller","type":"address"},{"indexed":false,"internalType":"uint8","name":"optionIndex","type":"uint8"},{"indexed":false,"internalType":"uint256","name":"sharesAmount","type":"uint256"},{"indexed":false,"internalType":"uint256","name":"payout","type":"uint256"}],"name":"SharesSold","type":"event"},{"inputs":[{"internalType":"uint8","name":"optionIndex","type":"uint8"}],"name":"buyShares","outputs":[],"stateMutability":"payable","type":"function"},{"inputs":[{"internalType":"address","name":"user","type":"address"},{"internalType":"uint8[]","name":"winnerIndices","type":"uint8[]"}],"name":"calculatePotentialPayout","outputs":[{"internalType":"uint256","name":"","type":"uint256"}],"stateMutability":"view","type":"function"},{"inputs":[{"internalType":"uint8","name":"optionIndex","type":"uint8"},{"internalType":"uint256","name":"sharesAmount","type":"uint256"}],"name":"calculateSellPayout","outputs":[{"internalType":"uint256","name":"payout","type":"uint256"}],"stateMutability":"view","type":"function"},{"inputs":[],"name":"cancelMarket","outputs":[],"stateMutability":"nonpayable","type":"function"},{"inputs":[],"name":"claimRefund","outputs":[],"stateMutability":"nonpayable","type":"function"},{"inputs":[],"name":"claimWinnings","outputs":[],"stateMutability":"nonpayable","type":"function"},{"inputs":[],"name":"createdAt","outputs":[{"internalType":"uint256","name":"","type":"uint256"}],"stateMutability":"view","type":"function"},{"inputs":[],"name":"creator","outputs":[{"internalType":"address","name":"","type":"address"}],"stateMutability":"view","type":"function"},{"inputs":[],"name":"endTime","outputs":[{"internalType":"uint256","name":"","type":"uint256"}],"stateMutability":"view","type":"function"},{"inputs":[],"name":"getContractBalance","outputs":[{"internalType":"uint256","name":"","type":"uint256"}],"stateMutability":"view","type":"function"},{"inputs":[],"name":"getMarketInfo","outputs":[{"internalType":"address","name":"_creator","type":"address"},{"internalType":"string","name":"_question","type":"string"},{"internalType":"uint256","name":"_endTime","type":"uint256"},{"internalType":"uint256","name":"_createdAt","type":"uint256"},{"internalType":"enum PredictionMarket.Status","name":"_status","type":"uint8"},{"internalType":"uint8","name":"_optionCount","type":"uint8"},{"internalType":"string[]","name":"_optionLabels","type":"string[]"},{"internalType":"uint256[]","name":"_totalShares","type":"uint256[]"},{"internalType":"bool[]","name":"_winningOptions","type":"bool[]"},{"internalType":"uint256","name":"_totalPool","type":"uint256"}],"stateMutability":"view","type":"function"},{"inputs":[],"name":"getOdds","outputs":[{"internalType":"uint256[]","name":"","type":"uint256[]"}],"stateMutability":"view","type":"function"},{"inputs":[{"internalType":"uint8","name":"index","type":"uint8"}],"name":"getOptionLabel","outputs":[{"internalType":"string","name":"","type":"string"}],"stateMutability":"view","type":"function"},{"inputs":[],"name":"getOptionLabels","outputs":[{"internalType":"string[]","name":"","type":"string[]"}],"stateMutability":"view","type":"function"},{"inputs":[{"internalType":"uint8","name":"optionIndex","type":"uint8"}],"name":"getOptionPrice","outputs":[{"internalType":"uint256","name":"","type":"uint256"}],"stateMutability":"view","type":"function"},{"inputs":[],"name":"getTimeRemaining","outputs":[{"internalType":"uint256","name":"","type":"uint256"}],"stateMutability":"view","type":"function"},{"inputs":[],"name":"getTotalPool","outputs":[{"internalType":"uint256","name":"","type":"uint256"}],"stateMutability":"view","type":"function"},{"inputs":[],"name":"getTotalShares","outputs":[{"internalType":"uint256[]","name":"","type":"uint256[]"}],"stateMutability":"view","type":"function"},{"inputs":[{"internalType":"address","name":"user","type":"address"}],"name":"getUserPosition","outputs":[{"internalType":"uint256[]","name":"_shares","type":"uint256[]"},{"internalType":"bool","name":"_hasClaimed","type":"bool"}],"stateMutability":"view","type":"function"},{"inputs":[{"internalType":"address","name":"user","type":"address"},{"internalType":"uint8","name":"optionIndex","type":"uint8"}],"name":"getUserShares","outputs":[{"internalType":"uint256","name":"","type":"uint256"}],"stateMutability":"view","type":"function"},{"inputs":[],"name":"getWinningOptions","outputs":[{"internalType":"bool[]","name":"","type":"bool[]"}],"stateMutability":"view","type":"function"},{"inputs":[{"internalType":"address","name":"","type":"address"}],"name":"hasClaimed","outputs":[{"internalType":"bool","name":"","type":"bool"}],"stateMutability":"view","type":"function"},{"inputs":[],"name":"hasWinners","outputs":[{"internalType":"bool","name":"","type":"bool"}],"stateMutability":"view","type":"function"},{"inputs":[],"name":"isOpenForBetting","outputs":[{"internalType":"bool","name":"","type":"bool"}],"stateMutability":"view","type":"function"},{"inputs":[],"name":"marketStatus","outputs":[{"internalType":"enum PredictionMarket.Status","name":"","type":"uint8"}],"stateMutability":"view","type":"function"},{"inputs":[],"name":"optionCount","outputs":[{"internalType":"uint8","name":"","type":"uint8"}],"stateMutability":"view","type":"function"},{"inputs":[{"internalType":"uint256","name":"","type":"uint256"}],"name":"optionLabels","outputs":[{"internalType":"string","name":"","type":"string"}],"stateMutability":"view","type":"function"},{"inputs":[],"name":"question","outputs":[{"internalType":"string","name":"","type":"string"}],"stateMutability":"view","type":"function"},{"inputs":[{"internalType":"uint8[]","name":"winnerIndices","type":"uint8[]"}],"name":"resolveMarket","outputs":[],"stateMutability":"nonpayable","type":"function"},{"inputs":[{"internalType":"uint8[]","name":"winnerIndices","type":"uint8[]"}],"name":"resolveMarketFromResolver","outputs":[],"stateMutability":"nonpayable","type":"function"},{"inputs":[],"name":"resolver","outputs":[{"internalType":"address","name":"","type":"address"}],"stateMutability":"view","type":"function"},{"inputs":[{"internalType":"uint8","name":"optionIndex","type":"uint8"},{"internalType":"uint256","name":"sharesAmount","type":"uint256"}],"name":"sellShares","outputs":[],"stateMutability":"nonpayable","type":"function"},{"inputs":[{"internalType":"address","name":"_resolver","type":"address"}],"name":"setResolver","outputs":[],"stateMutability":"nonpayable","type":"function"},{"inputs":[{"internalType":"address","name":"","type":"address"},{"internalType":"uint8","name":"","type":"uint8"}],"name":"shares","outputs":[{"internalType":"uint256","name":"","type":"uint256"}],"stateMutability":"view","type":"function"},{"inputs":[{"internalType":"uint256","name":"","type":"uint256"}],"name":"totalShares","outputs":[{"internalType":"uint256","name":"","type":"uint256"}],"stateMutability":"view","type":"function"},{"inputs":[{"internalType":"uint256","name":"","type":"uint256"}],"name":"winningOptions","outputs":[{"internalType":"bool","name":"","type":"bool"}],"stateMutability":"view","type":"function"},{"stateMutability":"payable","type":"receive"}],"evm":{"bytecode":{"linkReferences":{},"object":"60806040523480156200001157600080fd5b5060405162002fdb38038062002fdb8339810160408190526200003491620005f5565b42821162000055576040516338af65f760e01b815260040160405180910390fd5b6001600160a01b0384166200007d5760405163162908e360e11b815260040160405180910390fd5b8251600003620000a05760405163162908e360e11b815260040160405180910390fd5b600281511080620000b2575060048151115b15620000d15760405163447074b560e01b815260040160405180910390fd5b60005b81518160ff161015620001da57818160ff1681518110620000f957620000f962000718565b6020026020010151516000036200012357604051633887f29360e11b815260040160405180910390fd5b60006200013282600162000744565b90505b82518160ff161015620001c457828160ff16815181106200015a576200015a62000718565b602002602001015180519060200120838360ff168151811062000181576200018162000718565b60200260200101518051906020012003620001af576040516348a4bd6d60e11b815260040160405180910390fd5b80620001bb8162000766565b91505062000135565b5080620001d18162000766565b915050620000d4565b50600080546001600160a01b0319166001600160a01b038616179055600262000204848262000817565b5060038290554260045560058054825161ffff1990911661010060ff831602179091556200023a90600690602084019062000348565b5080516001600160401b0381111562000257576200025762000512565b60405190808252806020026020018201604052801562000281578160200160208202803683370190505b5080516200029891600b91602090910190620003a5565b5080516001600160401b03811115620002b557620002b562000512565b604051908082528060200260200182016040528015620002df578160200160208202803683370190505b508051620002f691600791602090910190620003f1565b50836001600160a01b03167fe7abea24bbdeca3299ee22e1cdbad24cbb950a3754a487ee187e61dc3f096ed4848484604051620003369392919062000911565b60405180910390a25050505062000990565b82805482825590600052602060002090810192821562000393579160200282015b8281111562000393578251829062000382908262000817565b509160200191906001019062000369565b50620003a192915062000498565b5090565b828054828255906000526020600020908101928215620003e3579160200282015b82811115620003e3578251825591602001919060010190620003c6565b50620003a1929150620004b9565b82805482825590600052602060002090601f01602090048101928215620003e35791602002820160005b838211156200045a57835183826101000a81548160ff02191690831515021790555092602001926001016020816000010492830192600103026200041b565b8015620004895782816101000a81549060ff02191690556001016020816000010492830192600103026200045a565b5050620003a1929150620004b9565b80821115620003a1576000620004af8282620004d0565b5060010162000498565b5b80821115620003a15760008155600101620004ba565b508054620004de9062000788565b6000825580601f10620004ef575050565b601f0160209004906000526020600020908101906200050f9190620004b9565b50565b634e487b7160e01b600052604160045260246000fd5b604051601f8201601f191681016001600160401b038111828210171562000553576200055362000512565b604052919050565b60005b83811015620005785781810151838201526020016200055e565b50506000910152565b600082601f8301126200059357600080fd5b81516001600160401b03811115620005af57620005af62000512565b620005c4601f8201601f191660200162000528565b818152846020838601011115620005da57600080fd5b620005ed8260208301602087016200055b565b949350505050565b600080600080608085870312156200060c57600080fd5b84516001600160a01b03811681146200062457600080fd5b602086810151919550906001600160401b03808211156200064457600080fd5b6200065289838a0162000581565b95506040880151945060608801519150808211156200067057600080fd5b818801915088601f8301126200068557600080fd5b8151818111156200069a576200069a62000512565b8060051b620006ab85820162000528565b918252838101850191858101908c841115620006c657600080fd5b86860192505b838310156200070757825185811115620006e65760008081fd5b620006f68e89838a010162000581565b8352509186019190860190620006cc565b999c989b5096995050505050505050565b634e487b7160e01b600052603260045260246000fd5b634e487b7160e01b600052601160045260246000fd5b60ff81811683821601908111156200076057620007606200072e565b92915050565b600060ff821660ff81036200077f576200077f6200072e565b60010192915050565b600181811c908216806200079d57607f821691505b602082108103620007be57634e487b7160e01b600052602260045260246000fd5b50919050565b601f8211156200081257600081815260208120601f850160051c81016020861015620007ed5750805b601f850160051c820191505b818110156200080e57828155600101620007f9565b5050505b505050565b81516001600160401b0381111562000833576200083362000512565b6200084b8162000844845462000788565b84620007c4565b602080601f8311600181146200088357600084156200086a5750858301515b600019600386901b1c1916600185901b1785556200080e565b600085815260208120601f198616915b82811015620008b45788860151825594840194600190910190840162000893565b5085821015620008d35787850151600019600388901b60f8161c191681555b5050505050600190811b01905550565b60008151808452620008fd8160208601602086016200055b565b601f01601f19169290920160200192915050565b606081526000620009266060830186620008e3565b6020858185015283820360408501528185518084528284019150828160051b85010183880160005b838110156200098057601f198784030185526200096d838351620008e3565b948601949250908501906001016200094e565b50909a9950505050505050505050565b61263b80620009a06000396000f3fe6080604052600436106102125760003560e01c80636a87c47411610118578063bc29ca45116100a0578063dac6270d1161006f578063dac6270d1461060e578063e0e081d714610623578063e32fe90b1461064a578063ef0fc35c1461067b578063f2ccb3971461069b57600080fd5b8063bc29ca45146105a9578063c235253f146105c3578063cf09e0d0146105e3578063d5002f2e146105f957600080fd5b806375f4d677116100e757806375f4d67714610528578063a1e512d71461053d578063ab125b641461055d578063b401faf11461057f578063b5545a3c1461059457600080fd5b80636a87c474146104b05780636bfefd6b146104d05780636f9fb98a146104e557806373b2e80e146104f857600080fd5b806334f5e9f91161019b5780634c5be5741161016a5780634c5be574146104005780634e543b26146104225780634ea64d17146104425780635b7c2dad1461046257806368ea18ec1461049057600080fd5b806334f5e9f9146103895780633f0826c51461039e5780633fad9ae0146103cb5780634a02476e146103e057600080fd5b806313f2dad0116101e257806313f2dad0146102e657806323341a051461030657806324fdf5af146103315780632f31d130146103515780633197cbb61461037357600080fd5b806280cb821461021e57806302d05d3f1461024857806304f3bcec146102805780631158bd13146102a057600080fd5b3661021957005b600080fd5b34801561022a57600080fd5b506102336106bb565b60405190151581526020015b60405180910390f35b34801561025457600080fd5b50600054610268906001600160a01b031681565b6040516001600160a01b03909116815260200161023f565b34801561028c57600080fd5b50600154610268906001600160a01b031681565b3480156102ac57600080fd5b506102d86102bb366004612096565b600960209081526000928352604080842090915290825290205481565b60405190815260200161023f565b3480156102f257600080fd5b506102d86103013660046120c9565b6106e8565b34801561031257600080fd5b5061031b610709565b60405161023f9a99989796959493929190612225565b34801561033d57600080fd5b506102d861034c36600461230e565b610995565b34801561035d57600080fd5b50610366610ab0565b60405161023f9190612361565b34801561037f57600080fd5b506102d860035481565b61039c610397366004612374565b610b28565b005b3480156103aa57600080fd5b506103be6103b9366004612374565b610cb4565b60405161023f919061238f565b3480156103d757600080fd5b506103be610d95565b3480156103ec57600080fd5b506102336103fb3660046120c9565b610e23565b34801561040c57600080fd5b50610415610e57565b60405161023f91906123a2565b34801561042e57600080fd5b5061039c61043d3660046123b5565b610fbf565b34801561044e57600080fd5b506102d861045d3660046123d0565b61105d565b34801561046e57600080fd5b5061048261047d3660046123b5565b6110da565b60405161023f9291906123fa565b34801561049c57600080fd5b5061039c6104ab36600461241e565b6111cb565b3480156104bc57600080fd5b5061039c6104cb36600461241e565b61140f565b3480156104dc57600080fd5b5061039c6115ef565b3480156104f157600080fd5b50476102d8565b34801561050457600080fd5b506102336105133660046123b5565b600a6020526000908152604090205460ff1681565b34801561053457600080fd5b506102d861168b565b34801561054957600080fd5b506102d8610558366004612374565b6116ec565b34801561056957600080fd5b5061057261178c565b60405161023f9190612460565b34801561058b57600080fd5b5061039c611865565b3480156105a057600080fd5b5061039c611b1b565b3480156105b557600080fd5b506008546102339060ff1681565b3480156105cf57600080fd5b506102d86105de366004612096565b611cc5565b3480156105ef57600080fd5b506102d860045481565b34801561060557600080fd5b50610415611d13565b34801561061a57600080fd5b506102d8611d6a565b34801561062f57600080fd5b5060055461063d9060ff1681565b60405161023f9190612473565b34801561065657600080fd5b5060055461066990610100900460ff1681565b60405160ff909116815260200161023f565b34801561068757600080fd5b506103be6106963660046120c9565b611d89565b3480156106a757600080fd5b5061039c6106b63660046123d0565b611db4565b60008060055460ff1660028111156106d5576106d5612128565b1480156106e3575060035442105b905090565b600b81815481106106f857600080fd5b600091825260209091200154905081565b60008054600354600454600554606093859384938493849388938493849387936001600160a01b031692600292909160ff808216916101009004166006600b600761075261168b565b88805461075e90612481565b80601f016020809104026020016040519081016040528092919081815260200182805461078a90612481565b80156107d75780601f106107ac576101008083540402835291602001916107d7565b820191906000526020600020905b8154815290600101906020018083116107ba57829003601f168201915b5050505050985083805480602002602001604051908101604052809291908181526020016000905b828210156108ab57838290600052602060002001805461081e90612481565b80601f016020809104026020016040519081016040528092919081815260200182805461084a90612481565b80156108975780601f1061086c57610100808354040283529160200191610897565b820191906000526020600020905b81548152906001019060200180831161087a57829003601f168201915b5050505050815260200190600101906107ff565b505050509350828054806020026020016040519081016040528092919081815260200182805480156108fc57602002820191906000526020600020905b8154815260200190600101908083116108e8575b505050505092508180548060200260200160405190810160405280929190818152602001828054801561096e57602002820191906000526020600020906000905b825461010083900a900460ff16151581526020600192830181810494850194909303909202910180841161093d5790505b50505050509150995099509950995099509950995099509950995090919293949596979899565b6000806109a061168b565b9050806000036109b4576000915050610aa9565b60008060005b85811015610a795760008787838181106109d6576109d66124b5565b90506020020160208101906109eb9190612374565b60055490915060ff61010090910481169082161015610a66576001600160a01b038916600090815260096020908152604080832060ff85168452909152902054610a3590856124e1565b9350600b8160ff1681548110610a4d57610a4d6124b5565b906000526020600020015483610a6391906124e1565b92505b5080610a71816124f4565b9150506109ba565b5080600003610a8e5760009350505050610aa9565b80610a99848461250d565b610aa3919061253a565b93505050505b9392505050565b60606007805480602002602001604051908101604052809291908181526020018280548015610b1e57602002820191906000526020600020906000905b825461010083900a900460ff161515815260206001928301818104948501949093039092029101808411610aed5790505b5050505050905090565b600060055460ff166002811115610b4157610b41612128565b14610b5f57604051635a90bb8d60e11b815260040160405180910390fd5b6003544210610b815760405163262b753160e21b815260040160405180910390fd5b600c5460ff1615610ba5576040516345f5ce8b60e11b815260040160405180910390fd5b600c805460ff19166001179055600554610100900460ff90811690821610610be057604051632a71953160e01b815260040160405180910390fd5b34600003610c015760405163162908e360e11b815260040160405180910390fd5b33600090815260096020908152604080832060ff8516845290915281208054349290610c2e9084906124e1565b9250508190555034600b8260ff1681548110610c4c57610c4c6124b5565b906000526020600020016000828254610c6591906124e1565b90915550506040805160ff8316815234602082015233917f2af4933e21b80ecd7f6a3577faeee6c93449142bd87ddfa24a82b344be71dd17910160405180910390a250600c805460ff19169055565b60055460609060ff610100909104811690831610610ce557604051632a71953160e01b815260040160405180910390fd5b60068260ff1681548110610cfb57610cfb6124b5565b906000526020600020018054610d1090612481565b80601f0160208091040260200160405190810160405280929190818152602001828054610d3c90612481565b8015610d895780601f10610d5e57610100808354040283529160200191610d89565b820191906000526020600020905b815481529060010190602001808311610d6c57829003601f168201915b50505050509050919050565b60028054610da290612481565b80601f0160208091040260200160405190810160405280929190818152602001828054610dce90612481565b8015610e1b5780601f10610df057610100808354040283529160200191610e1b565b820191906000526020600020905b815481529060010190602001808311610dfe57829003601f168201915b505050505081565b60078181548110610e3357600080fd5b9060005260206000209060209182820401919006915054906101000a900460ff1681565b60606000610e6361168b565b600554909150600090610100900460ff1667ffffffffffffffff811115610e8c57610e8c61254e565b604051908082528060200260200182016040528015610eb5578160200160208202803683370190505b50905081600003610f3357600554600090610eda90610100900460ff16612710612564565b61ffff16905060005b60055460ff61010090910481169082161015610f2c5781838260ff1681518110610f0f57610f0f6124b5565b602090810291909101015280610f2481612585565b915050610ee3565b5050610fb9565b60005b60055460ff61010090910481169082161015610fb75782600b8260ff1681548110610f6357610f636124b5565b9060005260206000200154612710610f7b919061250d565b610f85919061253a565b828260ff1681518110610f9a57610f9a6124b5565b602090810291909101015280610faf81612585565b915050610f36565b505b92915050565b6000546001600160a01b03163314610fea5760405163ea8e4eb560e01b815260040160405180910390fd5b6001546001600160a01b03161561101457604051630dcdc26f60e21b815260040160405180910390fd5b6001600160a01b03811661103b5760405163162908e360e11b815260040160405180910390fd5b600180546001600160a01b0319166001600160a01b0392909216919091179055565b60055460009060ff61010090910481169084161061107d57506000610fb9565b600061108761168b565b90508060000361109b576000915050610fb9565b80600b8560ff16815481106110b2576110b26124b5565b9060005260206000200154846110c8919061250d565b6110d2919061253a565b949350505050565b6005546060906000908190610100900460ff1667ffffffffffffffff8111156111055761110561254e565b60405190808252806020026020018201604052801561112e578160200160208202803683370190505b50905060005b60055460ff610100909104811690821610156111a3576001600160a01b038516600090815260096020908152604080832060ff85168085529252909120548351909184918110611186576111866124b5565b60209081029190910101528061119b81612585565b915050611134565b506001600160a01b039093166000908152600a6020526040902054929360ff90931692915050565b6000546001600160a01b031633146111f65760405163ea8e4eb560e01b815260040160405180910390fd5b600060055460ff16600281111561120f5761120f612128565b1461122d57604051635a90bb8d60e11b815260040160405180910390fd5b6003544210156112505760405163493ab14960e11b815260040160405180910390fd5b6000819003611272576040516362a0260560e01b815260040160405180910390fd5b600554610100900460ff1681111561129d57604051632375825160e21b815260040160405180910390fd5b60005b818110156113ab5760008383838181106112bc576112bc6124b5565b90506020020160208101906112d19190612374565b60055490915060ff61010090910481169082161061130257604051632a71953160e01b815260040160405180910390fd5b60078160ff1681548110611318576113186124b5565b90600052602060002090602091828204019190069054906101000a900460ff1615611356576040516305a1e9cd60e11b815260040160405180910390fd5b600160078260ff168154811061136e5761136e6124b5565b90600052602060002090602091828204019190066101000a81548160ff0219169083151502179055505080806113a3906124f4565b9150506112a0565b5060088054600160ff1991821681179092556005805490911690911790557f442db8bb9fc4313fc02c098d0fd4d70fead65b4deca9c5087724e3f02927c20882826113f461168b565b604051611403939291906125a4565b60405180910390a15050565b6001546001600160a01b0316331461143a57604051635d154fe160e11b815260040160405180910390fd5b600060055460ff16600281111561145357611453612128565b1461147157604051635a90bb8d60e11b815260040160405180910390fd5b6003544210156114945760405163493ab14960e11b815260040160405180910390fd5b60008190036114b6576040516362a0260560e01b815260040160405180910390fd5b600554610100900460ff168111156114e157604051632375825160e21b815260040160405180910390fd5b60005b818110156113ab576000838383818110611500576115006124b5565b90506020020160208101906115159190612374565b60055490915060ff61010090910481169082161061154657604051632a71953160e01b815260040160405180910390fd5b60078160ff168154811061155c5761155c6124b5565b90600052602060002090602091828204019190069054906101000a900460ff161561159a576040516305a1e9cd60e11b815260040160405180910390fd5b600160078260ff16815481106115b2576115b26124b5565b90600052602060002090602091828204019190066101000a81548160ff0219169083151502179055505080806115e7906124f4565b9150506114e4565b6000546001600160a01b0316331461161a5760405163ea8e4eb560e01b815260040160405180910390fd5b600060055460ff16600281111561163357611633612128565b1461165157604051635a90bb8d60e11b815260040160405180910390fd5b6005805460ff1916600217905560405133907f996fafab197beb99fff6fdc975bb6cf90352f2c733c76ef37c2e27f17d7d424b90600090a2565b600080805b60055460ff610100909104811690821610156116e657600b8160ff16815481106116bc576116bc6124b5565b9060005260206000200154826116d291906124e1565b9150806116de81612585565b915050611690565b50919050565b60055460009060ff61010090910481169083161061171d57604051632a71953160e01b815260040160405180910390fd5b600061172761168b565b9050806000036117535760055461174890610100900460ff16612710612564565b61ffff169392505050565b80600b8460ff168154811061176a5761176a6124b5565b9060005260206000200154612710611782919061250d565b610aa9919061253a565b60606006805480602002602001604051908101604052809291908181526020016000905b8282101561185c5783829060005260206000200180546117cf90612481565b80601f01602080910402602001604051908101604052809291908181526020018280546117fb90612481565b80156118485780601f1061181d57610100808354040283529160200191611848565b820191906000526020600020905b81548152906001019060200180831161182b57829003601f168201915b5050505050815260200190600101906117b0565b50505050905090565b600c5460ff1615611889576040516345f5ce8b60e11b815260040160405180910390fd5b600c805460ff1916600190811790915560055460ff1660028111156118b0576118b0612128565b146118ce5760405163174b639360e11b815260040160405180910390fd5b336000908152600a602052604090205460ff16156118ff57604051630c8d9eab60e31b815260040160405180910390fd5b60008060005b60055460ff610100909104811690821610156119c15760078160ff1681548110611931576119316124b5565b90600052602060002090602091828204019190069054906101000a900460ff16156119af5733600090815260096020908152604080832060ff8516845290915290205461197e90846124e1565b9250600b8160ff1681548110611996576119966124b5565b9060005260206000200154826119ac91906124e1565b91505b806119b981612585565b915050611905565b50816000036119e3576040516312d37ee560e31b815260040160405180910390fd5b60006119ed61168b565b90506000826119fc838661250d565b611a06919061253a565b336000908152600a60205260408120805460ff191660011790559091505b60055460ff61010090910481169082161015611a6a5733600090815260096020908152604080832060ff8516845290915281205580611a6281612585565b915050611a24565b50604051600090339083908381818185875af1925050503d8060008114611aad576040519150601f19603f3d011682016040523d82523d6000602084013e611ab2565b606091505b5050905080611ad4576040516312171d8360e31b815260040160405180910390fd5b60405182815233907fd8138f8a3f377c5259ca548e70e4c2de94f129f5a11036a15b69513cba2b426a906020015b60405180910390a25050600c805460ff19169055505050565b600c5460ff1615611b3f576040516345f5ce8b60e11b815260040160405180910390fd5b600c805460ff19166001179055600260055460ff166002811115611b6557611b65612128565b14611b8357604051630a5a0fc560e31b815260040160405180910390fd5b6000805b60055460ff61010090910481169082161015611bf75733600090815260096020908152604080832060ff85168452909152902054611bc590836124e1565b33600090815260096020908152604080832060ff86168452909152812055915080611bef81612585565b915050611b87565b5080600003611c195760405163f76aef6560e01b815260040160405180910390fd5b604051600090339083908381818185875af1925050503d8060008114611c5b576040519150601f19603f3d011682016040523d82523d6000602084013e611c60565b606091505b5050905080611c82576040516312171d8360e31b815260040160405180910390fd5b60405182815233907fd7dee2702d63ad89917b6a4da9981c90c4d24f8c2bdfd64c604ecae57d8d06519060200160405180910390a25050600c805460ff19169055565b60055460009060ff610100909104811690831610611ce557506000610fb9565b506001600160a01b038216600090815260096020908152604080832060ff8516845290915290205492915050565b6060600b805480602002602001604051908101604052809291908181526020018280548015610b1e57602002820191906000526020600020905b815481526020019060010190808311611d4d575050505050905090565b60006003544210611d7b5750600090565b426003546106e391906125f2565b60068181548110611d9957600080fd5b906000526020600020016000915090508054610da290612481565b600060055460ff166002811115611dcd57611dcd612128565b14611deb57604051635a90bb8d60e11b815260040160405180910390fd5b6003544210611e0d5760405163262b753160e21b815260040160405180910390fd5b600c5460ff1615611e31576040516345f5ce8b60e11b815260040160405180910390fd5b600c805460ff19166001179055600554610100900460ff90811690831610611e6c57604051632a71953160e01b815260040160405180910390fd5b80600003611e8d5760405163162908e360e11b815260040160405180910390fd5b33600090815260096020908152604080832060ff86168452909152902054811115611ecb57604051633999656760e01b815260040160405180910390fd5b6000611ed561168b565b905080600003611ef85760405163bb55fd2760e01b815260040160405180910390fd5b600081600b8560ff1681548110611f1157611f116124b5565b906000526020600020015484611f27919061250d565b611f31919061253a565b905080471015611f545760405163bb55fd2760e01b815260040160405180910390fd5b33600090815260096020908152604080832060ff8816845290915281208054859290611f819084906125f2565b9250508190555082600b8560ff1681548110611f9f57611f9f6124b5565b906000526020600020016000828254611fb891906125f2565b9091555050604051600090339083908381818185875af1925050503d8060008114611fff576040519150601f19603f3d011682016040523d82523d6000602084013e612004565b606091505b5050905080612026576040516312171d8360e31b815260040160405180910390fd5b6040805160ff871681526020810186905290810183905233907faa68026cba73386b81aaef0208a11ad1c3f8d1306cf0734631f076b7baea05ba90606001611b02565b80356001600160a01b038116811461208057600080fd5b919050565b803560ff8116811461208057600080fd5b600080604083850312156120a957600080fd5b6120b283612069565b91506120c060208401612085565b90509250929050565b6000602082840312156120db57600080fd5b5035919050565b6000815180845260005b81811015612108576020818501810151868301820152016120ec565b506000602082860101526020601f19601f83011685010191505092915050565b634e487b7160e01b600052602160045260246000fd5b6003811061215c57634e487b7160e01b600052602160045260246000fd5b9052565b600082825180855260208086019550808260051b84010181860160005b848110156121ab57601f198684030189526121998383516120e2565b9884019892509083019060010161217d565b5090979650505050505050565b600081518084526020808501945080840160005b838110156121e8578151875295820195908201906001016121cc565b509495945050505050565b600081518084526020808501945080840160005b838110156121e8578151151587529582019590820190600101612207565b6001600160a01b038b1681526101406020820181905260009061224a8382018d6120e2565b90508a6040840152896060840152612265608084018a61213e565b60ff881660a084015282810360c08401526122808188612160565b905082810360e084015261229481876121b8565b90508281036101008401526122a981866121f3565b915050826101208301529b9a5050505050505050505050565b60008083601f8401126122d457600080fd5b50813567ffffffffffffffff8111156122ec57600080fd5b6020830191508360208260051b850101111561230757600080fd5b9250929050565b60008060006040848603121561232357600080fd5b61232c84612069565b9250602084013567ffffffffffffffff81111561234857600080fd5b612354868287016122c2565b9497909650939450505050565b602081526000610aa960208301846121f3565b60006020828403121561238657600080fd5b610aa982612085565b602081526000610aa960208301846120e2565b602081526000610aa960208301846121b8565b6000602082840312156123c757600080fd5b610aa982612069565b600080604083850312156123e357600080fd5b6123ec83612085565b946020939093013593505050565b60408152600061240d60408301856121b8565b905082151560208301529392505050565b6000806020838503121561243157600080fd5b823567ffffffffffffffff81111561244857600080fd5b612454858286016122c2565b90969095509350505050565b602081526000610aa96020830184612160565b60208101610fb9828461213e565b600181811c9082168061249557607f821691505b6020821081036116e657634e487b7160e01b600052602260045260246000fd5b634e487b7160e01b600052603260045260246000fd5b634e487b7160e01b600052601160045260246000fd5b80820180821115610fb957610fb96124cb565b600060018201612506576125066124cb565b5060010190565b8082028115828204841417610fb957610fb96124cb565b634e487b7160e01b600052601260045260246000fd5b60008261254957612549612524565b500490565b634e487b7160e01b600052604160045260246000fd5b600061ffff8084168061257957612579612524565b92169190910492915050565b600060ff821660ff810361259b5761259b6124cb565b60010192915050565b6040808252810183905260008460608301825b868110156125df5760ff6125ca84612085565b168252602092830192909101906001016125b7565b5060209390930193909352509392505050565b81810381811115610fb957610fb96124cb56fea2646970667358221220ba59d84f01ae88b78da828e06c30fbdee5f04625b5816dce761703751fb09ce364736f6c63430008140033","opcodes":"PUSH1 0x80 PUSH1 0x40 MSTORE CALLVALUE DUP1 ISZERO PUSH3 0x11 JUMPI PUSH1 0x0 DUP1 REVERT JUMPDEST POP PUSH1 0x40 MLOAD PUSH3 0x2FDB CODESIZE SUB DUP1 PUSH3 0x2FDB DUP4 CODECOPY DUP2 ADD PUSH1 0x40 DUP2 SWAP1 MSTORE PUSH3 0x34 SWAP2 PUSH3 0x5F5 JUMP JUMPDEST TIMESTAMP DUP3 GT PUSH3 0x55 JUMPI PUSH1 0x40 MLOAD PUSH4 0x38AF65F7 PUSH1 0xE0 SHL DUP2 MSTORE PUSH1 0x4 ADD PUSH1 0x40 MLOAD DUP1 SWAP2 SUB SWAP1 REVERT JUMPDEST PUSH1 0x1 PUSH1 0x1 PUSH1 0xA0 SHL SUB DUP5 AND PUSH3 0x7D JUMPI PUSH1 0x40 MLOAD PUSH4 0x162908E3 PUSH1 0xE1 SHL DUP2 MSTORE PUSH1 0x4 ADD PUSH1 0x40 MLOAD DUP1 SWAP2 SUB SWAP1 REVERT JUMPDEST DUP3 MLOAD PUSH1 0x0 SUB PUSH3 0xA0 JUMPI PUSH1 0x40 MLOAD PUSH4 0x162908E3 PUSH1 0xE1 SHL DUP2 MSTORE PUSH1 0x4 ADD PUSH1 0x40 MLOAD DUP1 SWAP2 SUB SWAP1 REVERT JUMPDEST PUSH1 0x2 DUP2 MLOAD LT DUP1 PUSH3 0xB2 JUMPI POP PUSH1 0x4 DUP2 MLOAD GT JUMPDEST ISZERO PUSH3 0xD1 JUMPI PUSH1 0x40 MLOAD PUSH4 0x447074B5 PUSH1 0xE0 SHL DUP2 MSTORE PUSH1 0x4 ADD PUSH1 0x40 MLOAD DUP1 SWAP2 SUB SWAP1 REVERT JUMPDEST PUSH1 0x0 JUMPDEST DUP2 MLOAD DUP2 PUSH1 0xFF AND LT ISZERO PUSH3 0x1DA JUMPI DUP2 DUP2 PUSH1 0xFF AND DUP2 MLOAD DUP2 LT PUSH3 0xF9 JUMPI PUSH3 0xF9 PUSH3 0x718 JUMP JUMPDEST PUSH1 0x20 MUL PUSH1 0x20 ADD ADD MLOAD MLOAD PUSH1 0x0 SUB PUSH3 0x123 JUMPI PUSH1 0x40 MLOAD PUSH4 0x3887F293 PUSH1 0xE1 SHL DUP2 MSTORE PUSH1 0x4 ADD PUSH1 0x40 MLOAD DUP1 SWAP2 SUB SWAP1 REVERT JUMPDEST PUSH1 0x0 PUSH3 0x132 DUP3 PUSH1 0x1 PUSH3 0x744 JUMP JUMPDEST SWAP1 POP JUMPDEST DUP3 MLOAD DUP2 PUSH1 0xFF AND LT ISZERO PUSH3 0x1C4 JUMPI DUP3 DUP2 PUSH1 0xFF AND DUP2 MLOAD DUP2 LT PUSH3 0x15A JUMPI PUSH3 0x15A PUSH3 0x718 JUMP JUMPDEST PUSH1 0x20 MUL PUSH1 0x20 ADD ADD MLOAD DUP1 MLOAD SWAP1 PUSH1 0x20 ADD KECCAK256 DUP4 DUP4 PUSH1 0xFF AND DUP2 MLOAD DUP2 LT PUSH3 0x181 JUMPI PUSH3 0x181 PUSH3 0x718 JUMP JUMPDEST PUSH1 0x20 MUL PUSH1 0x20 ADD ADD MLOAD DUP1 MLOAD SWAP1 PUSH1 0x20 ADD KECCAK256 SUB PUSH3 0x1AF JUMPI PUSH1 0x40 MLOAD PUSH4 0x48A4BD6D PUSH1 0xE1 SHL DUP2 MSTORE PUSH1 0x4 ADD PUSH1 0x40 MLOAD DUP1 SWAP2 SUB SWAP1 REVERT JUMPDEST DUP1 PUSH3 0x1BB DUP2 PUSH3 0x766 JUMP JUMPDEST SWAP2 POP POP PUSH3 0x135 JUMP JUMPDEST POP DUP1 PUSH3 0x1D1 DUP2 PUSH3 0x766 JUMP JUMPDEST SWAP2 POP POP PUSH3 0xD4 JUMP JUMPDEST POP PUSH1 0x0 DUP1 SLOAD PUSH1 0x1 PUSH1 0x1 PUSH1 0xA0 SHL SUB NOT AND PUSH1 0x1 PUSH1 0x1 PUSH1 0xA0 SHL SUB DUP7 AND OR SWAP1 SSTORE PUSH1 0x2 PUSH3 0x204 DUP5 DUP3 PUSH3 0x817 JUMP JUMPDEST POP PUSH1 0x3 DUP3 SWAP1 SSTORE TIMESTAMP PUSH1 0x4 SSTORE PUSH1 0x5 DUP1 SLOAD DUP3 MLOAD PUSH2 0xFFFF NOT SWAP1 SWAP2 AND PUSH2 0x100 PUSH1 0xFF DUP4 AND MUL OR SWAP1 SWAP2 SSTORE PUSH3 0x23A SWAP1 PUSH1 0x6 SWAP1 PUSH1 0x20 DUP5 ADD SWAP1 PUSH3 0x348 JUMP JUMPDEST POP DUP1 MLOAD PUSH1 0x1 PUSH1 0x1 PUSH1 0x40 SHL SUB DUP2 GT ISZERO PUSH3 0x257 JUMPI PUSH3 0x257 PUSH3 0x512 JUMP JUMPDEST PUSH1 0x40 MLOAD SWAP1 DUP1 DUP3 MSTORE DUP1 PUSH1 0x20 MUL PUSH1 0x20 ADD DUP3 ADD PUSH1 0x40 MSTORE DUP1 ISZERO PUSH3 0x281 JUMPI DUP2 PUSH1 0x20 ADD PUSH1 0x20 DUP3 MUL DUP1 CALLDATASIZE DUP4 CALLDATACOPY ADD SWAP1 POP JUMPDEST POP DUP1 MLOAD PUSH3 0x298 SWAP2 PUSH1 0xB SWAP2 PUSH1 0x20 SWAP1 SWAP2 ADD SWAP1 PUSH3 0x3A5 JUMP JUMPDEST POP DUP1 MLOAD PUSH1 0x1 PUSH1 0x1 PUSH1 0x40 SHL SUB DUP2 GT ISZERO PUSH3 0x2B5 JUMPI PUSH3 0x2B5 PUSH3 0x512 JUMP JUMPDEST PUSH1 0x40 MLOAD SWAP1 DUP1 DUP3 MSTORE DUP1 PUSH1 0x20 MUL PUSH1 0x20 ADD DUP3 ADD PUSH1 0x40 MSTORE DUP1 ISZERO PUSH3 0x2DF JUMPI DUP2 PUSH1 0x20 ADD PUSH1 0x20 DUP3 MUL DUP1 CALLDATASIZE DUP4 CALLDATACOPY ADD SWAP1 POP JUMPDEST POP DUP1 MLOAD PUSH3 0x2F6 SWAP2 PUSH1 0x7 SWAP2 PUSH1 0x20 SWAP1 SWAP2 ADD SWAP1 PUSH3 0x3F1 JUMP JUMPDEST POP DUP4 PUSH1 0x1 PUSH1 0x1 PUSH1 0xA0 SHL SUB AND PUSH32 0xE7ABEA24BBDECA3299EE22E1CDBAD24CBB950A3754A487EE187E61DC3F096ED4 DUP5 DUP5 DUP5 PUSH1 0x40 MLOAD PUSH3 0x336 SWAP4 SWAP3 SWAP2 SWAP1 PUSH3 0x911 JUMP JUMPDEST PUSH1 0x40 MLOAD DUP1 SWAP2 SUB SWAP1 LOG2 POP POP POP POP PUSH3 0x990 JUMP JUMPDEST DUP3 DUP1 SLOAD DUP3 DUP3 SSTORE SWAP1 PUSH1 0x0 MSTORE PUSH1 0x20 PUSH1 0x0 KECCAK256 SWAP1 DUP2 ADD SWAP3 DUP3 ISZERO PUSH3 0x393 JUMPI SWAP2 PUSH1 0x20 MUL DUP3 ADD JUMPDEST DUP3 DUP2 GT ISZERO PUSH3 0x393 JUMPI DUP3 MLOAD DUP3 SWAP1 PUSH3 0x382 SWAP1 DUP3 PUSH3 0x817 JUMP JUMPDEST POP SWAP2 PUSH1 0x20 ADD SWAP2 SWAP1 PUSH1 0x1 ADD SWAP1 PUSH3 0x369 JUMP JUMPDEST POP PUSH3 0x3A1 SWAP3 SWAP2 POP PUSH3 0x498 JUMP JUMPDEST POP SWAP1 JUMP JUMPDEST DUP3 DUP1 SLOAD DUP3 DUP3 SSTORE SWAP1 PUSH1 0x0 MSTORE PUSH1 0x20 PUSH1 0x0 KECCAK256 SWAP1 DUP2 ADD SWAP3 DUP3 ISZERO PUSH3 0x3E3 JUMPI SWAP2 PUSH1 0x20 MUL DUP3 ADD JUMPDEST DUP3 DUP2 GT ISZERO PUSH3 0x3E3 JUMPI DUP3 MLOAD DUP3 SSTORE SWAP2 PUSH1 0x20 ADD SWAP2 SWAP1 PUSH1 0x1 ADD SWAP1 PUSH3 0x3C6 JUMP JUMPDEST POP PUSH3 0x3A1 SWAP3 SWAP2 POP PUSH3 0x4B9 JUMP JUMPDEST DUP3 DUP1 SLOAD DUP3 DUP3 SSTORE SWAP1 PUSH1 0x0 MSTORE PUSH1 0x20 PUSH1 0x0 KECCAK256 SWAP1 PUSH1 0x1F ADD PUSH1 0x20 SWAP1 DIV DUP2 ADD SWAP3 DUP3 ISZERO PUSH3 0x3E3 JUMPI SWAP2 PUSH1 0x20 MUL DUP3 ADD PUSH1 0x0 JUMPDEST DUP4 DUP3 GT ISZERO PUSH3 0x45A JUMPI DUP4 MLOAD DUP4 DUP3 PUSH2 0x100 EXP DUP2 SLOAD DUP2 PUSH1 0xFF MUL NOT AND SWAP1 DUP4 ISZERO ISZERO MUL OR SWAP1 SSTORE POP SWAP3 PUSH1 0x20 ADD SWAP3 PUSH1 0x1 ADD PUSH1 0x20 DUP2 PUSH1 0x0 ADD DIV SWAP3 DUP4 ADD SWAP3 PUSH1 0x1 SUB MUL PUSH3 0x41B JUMP JUMPDEST DUP1 ISZERO PUSH3 0x489 JUMPI DUP3 DUP2 PUSH2 0x100 EXP DUP2 SLOAD SWAP1 PUSH1 0xFF MUL NOT AND SWAP1 SSTORE PUSH1 0x1 ADD PUSH1 0x20 DUP2 PUSH1 0x0 ADD DIV SWAP3 DUP4 ADD SWAP3 PUSH1 0x1 SUB MUL PUSH3 0x45A JUMP JUMPDEST POP POP PUSH3 0x3A1 SWAP3 SWAP2 POP PUSH3 0x4B9 JUMP JUMPDEST DUP1 DUP3 GT ISZERO PUSH3 0x3A1 JUMPI PUSH1 0x0 PUSH3 0x4AF DUP3 DUP3 PUSH3 0x4D0 JUMP JUMPDEST POP PUSH1 0x1 ADD PUSH3 0x498 JUMP JUMPDEST JUMPDEST DUP1 DUP3 GT ISZERO PUSH3 0x3A1 JUMPI PUSH1 0x0 DUP2 SSTORE PUSH1 0x1 ADD PUSH3 0x4BA JUMP JUMPDEST POP DUP1 SLOAD PUSH3 0x4DE SWAP1 PUSH3 0x788 JUMP JUMPDEST PUSH1 0x0 DUP3 SSTORE DUP1 PUSH1 0x1F LT PUSH3 0x4EF JUMPI POP POP JUMP JUMPDEST PUSH1 0x1F ADD PUSH1 0x20 SWAP1 DIV SWAP1 PUSH1 0x0 MSTORE PUSH1 0x20 PUSH1 0x0 KECCAK256 SWAP1 DUP2 ADD SWAP1 PUSH3 0x50F SWAP2 SWAP1 PUSH3 0x4B9 JUMP JUMPDEST POP JUMP JUMPDEST PUSH4 0x4E487B71 PUSH1 0xE0 SHL PUSH1 0x0 MSTORE PUSH1 0x41 PUSH1 0x4 MSTORE PUSH1 0x24 PUSH1 0x0 REVERT JUMPDEST PUSH1 0x40 MLOAD PUSH1 0x1F DUP3 ADD PUSH1 0x1F NOT AND DUP2 ADD PUSH1 0x1 PUSH1 0x1 PUSH1 0x40 SHL SUB DUP2 GT DUP3 DUP3 LT OR ISZERO PUSH3 0x553 JUMPI PUSH3 0x553 PUSH3 0x512 JUMP JUMPDEST PUSH1 0x40 MSTORE SWAP2 SWAP1 POP JUMP JUMPDEST PUSH1 0x0 JUMPDEST DUP4 DUP2 LT ISZERO PUSH3 0x578 JUMPI DUP2 DUP2 ADD MLOAD DUP4 DUP3 ADD MSTORE PUSH1 0x20 ADD PUSH3 0x55E JUMP JUMPDEST POP POP PUSH1 0x0 SWAP2 ADD MSTORE JUMP JUMPDEST PUSH1 0x0 DUP3 PUSH1 0x1F DUP4 ADD SLT PUSH3 0x593 JUMPI PUSH1 0x0 DUP1 REVERT JUMPDEST DUP2 MLOAD PUSH1 0x1 PUSH1 0x1 PUSH1 0x40 SHL SUB DUP2 GT ISZERO PUSH3 0x5AF JUMPI PUSH3 0x5AF PUSH3 0x512 JUMP JUMPDEST PUSH3 0x5C4 PUSH1 0x1F DUP3 ADD PUSH1 0x1F NOT AND PUSH1 0x20 ADD PUSH3 0x528 JUMP JUMPDEST DUP2 DUP2 MSTORE DUP5 PUSH1 0x20 DUP4 DUP7 ADD ADD GT ISZERO PUSH3 0x5DA JUMPI PUSH1 0x0 DUP1 REVERT JUMPDEST PUSH3 0x5ED DUP3 PUSH1 0x20 DUP4 ADD PUSH1 0x20 DUP8 ADD PUSH3 0x55B JUMP JUMPDEST SWAP5 SWAP4 POP POP POP POP JUMP JUMPDEST PUSH1 0x0 DUP1 PUSH1 0x0 DUP1 PUSH1 0x80 DUP6 DUP8 SUB SLT ISZERO PUSH3 0x60C JUMPI PUSH1 0x0 DUP1 REVERT JUMPDEST DUP5 MLOAD PUSH1 0x1 PUSH1 0x1 PUSH1 0xA0 SHL SUB DUP2 AND DUP2 EQ PUSH3 0x624 JUMPI PUSH1 0x0 DUP1 REVERT JUMPDEST PUSH1 0x20 DUP7 DUP2 ADD MLOAD SWAP2 SWAP6 POP SWAP1 PUSH1 0x1 PUSH1 0x1 PUSH1 0x40 SHL SUB DUP1 DUP3 GT ISZERO PUSH3 0x644 JUMPI PUSH1 0x0 DUP1 REVERT JUMPDEST PUSH3 0x652 DUP10 DUP4 DUP11 ADD PUSH3 0x581 JUMP JUMPDEST SWAP6 POP PUSH1 0x40 DUP9 ADD MLOAD SWAP5 POP PUSH1 0x60 DUP9 ADD MLOAD SWAP2 POP DUP1 DUP3 GT ISZERO PUSH3 0x670 JUMPI PUSH1 0x0 DUP1 REVERT JUMPDEST DUP2 DUP9 ADD SWAP2 POP DUP9 PUSH1 0x1F DUP4 ADD SLT PUSH3 0x685 JUMPI PUSH1 0x0 DUP1 REVERT JUMPDEST DUP2 MLOAD DUP2 DUP2 GT ISZERO PUSH3 0x69A JUMPI PUSH3 0x69A PUSH3 0x512 JUMP JUMPDEST DUP1 PUSH1 0x5 SHL PUSH3 0x6AB DUP6 DUP3 ADD PUSH3 0x528 JUMP JUMPDEST SWAP2 DUP3 MSTORE DUP4 DUP2 ADD DUP6 ADD SWAP2 DUP6 DUP2 ADD SWAP1 DUP13 DUP5 GT ISZERO PUSH3 0x6C6 JUMPI PUSH1 0x0 DUP1 REVERT JUMPDEST DUP7 DUP7 ADD SWAP3 POP JUMPDEST DUP4 DUP4 LT ISZERO PUSH3 0x707 JUMPI DUP3 MLOAD DUP6 DUP2 GT ISZERO PUSH3 0x6E6 JUMPI PUSH1 0x0 DUP1 DUP2 REVERT JUMPDEST PUSH3 0x6F6 DUP15 DUP10 DUP4 DUP11 ADD ADD PUSH3 0x581 JUMP JUMPDEST DUP4 MSTORE POP SWAP2 DUP7 ADD SWAP2 SWAP1 DUP7 ADD SWAP1 PUSH3 0x6CC JUMP JUMPDEST SWAP10 SWAP13 SWAP9 SWAP12 POP SWAP7 SWAP10 POP POP POP POP POP POP POP POP JUMP JUMPDEST PUSH4 0x4E487B71 PUSH1 0xE0 SHL PUSH1 0x0 MSTORE PUSH1 0x32 PUSH1 0x4 MSTORE PUSH1 0x24 PUSH1 0x0 REVERT JUMPDEST PUSH4 0x4E487B71 PUSH1 0xE0 SHL PUSH1 0x0 MSTORE PUSH1 0x11 PUSH1 0x4 MSTORE PUSH1 0x24 PUSH1 0x0 REVERT JUMPDEST PUSH1 0xFF DUP2 DUP2 AND DUP4 DUP3 AND ADD SWAP1 DUP2 GT ISZERO PUSH3 0x760 JUMPI PUSH3 0x760 PUSH3 0x72E JUMP JUMPDEST SWAP3 SWAP2 POP POP JUMP JUMPDEST PUSH1 0x0 PUSH1 0xFF DUP3 AND PUSH1 0xFF DUP2 SUB PUSH3 0x77F JUMPI PUSH3 0x77F PUSH3 0x72E JUMP JUMPDEST PUSH1 0x1 ADD SWAP3 SWAP2 POP POP JUMP JUMPDEST PUSH1 0x1 DUP2 DUP2 SHR SWAP1 DUP3 AND DUP1 PUSH3 0x79D JUMPI PUSH1 0x7F DUP3 AND SWAP2 POP JUMPDEST PUSH1 0x20 DUP3 LT DUP2 SUB PUSH3 0x7BE JUMPI PUSH4 0x4E487B71 PUSH1 0xE0 SHL PUSH1 0x0 MSTORE PUSH1 0x22 PUSH1 0x4 MSTORE PUSH1 0x24 PUSH1 0x0 REVERT JUMPDEST POP SWAP2 SWAP1 POP JUMP JUMPDEST PUSH1 0x1F DUP3 GT ISZERO PUSH3 0x812 JUMPI PUSH1 0x0 DUP2 DUP2 MSTORE PUSH1 0x20 DUP2 KECCAK256 PUSH1 0x1F DUP6 ADD PUSH1 0x5 SHR DUP2 ADD PUSH1 0x20 DUP7 LT ISZERO PUSH3 0x7ED JUMPI POP DUP1 JUMPDEST PUSH1 0x1F DUP6 ADD PUSH1 0x5 SHR DUP3 ADD SWAP2 POP JUMPDEST DUP2 DUP2 LT ISZERO PUSH3 0x80E JUMPI DUP3 DUP2 SSTORE PUSH1 0x1 ADD PUSH3 0x7F9 JUMP JUMPDEST POP POP POP JUMPDEST POP POP POP JUMP JUMPDEST DUP2 MLOAD PUSH1 0x1 PUSH1 0x1 PUSH1 0x40 SHL SUB DUP2 GT ISZERO PUSH3 0x833 JUMPI PUSH3 0x833 PUSH3 0x512 JUMP JUMPDEST PUSH3 0x84B DUP2 PUSH3 0x844 DUP5 SLOAD PUSH3 0x788 JUMP JUMPDEST DUP5 PUSH3 0x7C4 JUMP JUMPDEST PUSH1 0x20 DUP1 PUSH1 0x1F DUP4 GT PUSH1 0x1 DUP2 EQ PUSH3 0x883 JUMPI PUSH1 0x0 DUP5 ISZERO PUSH3 0x86A JUMPI POP DUP6 DUP4 ADD MLOAD JUMPDEST PUSH1 0x0 NOT PUSH1 0x3 DUP7 SWAP1 SHL SHR NOT AND PUSH1 0x1 DUP6 SWAP1 SHL OR DUP6 SSTORE PUSH3 0x80E JUMP JUMPDEST PUSH1 0x0 DUP6 DUP2 MSTORE PUSH1 0x20 DUP2 KECCAK256 PUSH1 0x1F NOT DUP7 AND SWAP2 JUMPDEST DUP3 DUP2 LT ISZERO PUSH3 0x8B4 JUMPI DUP9 DUP7 ADD MLOAD DUP3 SSTORE SWAP5 DUP5 ADD SWAP5 PUSH1 0x1 SWAP1 SWAP2 ADD SWAP1 DUP5 ADD PUSH3 0x893 JUMP JUMPDEST POP DUP6 DUP3 LT ISZERO PUSH3 0x8D3 JUMPI DUP8 DUP6 ADD MLOAD PUSH1 0x0 NOT PUSH1 0x3 DUP9 SWAP1 SHL PUSH1 0xF8 AND SHR NOT AND DUP2 SSTORE JUMPDEST POP POP POP POP POP PUSH1 0x1 SWAP1 DUP2 SHL ADD SWAP1 SSTORE POP JUMP JUMPDEST PUSH1 0x0 DUP2 MLOAD DUP1 DUP5 MSTORE PUSH3 0x8FD DUP2 PUSH1 0x20 DUP7 ADD PUSH1 0x20 DUP7 ADD PUSH3 0x55B JUMP JUMPDEST PUSH1 0x1F ADD PUSH1 0x1F NOT AND SWAP3 SWAP1 SWAP3 ADD PUSH1 0x20 ADD SWAP3 SWAP2 POP POP JUMP JUMPDEST PUSH1 0x60 DUP2 MSTORE PUSH1 0x0 PUSH3 0x926 PUSH1 0x60 DUP4 ADD DUP7 PUSH3 0x8E3 JUMP JUMPDEST PUSH1 0x20 DUP6 DUP2 DUP6 ADD MSTORE DUP4 DUP3 SUB PUSH1 0x40 DUP6 ADD MSTORE DUP2 DUP6 MLOAD DUP1 DUP5 MSTORE DUP3 DUP5 ADD SWAP2 POP DUP3 DUP2 PUSH1 0x5 SHL DUP6 ADD ADD DUP4 DUP9 ADD PUSH1 0x0 JUMPDEST DUP4 DUP2 LT ISZERO PUSH3 0x980 JUMPI PUSH1 0x1F NOT DUP8 DUP5 SUB ADD DUP6 MSTORE PUSH3 0x96D DUP4 DUP4 MLOAD PUSH3 0x8E3 JUMP JUMPDEST SWAP5 DUP7 ADD SWAP5 SWAP3 POP SWAP1 DUP6 ADD SWAP1 PUSH1 0x1 ADD PUSH3 0x94E JUMP JUMPDEST POP SWAP1 SWAP11 SWAP10 POP POP POP POP POP POP POP POP POP POP JUMP JUMPDEST PUSH2 0x263B DUP1 PUSH3 0x9A0 PUSH1 0x0 CODECOPY PUSH1 0x0 RETURN INVALID PUSH1 0x80 PUSH1 0x40 MSTORE PUSH1 0x4 CALLDATASIZE LT PUSH2 0x212 JUMPI PUSH1 0x0 CALLDATALOAD PUSH1 0xE0 SHR DUP1 PUSH4 0x6A87C474 GT PUSH2 0x118 JUMPI DUP1 PUSH4 0xBC29CA45 GT PUSH2 0xA0 JUMPI DUP1 PUSH4 0xDAC6270D GT PUSH2 0x6F JUMPI DUP1 PUSH4 0xDAC6270D EQ PUSH2 0x60E JUMPI DUP1 PUSH4 0xE0E081D7 EQ PUSH2 0x623 JUMPI DUP1 PUSH4 0xE32FE90B EQ PUSH2 0x64A JUMPI DUP1 PUSH4 0xEF0FC35C EQ PUSH2 0x67B JUMPI DUP1 PUSH4 0xF2CCB397 EQ PUSH2 0x69B JUMPI PUSH1 0x0 DUP1 REVERT JUMPDEST DUP1 PUSH4 0xBC29CA45 EQ PUSH2 0x5A9 JUMPI DUP1 PUSH4 0xC235253F EQ PUSH2 0x5C3 JUMPI DUP1 PUSH4 0xCF09E0D0 EQ PUSH2 0x5E3 JUMPI DUP1 PUSH4 0xD5002F2E EQ PUSH2 0x5F9 JUMPI PUSH1 0x0 DUP1 REVERT JUMPDEST DUP1 PUSH4 0x75F4D677 GT PUSH2 0xE7 JUMPI DUP1 PUSH4 0x75F4D677 EQ PUSH2 0x528 JUMPI DUP1 PUSH4 0xA1E512D7 EQ PUSH2 0x53D JUMPI DUP1 PUSH4 0xAB125B64 EQ PUSH2 0x55D JUMPI DUP1 PUSH4 0xB401FAF1 EQ PUSH2 0x57F JUMPI DUP1 PUSH4 0xB5545A3C EQ PUSH2 0x594 JUMPI PUSH1 0x0 DUP1 REVERT JUMPDEST DUP1 PUSH4 0x6A87C474 EQ PUSH2 0x4B0 JUMPI DUP1 PUSH4 0x6BFEFD6B EQ PUSH2 0x4D0 JUMPI DUP1 PUSH4 0x6F9FB98A EQ PUSH2 0x4E5 JUMPI DUP1 PUSH4 0x73B2E80E EQ PUSH2 0x4F8 JUMPI PUSH1 0x0 DUP1 REVERT JUMPDEST DUP1 PUSH4 0x34F5E9F9 GT PUSH2 0x19B JUMPI DUP1 PUSH4 0x4C5BE574 GT PUSH2 0x16A JUMPI DUP1 PUSH4 0x4C5BE574 EQ PUSH2 0x400 JUMPI DUP1 PUSH4 0x4E543B26 EQ PUSH2 0x422 JUMPI DUP1 PUSH4 0x4EA64D17 EQ PUSH2 0x442 JUMPI DUP1 PUSH4 0x5B7C2DAD EQ PUSH2 0x462 JUMPI DUP1 PUSH4 0x68EA18EC EQ PUSH2 0x490 JUMPI PUSH1 0x0 DUP1 REVERT JUMPDEST DUP1 PUSH4 0x34F5E9F9 EQ PUSH2 0x389 JUMPI DUP1 PUSH4 0x3F0826C5 EQ PUSH2 0x39E JUMPI DUP1 PUSH4 0x3FAD9AE0 EQ PUSH2 0x3CB JUMPI DUP1 PUSH4 0x4A02476E EQ PUSH2 0x3E0 JUMPI PUSH1 0x0 DUP1 REVERT JUMPDEST DUP1 PUSH4 0x13F2DAD0 GT PUSH2 0x1E2 JUMPI DUP1 PUSH4 0x13F2DAD0 EQ PUSH2 0x2E6 JUMPI DUP1 PUSH4 0x23341A05 EQ PUSH2 0x306 JUMPI DUP1 PUSH4 0x24FDF5AF EQ PUSH2 0x331 JUMPI DUP1 PUSH4 0x2F31D130 EQ PUSH2 0x351 JUMPI DUP1 PUSH4 0x3197CBB6 EQ PUSH2 0x373 JUMPI PUSH1 0x0 DUP1 REVERT JUMPDEST DUP1 PUSH3 0x80CB82 EQ PUSH2 0x21E JUMPI DUP1 PUSH4 0x2D05D3F EQ PUSH2 0x248 JUMPI DUP1 PUSH4 0x4F3BCEC EQ PUSH2 0x280 JUMPI DUP1 PUSH4 0x1158BD13 EQ PUSH2 0x2A0 JUMPI PUSH1 0x0 DUP1 REVERT JUMPDEST CALLDATASIZE PUSH2 0x219 JUMPI STOP JUMPDEST PUSH1 0x0 DUP1 REVERT JUMPDEST CALLVALUE DUP1 ISZERO PUSH2 0x22A JUMPI PUSH1 0x0 DUP1 REVERT JUMPDEST POP PUSH2 0x233 PUSH2 0x6BB JUMP JUMPDEST PUSH1 0x40 MLOAD SWAP1 ISZERO ISZERO DUP2 MSTORE PUSH1 0x20 ADD JUMPDEST PUSH1 0x40 MLOAD DUP1 SWAP2 SUB SWAP1 RETURN JUMPDEST CALLVALUE DUP1 ISZERO PUSH2 0x254 JUMPI PUSH1 0x0 DUP1 REVERT JUMPDEST POP PUSH1 0x0 SLOAD PUSH2 0x268 SWAP1 PUSH1 0x1 PUSH1 0x1 PUSH1 0xA0 SHL SUB AND DUP2 JUMP JUMPDEST PUSH1 0x40 MLOAD PUSH1 0x1 PUSH1 0x1 PUSH1 0xA0 SHL SUB SWAP1 SWAP2 AND DUP2 MSTORE PUSH1 0x20 ADD PUSH2 0x23F JUMP JUMPDEST CALLVALUE DUP1 ISZERO PUSH2 0x28C JUMPI PUSH1 0x0 DUP1 REVERT JUMPDEST POP PUSH1 0x1 SLOAD PUSH2 0x268 SWAP1 PUSH1 0x1 PUSH1 0x1 PUSH1 0xA0 SHL SUB AND DUP2 JUMP JUMPDEST CALLVALUE DUP1 ISZERO PUSH2 0x2AC JUMPI PUSH1 0x0 DUP1 REVERT JUMPDEST POP PUSH2 0x2D8 PUSH2 0x2BB CALLDATASIZE PUSH1 0x4 PUSH2 0x2096 JUMP JUMPDEST PUSH1 0x9 PUSH1 0x20 SWAP1 DUP2 MSTORE PUSH1 0x0 SWAP3 DUP4 MSTORE PUSH1 0x40 DUP1 DUP5 KECCAK256 SWAP1 SWAP2 MSTORE SWAP1 DUP3 MSTORE SWAP1 KECCAK256 SLOAD DUP2 JUMP JUMPDEST PUSH1 0x40 MLOAD SWAP1 DUP2 MSTORE PUSH1 0x20 ADD PUSH2 0x23F JUMP JUMPDEST CALLVALUE DUP1 ISZERO PUSH2 0x2F2 JUMPI PUSH1 0x0 DUP1 REVERT JUMPDEST POP PUSH2 0x2D8 PUSH2 0x301 CALLDATASIZE PUSH1 0x4 PUSH2 0x20C9 JUMP JUMPDEST PUSH2 0x6E8 JUMP JUMPDEST CALLVALUE DUP1 ISZERO PUSH2 0x312 JUMPI PUSH1 0x0 DUP1 REVERT JUMPDEST POP PUSH2 0x31B PUSH2 0x709 JUMP JUMPDEST PUSH1 0x40 MLOAD PUSH2 0x23F SWAP11 SWAP10 SWAP9 SWAP8 SWAP7 SWAP6 SWAP5 SWAP4 SWAP3 SWAP2 SWAP1 PUSH2 0x2225 JUMP JUMPDEST CALLVALUE DUP1 ISZERO PUSH2 0x33D JUMPI PUSH1 0x0 DUP1 REVERT JUMPDEST POP PUSH2 0x2D8 PUSH2 0x34C CALLDATASIZE PUSH1 0x4 PUSH2 0x230E JUMP JUMPDEST PUSH2 0x995 JUMP JUMPDEST CALLVALUE DUP1 ISZERO PUSH2 0x35D JUMPI PUSH1 0x0 DUP1 REVERT JUMPDEST POP PUSH2 0x366 PUSH2 0xAB0 JUMP JUMPDEST PUSH1 0x40 MLOAD PUSH2 0x23F SWAP2 SWAP1 PUSH2 0x2361 JUMP JUMPDEST CALLVALUE DUP1 ISZERO PUSH2 0x37F JUMPI PUSH1 0x0 DUP1 REVERT JUMPDEST POP PUSH2 0x2D8 PUSH1 0x3 SLOAD DUP2 JUMP JUMPDEST PUSH2 0x39C PUSH2 0x397 CALLDATASIZE PUSH1 0x4 PUSH2 0x2374 JUMP JUMPDEST PUSH2 0xB28 JUMP JUMPDEST STOP JUMPDEST CALLVALUE DUP1 ISZERO PUSH2 0x3AA JUMPI PUSH1 0x0 DUP1 REVERT JUMPDEST POP PUSH2 0x3BE PUSH2 0x3B9 CALLDATASIZE PUSH1 0x4 PUSH2 0x2374 JUMP JUMPDEST PUSH2 0xCB4 JUMP JUMPDEST PUSH1 0x40 MLOAD PUSH2 0x23F SWAP2 SWAP1 PUSH2 0x238F JUMP JUMPDEST CALLVALUE DUP1 ISZERO PUSH2 0x3D7 JUMPI PUSH1 0x0 DUP1 REVERT JUMPDEST POP PUSH2 0x3BE PUSH2 0xD95 JUMP JUMPDEST CALLVALUE DUP1 ISZERO PUSH2 0x3EC JUMPI PUSH1 0x0 DUP1 REVERT JUMPDEST POP PUSH2 0x233 PUSH2 0x3FB CALLDATASIZE PUSH1 0x4 PUSH2 0x20C9 JUMP JUMPDEST PUSH2 0xE23 JUMP JUMPDEST CALLVALUE DUP1 ISZERO PUSH2 0x40C JUMPI PUSH1 0x0 DUP1 REVERT JUMPDEST POP PUSH2 0x415 PUSH2 0xE57 JUMP JUMPDEST PUSH1 0x40 MLOAD PUSH2 0x23F SWAP2 SWAP1 PUSH2 0x23A2 JUMP JUMPDEST CALLVALUE DUP1 ISZERO PUSH2 0x42E JUMPI PUSH1 0x0 DUP1 REVERT JUMPDEST POP PUSH2 0x39C PUSH2 0x43D CALLDATASIZE PUSH1 0x4 PUSH2 0x23B5 JUMP JUMPDEST PUSH2 0xFBF JUMP JUMPDEST CALLVALUE DUP1 ISZERO PUSH2 0x44E JUMPI PUSH1 0x0 DUP1 REVERT JUMPDEST POP PUSH2 0x2D8 PUSH2 0x45D CALLDATASIZE PUSH1 0x4 PUSH2 0x23D0 JUMP JUMPDEST PUSH2 0x105D JUMP JUMPDEST CALLVALUE DUP1 ISZERO PUSH2 0x46E JUMPI PUSH1 0x0 DUP1 REVERT JUMPDEST POP PUSH2 0x482 PUSH2 0x47D CALLDATASIZE PUSH1 0x4 PUSH2 0x23B5 JUMP JUMPDEST PUSH2 0x10DA JUMP JUMPDEST PUSH1 0x40 MLOAD PUSH2 0x23F SWAP3 SWAP2 SWAP1 PUSH2 0x23FA JUMP JUMPDEST CALLVALUE DUP1 ISZERO PUSH2 0x49C JUMPI PUSH1 0x0 DUP1 REVERT JUMPDEST POP PUSH2 0x39C PUSH2 0x4AB CALLDATASIZE PUSH1 0x4 PUSH2 0x241E JUMP JUMPDEST PUSH2 0x11CB JUMP JUMPDEST CALLVALUE DUP1 ISZERO PUSH2 0x4BC JUMPI PUSH1 0x0 DUP1 REVERT JUMPDEST POP PUSH2 0x39C PUSH2 0x4CB CALLDATASIZE PUSH1 0x4 PUSH2 0x241E JUMP JUMPDEST PUSH2 0x140F JUMP JUMPDEST CALLVALUE DUP1 ISZERO PUSH2 0x4DC JUMPI PUSH1 0x0 DUP1 REVERT JUMPDEST POP PUSH2 0x39C PUSH2 0x15EF JUMP JUMPDEST CALLVALUE DUP1 ISZERO PUSH2 0x4F1 JUMPI PUSH1 0x0 DUP1 REVERT JUMPDEST POP SELFBALANCE PUSH2 0x2D8 JUMP JUMPDEST CALLVALUE DUP1 ISZERO PUSH2 0x504 JUMPI PUSH1 0x0 DUP1 REVERT JUMPDEST POP PUSH2 0x233 PUSH2 0x513 CALLDATASIZE PUSH1 0x4 PUSH2 0x23B5 JUMP JUMPDEST PUSH1 0xA PUSH1 0x20 MSTORE PUSH1 0x0 SWAP1 DUP2 MSTORE PUSH1 0x40 SWAP1 KECCAK256 SLOAD PUSH1 0xFF AND DUP2 JUMP JUMPDEST CALLVALUE DUP1 ISZERO PUSH2 0x534 JUMPI PUSH1 0x0 DUP1 REVERT JUMPDEST POP PUSH2 0x2D8 PUSH2 0x168B JUMP JUMPDEST CALLVALUE DUP1 ISZERO PUSH2 0x549 JUMPI PUSH1 0x0 DUP1 REVERT JUMPDEST POP PUSH2 0x2D8 PUSH2 0x558 CALLDATASIZE PUSH1 0x4 PUSH2 0x2374 JUMP JUMPDEST PUSH2 0x16EC JUMP JUMPDEST CALLVALUE DUP1 ISZERO PUSH2 0x569 JUMPI PUSH1 0x0 DUP1 REVERT JUMPDEST POP PUSH2 0x572 PUSH2 0x178C JUMP JUMPDEST PUSH1 0x40 MLOAD PUSH2 0x23F SWAP2 SWAP1 PUSH2 0x2460 JUMP JUMPDEST CALLVALUE DUP1 ISZERO PUSH2 0x58B JUMPI PUSH1 0x0 DUP1 REVERT JUMPDEST POP PUSH2 0x39C PUSH2 0x1865 JUMP JUMPDEST CALLVALUE DUP1 ISZERO PUSH2 0x5A0 JUMPI PUSH1 0x0 DUP1 REVERT JUMPDEST POP PUSH2 0x39C PUSH2 0x1B1B JUMP JUMPDEST CALLVALUE DUP1 ISZERO PUSH2 0x5B5 JUMPI PUSH1 0x0 DUP1 REVERT JUMPDEST POP PUSH1 0x8 SLOAD PUSH2 0x233 SWAP1 PUSH1 0xFF AND DUP2 JUMP JUMPDEST CALLVALUE DUP1 ISZERO PUSH2 0x5CF JUMPI PUSH1 0x0 DUP1 REVERT JUMPDEST POP PUSH2 0x2D8 PUSH2 0x5DE CALLDATASIZE PUSH1 0x4 PUSH2 0x2096 JUMP JUMPDEST PUSH2 0x1CC5 JUMP JUMPDEST CALLVALUE DUP1 ISZERO PUSH2 0x5EF JUMPI PUSH1 0x0 DUP1 REVERT JUMPDEST POP PUSH2 0x2D8 PUSH1 0x4 SLOAD DUP2 JUMP JUMPDEST CALLVALUE DUP1 ISZERO PUSH2 0x605 JUMPI PUSH1 0x0 DUP1 REVERT JUMPDEST POP PUSH2 0x415 PUSH2 0x1D13 JUMP JUMPDEST CALLVALUE DUP1 ISZERO PUSH2 0x61A JUMPI PUSH1 0x0 DUP1 REVERT JUMPDEST POP PUSH2 0x2D8 PUSH2 0x1D6A JUMP JUMPDEST CALLVALUE DUP1 ISZERO PUSH2 0x62F JUMPI PUSH1 0x0 DUP1 REVERT JUMPDEST POP PUSH1 0x5 SLOAD PUSH2 0x63D SWAP1 PUSH1 0xFF AND DUP2 JUMP JUMPDEST PUSH1 0x40 MLOAD PUSH2 0x23F SWAP2 SWAP1 PUSH2 0x2473 JUMP JUMPDEST CALLVALUE DUP1 ISZERO PUSH2 0x656 JUMPI PUSH1 0x0 DUP1 REVERT JUMPDEST POP PUSH1 0x5 SLOAD PUSH2 0x669 SWAP1 PUSH2 0x100 SWAP1 DIV PUSH1 0xFF AND DUP2 JUMP JUMPDEST PUSH1 0x40 MLOAD PUSH1 0xFF SWAP1 SWAP2 AND DUP2 MSTORE PUSH1 0x20 ADD PUSH2 0x23F JUMP JUMPDEST CALLVALUE DUP1 ISZERO PUSH2 0x687 JUMPI PUSH1 0x0 DUP1 REVERT JUMPDEST POP PUSH2 0x3BE PUSH2 0x696 CALLDATASIZE PUSH1 0x4 PUSH2 0x20C9 JUMP JUMPDEST PUSH2 0x1D89 JUMP JUMPDEST CALLVALUE DUP1 ISZERO PUSH2 0x6A7 JUMPI PUSH1 0x0 DUP1 REVERT JUMPDEST POP PUSH2 0x39C PUSH2 0x6B6 CALLDATASIZE PUSH1 0x4 PUSH2 0x23D0 JUMP JUMPDEST PUSH2 0x1DB4 JUMP JUMPDEST PUSH1 0x0 DUP1 PUSH1 0x5 SLOAD PUSH1 0xFF AND PUSH1 0x2 DUP2 GT ISZERO PUSH2 0x6D5 JUMPI PUSH2 0x6D5 PUSH2 0x2128 JUMP JUMPDEST EQ DUP1 ISZERO PUSH2 0x6E3 JUMPI POP PUSH1 0x3 SLOAD TIMESTAMP LT JUMPDEST SWAP1 POP SWAP1 JUMP JUMPDEST PUSH1 0xB DUP2 DUP2 SLOAD DUP2 LT PUSH2 0x6F8 JUMPI PUSH1 0x0 DUP1 REVERT JUMPDEST PUSH1 0x0 SWAP2 DUP3 MSTORE PUSH1 0x20 SWAP1 SWAP2 KECCAK256 ADD SLOAD SWAP1 POP DUP2 JUMP JUMPDEST PUSH1 0x0 DUP1 SLOAD PUSH1 0x3 SLOAD PUSH1 0x4 SLOAD PUSH1 0x5 SLOAD PUSH1 0x60 SWAP4 DUP6 SWAP4 DUP5 SWAP4 DUP5 SWAP4 DUP5 SWAP4 DUP9 SWAP4 DUP5 SWAP4 DUP5 SWAP4 DUP8 SWAP4 PUSH1 0x1 PUSH1 0x1 PUSH1 0xA0 SHL SUB AND SWAP3 PUSH1 0x2 SWAP3 SWAP1 SWAP2 PUSH1 0xFF DUP1 DUP3 AND SWAP2 PUSH2 0x100 SWAP1 DIV AND PUSH1 0x6 PUSH1 0xB PUSH1 0x7 PUSH2 0x752 PUSH2 0x168B JUMP JUMPDEST DUP9 DUP1 SLOAD PUSH2 0x75E SWAP1 PUSH2 0x2481 JUMP JUMPDEST DUP1 PUSH1 0x1F ADD PUSH1 0x20 DUP1 SWAP2 DIV MUL PUSH1 0x20 ADD PUSH1 0x40 MLOAD SWAP1 DUP2 ADD PUSH1 0x40 MSTORE DUP1 SWAP3 SWAP2 SWAP1 DUP2 DUP2 MSTORE PUSH1 0x20 ADD DUP3 DUP1 SLOAD PUSH2 0x78A SWAP1 PUSH2 0x2481 JUMP JUMPDEST DUP1 ISZERO PUSH2 0x7D7 JUMPI DUP1 PUSH1 0x1F LT PUSH2 0x7AC JUMPI PUSH2 0x100 DUP1 DUP4 SLOAD DIV MUL DUP4 MSTORE SWAP2 PUSH1 0x20 ADD SWAP2 PUSH2 0x7D7 JUMP JUMPDEST DUP3 ADD SWAP2 SWAP1 PUSH1 0x0 MSTORE PUSH1 0x20 PUSH1 0x0 KECCAK256 SWAP1 JUMPDEST DUP2 SLOAD DUP2 MSTORE SWAP1 PUSH1 0x1 ADD SWAP1 PUSH1 0x20 ADD DUP1 DUP4 GT PUSH2 0x7BA JUMPI DUP3 SWAP1 SUB PUSH1 0x1F AND DUP3 ADD SWAP2 JUMPDEST POP POP POP POP POP SWAP9 POP DUP4 DUP1 SLOAD DUP1 PUSH1 0x20 MUL PUSH1 0x20 ADD PUSH1 0x40 MLOAD SWAP1 DUP2 ADD PUSH1 0x40 MSTORE DUP1 SWAP3 SWAP2 SWAP1 DUP2 DUP2 MSTORE PUSH1 0x20 ADD PUSH1 0x0 SWAP1 JUMPDEST DUP3 DUP3 LT ISZERO PUSH2 0x8AB JUMPI DUP4 DUP3 SWAP1 PUSH1 0x0 MSTORE PUSH1 0x20 PUSH1 0x0 KECCAK256 ADD DUP1 SLOAD PUSH2 0x81E SWAP1 PUSH2 0x2481 JUMP JUMPDEST DUP1 PUSH1 0x1F ADD PUSH1 0x20 DUP1 SWAP2 DIV MUL PUSH1 0x20 ADD PUSH1 0x40 MLOAD SWAP1 DUP2 ADD PUSH1 0x40 MSTORE DUP1 SWAP3 SWAP2 SWAP1 DUP2 DUP2 MSTORE PUSH1 0x20 ADD DUP3 DUP1 SLOAD PUSH2 0x84A SWAP1 PUSH2 0x2481 JUMP JUMPDEST DUP1 ISZERO PUSH2 0x897 JUMPI DUP1 PUSH1 0x1F LT PUSH2 0x86C JUMPI PUSH2 0x100 DUP1 DUP4 SLOAD DIV MUL DUP4 MSTORE SWAP2 PUSH1 0x20 ADD SWAP2 PUSH2 0x897 JUMP JUMPDEST DUP3 ADD SWAP2 SWAP1 PUSH1 0x0 MSTORE PUSH1 0x20 PUSH1 0x0 KECCAK256 SWAP1 JUMPDEST DUP2 SLOAD DUP2 MSTORE SWAP1 PUSH1 0x1 ADD SWAP1 PUSH1 0x20 ADD DUP1 DUP4 GT PUSH2 0x87A JUMPI DUP3 SWAP1 SUB PUSH1 0x1F AND DUP3 ADD SWAP2 JUMPDEST POP POP POP POP POP DUP2 MSTORE PUSH1 0x20 ADD SWAP1 PUSH1 0x1 ADD SWAP1 PUSH2 0x7FF JUMP JUMPDEST POP POP POP POP SWAP4 POP DUP3 DUP1 SLOAD DUP1 PUSH1 0x20 MUL PUSH1 0x20 ADD PUSH1 0x40 MLOAD SWAP1 DUP2 ADD PUSH1 0x40 MSTORE DUP1 SWAP3 SWAP2 SWAP1 DUP2 DUP2 MSTORE PUSH1 0x20 ADD DUP3 DUP1 SLOAD DUP1 ISZERO PUSH2 0x8FC JUMPI PUSH1 0x20 MUL DUP3 ADD SWAP2 SWAP1 PUSH1 0x0 MSTORE PUSH1 0x20 PUSH1 0x0 KECCAK256 SWAP1 JUMPDEST DUP2 SLOAD DUP2 MSTORE PUSH1 0x20 ADD SWAP1 PUSH1 0x1 ADD SWAP1 DUP1 DUP4 GT PUSH2 0x8E8 JUMPI JUMPDEST POP POP POP POP POP SWAP3 POP DUP2 DUP1 SLOAD DUP1 PUSH1 0x20 MUL PUSH1 0x20 ADD PUSH1 0x40 MLOAD SWAP1 DUP2 ADD PUSH1 0x40 MSTORE DUP1 SWAP3 SWAP2 SWAP1 DUP2 DUP2 MSTORE PUSH1 0x20 ADD DUP3 DUP1 SLOAD DUP1 ISZERO PUSH2 0x96E JUMPI PUSH1 0x20 MUL DUP3 ADD SWAP2 SWAP1 PUSH1 0x0 MSTORE PUSH1 0x20 PUSH1 0x0 KECCAK256 SWAP1 PUSH1 0x0 SWAP1 JUMPDEST DUP3 SLOAD PUSH2 0x100 DUP4 SWAP1 EXP SWAP1 DIV PUSH1 0xFF AND ISZERO ISZERO DUP2 MSTORE PUSH1 0x20 PUSH1 0x1 SWAP3 DUP4 ADD DUP2 DUP2 DIV SWAP5 DUP6 ADD SWAP5 SWAP1 SWAP4 SUB SWAP1 SWAP3 MUL SWAP2 ADD DUP1 DUP5 GT PUSH2 0x93D JUMPI SWAP1 POP JUMPDEST POP POP POP POP POP SWAP2 POP SWAP10 POP SWAP10 POP SWAP10 POP SWAP10 POP SWAP10 POP SWAP10 POP SWAP10 POP SWAP10 POP SWAP10 POP SWAP10 POP SWAP1 SWAP2 SWAP3 SWAP4 SWAP5 SWAP6 SWAP7 SWAP8 SWAP9 SWAP10 JUMP JUMPDEST PUSH1 0x0 DUP1 PUSH2 0x9A0 PUSH2 0x168B JUMP JUMPDEST SWAP1 POP DUP1 PUSH1 0x0 SUB PUSH2 0x9B4 JUMPI PUSH1 0x0 SWAP2 POP POP PUSH2 0xAA9 JUMP JUMPDEST PUSH1 0x0 DUP1 PUSH1 0x0 JUMPDEST DUP6 DUP2 LT ISZERO PUSH2 0xA79 JUMPI PUSH1 0x0 DUP8 DUP8 DUP4 DUP2 DUP2 LT PUSH2 0x9D6 JUMPI PUSH2 0x9D6 PUSH2 0x24B5 JUMP JUMPDEST SWAP1 POP PUSH1 0x20 MUL ADD PUSH1 0x20 DUP2 ADD SWAP1 PUSH2 0x9EB SWAP2 SWAP1 PUSH2 0x2374 JUMP JUMPDEST PUSH1 0x5 SLOAD SWAP1 SWAP2 POP PUSH1 0xFF PUSH2 0x100 SWAP1 SWAP2 DIV DUP2 AND SWAP1 DUP3 AND LT ISZERO PUSH2 0xA66 JUMPI PUSH1 0x1 PUSH1 0x1 PUSH1 0xA0 SHL SUB DUP10 AND PUSH1 0x0 SWAP1 DUP2 MSTORE PUSH1 0x9 PUSH1 0x20 SWAP1 DUP2 MSTORE PUSH1 0x40 DUP1 DUP4 KECCAK256 PUSH1 0xFF DUP6 AND DUP5 MSTORE SWAP1 SWAP2 MSTORE SWAP1 KECCAK256 SLOAD PUSH2 0xA35 SWAP1 DUP6 PUSH2 0x24E1 JUMP JUMPDEST SWAP4 POP PUSH1 0xB DUP2 PUSH1 0xFF AND DUP2 SLOAD DUP2 LT PUSH2 0xA4D JUMPI PUSH2 0xA4D PUSH2 0x24B5 JUMP JUMPDEST SWAP1 PUSH1 0x0 MSTORE PUSH1 0x20 PUSH1 0x0 KECCAK256 ADD SLOAD DUP4 PUSH2 0xA63 SWAP2 SWAP1 PUSH2 0x24E1 JUMP JUMPDEST SWAP3 POP JUMPDEST POP DUP1 PUSH2 0xA71 DUP2 PUSH2 0x24F4 JUMP JUMPDEST SWAP2 POP POP PUSH2 0x9BA JUMP JUMPDEST POP DUP1 PUSH1 0x0 SUB PUSH2 0xA8E JUMPI PUSH1 0x0 SWAP4 POP POP POP POP PUSH2 0xAA9 JUMP JUMPDEST DUP1 PUSH2 0xA99 DUP5 DUP5 PUSH2 0x250D JUMP JUMPDEST PUSH2 0xAA3 SWAP2 SWAP1 PUSH2 0x253A JUMP JUMPDEST SWAP4 POP POP POP POP JUMPDEST SWAP4 SWAP3 POP POP POP JUMP JUMPDEST PUSH1 0x60 PUSH1 0x7 DUP1 SLOAD DUP1 PUSH1 0x20 MUL PUSH1 0x20 ADD PUSH1 0x40 MLOAD SWAP1 DUP2 ADD PUSH1 0x40 MSTORE DUP1 SWAP3 SWAP2 SWAP1 DUP2 DUP2 MSTORE PUSH1 0x20 ADD DUP3 DUP1 SLOAD DUP1 ISZERO PUSH2 0xB1E JUMPI PUSH1 0x20 MUL DUP3 ADD SWAP2 SWAP1 PUSH1 0x0 MSTORE PUSH1 0x20 PUSH1 0x0 KECCAK256 SWAP1 PUSH1 0x0 SWAP1 JUMPDEST DUP3 SLOAD PUSH2 0x100 DUP4 SWAP1 EXP SWAP1 DIV PUSH1 0xFF AND ISZERO ISZERO DUP2 MSTORE PUSH1 0x20 PUSH1 0x1 SWAP3 DUP4 ADD DUP2 DUP2 DIV SWAP5 DUP6 ADD SWAP5 SWAP1 SWAP4 SUB SWAP1 SWAP3 MUL SWAP2 ADD DUP1 DUP5 GT PUSH2 0xAED JUMPI SWAP1 POP JUMPDEST POP POP POP POP POP SWAP1 POP SWAP1 JUMP JUMPDEST PUSH1 0x0 PUSH1 0x5 SLOAD PUSH1 0xFF AND PUSH1 0x2 DUP2 GT ISZERO PUSH2 0xB41 JUMPI PUSH2 0xB41 PUSH2 0x2128 JUMP JUMPDEST EQ PUSH2 0xB5F JUMPI PUSH1 0x40 MLOAD PUSH4 0x5A90BB8D PUSH1 0xE1 SHL DUP2 MSTORE PUSH1 0x4 ADD PUSH1 0x40 MLOAD DUP1 SWAP2 SUB SWAP1 REVERT JUMPDEST PUSH1 0x3 SLOAD TIMESTAMP LT PUSH2 0xB81 JUMPI PUSH1 0x40 MLOAD PUSH4 0x262B7531 PUSH1 0xE2 SHL DUP2 MSTORE PUSH1 0x4 ADD PUSH1 0x40 MLOAD DUP1 SWAP2 SUB SWAP1 REVERT JUMPDEST PUSH1 0xC SLOAD PUSH1 0xFF AND ISZERO PUSH2 0xBA5 JUMPI PUSH1 0x40 MLOAD PUSH4 0x45F5CE8B PUSH1 0xE1 SHL DUP2 MSTORE PUSH1 0x4 ADD PUSH1 0x40 MLOAD DUP1 SWAP2 SUB SWAP1 REVERT JUMPDEST PUSH1 0xC DUP1 SLOAD PUSH1 0xFF NOT AND PUSH1 0x1 OR SWAP1 SSTORE PUSH1 0x5 SLOAD PUSH2 0x100 SWAP1 DIV PUSH1 0xFF SWAP1 DUP2 AND SWAP1 DUP3 AND LT PUSH2 0xBE0 JUMPI PUSH1 0x40 MLOAD PUSH4 0x2A719531 PUSH1 0xE0 SHL DUP2 MSTORE PUSH1 0x4 ADD PUSH1 0x40 MLOAD DUP1 SWAP2 SUB SWAP1 REVERT JUMPDEST CALLVALUE PUSH1 0x0 SUB PUSH2 0xC01 JUMPI PUSH1 0x40 MLOAD PUSH4 0x162908E3 PUSH1 0xE1 SHL DUP2 MSTORE PUSH1 0x4 ADD PUSH1 0x40 MLOAD DUP1 SWAP2 SUB SWAP1 REVERT JUMPDEST CALLER PUSH1 0x0 SWAP1 DUP2 MSTORE PUSH1 0x9 PUSH1 0x20 SWAP1 DUP2 MSTORE PUSH1 0x40 DUP1 DUP4 KECCAK256 PUSH1 0xFF DUP6 AND DUP5 MSTORE SWAP1 SWAP2 MSTORE DUP2 KECCAK256 DUP1 SLOAD CALLVALUE SWAP3 SWAP1 PUSH2 0xC2E SWAP1 DUP5 SWAP1 PUSH2 0x24E1 JUMP JUMPDEST SWAP3 POP POP DUP2 SWAP1 SSTORE POP CALLVALUE PUSH1 0xB DUP3 PUSH1 0xFF AND DUP2 SLOAD DUP2 LT PUSH2 0xC4C JUMPI PUSH2 0xC4C PUSH2 0x24B5 JUMP JUMPDEST SWAP1 PUSH1 0x0 MSTORE PUSH1 0x20 PUSH1 0x0 KECCAK256 ADD PUSH1 0x0 DUP3 DUP3 SLOAD PUSH2 0xC65 SWAP2 SWAP1 PUSH2 0x24E1 JUMP JUMPDEST SWAP1 SWAP2 SSTORE POP POP PUSH1 0x40 DUP1 MLOAD PUSH1 0xFF DUP4 AND DUP2 MSTORE CALLVALUE PUSH1 0x20 DUP3 ADD MSTORE CALLER SWAP2 PUSH32 0x2AF4933E21B80ECD7F6A3577FAEEE6C93449142BD87DDFA24A82B344BE71DD17 SWAP2 ADD PUSH1 0x40 MLOAD DUP1 SWAP2 SUB SWAP1 LOG2 POP PUSH1 0xC DUP1 SLOAD PUSH1 0xFF NOT AND SWAP1 SSTORE JUMP JUMPDEST PUSH1 0x5 SLOAD PUSH1 0x60 SWAP1 PUSH1 0xFF PUSH2 0x100 SWAP1 SWAP2 DIV DUP2 AND SWAP1 DUP4 AND LT PUSH2 0xCE5 JUMPI PUSH1 0x40 MLOAD PUSH4 0x2A719531 PUSH1 0xE0 SHL DUP2 MSTORE PUSH1 0x4 ADD PUSH1 0x40 MLOAD DUP1 SWAP2 SUB SWAP1 REVERT JUMPDEST PUSH1 0x6 DUP3 PUSH1 0xFF AND DUP2 SLOAD DUP2 LT PUSH2 0xCFB JUMPI PUSH2 0xCFB PUSH2 0x24B5 JUMP JUMPDEST SWAP1 PUSH1 0x0 MSTORE PUSH1 0x20 PUSH1 0x0 KECCAK256 ADD DUP1 SLOAD PUSH2 0xD10 SWAP1 PUSH2 0x2481 JUMP JUMPDEST DUP1 PUSH1 0x1F ADD PUSH1 0x20 DUP1 SWAP2 DIV MUL PUSH1 0x20 ADD PUSH1 0x40 MLOAD SWAP1 DUP2 ADD PUSH1 0x40 MSTORE DUP1 SWAP3 SWAP2 SWAP1 DUP2 DUP2 MSTORE PUSH1 0x20 ADD DUP3 DUP1 SLOAD PUSH2 0xD3C SWAP1 PUSH2 0x2481 JUMP JUMPDEST DUP1 ISZERO PUSH2 0xD89 JUMPI DUP1 PUSH1 0x1F LT PUSH2 0xD5E JUMPI PUSH2 0x100 DUP1 DUP4 SLOAD DIV MUL DUP4 MSTORE SWAP2 PUSH1 0x20 ADD SWAP2 PUSH2 0xD89 JUMP JUMPDEST DUP3 ADD SWAP2 SWAP1 PUSH1 0x0 MSTORE PUSH1 0x20 PUSH1 0x0 KECCAK256 SWAP1 JUMPDEST DUP2 SLOAD DUP2 MSTORE SWAP1 PUSH1 0x1 ADD SWAP1 PUSH1 0x20 ADD DUP1 DUP4 GT PUSH2 0xD6C JUMPI DUP3 SWAP1 SUB PUSH1 0x1F AND DUP3 ADD SWAP2 JUMPDEST POP POP POP POP POP SWAP1 POP SWAP2 SWAP1 POP JUMP JUMPDEST PUSH1 0x2 DUP1 SLOAD PUSH2 0xDA2 SWAP1 PUSH2 0x2481 JUMP JUMPDEST DUP1 PUSH1 0x1F ADD PUSH1 0x20 DUP1 SWAP2 DIV MUL PUSH1 0x20 ADD PUSH1 0x40 MLOAD SWAP1 DUP2 ADD PUSH1 0x40 MSTORE DUP1 SWAP3 SWAP2 SWAP1 DUP2 DUP2 MSTORE PUSH1 0x20 ADD DUP3 DUP1 SLOAD PUSH2 0xDCE SWAP1 PUSH2 0x2481 JUMP JUMPDEST DUP1 ISZERO PUSH2 0xE1B JUMPI DUP1 PUSH1 0x1F LT PUSH2 0xDF0 JUMPI PUSH2 0x100 DUP1 DUP4 SLOAD DIV MUL DUP4 MSTORE SWAP2 PUSH1 0x20 ADD SWAP2 PUSH2 0xE1B JUMP JUMPDEST DUP3 ADD SWAP2 SWAP1 PUSH1 0x0 MSTORE PUSH1 0x20 PUSH1 0x0 KECCAK256 SWAP1 JUMPDEST DUP2 SLOAD DUP2 MSTORE SWAP1 PUSH1 0x1 ADD SWAP1 PUSH1 0x20 ADD DUP1 DUP4 GT PUSH2 0xDFE JUMPI DUP3 SWAP1 SUB PUSH1 0x1F AND DUP3 ADD SWAP2 JUMPDEST POP POP POP POP POP DUP2 JUMP JUMPDEST PUSH1 0x7 DUP2 DUP2 SLOAD DUP2 LT PUSH2 0xE33 JUMPI PUSH1 0x0 DUP1 REVERT JUMPDEST SWAP1 PUSH1 0x0 MSTORE PUSH1 0x20 PUSH1 0x0 KECCAK256 SWAP1 PUSH1 0x20 SWAP2 DUP3 DUP3 DIV ADD SWAP2 SWAP1 MOD SWAP2 POP SLOAD SWAP1 PUSH2 0x100 EXP SWAP1 DIV PUSH1 0xFF AND DUP2 JUMP JUMPDEST PUSH1 0x60 PUSH1 0x0 PUSH2 0xE63 PUSH2 0x168B JUMP JUMPDEST PUSH1 0x5 SLOAD SWAP1 SWAP2 POP PUSH1 0x0 SWAP1 PUSH2 0x100 SWAP1 DIV PUSH1 0xFF AND PUSH8 0xFFFFFFFFFFFFFFFF DUP2 GT ISZERO PUSH2 0xE8C JUMPI PUSH2 0xE8C PUSH2 0x254E JUMP JUMPDEST PUSH1 0x40 MLOAD SWAP1 DUP1 DUP3 MSTORE DUP1 PUSH1 0x20 MUL PUSH1 0x20 ADD DUP3 ADD PUSH1 0x40 MSTORE DUP1 ISZERO PUSH2 0xEB5 JUMPI DUP2 PUSH1 0x20 ADD PUSH1 0x20 DUP3 MUL DUP1 CALLDATASIZE DUP4 CALLDATACOPY ADD SWAP1 POP JUMPDEST POP SWAP1 POP DUP2 PUSH1 0x0 SUB PUSH2 0xF33 JUMPI PUSH1 0x5 SLOAD PUSH1 0x0 SWAP1 PUSH2 0xEDA SWAP1 PUSH2 0x100 SWAP1 DIV PUSH1 0xFF AND PUSH2 0x2710 PUSH2 0x2564 JUMP JUMPDEST PUSH2 0xFFFF AND SWAP1 POP PUSH1 0x0 JUMPDEST PUSH1 0x5 SLOAD PUSH1 0xFF PUSH2 0x100 SWAP1 SWAP2 DIV DUP2 AND SWAP1 DUP3 AND LT ISZERO PUSH2 0xF2C JUMPI DUP2 DUP4 DUP3 PUSH1 0xFF AND DUP2 MLOAD DUP2 LT PUSH2 0xF0F JUMPI PUSH2 0xF0F PUSH2 0x24B5 JUMP JUMPDEST PUSH1 0x20 SWAP1 DUP2 MUL SWAP2 SWAP1 SWAP2 ADD ADD MSTORE DUP1 PUSH2 0xF24 DUP2 PUSH2 0x2585 JUMP JUMPDEST SWAP2 POP POP PUSH2 0xEE3 JUMP JUMPDEST POP POP PUSH2 0xFB9 JUMP JUMPDEST PUSH1 0x0 JUMPDEST PUSH1 0x5 SLOAD PUSH1 0xFF PUSH2 0x100 SWAP1 SWAP2 DIV DUP2 AND SWAP1 DUP3 AND LT ISZERO PUSH2 0xFB7 JUMPI DUP3 PUSH1 0xB DUP3 PUSH1 0xFF AND DUP2 SLOAD DUP2 LT PUSH2 0xF63 JUMPI PUSH2 0xF63 PUSH2 0x24B5 JUMP JUMPDEST SWAP1 PUSH1 0x0 MSTORE PUSH1 0x20 PUSH1 0x0 KECCAK256 ADD SLOAD PUSH2 0x2710 PUSH2 0xF7B SWAP2 SWAP1 PUSH2 0x250D JUMP JUMPDEST PUSH2 0xF85 SWAP2 SWAP1 PUSH2 0x253A JUMP JUMPDEST DUP3 DUP3 PUSH1 0xFF AND DUP2 MLOAD DUP2 LT PUSH2 0xF9A JUMPI PUSH2 0xF9A PUSH2 0x24B5 JUMP JUMPDEST PUSH1 0x20 SWAP1 DUP2 MUL SWAP2 SWAP1 SWAP2 ADD ADD MSTORE DUP1 PUSH2 0xFAF DUP2 PUSH2 0x2585 JUMP JUMPDEST SWAP2 POP POP PUSH2 0xF36 JUMP JUMPDEST POP JUMPDEST SWAP3 SWAP2 POP POP JUMP JUMPDEST PUSH1 0x0 SLOAD PUSH1 0x1 PUSH1 0x1 PUSH1 0xA0 SHL SUB AND CALLER EQ PUSH2 0xFEA JUMPI PUSH1 0x40 MLOAD PUSH4 0xEA8E4EB5 PUSH1 0xE0 SHL DUP2 MSTORE PUSH1 0x4 ADD PUSH1 0x40 MLOAD DUP1 SWAP2 SUB SWAP1 REVERT JUMPDEST PUSH1 0x1 SLOAD PUSH1 0x1 PUSH1 0x1 PUSH1 0xA0 SHL SUB AND ISZERO PUSH2 0x1014 JUMPI PUSH1 0x40 MLOAD PUSH4 0xDCDC26F PUSH1 0xE2 SHL DUP2 MSTORE PUSH1 0x4 ADD PUSH1 0x40 MLOAD DUP1 SWAP2 SUB SWAP1 REVERT JUMPDEST PUSH1 0x1 PUSH1 0x1 PUSH1 0xA0 SHL SUB DUP2 AND PUSH2 0x103B JUMPI PUSH1 0x40 MLOAD PUSH4 0x162908E3 PUSH1 0xE1 SHL DUP2 MSTORE PUSH1 0x4 ADD PUSH1 0x40 MLOAD DUP1 SWAP2 SUB SWAP1 REVERT JUMPDEST PUSH1 0x1 DUP1 SLOAD PUSH1 0x1 PUSH1 0x1 PUSH1 0xA0 SHL SUB NOT AND PUSH1 0x1 PUSH1 0x1 PUSH1 0xA0 SHL SUB SWAP3 SWAP1 SWAP3 AND SWAP2 SWAP1 SWAP2 OR SWAP1 SSTORE JUMP JUMPDEST PUSH1 0x5 SLOAD PUSH1 0x0 SWAP1 PUSH1 0xFF PUSH2 0x100 SWAP1 SWAP2 DIV DUP2 AND SWAP1 DUP5 AND LT PUSH2 0x107D JUMPI POP PUSH1 0x0 PUSH2 0xFB9 JUMP JUMPDEST PUSH1 0x0 PUSH2 0x1087 PUSH2 0x168B JUMP JUMPDEST SWAP1 POP DUP1 PUSH1 0x0 SUB PUSH2 0x109B JUMPI PUSH1 0x0 SWAP2 POP POP PUSH2 0xFB9 JUMP JUMPDEST DUP1 PUSH1 0xB DUP6 PUSH1 0xFF AND DUP2 SLOAD DUP2 LT PUSH2 0x10B2 JUMPI PUSH2 0x10B2 PUSH2 0x24B5 JUMP JUMPDEST SWAP1 PUSH1 0x0 MSTORE PUSH1 0x20 PUSH1 0x0 KECCAK256 ADD SLOAD DUP5 PUSH2 0x10C8 SWAP2 SWAP1 PUSH2 0x250D JUMP JUMPDEST PUSH2 0x10D2 SWAP2 SWAP1 PUSH2 0x253A JUMP JUMPDEST SWAP5 SWAP4 POP POP POP POP JUMP JUMPDEST PUSH1 0x5 SLOAD PUSH1 0x60 SWAP1 PUSH1 0x0 SWAP1 DUP2 SWAP1 PUSH2 0x100 SWAP1 DIV PUSH1 0xFF AND PUSH8 0xFFFFFFFFFFFFFFFF DUP2 GT ISZERO PUSH2 0x1105 JUMPI PUSH2 0x1105 PUSH2 0x254E JUMP JUMPDEST PUSH1 0x40 MLOAD SWAP1 DUP1 DUP3 MSTORE DUP1 PUSH1 0x20 MUL PUSH1 0x20 ADD DUP3 ADD PUSH1 0x40 MSTORE DUP1 ISZERO PUSH2 0x112E JUMPI DUP2 PUSH1 0x20 ADD PUSH1 0x20 DUP3 MUL DUP1 CALLDATASIZE DUP4 CALLDATACOPY ADD SWAP1 POP JUMPDEST POP SWAP1 POP PUSH1 0x0 JUMPDEST PUSH1 0x5 SLOAD PUSH1 0xFF PUSH2 0x100 SWAP1 SWAP2 DIV DUP2 AND SWAP1 DUP3 AND LT ISZERO PUSH2 0x11A3 JUMPI PUSH1 0x1 PUSH1 0x1 PUSH1 0xA0 SHL SUB DUP6 AND PUSH1 0x0 SWAP1 DUP2 MSTORE PUSH1 0x9 PUSH1 0x20 SWAP1 DUP2 MSTORE PUSH1 0x40 DUP1 DUP4 KECCAK256 PUSH1 0xFF DUP6 AND DUP1 DUP6 MSTORE SWAP3 MSTORE SWAP1 SWAP2 KECCAK256 SLOAD DUP4 MLOAD SWAP1 SWAP2 DUP5 SWAP2 DUP2 LT PUSH2 0x1186 JUMPI PUSH2 0x1186 PUSH2 0x24B5 JUMP JUMPDEST PUSH1 0x20 SWAP1 DUP2 MUL SWAP2 SWAP1 SWAP2 ADD ADD MSTORE DUP1 PUSH2 0x119B DUP2 PUSH2 0x2585 JUMP JUMPDEST SWAP2 POP POP PUSH2 0x1134 JUMP JUMPDEST POP PUSH1 0x1 PUSH1 0x1 PUSH1 0xA0 SHL SUB SWAP1 SWAP4 AND PUSH1 0x0 SWAP1 DUP2 MSTORE PUSH1 0xA PUSH1 0x20 MSTORE PUSH1 0x40 SWAP1 KECCAK256 SLOAD SWAP3 SWAP4 PUSH1 0xFF SWAP1 SWAP4 AND SWAP3 SWAP2 POP POP JUMP JUMPDEST PUSH1 0x0 SLOAD PUSH1 0x1 PUSH1 0x1 PUSH1 0xA0 SHL SUB AND CALLER EQ PUSH2 0x11F6 JUMPI PUSH1 0x40 MLOAD PUSH4 0xEA8E4EB5 PUSH1 0xE0 SHL DUP2 MSTORE PUSH1 0x4 ADD PUSH1 0x40 MLOAD DUP1 SWAP2 SUB SWAP1 REVERT JUMPDEST PUSH1 0x0 PUSH1 0x5 SLOAD PUSH1 0xFF AND PUSH1 0x2 DUP2 GT ISZERO PUSH2 0x120F JUMPI PUSH2 0x120F PUSH2 0x2128 JUMP JUMPDEST EQ PUSH2 0x122D JUMPI PUSH1 0x40 MLOAD PUSH4 0x5A90BB8D PUSH1 0xE1 SHL DUP2 MSTORE PUSH1 0x4 ADD PUSH1 0x40 MLOAD DUP1 SWAP2 SUB SWAP1 REVERT JUMPDEST PUSH1 0x3 SLOAD TIMESTAMP LT ISZERO PUSH2 0x1250 JUMPI PUSH1 0x40 MLOAD PUSH4 0x493AB149 PUSH1 0xE1 SHL DUP2 MSTORE PUSH1 0x4 ADD PUSH1 0x40 MLOAD DUP1 SWAP2 SUB SWAP1 REVERT JUMPDEST PUSH1 0x0 DUP2 SWAP1 SUB PUSH2 0x1272 JUMPI PUSH1 0x40 MLOAD PUSH4 0x62A02605 PUSH1 0xE0 SHL DUP2 MSTORE PUSH1 0x4 ADD PUSH1 0x40 MLOAD DUP1 SWAP2 SUB SWAP1 REVERT JUMPDEST PUSH1 0x5 SLOAD PUSH2 0x100 SWAP1 DIV PUSH1 0xFF AND DUP2 GT ISZERO PUSH2 0x129D JUMPI PUSH1 0x40 MLOAD PUSH4 0x23758251 PUSH1 0xE2 SHL DUP2 MSTORE PUSH1 0x4 ADD PUSH1 0x40 MLOAD DUP1 SWAP2 SUB SWAP1 REVERT JUMPDEST PUSH1 0x0 JUMPDEST DUP2 DUP2 LT ISZERO PUSH2 0x13AB JUMPI PUSH1 0x0 DUP4 DUP4 DUP4 DUP2 DUP2 LT PUSH2 0x12BC JUMPI PUSH2 0x12BC PUSH2 0x24B5 JUMP JUMPDEST SWAP1 POP PUSH1 0x20 MUL ADD PUSH1 0x20 DUP2 ADD SWAP1 PUSH2 0x12D1 SWAP2 SWAP1 PUSH2 0x2374 JUMP JUMPDEST PUSH1 0x5 SLOAD SWAP1 SWAP2 POP PUSH1 0xFF PUSH2 0x100 SWAP1 SWAP2 DIV DUP2 AND SWAP1 DUP3 AND LT PUSH2 0x1302 JUMPI PUSH1 0x40 MLOAD PUSH4 0x2A719531 PUSH1 0xE0 SHL DUP2 MSTORE PUSH1 0x4 ADD PUSH1 0x40 MLOAD DUP1 SWAP2 SUB SWAP1 REVERT JUMPDEST PUSH1 0x7 DUP2 PUSH1 0xFF AND DUP2 SLOAD DUP2 LT PUSH2 0x1318 JUMPI PUSH2 0x1318 PUSH2 0x24B5 JUMP JUMPDEST SWAP1 PUSH1 0x0 MSTORE PUSH1 0x20 PUSH1 0x0 KECCAK256 SWAP1 PUSH1 0x20 SWAP2 DUP3 DUP3 DIV ADD SWAP2 SWAP1 MOD SWAP1 SLOAD SWAP1 PUSH2 0x100 EXP SWAP1 DIV PUSH1 0xFF AND ISZERO PUSH2 0x1356 JUMPI PUSH1 0x40 MLOAD PUSH4 0x5A1E9CD PUSH1 0xE1 SHL DUP2 MSTORE PUSH1 0x4 ADD PUSH1 0x40 MLOAD DUP1 SWAP2 SUB SWAP1 REVERT JUMPDEST PUSH1 0x1 PUSH1 0x7 DUP3 PUSH1 0xFF AND DUP2 SLOAD DUP2 LT PUSH2 0x136E JUMPI PUSH2 0x136E PUSH2 0x24B5 JUMP JUMPDEST SWAP1 PUSH1 0x0 MSTORE PUSH1 0x20 PUSH1 0x0 KECCAK256 SWAP1 PUSH1 0x20 SWAP2 DUP3 DUP3 DIV ADD SWAP2 SWAP1 MOD PUSH2 0x100 EXP DUP2 SLOAD DUP2 PUSH1 0xFF MUL NOT AND SWAP1 DUP4 ISZERO ISZERO MUL OR SWAP1 SSTORE POP POP DUP1 DUP1 PUSH2 0x13A3 SWAP1 PUSH2 0x24F4 JUMP JUMPDEST SWAP2 POP POP PUSH2 0x12A0 JUMP JUMPDEST POP PUSH1 0x8 DUP1 SLOAD PUSH1 0x1 PUSH1 0xFF NOT SWAP2 DUP3 AND DUP2 OR SWAP1 SWAP3 SSTORE PUSH1 0x5 DUP1 SLOAD SWAP1 SWAP2 AND SWAP1 SWAP2 OR SWAP1 SSTORE PUSH32 0x442DB8BB9FC4313FC02C098D0FD4D70FEAD65B4DECA9C5087724E3F02927C208 DUP3 DUP3 PUSH2 0x13F4 PUSH2 0x168B JUMP JUMPDEST PUSH1 0x40 MLOAD PUSH2 0x1403 SWAP4 SWAP3 SWAP2 SWAP1 PUSH2 0x25A4 JUMP JUMPDEST PUSH1 0x40 MLOAD DUP1 SWAP2 SUB SWAP1 LOG1 POP POP JUMP JUMPDEST PUSH1 0x1 SLOAD PUSH1 0x1 PUSH1 0x1 PUSH1 0xA0 SHL SUB AND CALLER EQ PUSH2 0x143A JUMPI PUSH1 0x40 MLOAD PUSH4 0x5D154FE1 PUSH1 0xE1 SHL DUP2 MSTORE PUSH1 0x4 ADD PUSH1 0x40 MLOAD DUP1 SWAP2 SUB SWAP1 REVERT JUMPDEST PUSH1 0x0 PUSH1 0x5 SLOAD PUSH1 0xFF AND PUSH1 0x2 DUP2 GT ISZERO PUSH2 0x1453 JUMPI PUSH2 0x1453 PUSH2 0x2128 JUMP JUMPDEST EQ PUSH2 0x1471 JUMPI PUSH1 0x40 MLOAD PUSH4 0x5A90BB8D PUSH1 0xE1 SHL DUP2 MSTORE PUSH1 0x4 ADD PUSH1 0x40 MLOAD DUP1 SWAP2 SUB SWAP1 REVERT JUMPDEST PUSH1 0x3 SLOAD TIMESTAMP LT ISZERO PUSH2 0x1494 JUMPI PUSH1 0x40 MLOAD PUSH4 0x493AB149 PUSH1 0xE1 SHL DUP2 MSTORE PUSH1 0x4 ADD PUSH1 0x40 MLOAD DUP1 SWAP2 SUB SWAP1 REVERT JUMPDEST PUSH1 0x0 DUP2 SWAP1 SUB PUSH2 0x14B6 JUMPI PUSH1 0x40 MLOAD PUSH4 0x62A02605 PUSH1 0xE0 SHL DUP2 MSTORE PUSH1 0x4 ADD PUSH1 0x40 MLOAD DUP1 SWAP2 SUB SWAP1 REVERT JUMPDEST PUSH1 0x5 SLOAD PUSH2 0x100 SWAP1 DIV PUSH1 0xFF AND DUP2 GT ISZERO PUSH2 0x14E1 JUMPI PUSH1 0x40 MLOAD PUSH4 0x23758251 PUSH1 0xE2 SHL DUP2 MSTORE PUSH1 0x4 ADD PUSH1 0x40 MLOAD DUP1 SWAP2 SUB SWAP1 REVERT JUMPDEST PUSH1 0x0 JUMPDEST DUP2 DUP2 LT ISZERO PUSH2 0x13AB JUMPI PUSH1 0x0 DUP4 DUP4 DUP4 DUP2 DUP2 LT PUSH2 0x1500 JUMPI PUSH2 0x1500 PUSH2 0x24B5 JUMP JUMPDEST SWAP1 POP PUSH1 0x20 MUL ADD PUSH1 0x20 DUP2 ADD SWAP1 PUSH2 0x1515 SWAP2 SWAP1 PUSH2 0x2374 JUMP JUMPDEST PUSH1 0x5 SLOAD SWAP1 SWAP2 POP PUSH1 0xFF PUSH2 0x100 SWAP1 SWAP2 DIV DUP2 AND SWAP1 DUP3 AND LT PUSH2 0x1546 JUMPI PUSH1 0x40 MLOAD PUSH4 0x2A719531 PUSH1 0xE0 SHL DUP2 MSTORE PUSH1 0x4 ADD PUSH1 0x40 MLOAD DUP1 SWAP2 SUB SWAP1 REVERT JUMPDEST PUSH1 0x7 DUP2 PUSH1 0xFF AND DUP2 SLOAD DUP2 LT PUSH2 0x155C JUMPI PUSH2 0x155C PUSH2 0x24B5 JUMP JUMPDEST SWAP1 PUSH1 0x0 MSTORE PUSH1 0x20 PUSH1 0x0 KECCAK256 SWAP1 PUSH1 0x20 SWAP2 DUP3 DUP3 DIV ADD SWAP2 SWAP1 MOD SWAP1 SLOAD SWAP1 PUSH2 0x100 EXP SWAP1 DIV PUSH1 0xFF AND ISZERO PUSH2 0x159A JUMPI PUSH1 0x40 MLOAD PUSH4 0x5A1E9CD PUSH1 0xE1 SHL DUP2 MSTORE PUSH1 0x4 ADD PUSH1 0x40 MLOAD DUP1 SWAP2 SUB SWAP1 REVERT JUMPDEST PUSH1 0x1 PUSH1 0x7 DUP3 PUSH1 0xFF AND DUP2 SLOAD DUP2 LT PUSH2 0x15B2 JUMPI PUSH2 0x15B2 PUSH2 0x24B5 JUMP JUMPDEST SWAP1 PUSH1 0x0 MSTORE PUSH1 0x20 PUSH1 0x0 KECCAK256 SWAP1 PUSH1 0x20 SWAP2 DUP3 DUP3 DIV ADD SWAP2 SWAP1 MOD PUSH2 0x100 EXP DUP2 SLOAD DUP2 PUSH1 0xFF MUL NOT AND SWAP1 DUP4 ISZERO ISZERO MUL OR SWAP1 SSTORE POP POP DUP1 DUP1 PUSH2 0x15E7 SWAP1 PUSH2 0x24F4 JUMP JUMPDEST SWAP2 POP POP PUSH2 0x14E4 JUMP JUMPDEST PUSH1 0x0 SLOAD PUSH1 0x1 PUSH1 0x1 PUSH1 0xA0 SHL SUB AND CALLER EQ PUSH2 0x161A JUMPI PUSH1 0x40 MLOAD PUSH4 0xEA8E4EB5 PUSH1 0xE0 SHL DUP2 MSTORE PUSH1 0x4 ADD PUSH1 0x40 MLOAD DUP1 SWAP2 SUB SWAP1 REVERT JUMPDEST PUSH1 0x0 PUSH1 0x5 SLOAD PUSH1 0xFF AND PUSH1 0x2 DUP2 GT ISZERO PUSH2 0x1633 JUMPI PUSH2 0x1633 PUSH2 0x2128 JUMP JUMPDEST EQ PUSH2 0x1651 JUMPI PUSH1 0x40 MLOAD PUSH4 0x5A90BB8D PUSH1 0xE1 SHL DUP2 MSTORE PUSH1 0x4 ADD PUSH1 0x40 MLOAD DUP1 SWAP2 SUB SWAP1 REVERT JUMPDEST PUSH1 0x5 DUP1 SLOAD PUSH1 0xFF NOT AND PUSH1 0x2 OR SWAP1 SSTORE PUSH1 0x40 MLOAD CALLER SWAP1 PUSH32 0x996FAFAB197BEB99FFF6FDC975BB6CF90352F2C733C76EF37C2E27F17D7D424B SWAP1 PUSH1 0x0 SWAP1 LOG2 JUMP JUMPDEST PUSH1 0x0 DUP1 DUP1 JUMPDEST PUSH1 0x5 SLOAD PUSH1 0xFF PUSH2 0x100 SWAP1 SWAP2 DIV DUP2 AND SWAP1 DUP3 AND LT ISZERO PUSH2 0x16E6 JUMPI PUSH1 0xB DUP2 PUSH1 0xFF AND DUP2 SLOAD DUP2 LT PUSH2 0x16BC JUMPI PUSH2 0x16BC PUSH2 0x24B5 JUMP JUMPDEST SWAP1 PUSH1 0x0 MSTORE PUSH1 0x20 PUSH1 0x0 KECCAK256 ADD SLOAD DUP3 PUSH2 0x16D2 SWAP2 SWAP1 PUSH2 0x24E1 JUMP JUMPDEST SWAP2 POP DUP1 PUSH2 0x16DE DUP2 PUSH2 0x2585 JUMP JUMPDEST SWAP2 POP POP PUSH2 0x1690 JUMP JUMPDEST POP SWAP2 SWAP1 POP JUMP JUMPDEST PUSH1 0x5 SLOAD PUSH1 0x0 SWAP1 PUSH1 0xFF PUSH2 0x100 SWAP1 SWAP2 DIV DUP2 AND SWAP1 DUP4 AND LT PUSH2 0x171D JUMPI PUSH1 0x40 MLOAD PUSH4 0x2A719531 PUSH1 0xE0 SHL DUP2 MSTORE PUSH1 0x4 ADD PUSH1 0x40 MLOAD DUP1 SWAP2 SUB SWAP1 REVERT JUMPDEST PUSH1 0x0 PUSH2 0x1727 PUSH2 0x168B JUMP JUMPDEST SWAP1 POP DUP1 PUSH1 0x0 SUB PUSH2 0x1753 JUMPI PUSH1 0x5 SLOAD PUSH2 0x1748 SWAP1 PUSH2 0x100 SWAP1 DIV PUSH1 0xFF AND PUSH2 0x2710 PUSH2 0x2564 JUMP JUMPDEST PUSH2 0xFFFF AND SWAP4 SWAP3 POP POP POP JUMP JUMPDEST DUP1 PUSH1 0xB DUP5 PUSH1 0xFF AND DUP2 SLOAD DUP2 LT PUSH2 0x176A JUMPI PUSH2 0x176A PUSH2 0x24B5 JUMP JUMPDEST SWAP1 PUSH1 0x0 MSTORE PUSH1 0x20 PUSH1 0x0 KECCAK256 ADD SLOAD PUSH2 0x2710 PUSH2 0x1782 SWAP2 SWAP1 PUSH2 0x250D JUMP JUMPDEST PUSH2 0xAA9 SWAP2 SWAP1 PUSH2 0x253A JUMP JUMPDEST PUSH1 0x60 PUSH1 0x6 DUP1 SLOAD DUP1 PUSH1 0x20 MUL PUSH1 0x20 ADD PUSH1 0x40 MLOAD SWAP1 DUP2 ADD PUSH1 0x40 MSTORE DUP1 SWAP3 SWAP2 SWAP1 DUP2 DUP2 MSTORE PUSH1 0x20 ADD PUSH1 0x0 SWAP1 JUMPDEST DUP3 DUP3 LT ISZERO PUSH2 0x185C JUMPI DUP4 DUP3 SWAP1 PUSH1 0x0 MSTORE PUSH1 0x20 PUSH1 0x0 KECCAK256 ADD DUP1 SLOAD PUSH2 0x17CF SWAP1 PUSH2 0x2481 JUMP JUMPDEST DUP1 PUSH1 0x1F ADD PUSH1 0x20 DUP1 SWAP2 DIV MUL PUSH1 0x20 ADD PUSH1 0x40 MLOAD SWAP1 DUP2 ADD PUSH1 0x40 MSTORE DUP1 SWAP3 SWAP2 SWAP1 DUP2 DUP2 MSTORE PUSH1 0x20 ADD DUP3 DUP1 SLOAD PUSH2 0x17FB SWAP1 PUSH2 0x2481 JUMP JUMPDEST DUP1 ISZERO PUSH2 0x1848 JUMPI DUP1 PUSH1 0x1F LT PUSH2 0x181D JUMPI PUSH2 0x100 DUP1 DUP4 SLOAD DIV MUL DUP4 MSTORE SWAP2 PUSH1 0x20 ADD SWAP2 PUSH2 0x1848 JUMP JUMPDEST DUP3 ADD SWAP2 SWAP1 PUSH1 0x0 MSTORE PUSH1 0x20 PUSH1 0x0 KECCAK256 SWAP1 JUMPDEST DUP2 SLOAD DUP2 MSTORE SWAP1 PUSH1 0x1 ADD SWAP1 PUSH1 0x20 ADD DUP1 DUP4 GT PUSH2 0x182B JUMPI DUP3 SWAP1 SUB PUSH1 0x1F AND DUP3 ADD SWAP2 JUMPDEST POP POP POP POP POP DUP2 MSTORE PUSH1 0x20 ADD SWAP1 PUSH1 0x1 ADD SWAP1 PUSH2 0x17B0 JUMP JUMPDEST POP POP POP POP SWAP1 POP SWAP1 JUMP JUMPDEST PUSH1 0xC SLOAD PUSH1 0xFF AND ISZERO PUSH2 0x1889 JUMPI PUSH1 0x40 MLOAD PUSH4 0x45F5CE8B PUSH1 0xE1 SHL DUP2 MSTORE PUSH1 0x4 ADD PUSH1 0x40 MLOAD DUP1 SWAP2 SUB SWAP1 REVERT JUMPDEST PUSH1 0xC DUP1 SLOAD PUSH1 0xFF NOT AND PUSH1 0x1 SWAP1 DUP2 OR SWAP1 SWAP2 SSTORE PUSH1 0x5 SLOAD PUSH1 0xFF AND PUSH1 0x2 DUP2 GT ISZERO PUSH2 0x18B0 JUMPI PUSH2 0x18B0 PUSH2 0x2128 JUMP JUMPDEST EQ PUSH2 0x18CE JUMPI PUSH1 0x40 MLOAD PUSH4 0x174B6393 PUSH1 0xE1 SHL DUP2 MSTORE PUSH1 0x4 ADD PUSH1 0x40 MLOAD DUP1 SWAP2 SUB SWAP1 REVERT JUMPDEST CALLER PUSH1 0x0 SWAP1 DUP2 MSTORE PUSH1 0xA PUSH1 0x20 MSTORE PUSH1 0x40 SWAP1 KECCAK256 SLOAD PUSH1 0xFF AND ISZERO PUSH2 0x18FF JUMPI PUSH1 0x40 MLOAD PUSH4 0xC8D9EAB PUSH1 0xE3 SHL DUP2 MSTORE PUSH1 0x4 ADD PUSH1 0x40 MLOAD DUP1 SWAP2 SUB SWAP1 REVERT JUMPDEST PUSH1 0x0 DUP1 PUSH1 0x0 JUMPDEST PUSH1 0x5 SLOAD PUSH1 0xFF PUSH2 0x100 SWAP1 SWAP2 DIV DUP2 AND SWAP1 DUP3 AND LT ISZERO PUSH2 0x19C1 JUMPI PUSH1 0x7 DUP2 PUSH1 0xFF AND DUP2 SLOAD DUP2 LT PUSH2 0x1931 JUMPI PUSH2 0x1931 PUSH2 0x24B5 JUMP JUMPDEST SWAP1 PUSH1 0x0 MSTORE PUSH1 0x20 PUSH1 0x0 KECCAK256 SWAP1 PUSH1 0x20 SWAP2 DUP3 DUP3 DIV ADD SWAP2 SWAP1 MOD SWAP1 SLOAD SWAP1 PUSH2 0x100 EXP SWAP1 DIV PUSH1 0xFF AND ISZERO PUSH2 0x19AF JUMPI CALLER PUSH1 0x0 SWAP1 DUP2 MSTORE PUSH1 0x9 PUSH1 0x20 SWAP1 DUP2 MSTORE PUSH1 0x40 DUP1 DUP4 KECCAK256 PUSH1 0xFF DUP6 AND DUP5 MSTORE SWAP1 SWAP2 MSTORE SWAP1 KECCAK256 SLOAD PUSH2 0x197E SWAP1 DUP5 PUSH2 0x24E1 JUMP JUMPDEST SWAP3 POP PUSH1 0xB DUP2 PUSH1 0xFF AND DUP2 SLOAD DUP2 LT PUSH2 0x1996 JUMPI PUSH2 0x1996 PUSH2 0x24B5 JUMP JUMPDEST SWAP1 PUSH1 0x0 MSTORE PUSH1 0x20 PUSH1 0x0 KECCAK256 ADD SLOAD DUP3 PUSH2 0x19AC SWAP2 SWAP1 PUSH2 0x24E1 JUMP JUMPDEST SWAP2 POP JUMPDEST DUP1 PUSH2 0x19B9 DUP2 PUSH2 0x2585 JUMP JUMPDEST SWAP2 POP POP PUSH2 0x1905 JUMP JUMPDEST POP DUP2 PUSH1 0x0 SUB PUSH2 0x19E3 JUMPI PUSH1 0x40 MLOAD PUSH4 0x12D37EE5 PUSH1 0xE3 SHL DUP2 MSTORE PUSH1 0x4 ADD PUSH1 0x40 MLOAD DUP1 SWAP2 SUB SWAP1 REVERT JUMPDEST PUSH1 0x0 PUSH2 0x19ED PUSH2 0x168B JUMP JUMPDEST SWAP1 POP PUSH1 0x0 DUP3 PUSH2 0x19FC DUP4 DUP7 PUSH2 0x250D JUMP JUMPDEST PUSH2 0x1A06 SWAP2 SWAP1 PUSH2 0x253A JUMP JUMPDEST CALLER PUSH1 0x0 SWAP1 DUP2 MSTORE PUSH1 0xA PUSH1 0x20 MSTORE PUSH1 0x40 DUP2 KECCAK256 DUP1 SLOAD PUSH1 0xFF NOT AND PUSH1 0x1 OR SWAP1 SSTORE SWAP1 SWAP2 POP JUMPDEST PUSH1 0x5 SLOAD PUSH1 0xFF PUSH2 0x100 SWAP1 SWAP2 DIV DUP2 AND SWAP1 DUP3 AND LT ISZERO PUSH2 0x1A6A JUMPI CALLER PUSH1 0x0 SWAP1 DUP2 MSTORE PUSH1 0x9 PUSH1 0x20 SWAP1 DUP2 MSTORE PUSH1 0x40 DUP1 DUP4 KECCAK256 PUSH1 0xFF DUP6 AND DUP5 MSTORE SWAP1 SWAP2 MSTORE DUP2 KECCAK256 SSTORE DUP1 PUSH2 0x1A62 DUP2 PUSH2 0x2585 JUMP JUMPDEST SWAP2 POP POP PUSH2 0x1A24 JUMP JUMPDEST POP PUSH1 0x40 MLOAD PUSH1 0x0 SWAP1 CALLER SWAP1 DUP4 SWAP1 DUP4 DUP2 DUP2 DUP2 DUP6 DUP8 GAS CALL SWAP3 POP POP POP RETURNDATASIZE DUP1 PUSH1 0x0 DUP2 EQ PUSH2 0x1AAD JUMPI PUSH1 0x40 MLOAD SWAP2 POP PUSH1 0x1F NOT PUSH1 0x3F RETURNDATASIZE ADD AND DUP3 ADD PUSH1 0x40 MSTORE RETURNDATASIZE DUP3 MSTORE RETURNDATASIZE PUSH1 0x0 PUSH1 0x20 DUP5 ADD RETURNDATACOPY PUSH2 0x1AB2 JUMP JUMPDEST PUSH1 0x60 SWAP2 POP JUMPDEST POP POP SWAP1 POP DUP1 PUSH2 0x1AD4 JUMPI PUSH1 0x40 MLOAD PUSH4 0x12171D83 PUSH1 0xE3 SHL DUP2 MSTORE PUSH1 0x4 ADD PUSH1 0x40 MLOAD DUP1 SWAP2 SUB SWAP1 REVERT JUMPDEST PUSH1 0x40 MLOAD DUP3 DUP2 MSTORE CALLER SWAP1 PUSH32 0xD8138F8A3F377C5259CA548E70E4C2DE94F129F5A11036A15B69513CBA2B426A SWAP1 PUSH1 0x20 ADD JUMPDEST PUSH1 0x40 MLOAD DUP1 SWAP2 SUB SWAP1 LOG2 POP POP PUSH1 0xC DUP1 SLOAD PUSH1 0xFF NOT AND SWAP1 SSTORE POP POP POP JUMP JUMPDEST PUSH1 0xC SLOAD PUSH1 0xFF AND ISZERO PUSH2 0x1B3F JUMPI PUSH1 0x40 MLOAD PUSH4 0x45F5CE8B PUSH1 0xE1 SHL DUP2 MSTORE PUSH1 0x4 ADD PUSH1 0x40 MLOAD DUP1 SWAP2 SUB SWAP1 REVERT JUMPDEST PUSH1 0xC DUP1 SLOAD PUSH1 0xFF NOT AND PUSH1 0x1 OR SWAP1 SSTORE PUSH1 0x2 PUSH1 0x5 SLOAD PUSH1 0xFF AND PUSH1 0x2 DUP2 GT ISZERO PUSH2 0x1B65 JUMPI PUSH2 0x1B65 PUSH2 0x2128 JUMP JUMPDEST EQ PUSH2 0x1B83 JUMPI PUSH1 0x40 MLOAD PUSH4 0xA5A0FC5 PUSH1 0xE3 SHL DUP2 MSTORE PUSH1 0x4 ADD PUSH1 0x40 MLOAD DUP1 SWAP2 SUB SWAP1 REVERT JUMPDEST PUSH1 0x0 DUP1 JUMPDEST PUSH1 0x5 SLOAD PUSH1 0xFF PUSH2 0x100 SWAP1 SWAP2 DIV DUP2 AND SWAP1 DUP3 AND LT ISZERO PUSH2 0x1BF7 JUMPI CALLER PUSH1 0x0 SWAP1 DUP2 MSTORE PUSH1 0x9 PUSH1 0x20 SWAP1 DUP2 MSTORE PUSH1 0x40 DUP1 DUP4 KECCAK256 PUSH1 0xFF DUP6 AND DUP5 MSTORE SWAP1 SWAP2 MSTORE SWAP1 KECCAK256 SLOAD PUSH2 0x1BC5 SWAP1 DUP4 PUSH2 0x24E1 JUMP JUMPDEST CALLER PUSH1 0x0 SWAP1 DUP2 MSTORE PUSH1 0x9 PUSH1 0x20 SWAP1 DUP2 MSTORE PUSH1 0x40 DUP1 DUP4 KECCAK256 PUSH1 0xFF DUP7 AND DUP5 MSTORE SWAP1 SWAP2 MSTORE DUP2 KECCAK256 SSTORE SWAP2 POP DUP1 PUSH2 0x1BEF DUP2 PUSH2 0x2585 JUMP JUMPDEST SWAP2 POP POP PUSH2 0x1B87 JUMP JUMPDEST POP DUP1 PUSH1 0x0 SUB PUSH2 0x1C19 JUMPI PUSH1 0x40 MLOAD PUSH4 0xF76AEF65 PUSH1 0xE0 SHL DUP2 MSTORE PUSH1 0x4 ADD PUSH1 0x40 MLOAD DUP1 SWAP2 SUB SWAP1 REVERT JUMPDEST PUSH1 0x40 MLOAD PUSH1 0x0 SWAP1 CALLER SWAP1 DUP4 SWAP1 DUP4 DUP2 DUP2 DUP2 DUP6 DUP8 GAS CALL SWAP3 POP POP POP RETURNDATASIZE DUP1 PUSH1 0x0 DUP2 EQ PUSH2 0x1C5B JUMPI PUSH1 0x40 MLOAD SWAP2 POP PUSH1 0x1F NOT PUSH1 0x3F RETURNDATASIZE ADD AND DUP3 ADD PUSH1 0x40 MSTORE RETURNDATASIZE DUP3 MSTORE RETURNDATASIZE PUSH1 0x0 PUSH1 0x20 DUP5 ADD RETURNDATACOPY PUSH2 0x1C60 JUMP JUMPDEST PUSH1 0x60 SWAP2 POP JUMPDEST POP POP SWAP1 POP DUP1 PUSH2 0x1C82 JUMPI PUSH1 0x40 MLOAD PUSH4 0x12171D83 PUSH1 0xE3 SHL DUP2 MSTORE PUSH1 0x4 ADD PUSH1 0x40 MLOAD DUP1 SWAP2 SUB SWAP1 REVERT JUMPDEST PUSH1 0x40 MLOAD DUP3 DUP2 MSTORE CALLER SWAP1 PUSH32 0xD7DEE2702D63AD89917B6A4DA9981C90C4D24F8C2BDFD64C604ECAE57D8D0651 SWAP1 PUSH1 0x20 ADD PUSH1 0x40 MLOAD DUP1 SWAP2 SUB SWAP1 LOG2 POP POP PUSH1 0xC DUP1 SLOAD PUSH1 0xFF NOT AND SWAP1 SSTORE JUMP JUMPDEST PUSH1 0x5 SLOAD PUSH1 0x0 SWAP1 PUSH1 0xFF PUSH2 0x100 SWAP1 SWAP2 DIV DUP2 AND SWAP1 DUP4 AND LT PUSH2 0x1CE5 JUMPI POP PUSH1 0x0 PUSH2 0xFB9 JUMP JUMPDEST POP PUSH1 0x1 PUSH1 0x1 PUSH1 0xA0 SHL SUB DUP3 AND PUSH1 0x0 SWAP1 DUP2 MSTORE PUSH1 0x9 PUSH1 0x20 SWAP1 DUP2 MSTORE PUSH1 0x40 DUP1 DUP4 KECCAK256 PUSH1 0xFF DUP6 AND DUP5 MSTORE SWAP1 SWAP2 MSTORE SWAP1 KECCAK256 SLOAD SWAP3 SWAP2 POP POP JUMP JUMPDEST PUSH1 0x60 PUSH1 0xB DUP1 SLOAD DUP1 PUSH1 0x20 MUL PUSH1 0x20 ADD PUSH1 0x40 MLOAD SWAP1 DUP2 ADD PUSH1 0x40 MSTORE DUP1 SWAP3 SWAP2 SWAP1 DUP2 DUP2 MSTORE PUSH1 0x20 ADD DUP3 DUP1 SLOAD DUP1 ISZERO PUSH2 0xB1E JUMPI PUSH1 0x20 MUL DUP3 ADD SWAP2 SWAP1 PUSH1 0x0 MSTORE PUSH1 0x20 PUSH1 0x0 KECCAK256 SWAP1 JUMPDEST DUP2 SLOAD DUP2 MSTORE PUSH1 0x20 ADD SWAP1 PUSH1 0x1 ADD SWAP1 DUP1 DUP4 GT PUSH2 0x1D4D JUMPI POP POP POP POP POP SWAP1 POP SWAP1 JUMP JUMPDEST PUSH1 0x0 PUSH1 0x3 SLOAD TIMESTAMP LT PUSH2 0x1D7B JUMPI POP PUSH1 0x0 SWAP1 JUMP JUMPDEST TIMESTAMP PUSH1 0x3 SLOAD PUSH2 0x6E3 SWAP2 SWAP1 PUSH2 0x25F2 JUMP JUMPDEST PUSH1 0x6 DUP2 DUP2 SLOAD DUP2 LT PUSH2 0x1D99 JUMPI PUSH1 0x0 DUP1 REVERT JUMPDEST SWAP1 PUSH1 0x0 MSTORE PUSH1 0x20 PUSH1 0x0 KECCAK256 ADD PUSH1 0x0 SWAP2 POP SWAP1 POP DUP1 SLOAD PUSH2 0xDA2 SWAP1 PUSH2 0x2481 JUMP JUMPDEST PUSH1 0x0 PUSH1 0x5 SLOAD PUSH1 0xFF AND PUSH1 0x2 DUP2 GT ISZERO PUSH2 0x1DCD JUMPI PUSH2 0x1DCD PUSH2 0x2128 JUMP JUMPDEST EQ PUSH2 0x1DEB JUMPI PUSH1 0x40 MLOAD PUSH4 0x5A90BB8D PUSH1 0xE1 SHL DUP2 MSTORE PUSH1 0x4 ADD PUSH1 0x40 MLOAD DUP1 SWAP2 SUB SWAP1 REVERT JUMPDEST PUSH1 0x3 SLOAD TIMESTAMP LT PUSH2 0x1E0D JUMPI PUSH1 0x40 MLOAD PUSH4 0x262B7531 PUSH1 0xE2 SHL DUP2 MSTORE PUSH1 0x4 ADD PUSH1 0x40 MLOAD DUP1 SWAP2 SUB SWAP1 REVERT JUMPDEST PUSH1 0xC SLOAD PUSH1 0xFF AND ISZERO PUSH2 0x1E31 JUMPI PUSH1 0x40 MLOAD PUSH4 0x45F5CE8B PUSH1 0xE1 SHL DUP2 MSTORE PUSH1 0x4 ADD PUSH1 0x40 MLOAD DUP1 SWAP2 SUB SWAP1 REVERT JUMPDEST PUSH1 0xC DUP1 SLOAD PUSH1 0xFF NOT AND PUSH1 0x1 OR SWAP1 SSTORE PUSH1 0x5 SLOAD PUSH2 0x100 SWAP1 DIV PUSH1 0xFF SWAP1 DUP2 AND SWAP1 DUP4 AND LT PUSH2 0x1E6C JUMPI PUSH1 0x40 MLOAD PUSH4 0x2A719531 PUSH1 0xE0 SHL DUP2 MSTORE PUSH1 0x4 ADD PUSH1 0x40 MLOAD DUP1 SWAP2 SUB SWAP1 REVERT JUMPDEST DUP1 PUSH1 0x0 SUB PUSH2 0x1E8D JUMPI PUSH1 0x40 MLOAD PUSH4 0x162908E3 PUSH1 0xE1 SHL DUP2 MSTORE PUSH1 0x4 ADD PUSH1 0x40 MLOAD DUP1 SWAP2 SUB SWAP1 REVERT JUMPDEST CALLER PUSH1 0x0 SWAP1 DUP2 MSTORE PUSH1 0x9 PUSH1 0x20 SWAP1 DUP2 MSTORE PUSH1 0x40 DUP1 DUP4 KECCAK256 PUSH1 0xFF DUP7 AND DUP5 MSTORE SWAP1 SWAP2 MSTORE SWAP1 KECCAK256 SLOAD DUP2 GT ISZERO PUSH2 0x1ECB JUMPI PUSH1 0x40 MLOAD PUSH4 0x39996567 PUSH1 0xE0 SHL DUP2 MSTORE PUSH1 0x4 ADD PUSH1 0x40 MLOAD DUP1 SWAP2 SUB SWAP1 REVERT JUMPDEST PUSH1 0x0 PUSH2 0x1ED5 PUSH2 0x168B JUMP JUMPDEST SWAP1 POP DUP1 PUSH1 0x0 SUB PUSH2 0x1EF8 JUMPI PUSH1 0x40 MLOAD PUSH4 0xBB55FD27 PUSH1 0xE0 SHL DUP2 MSTORE PUSH1 0x4 ADD PUSH1 0x40 MLOAD DUP1 SWAP2 SUB SWAP1 REVERT JUMPDEST PUSH1 0x0 DUP2 PUSH1 0xB DUP6 PUSH1 0xFF AND DUP2 SLOAD DUP2 LT PUSH2 0x1F11 JUMPI PUSH2 0x1F11 PUSH2 0x24B5 JUMP JUMPDEST SWAP1 PUSH1 0x0 MSTORE PUSH1 0x20 PUSH1 0x0 KECCAK256 ADD SLOAD DUP5 PUSH2 0x1F27 SWAP2 SWAP1 PUSH2 0x250D JUMP JUMPDEST PUSH2 0x1F31 SWAP2 SWAP1 PUSH2 0x253A JUMP JUMPDEST SWAP1 POP DUP1 SELFBALANCE LT ISZERO PUSH2 0x1F54 JUMPI PUSH1 0x40 MLOAD PUSH4 0xBB55FD27 PUSH1 0xE0 SHL DUP2 MSTORE PUSH1 0x4 ADD PUSH1 0x40 MLOAD DUP1 SWAP2 SUB SWAP1 REVERT JUMPDEST CALLER PUSH1 0x0 SWAP1 DUP2 MSTORE PUSH1 0x9 PUSH1 0x20 SWAP1 DUP2 MSTORE PUSH1 0x40 DUP1 DUP4 KECCAK256 PUSH1 0xFF DUP9 AND DUP5 MSTORE SWAP1 SWAP2 MSTORE DUP2 KECCAK256 DUP1 SLOAD DUP6 SWAP3 SWAP1 PUSH2 0x1F81 SWAP1 DUP5 SWAP1 PUSH2 0x25F2 JUMP JUMPDEST SWAP3 POP POP DUP2 SWAP1 SSTORE POP DUP3 PUSH1 0xB DUP6 PUSH1 0xFF AND DUP2 SLOAD DUP2 LT PUSH2 0x1F9F JUMPI PUSH2 0x1F9F PUSH2 0x24B5 JUMP JUMPDEST SWAP1 PUSH1 0x0 MSTORE PUSH1 0x20 PUSH1 0x0 KECCAK256 ADD PUSH1 0x0 DUP3 DUP3 SLOAD PUSH2 0x1FB8 SWAP2 SWAP1 PUSH2 0x25F2 JUMP JUMPDEST SWAP1 SWAP2 SSTORE POP POP PUSH1 0x40 MLOAD PUSH1 0x0 SWAP1 CALLER SWAP1 DUP4 SWAP1 DUP4 DUP2 DUP2 DUP2 DUP6 DUP8 GAS CALL SWAP3 POP POP POP RETURNDATASIZE DUP1 PUSH1 0x0 DUP2 EQ PUSH2 0x1FFF JUMPI PUSH1 0x40 MLOAD SWAP2 POP PUSH1 0x1F NOT PUSH1 0x3F RETURNDATASIZE ADD AND DUP3 ADD PUSH1 0x40 MSTORE RETURNDATASIZE DUP3 MSTORE RETURNDATASIZE PUSH1 0x0 PUSH1 0x20 DUP5 ADD RETURNDATACOPY PUSH2 0x2004 JUMP JUMPDEST PUSH1 0x60 SWAP2 POP JUMPDEST POP POP SWAP1 POP DUP1 PUSH2 0x2026 JUMPI PUSH1 0x40 MLOAD PUSH4 0x12171D83 PUSH1 0xE3 SHL DUP2 MSTORE PUSH1 0x4 ADD PUSH1 0x40 MLOAD DUP1 SWAP2 SUB SWAP1 REVERT JUMPDEST PUSH1 0x40 DUP1 MLOAD PUSH1 0xFF DUP8 AND DUP2 MSTORE PUSH1 0x20 DUP2 ADD DUP7 SWAP1 MSTORE SWAP1 DUP2 ADD DUP4 SWAP1 MSTORE CALLER SWAP1 PUSH32 0xAA68026CBA73386B81AAEF0208A11AD1C3F8D1306CF0734631F076B7BAEA05BA SWAP1 PUSH1 0x60 ADD PUSH2 0x1B02 JUMP JUMPDEST DUP1 CALLDATALOAD PUSH1 0x1 PUSH1 0x1 PUSH1 0xA0 SHL SUB DUP2 AND DUP2 EQ PUSH2 0x2080 JUMPI PUSH1 0x0 DUP1 REVERT JUMPDEST SWAP2 SWAP1 POP JUMP JUMPDEST DUP1 CALLDATALOAD PUSH1 0xFF DUP2 AND DUP2 EQ PUSH2 0x2080 JUMPI PUSH1 0x0 DUP1 REVERT JUMPDEST PUSH1 0x0 DUP1 PUSH1 0x40 DUP4 DUP6 SUB SLT ISZERO PUSH2 0x20A9 JUMPI PUSH1 0x0 DUP1 REVERT JUMPDEST PUSH2 0x20B2 DUP4 PUSH2 0x2069 JUMP JUMPDEST SWAP2 POP PUSH2 0x20C0 PUSH1 0x20 DUP5 ADD PUSH2 0x2085 JUMP JUMPDEST SWAP1 POP SWAP3 POP SWAP3 SWAP1 POP JUMP JUMPDEST PUSH1 0x0 PUSH1 0x20 DUP3 DUP5 SUB SLT ISZERO PUSH2 0x20DB JUMPI PUSH1 0x0 DUP1 REVERT JUMPDEST POP CALLDATALOAD SWAP2 SWAP1 POP JUMP JUMPDEST PUSH1 0x0 DUP2 MLOAD DUP1 DUP5 MSTORE PUSH1 0x0 JUMPDEST DUP2 DUP2 LT ISZERO PUSH2 0x2108 JUMPI PUSH1 0x20 DUP2 DUP6 ADD DUP2 ADD MLOAD DUP7 DUP4 ADD DUP3 ADD MSTORE ADD PUSH2 0x20EC JUMP JUMPDEST POP PUSH1 0x0 PUSH1 0x20 DUP3 DUP7 ADD ADD MSTORE PUSH1 0x20 PUSH1 0x1F NOT PUSH1 0x1F DUP4 ADD AND DUP6 ADD ADD SWAP2 POP POP SWAP3 SWAP2 POP POP JUMP JUMPDEST PUSH4 0x4E487B71 PUSH1 0xE0 SHL PUSH1 0x0 MSTORE PUSH1 0x21 PUSH1 0x4 MSTORE PUSH1 0x24 PUSH1 0x0 REVERT JUMPDEST PUSH1 0x3 DUP2 LT PUSH2 0x215C JUMPI PUSH4 0x4E487B71 PUSH1 0xE0 SHL PUSH1 0x0 MSTORE PUSH1 0x21 PUSH1 0x4 MSTORE PUSH1 0x24 PUSH1 0x0 REVERT JUMPDEST SWAP1 MSTORE JUMP JUMPDEST PUSH1 0x0 DUP3 DUP3 MLOAD DUP1 DUP6 MSTORE PUSH1 0x20 DUP1 DUP7 ADD SWAP6 POP DUP1 DUP3 PUSH1 0x5 SHL DUP5 ADD ADD DUP2 DUP7 ADD PUSH1 0x0 JUMPDEST DUP5 DUP2 LT ISZERO PUSH2 0x21AB JUMPI PUSH1 0x1F NOT DUP7 DUP5 SUB ADD DUP10 MSTORE PUSH2 0x2199 DUP4 DUP4 MLOAD PUSH2 0x20E2 JUMP JUMPDEST SWAP9 DUP5 ADD SWAP9 SWAP3 POP SWAP1 DUP4 ADD SWAP1 PUSH1 0x1 ADD PUSH2 0x217D JUMP JUMPDEST POP SWAP1 SWAP8 SWAP7 POP POP POP POP POP POP POP JUMP JUMPDEST PUSH1 0x0 DUP2 MLOAD DUP1 DUP5 MSTORE PUSH1 0x20 DUP1 DUP6 ADD SWAP5 POP DUP1 DUP5 ADD PUSH1 0x0 JUMPDEST DUP4 DUP2 LT ISZERO PUSH2 0x21E8 JUMPI DUP2 MLOAD DUP8 MSTORE SWAP6 DUP3 ADD SWAP6 SWAP1 DUP3 ADD SWAP1 PUSH1 0x1 ADD PUSH2 0x21CC JUMP JUMPDEST POP SWAP5 SWAP6 SWAP5 POP POP POP POP POP JUMP JUMPDEST PUSH1 0x0 DUP2 MLOAD DUP1 DUP5 MSTORE PUSH1 0x20 DUP1 DUP6 ADD SWAP5 POP DUP1 DUP5 ADD PUSH1 0x0 JUMPDEST DUP4 DUP2 LT ISZERO PUSH2 0x21E8 JUMPI DUP2 MLOAD ISZERO ISZERO DUP8 MSTORE SWAP6 DUP3 ADD SWAP6 SWAP1 DUP3 ADD SWAP1 PUSH1 0x1 ADD PUSH2 0x2207 JUMP JUMPDEST PUSH1 0x1 PUSH1 0x1 PUSH1 0xA0 SHL SUB DUP12 AND DUP2 MSTORE PUSH2 0x140 PUSH1 0x20 DUP3 ADD DUP2 SWAP1 MSTORE PUSH1 0x0 SWAP1 PUSH2 0x224A DUP4 DUP3 ADD DUP14 PUSH2 0x20E2 JUMP JUMPDEST SWAP1 POP DUP11 PUSH1 0x40 DUP5 ADD MSTORE DUP10 PUSH1 0x60 DUP5 ADD MSTORE PUSH2 0x2265 PUSH1 0x80 DUP5 ADD DUP11 PUSH2 0x213E JUMP JUMPDEST PUSH1 0xFF DUP9 AND PUSH1 0xA0 DUP5 ADD MSTORE DUP3 DUP2 SUB PUSH1 0xC0 DUP5 ADD MSTORE PUSH2 0x2280 DUP2 DUP9 PUSH2 0x2160 JUMP JUMPDEST SWAP1 POP DUP3 DUP2 SUB PUSH1 0xE0 DUP5 ADD MSTORE PUSH2 0x2294 DUP2 DUP8 PUSH2 0x21B8 JUMP JUMPDEST SWAP1 POP DUP3 DUP2 SUB PUSH2 0x100 DUP5 ADD MSTORE PUSH2 0x22A9 DUP2 DUP7 PUSH2 0x21F3 JUMP JUMPDEST SWAP2 POP POP DUP3 PUSH2 0x120 DUP4 ADD MSTORE SWAP12 SWAP11 POP POP POP POP POP POP POP POP POP POP POP JUMP JUMPDEST PUSH1 0x0 DUP1 DUP4 PUSH1 0x1F DUP5 ADD SLT PUSH2 0x22D4 JUMPI PUSH1 0x0 DUP1 REVERT JUMPDEST POP DUP2 CALLDATALOAD PUSH8 0xFFFFFFFFFFFFFFFF DUP2 GT ISZERO PUSH2 0x22EC JUMPI PUSH1 0x0 DUP1 REVERT JUMPDEST PUSH1 0x20 DUP4 ADD SWAP2 POP DUP4 PUSH1 0x20 DUP3 PUSH1 0x5 SHL DUP6 ADD ADD GT ISZERO PUSH2 0x2307 JUMPI PUSH1 0x0 DUP1 REVERT JUMPDEST SWAP3 POP SWAP3 SWAP1 POP JUMP JUMPDEST PUSH1 0x0 DUP1 PUSH1 0x0 PUSH1 0x40 DUP5 DUP7 SUB SLT ISZERO PUSH2 0x2323 JUMPI PUSH1 0x0 DUP1 REVERT JUMPDEST PUSH2 0x232C DUP5 PUSH2 0x2069 JUMP JUMPDEST SWAP3 POP PUSH1 0x20 DUP5 ADD CALLDATALOAD PUSH8 0xFFFFFFFFFFFFFFFF DUP2 GT ISZERO PUSH2 0x2348 JUMPI PUSH1 0x0 DUP1 REVERT JUMPDEST PUSH2 0x2354 DUP7 DUP3 DUP8 ADD PUSH2 0x22C2 JUMP JUMPDEST SWAP5 SWAP8 SWAP1 SWAP7 POP SWAP4 SWAP5 POP POP POP POP JUMP JUMPDEST PUSH1 0x20 DUP2 MSTORE PUSH1 0x0 PUSH2 0xAA9 PUSH1 0x20 DUP4 ADD DUP5 PUSH2 0x21F3 JUMP JUMPDEST PUSH1 0x0 PUSH1 0x20 DUP3 DUP5 SUB SLT ISZERO PUSH2 0x2386 JUMPI PUSH1 0x0 DUP1 REVERT JUMPDEST PUSH2 0xAA9 DUP3 PUSH2 0x2085 JUMP JUMPDEST PUSH1 0x20 DUP2 MSTORE PUSH1 0x0 PUSH2 0xAA9 PUSH1 0x20 DUP4 ADD DUP5 PUSH2 0x20E2 JUMP JUMPDEST PUSH1 0x20 DUP2 MSTORE PUSH1 0x0 PUSH2 0xAA9 PUSH1 0x20 DUP4 ADD DUP5 PUSH2 0x21B8 JUMP JUMPDEST PUSH1 0x0 PUSH1 0x20 DUP3 DUP5 SUB SLT ISZERO PUSH2 0x23C7 JUMPI PUSH1 0x0 DUP1 REVERT JUMPDEST PUSH2 0xAA9 DUP3 PUSH2 0x2069 JUMP JUMPDEST PUSH1 0x0 DUP1 PUSH1 0x40 DUP4 DUP6 SUB SLT ISZERO PUSH2 0x23E3 JUMPI PUSH1 0x0 DUP1 REVERT JUMPDEST PUSH2 0x23EC DUP4 PUSH2 0x2085 JUMP JUMPDEST SWAP5 PUSH1 0x20 SWAP4 SWAP1 SWAP4 ADD CALLDATALOAD SWAP4 POP POP POP JUMP JUMPDEST PUSH1 0x40 DUP2 MSTORE PUSH1 0x0 PUSH2 0x240D PUSH1 0x40 DUP4 ADD DUP6 PUSH2 0x21B8 JUMP JUMPDEST SWAP1 POP DUP3 ISZERO ISZERO PUSH1 0x20 DUP4 ADD MSTORE SWAP4 SWAP3 POP POP POP JUMP JUMPDEST PUSH1 0x0 DUP1 PUSH1 0x20 DUP4 DUP6 SUB SLT ISZERO PUSH2 0x2431 JUMPI PUSH1 0x0 DUP1 REVERT JUMPDEST DUP3 CALLDATALOAD PUSH8 0xFFFFFFFFFFFFFFFF DUP2 GT ISZERO PUSH2 0x2448 JUMPI PUSH1 0x0 DUP1 REVERT JUMPDEST PUSH2 0x2454 DUP6 DUP3 DUP7 ADD PUSH2 0x22C2 JUMP JUMPDEST SWAP1 SWAP7 SWAP1 SWAP6 POP SWAP4 POP POP POP POP JUMP JUMPDEST PUSH1 0x20 DUP2 MSTORE PUSH1 0x0 PUSH2 0xAA9 PUSH1 0x20 DUP4 ADD DUP5 PUSH2 0x2160 JUMP JUMPDEST PUSH1 0x20 DUP2 ADD PUSH2 0xFB9 DUP3 DUP5 PUSH2 0x213E JUMP JUMPDEST PUSH1 0x1 DUP2 DUP2 SHR SWAP1 DUP3 AND DUP1 PUSH2 0x2495 JUMPI PUSH1 0x7F DUP3 AND SWAP2 POP JUMPDEST PUSH1 0x20 DUP3 LT DUP2 SUB PUSH2 0x16E6 JUMPI PUSH4 0x4E487B71 PUSH1 0xE0 SHL PUSH1 0x0 MSTORE PUSH1 0x22 PUSH1 0x4 MSTORE PUSH1 0x24 PUSH1 0x0 REVERT JUMPDEST PUSH4 0x4E487B71 PUSH1 0xE0 SHL PUSH1 0x0 MSTORE PUSH1 0x32 PUSH1 0x4 MSTORE PUSH1 0x24 PUSH1 0x0 REVERT JUMPDEST PUSH4 0x4E487B71 PUSH1 0xE0 SHL PUSH1 0x0 MSTORE PUSH1 0x11 PUSH1 0x4 MSTORE PUSH1 0x24 PUSH1 0x0 REVERT JUMPDEST DUP1 DUP3 ADD DUP1 DUP3 GT ISZERO PUSH2 0xFB9 JUMPI PUSH2 0xFB9 PUSH2 0x24CB JUMP JUMPDEST PUSH1 0x0 PUSH1 0x1 DUP3 ADD PUSH2 0x2506 JUMPI PUSH2 0x2506 PUSH2 0x24CB JUMP JUMPDEST POP PUSH1 0x1 ADD SWAP1 JUMP JUMPDEST DUP1 DUP3 MUL DUP2 ISZERO DUP3 DUP3 DIV DUP5 EQ OR PUSH2 0xFB9 JUMPI PUSH2 0xFB9 PUSH2 0x24CB JUMP JUMPDEST PUSH4 0x4E487B71 PUSH1 0xE0 SHL PUSH1 0x0 MSTORE PUSH1 0x12 PUSH1 0x4 MSTORE PUSH1 0x24 PUSH1 0x0 REVERT JUMPDEST PUSH1 0x0 DUP3 PUSH2 0x2549 JUMPI PUSH2 0x2549 PUSH2 0x2524 JUMP JUMPDEST POP DIV SWAP1 JUMP JUMPDEST PUSH4 0x4E487B71 PUSH1 0xE0 SHL PUSH1 0x0 MSTORE PUSH1 0x41 PUSH1 0x4 MSTORE PUSH1 0x24 PUSH1 0x0 REVERT JUMPDEST PUSH1 0x0 PUSH2 0xFFFF DUP1 DUP5 AND DUP1 PUSH2 0x2579 JUMPI PUSH2 0x2579 PUSH2 0x2524 JUMP JUMPDEST SWAP3 AND SWAP2 SWAP1 SWAP2 DIV SWAP3 SWAP2 POP POP JUMP JUMPDEST PUSH1 0x0 PUSH1 0xFF DUP3 AND PUSH1 0xFF DUP2 SUB PUSH2 0x259B JUMPI PUSH2 0x259B PUSH2 0x24CB JUMP JUMPDEST PUSH1 0x1 ADD SWAP3 SWAP2 POP POP JUMP JUMPDEST PUSH1 0x40 DUP1 DUP3 MSTORE DUP2 ADD DUP4 SWAP1 MSTORE PUSH1 0x0 DUP5 PUSH1 0x60 DUP4 ADD DUP3 JUMPDEST DUP7 DUP2 LT ISZERO PUSH2 0x25DF JUMPI PUSH1 0xFF PUSH2 0x25CA DUP5 PUSH2 0x2085 JUMP JUMPDEST AND DUP3 MSTORE PUSH1 0x20 SWAP3 DUP4 ADD SWAP3 SWAP1 SWAP2 ADD SWAP1 PUSH1 0x1 ADD PUSH2 0x25B7 JUMP JUMPDEST POP PUSH1 0x20 SWAP4 SWAP1 SWAP4 ADD SWAP4 SWAP1 SWAP4 MSTORE POP SWAP4 SWAP3 POP POP POP JUMP JUMPDEST DUP2 DUP2 SUB DUP2 DUP2 GT ISZERO PUSH2 0xFB9 JUMPI PUSH2 0xFB9 PUSH2 0x24CB JUMP INVALID LOG2 PUSH5 0x6970667358 0x22 SLT KECCAK256 0xBA MSIZE 0xD8 0x4F ADD 0xAE DUP9 0xB7 DUP14 0xA8 0x28 0xE0 PUSH13 0x30FBDEE5F04625B5816DCE7617 SUB PUSH22 0x1FB09CE364736F6C6343000814003300000000000000 "},"methodIdentifiers":{"buyShares(uint8)":"34f5e9f9","calculatePotentialPayout(address,uint8[])":"24fdf5af","calculateSellPayout(uint8,uint256)":"4ea64d17","cancelMarket()":"6bfefd6b","claimRefund()":"b5545a3c","claimWinnings()":"b401faf1","createdAt()":"cf09e0d0","creator()":"02d05d3f","endTime()":"3197cbb6","getContractBalance()":"6f9fb98a","getMarketInfo()":"23341a05","getOdds()":"4c5be574","getOptionLabel(uint8)":"3f0826c5","getOptionLabels()":"ab125b64","getOptionPrice(uint8)":"a1e512d7","getTimeRemaining()":"dac6270d","getTotalPool()":"75f4d677","getTotalShares()":"d5002f2e","getUserPosition(address)":"5b7c2dad","getUserShares(address,uint8)":"c235253f","getWinningOptions()":"2f31d130","hasClaimed(address)":"73b2e80e","hasWinners()":"bc29ca45","isOpenForBetting()":"0080cb82","marketStatus()":"e0e081d7","optionCount()":"e32fe90b","optionLabels(uint256)":"ef0fc35c","question()":"3fad9ae0","resolveMarket(uint8[])":"68ea18ec","resolveMarketFromResolver(uint8[])":"6a87c474","resolver()":"04f3bcec","sellShares(uint8,uint256)":"f2ccb397","setResolver(address)":"4e543b26","shares(address,uint8)":"1158bd13","totalShares(uint256)":"13f2dad0","winningOptions(uint256)":"4a02476e"}}}}}