{
  "_format": "hh-sol-artifact-1",
  "contractName": "PredictionMarket",
  "sourceName": "contracts/PredictionMarket.sol",
  "abi": [
    {
      "inputs": [
        {
          "internalType": "address",
          "name": "_creator",
          "type": "address"
        },
        {
          "internalType": "string",
          "name": "_question",
          "type": "string"
        },
        {
          "internalType": "uint256",
          "name": "_endTime",
          "type": "uint256"
        },
        {
          "internalType": "string[]",
          "name": "_options",
          "type": "string[]"
        }
      ],
      "stateMutability": "nonpayable",
      "type": "constructor"
    },
    {
      "inputs": [],
      "name": "AlreadyClaimed",
      "type": "error"
    },
    {
      "inputs": [],
      "name": "DuplicateOptionLabel",
      "type": "error"
    },
    {
      "inputs": [],
      "name": "DuplicateWinner",
      "type": "error"
    },
    {
      "inputs": [],
      "name": "EmptyOptionLabel",
      "type": "error"
    },
    {
      "inputs": [],
      "name": "InsufficientLiquidity",
      "type": "error"
    },
    {
      "inputs": [],
      "name": "InsufficientShares",
      "type": "error"
    },
    {
      "inputs": [],
      "name": "InvalidAmount",
      "type": "error"
    },
    {
      "inputs": [],
      "name": "InvalidEndTime",
      "type": "error"
    },
    {
      "inputs": [],
      "name": "InvalidOption",
      "type": "error"
    },
    {
      "inputs": [],
      "name": "InvalidOptionsCount",
      "type": "error"
    },
    {
      "inputs": [],
      "name": "MarketEnded",
      "type": "error"
    },
    {
      "inputs": [],
      "name": "MarketNotActive",
      "type": "error"
    },
    {
      "inputs": [],
      "name": "MarketNotCancelled",
      "type": "error"
    },
    {
      "inputs": [],
      "name": "MarketNotResolved",
      "type": "error"
    },
    {
      "inputs": [],
      "name": "MarketStillOpen",
      "type": "error"
    },
    {
      "inputs": [],
      "name": "NoWinnersSpecified",
      "type": "error"
    },
    {
      "inputs": [],
      "name": "NotAuthorized",
      "type": "error"
    },
    {
      "inputs": [],
      "name": "NotResolver",
      "type": "error"
    },
    {
      "inputs": [],
      "name": "NothingToClaim",
      "type": "error"
    },
    {
      "inputs": [],
      "name": "NothingToRefund",
      "type": "error"
    },
    {
      "inputs": [],
      "name": "ReentrancyGuard",
      "type": "error"
    },
    {
      "inputs": [],
      "name": "ResolverAlreadySet",
      "type": "error"
    },
    {
      "inputs": [],
      "name": "TooManyWinners",
      "type": "error"
    },
    {
      "inputs": [],
      "name": "TransferFailed",
      "type": "error"
    },
    {
      "anonymous": false,
      "inputs": [
        {
          "indexed": true,
          "internalType": "address",
          "name": "user",
          "type": "address"
        },
        {
          "indexed": false,
          "internalType": "uint256",
          "name": "payout",
          "type": "uint256"
        }
      ],
      "name": "Claimed",
      "type": "event"
    },
    {
      "anonymous": false,
      "inputs": [
        {
          "indexed": true,
          "internalType": "address",
          "name": "cancelledBy",
          "type": "address"
        }
      ],
      "name": "MarketCancelled",
      "type": "event"
    },
    {
      "anonymous": false,
      "inputs": [
        {
          "indexed": true,
          "internalType": "address",
          "name": "creator",
          "type": "address"
        },
        {
          "indexed": false,
          "internalType": "string",
          "name": "question",
          "type": "string"
        },
        {
          "indexed": false,
          "internalType": "uint256",
          "name": "endTime",
          "type": "uint256"
        },
        {
          "indexed": false,
          "internalType": "string[]",
          "name": "options",
          "type": "string[]"
        }
      ],
      "name": "MarketCreated",
      "type": "event"
    },
    {
      "anonymous": false,
      "inputs": [
        {
          "indexed": false,
          "internalType": "uint8[]",
          "name": "winnerIndices",
          "type": "uint8[]"
        },
        {
          "indexed": false,
          "internalType": "uint256",
          "name": "totalPool",
          "type": "uint256"
        }
      ],
      "name": "MarketResolved",
      "type": "event"
    },
    {
      "anonymous": false,
      "inputs": [
        {
          "indexed": true,
          "internalType": "address",
          "name": "user",
          "type": "address"
        },
        {
          "indexed": false,
          "internalType": "uint256",
          "name": "amount",
          "type": "uint256"
        }
      ],
      "name": "Refunded",
      "type": "event"
    },
    {
      "anonymous": false,
      "inputs": [
        {
          "indexed": true,
          "internalType": "address",
          "name": "buyer",
          "type": "address"
        },
        {
          "indexed": false,
          "internalType": "uint8",
          "name": "optionIndex",
          "type": "uint8"
        },
        {
          "indexed": false,
          "internalType": "uint256",
          "name": "amount",
          "type": "uint256"
        }
      ],
      "name": "SharesBought",
      "type": "event"
    },
    {
      "anonymous": false,
      "inputs": [
        {
          "indexed": true,
          "internalType": "address",
          "name": "seller",
          "type": "address"
        },
        {
          "indexed": false,
          "internalType": "uint8",
          "name": "optionIndex",
          "type": "uint8"
        },
        {
          "indexed": false,
          "internalType": "uint256",
          "name": "sharesAmount",
          "type": "uint256"
        },
        {
          "indexed": false,
          "internalType": "uint256",
          "name": "payout",
          "type": "uint256"
        }
      ],
      "name": "SharesSold",
      "type": "event"
    },
    {
      "inputs": [
        {
          "internalType": "uint8",
          "name": "optionIndex",
          "type": "uint8"
        }
      ],
      "name": "buyShares",
      "outputs": [],
      "stateMutability": "payable",
      "type": "function"
    },
    {
      "inputs": [
        {
          "internalType": "address",
          "name": "user",
          "type": "address"
        },
        {
          "internalType": "uint8[]",
          "name": "winnerIndices",
          "type": "uint8[]"
        }
      ],
      "name": "calculatePotentialPayout",
      "outputs": [
        {
          "internalType": "uint256",
          "name": "",
          "type": "uint256"
        }
      ],
      "stateMutability": "view",
      "type": "function"
    },
    {
      "inputs": [
        {
          "internalType": "uint8",
          "name": "optionIndex",
          "type": "uint8"
        },
        {
          "internalType": "uint256",
          "name": "sharesAmount",
          "type": "uint256"
        }
      ],
      "name": "calculateSellPayout",
      "outputs": [
        {
          "internalType": "uint256",
          "name": "payout",
          "type": "uint256"
        }
      ],
      "stateMutability": "view",
      "type": "function"
    },
    {
      "inputs": [],
      "name": "cancelMarket",
      "outputs": [],
      "stateMutability": "nonpayable",
      "type": "function"
    },
    {
      "inputs": [],
      "name": "claimRefund",
      "outputs": [],
      "stateMutability": "nonpayable",
      "type": "function"
    },
    {
      "inputs": [],
      "name": "claimWinnings",
      "outputs": [],
      "stateMutability": "nonpayable",
      "type": "function"
    },
    {
      "inputs": [],
      "name": "createdAt",
      "outputs": [
        {
          "internalType": "uint256",
          "name": "",
          "type": "uint256"
        }
      ],
      "stateMutability": "view",
      "type": "function"
    },
    {
      "inputs": [],
      "name": "creator",
      "outputs": [
        {
          "internalType": "address",
          "name": "",
          "type": "address"
        }
      ],
      "stateMutability": "view",
      "type": "function"
    },
    {
      "inputs": [],
      "name": "endTime",
      "outputs": [
        {
          "internalType": "uint256",
          "name": "",
          "type": "uint256"
        }
      ],
      "stateMutability": "view",
      "type": "function"
    },
    {
      "inputs": [],
      "name": "getContractBalance",
      "outputs": [
        {
          "internalType": "uint256",
          "name": "",
          "type": "uint256"
        }
      ],
      "stateMutability": "view",
      "type": "function"
    },
    {
      "inputs": [],
      "name": "getMarketInfo",
      "outputs": [
        {
          "internalType": "address",
          "name": "_creator",
          "type": "address"
        },
        {
          "internalType": "string",
          "name": "_question",
          "type": "string"
        },
        {
          "internalType": "uint256",
          "name": "_endTime",
          "type": "uint256"
        },
        {
          "internalType": "uint256",
          "name": "_createdAt",
          "type": "uint256"
        },
        {
          "internalType": "enum PredictionMarket.Status",
          "name": "_status",
          "type": "uint8"
        },
        {
          "internalType": "uint8",
          "name": "_optionCount",
          "type": "uint8"
        },
        {
          "internalType": "string[]",
          "name": "_optionLabels",
          "type": "string[]"
        },
        {
          "internalType": "uint256[]",
          "name": "_totalShares",
          "type": "uint256[]"
        },
        {
          "internalType": "bool[]",
          "name": "_winningOptions",
          "type": "bool[]"
        },
        {
          "internalType": "uint256",
          "name": "_totalPool",
          "type": "uint256"
        }
      ],
      "stateMutability": "view",
      "type": "function"
    },
    {
      "inputs": [],
      "name": "getOdds",
      "outputs": [
        {
          "internalType": "uint256[]",
          "name": "",
          "type": "uint256[]"
        }
      ],
      "stateMutability": "view",
      "type": "function"
    },
    {
      "inputs": [
        {
          "internalType": "uint8",
          "name": "index",
          "type": "uint8"
        }
      ],
      "name": "getOptionLabel",
      "outputs": [
        {
          "internalType": "string",
          "name": "",
          "type": "string"
        }
      ],
      "stateMutability": "view",
      "type": "function"
    },
    {
      "inputs": [],
      "name": "getOptionLabels",
      "outputs": [
        {
          "internalType": "string[]",
          "name": "",
          "type": "string[]"
        }
      ],
      "stateMutability": "view",
      "type": "function"
    },
    {
      "inputs": [
        {
          "internalType": "uint8",
          "name": "optionIndex",
          "type": "uint8"
        }
      ],
      "name": "getOptionPrice",
      "outputs": [
        {
          "internalType": "uint256",
          "name": "",
          "type": "uint256"
        }
      ],
      "stateMutability": "view",
      "type": "function"
    },
    {
      "inputs": [],
      "name": "getTimeRemaining",
      "outputs": [
        {
          "internalType": "uint256",
          "name": "",
          "type": "uint256"
        }
      ],
      "stateMutability": "view",
      "type": "function"
    },
    {
      "inputs": [],
      "name": "getTotalPool",
      "outputs": [
        {
          "internalType": "uint256",
          "name": "",
          "type": "uint256"
        }
      ],
      "stateMutability": "view",
      "type": "function"
    },
    {
      "inputs": [],
      "name": "getTotalShares",
      "outputs": [
        {
          "internalType": "uint256[]",
          "name": "",
          "type": "uint256[]"
        }
      ],
      "stateMutability": "view",
      "type": "function"
    },
    {
      "inputs": [
        {
          "internalType": "address",
          "name": "user",
          "type": "address"
        }
      ],
      "name": "getUserPosition",
      "outputs": [
        {
          "internalType": "uint256[]",
          "name": "_shares",
          "type": "uint256[]"
        },
        {
          "internalType": "bool",
          "name": "_hasClaimed",
          "type": "bool"
        }
      ],
      "stateMutability": "view",
      "type": "function"
    },
    {
      "inputs": [
        {
          "internalType": "address",
          "name": "user",
          "type": "address"
        },
        {
          "internalType": "uint8",
          "name": "optionIndex",
          "type": "uint8"
        }
      ],
      "name": "getUserShares",
      "outputs": [
        {
          "internalType": "uint256",
          "name": "",
          "type": "uint256"
        }
      ],
      "stateMutability": "view",
      "type": "function"
    },
    {
      "inputs": [],
      "name": "getWinningOptions",
      "outputs": [
        {
          "internalType": "bool[]",
          "name": "",
          "type": "bool[]"
        }
      ],
      "stateMutability": "view",
      "type": "function"
    },
    {
      "inputs": [
        {
          "internalType": "address",
          "name": "",
          "type": "address"
        }
      ],
      "name": "hasClaimed",
      "outputs": [
        {
          "internalType": "bool",
          "name": "",
          "type": "bool"
        }
      ],
      "stateMutability": "view",
      "type": "function"
    },
    {
      "inputs": [],
      "name": "hasWinners",
      "outputs": [
        {
          "internalType": "bool",
          "name": "",
          "type": "bool"
        }
      ],
      "stateMutability": "view",
      "type": "function"
    },
    {
      "inputs": [],
      "name": "isOpenForBetting",
      "outputs": [
        {
          "internalType": "bool",
          "name": "",
          "type": "bool"
        }
      ],
      "stateMutability": "view",
      "type": "function"
    },
    {
      "inputs": [],
      "name": "marketStatus",
      "outputs": [
        {
          "internalType": "enum PredictionMarket.Status",
          "name": "",
          "type": "uint8"
        }
      ],
      "stateMutability": "view",
      "type": "function"
    },
    {
      "inputs": [],
      "name": "optionCount",
      "outputs": [
        {
          "internalType": "uint8",
          "name": "",
          "type": "uint8"
        }
      ],
      "stateMutability": "view",
      "type": "function"
    },
    {
      "inputs": [
        {
          "internalType": "uint256",
          "name": "",
          "type": "uint256"
        }
      ],
      "name": "optionLabels",
      "outputs": [
        {
          "internalType": "string",
          "name": "",
          "type": "string"
        }
      ],
      "stateMutability": "view",
      "type": "function"
    },
    {
      "inputs": [],
      "name": "question",
      "outputs": [
        {
          "internalType": "string",
          "name": "",
          "type": "string"
        }
      ],
      "stateMutability": "view",
      "type": "function"
    },
    {
      "inputs": [
        {
          "internalType": "uint8[]",
          "name": "winnerIndices",
          "type": "uint8[]"
        }
      ],
      "name": "resolveMarket",
      "outputs": [],
      "stateMutability": "nonpayable",
      "type": "function"
    },
    {
      "inputs": [
        {
          "internalType": "uint8[]",
          "name": "winnerIndices",
          "type": "uint8[]"
        }
      ],
      "name": "resolveMarketFromResolver",
      "outputs": [],
      "stateMutability": "nonpayable",
      "type": "function"
    },
    {
      "inputs": [],
      "name": "resolver",
      "outputs": [
        {
          "internalType": "address",
          "name": "",
          "type": "address"
        }
      ],
      "stateMutability": "view",
      "type": "function"
    },
    {
      "inputs": [
        {
          "internalType": "uint8",
          "name": "optionIndex",
          "type": "uint8"
        },
        {
          "internalType": "uint256",
          "name": "sharesAmount",
          "type": "uint256"
        }
      ],
      "name": "sellShares",
      "outputs": [],
      "stateMutability": "nonpayable",
      "type": "function"
    },
    {
      "inputs": [
        {
          "internalType": "address",
          "name": "_resolver",
          "type": "address"
        }
      ],
      "name": "setResolver",
      "outputs": [],
      "stateMutability": "nonpayable",
      "type": "function"
    },
    {
      "inputs": [
        {
          "internalType": "address",
          "name": "",
          "type": "address"
        },
        {
          "internalType": "uint8",
          "name": "",
          "type": "uint8"
        }
      ],
      "name": "shares",
      "outputs": [
        {
          "internalType": "uint256",
          "name": "",
          "type": "uint256"
        }
      ],
      "stateMutability": "view",
      "type": "function"
    },
    {
      "inputs": [
        {
          "internalType": "uint256",
          "name": "",
          "type": "uint256"
        }
      ],
      "name": "totalShares",
      "outputs": [
        {
          "internalType": "uint256",
          "name": "",
          "type": "uint256"
        }
      ],
      "stateMutability": "view",
      "type": "function"
    },
    {
      "inputs": [
        {
          "internalType": "uint256",
          "name": "",
          "type": "uint256"
        }
      ],
      "name": "winningOptions",
      "outputs": [
        {
          "internalType": "bool",
          "name": "",
          "type": "bool"
        }
      ],
      "stateMutability": "view",
      "type": "function"
    },
    {
      "stateMutability": "payable",
      "type": "receive"
    }
  ],
  "bytecode": "0x60806040523480156200001157600080fd5b5060405162002fdb38038062002fdb8339810160408190526200003491620005f5565b42821162000055576040516338af65f760e01b815260040160405180910390fd5b6001600160a01b0384166200007d5760405163162908e360e11b815260040160405180910390fd5b8251600003620000a05760405163162908e360e11b815260040160405180910390fd5b600281511080620000b2575060048151115b15620000d15760405163447074b560e01b815260040160405180910390fd5b60005b81518160ff161015620001da57818160ff1681518110620000f957620000f962000718565b6020026020010151516000036200012357604051633887f29360e11b815260040160405180910390fd5b60006200013282600162000744565b90505b82518160ff161015620001c457828160ff16815181106200015a576200015a62000718565b602002602001015180519060200120838360ff168151811062000181576200018162000718565b60200260200101518051906020012003620001af576040516348a4bd6d60e11b815260040160405180910390fd5b80620001bb8162000766565b91505062000135565b5080620001d18162000766565b915050620000d4565b50600080546001600160a01b0319166001600160a01b038616179055600262000204848262000817565b5060038290554260045560058054825161ffff1990911661010060ff831602179091556200023a90600690602084019062000348565b5080516001600160401b0381111562000257576200025762000512565b60405190808252806020026020018201604052801562000281578160200160208202803683370190505b5080516200029891600b91602090910190620003a5565b5080516001600160401b03811115620002b557620002b562000512565b604051908082528060200260200182016040528015620002df578160200160208202803683370190505b508051620002f691600791602090910190620003f1565b50836001600160a01b03167fe7abea24bbdeca3299ee22e1cdbad24cbb950a3754a487ee187e61dc3f096ed4848484604051620003369392919062000911565b60405180910390a25050505062000990565b82805482825590600052602060002090810192821562000393579160200282015b8281111562000393578251829062000382908262000817565b509160200191906001019062000369565b50620003a192915062000498565b5090565b828054828255906000526020600020908101928215620003e3579160200282015b82811115620003e3578251825591602001919060010190620003c6565b50620003a1929150620004b9565b82805482825590600052602060002090601f01602090048101928215620003e35791602002820160005b838211156200045a57835183826101000a81548160ff02191690831515021790555092602001926001016020816000010492830192600103026200041b565b8015620004895782816101000a81549060ff02191690556001016020816000010492830192600103026200045a565b5050620003a1929150620004b9565b80821115620003a1576000620004af8282620004d0565b5060010162000498565b5b80821115620003a15760008155600101620004ba565b508054620004de9062000788565b6000825580601f10620004ef575050565b601f0160209004906000526020600020908101906200050f9190620004b9565b50565b634e487b7160e01b600052604160045260246000fd5b604051601f8201601f191681016001600160401b038111828210171562000553576200055362000512565b604052919050565b60005b83811015620005785781810151838201526020016200055e565b50506000910152565b600082601f8301126200059357600080fd5b81516001600160401b03811115620005af57620005af62000512565b620005c4601f8201601f191660200162000528565b818152846020838601011115620005da57600080fd5b620005ed8260208301602087016200055b565b949350505050565b600080600080608085870312156200060c57600080fd5b84516001600160a01b03811681146200062457600080fd5b602086810151919550906001600160401b03808211156200064457600080fd5b6200065289838a0162000581565b95506040880151945060608801519150808211156200067057600080fd5b818801915088601f8301126200068557600080fd5b8151818111156200069a576200069a62000512565b8060051b620006ab85820162000528565b918252838101850191858101908c841115620006c657600080fd5b86860192505b838310156200070757825185811115620006e65760008081fd5b620006f68e89838a010162000581565b8352509186019190860190620006cc565b999c989b5096995050505050505050565b634e487b7160e01b600052603260045260246000fd5b634e487b7160e01b600052601160045260246000fd5b60ff81811683821601908111156200076057620007606200072e565b92915050565b600060ff821660ff81036200077f576200077f6200072e565b60010192915050565b600181811c908216806200079d57607f821691505b602082108103620007be57634e487b7160e01b600052602260045260246000fd5b50919050565b601f8211156200081257600081815260208120601f850160051c81016020861015620007ed5750805b601f850160051c820191505b818110156200080e57828155600101620007f9565b5050505b505050565b81516001600160401b0381111562000833576200083362000512565b6200084b8162000844845462000788565b84620007c4565b602080601f8311600181146200088357600084156200086a5750858301515b600019600386901b1c1916600185901b1785556200080e565b600085815260208120601f198616915b82811015620008b45788860151825594840194600190910190840162000893565b5085821015620008d35787850151600019600388901b60f8161c191681555b5050505050600190811b01905550565b60008151808452620008fd8160208601602086016200055b565b601f01601f19169290920160200192915050565b606081526000620009266060830186620008e3565b6020858185015283820360408501528185518084528284019150828160051b85010183880160005b838110156200098057601f198784030185526200096d838351620008e3565b948601949250908501906001016200094e565b50909a9950505050505050505050565b61263b80620009a06000396000f3fe6080604052600436106102125760003560e01c80636a87c47411610118578063bc29ca45116100a0578063dac6270d1161006f578063dac6270d1461060e578063e0e081d714610623578063e32fe90b1461064a578063ef0fc35c1461067b578063f2ccb3971461069b57600080fd5b8063bc29ca45146105a9578063c235253f146105c3578063cf09e0d0146105e3578063d5002f2e146105f957600080fd5b806375f4d677116100e757806375f4d67714610528578063a1e512d71461053d578063ab125b641461055d578063b401faf11461057f578063b5545a3c1461059457600080fd5b80636a87c474146104b05780636bfefd6b146104d05780636f9fb98a146104e557806373b2e80e146104f857600080fd5b806334f5e9f91161019b5780634c5be5741161016a5780634c5be574146104005780634e543b26146104225780634ea64d17146104425780635b7c2dad1461046257806368ea18ec1461049057600080fd5b806334f5e9f9146103895780633f0826c51461039e5780633fad9ae0146103cb5780634a02476e146103e057600080fd5b806313f2dad0116101e257806313f2dad0146102e657806323341a051461030657806324fdf5af146103315780632f31d130146103515780633197cbb61461037357600080fd5b806280cb821461021e57806302d05d3f1461024857806304f3bcec146102805780631158bd13146102a057600080fd5b3661021957005b600080fd5b34801561022a57600080fd5b506102336106bb565b60405190151581526020015b60405180910390f35b34801561025457600080fd5b50600054610268906001600160a01b031681565b6040516001600160a01b03909116815260200161023f565b34801561028c57600080fd5b50600154610268906001600160a01b031681565b3480156102ac57600080fd5b506102d86102bb366004612096565b600960209081526000928352604080842090915290825290205481565b60405190815260200161023f565b3480156102f257600080fd5b506102d86103013660046120c9565b6106e8565b34801561031257600080fd5b5061031b610709565b60405161023f9a99989796959493929190612225565b34801561033d57600080fd5b506102d861034c36600461230e565b610995565b34801561035d57600080fd5b50610366610ab0565b60405161023f9190612361565b34801561037f57600080fd5b506102d860035481565b61039c610397366004612374565b610b28565b005b3480156103aa57600080fd5b506103be6103b9366004612374565b610cb4565b60405161023f919061238f565b3480156103d757600080fd5b506103be610d95565b3480156103ec57600080fd5b506102336103fb3660046120c9565b610e23565b34801561040c57600080fd5b50610415610e57565b60405161023f91906123a2565b34801561042e57600080fd5b5061039c61043d3660046123b5565b610fbf565b34801561044e57600080fd5b506102d861045d3660046123d0565b61105d565b34801561046e57600080fd5b5061048261047d3660046123b5565b6110da565b60405161023f9291906123fa565b34801561049c57600080fd5b5061039c6104ab36600461241e565b6111cb565b3480156104bc57600080fd5b5061039c6104cb36600461241e565b61140f565b3480156104dc57600080fd5b5061039c6115ef565b3480156104f157600080fd5b50476102d8565b34801561050457600080fd5b506102336105133660046123b5565b600a6020526000908152604090205460ff1681565b34801561053457600080fd5b506102d861168b565b34801561054957600080fd5b506102d8610558366004612374565b6116ec565b34801561056957600080fd5b5061057261178c565b60405161023f9190612460565b34801561058b57600080fd5b5061039c611865565b3480156105a057600080fd5b5061039c611b1b565b3480156105b557600080fd5b506008546102339060ff1681565b3480156105cf57600080fd5b506102d86105de366004612096565b611cc5565b3480156105ef57600080fd5b506102d860045481565b34801561060557600080fd5b50610415611d13565b34801561061a57600080fd5b506102d8611d6a565b34801561062f57600080fd5b5060055461063d9060ff1681565b60405161023f9190612473565b34801561065657600080fd5b5060055461066990610100900460ff1681565b60405160ff909116815260200161023f565b34801561068757600080fd5b506103be6106963660046120c9565b611d89565b3480156106a757600080fd5b5061039c6106b63660046123d0565b611db4565b60008060055460ff1660028111156106d5576106d5612128565b1480156106e3575060035442105b905090565b600b81815481106106f857600080fd5b600091825260209091200154905081565b60008054600354600454600554606093859384938493849388938493849387936001600160a01b031692600292909160ff808216916101009004166006600b600761075261168b565b88805461075e90612481565b80601f016020809104026020016040519081016040528092919081815260200182805461078a90612481565b80156107d75780601f106107ac576101008083540402835291602001916107d7565b820191906000526020600020905b8154815290600101906020018083116107ba57829003601f168201915b5050505050985083805480602002602001604051908101604052809291908181526020016000905b828210156108ab57838290600052602060002001805461081e90612481565b80601f016020809104026020016040519081016040528092919081815260200182805461084a90612481565b80156108975780601f1061086c57610100808354040283529160200191610897565b820191906000526020600020905b81548152906001019060200180831161087a57829003601f168201915b5050505050815260200190600101906107ff565b505050509350828054806020026020016040519081016040528092919081815260200182805480156108fc57602002820191906000526020600020905b8154815260200190600101908083116108e8575b505050505092508180548060200260200160405190810160405280929190818152602001828054801561096e57602002820191906000526020600020906000905b825461010083900a900460ff16151581526020600192830181810494850194909303909202910180841161093d5790505b50505050509150995099509950995099509950995099509950995090919293949596979899565b6000806109a061168b565b9050806000036109b4576000915050610aa9565b60008060005b85811015610a795760008787838181106109d6576109d66124b5565b90506020020160208101906109eb9190612374565b60055490915060ff61010090910481169082161015610a66576001600160a01b038916600090815260096020908152604080832060ff85168452909152902054610a3590856124e1565b9350600b8160ff1681548110610a4d57610a4d6124b5565b906000526020600020015483610a6391906124e1565b92505b5080610a71816124f4565b9150506109ba565b5080600003610a8e5760009350505050610aa9565b80610a99848461250d565b610aa3919061253a565b93505050505b9392505050565b60606007805480602002602001604051908101604052809291908181526020018280548015610b1e57602002820191906000526020600020906000905b825461010083900a900460ff161515815260206001928301818104948501949093039092029101808411610aed5790505b5050505050905090565b600060055460ff166002811115610b4157610b41612128565b14610b5f57604051635a90bb8d60e11b815260040160405180910390fd5b6003544210610b815760405163262b753160e21b815260040160405180910390fd5b600c5460ff1615610ba5576040516345f5ce8b60e11b815260040160405180910390fd5b600c805460ff19166001179055600554610100900460ff90811690821610610be057604051632a71953160e01b815260040160405180910390fd5b34600003610c015760405163162908e360e11b815260040160405180910390fd5b33600090815260096020908152604080832060ff8516845290915281208054349290610c2e9084906124e1565b9250508190555034600b8260ff1681548110610c4c57610c4c6124b5565b906000526020600020016000828254610c6591906124e1565b90915550506040805160ff8316815234602082015233917f2af4933e21b80ecd7f6a3577faeee6c93449142bd87ddfa24a82b344be71dd17910160405180910390a250600c805460ff19169055565b60055460609060ff610100909104811690831610610ce557604051632a71953160e01b815260040160405180910390fd5b60068260ff1681548110610cfb57610cfb6124b5565b906000526020600020018054610d1090612481565b80601f0160208091040260200160405190810160405280929190818152602001828054610d3c90612481565b8015610d895780601f10610d5e57610100808354040283529160200191610d89565b820191906000526020600020905b815481529060010190602001808311610d6c57829003601f168201915b50505050509050919050565b60028054610da290612481565b80601f0160208091040260200160405190810160405280929190818152602001828054610dce90612481565b8015610e1b5780601f10610df057610100808354040283529160200191610e1b565b820191906000526020600020905b815481529060010190602001808311610dfe57829003601f168201915b505050505081565b60078181548110610e3357600080fd5b9060005260206000209060209182820401919006915054906101000a900460ff1681565b60606000610e6361168b565b600554909150600090610100900460ff1667ffffffffffffffff811115610e8c57610e8c61254e565b604051908082528060200260200182016040528015610eb5578160200160208202803683370190505b50905081600003610f3357600554600090610eda90610100900460ff16612710612564565b61ffff16905060005b60055460ff61010090910481169082161015610f2c5781838260ff1681518110610f0f57610f0f6124b5565b602090810291909101015280610f2481612585565b915050610ee3565b5050610fb9565b60005b60055460ff61010090910481169082161015610fb75782600b8260ff1681548110610f6357610f636124b5565b9060005260206000200154612710610f7b919061250d565b610f85919061253a565b828260ff1681518110610f9a57610f9a6124b5565b602090810291909101015280610faf81612585565b915050610f36565b505b92915050565b6000546001600160a01b03163314610fea5760405163ea8e4eb560e01b815260040160405180910390fd5b6001546001600160a01b03161561101457604051630dcdc26f60e21b815260040160405180910390fd5b6001600160a01b03811661103b5760405163162908e360e11b815260040160405180910390fd5b600180546001600160a01b0319166001600160a01b0392909216919091179055565b60055460009060ff61010090910481169084161061107d57506000610fb9565b600061108761168b565b90508060000361109b576000915050610fb9565b80600b8560ff16815481106110b2576110b26124b5565b9060005260206000200154846110c8919061250d565b6110d2919061253a565b949350505050565b6005546060906000908190610100900460ff1667ffffffffffffffff8111156111055761110561254e565b60405190808252806020026020018201604052801561112e578160200160208202803683370190505b50905060005b60055460ff610100909104811690821610156111a3576001600160a01b038516600090815260096020908152604080832060ff85168085529252909120548351909184918110611186576111866124b5565b60209081029190910101528061119b81612585565b915050611134565b506001600160a01b039093166000908152600a6020526040902054929360ff90931692915050565b6000546001600160a01b031633146111f65760405163ea8e4eb560e01b815260040160405180910390fd5b600060055460ff16600281111561120f5761120f612128565b1461122d57604051635a90bb8d60e11b815260040160405180910390fd5b6003544210156112505760405163493ab14960e11b815260040160405180910390fd5b6000819003611272576040516362a0260560e01b815260040160405180910390fd5b600554610100900460ff1681111561129d57604051632375825160e21b815260040160405180910390fd5b60005b818110156113ab5760008383838181106112bc576112bc6124b5565b90506020020160208101906112d19190612374565b60055490915060ff61010090910481169082161061130257604051632a71953160e01b815260040160405180910390fd5b60078160ff1681548110611318576113186124b5565b90600052602060002090602091828204019190069054906101000a900460ff1615611356576040516305a1e9cd60e11b815260040160405180910390fd5b600160078260ff168154811061136e5761136e6124b5565b90600052602060002090602091828204019190066101000a81548160ff0219169083151502179055505080806113a3906124f4565b9150506112a0565b5060088054600160ff1991821681179092556005805490911690911790557f442db8bb9fc4313fc02c098d0fd4d70fead65b4deca9c5087724e3f02927c20882826113f461168b565b604051611403939291906125a4565b60405180910390a15050565b6001546001600160a01b0316331461143a57604051635d154fe160e11b815260040160405180910390fd5b600060055460ff16600281111561145357611453612128565b1461147157604051635a90bb8d60e11b815260040160405180910390fd5b6003544210156114945760405163493ab14960e11b815260040160405180910390fd5b60008190036114b6576040516362a0260560e01b815260040160405180910390fd5b600554610100900460ff168111156114e157604051632375825160e21b815260040160405180910390fd5b60005b818110156113ab576000838383818110611500576115006124b5565b90506020020160208101906115159190612374565b60055490915060ff61010090910481169082161061154657604051632a71953160e01b815260040160405180910390fd5b60078160ff168154811061155c5761155c6124b5565b90600052602060002090602091828204019190069054906101000a900460ff161561159a576040516305a1e9cd60e11b815260040160405180910390fd5b600160078260ff16815481106115b2576115b26124b5565b90600052602060002090602091828204019190066101000a81548160ff0219169083151502179055505080806115e7906124f4565b9150506114e4565b6000546001600160a01b0316331461161a5760405163ea8e4eb560e01b815260040160405180910390fd5b600060055460ff16600281111561163357611633612128565b1461165157604051635a90bb8d60e11b815260040160405180910390fd5b6005805460ff1916600217905560405133907f996fafab197beb99fff6fdc975bb6cf90352f2c733c76ef37c2e27f17d7d424b90600090a2565b600080805b60055460ff610100909104811690821610156116e657600b8160ff16815481106116bc576116bc6124b5565b9060005260206000200154826116d291906124e1565b9150806116de81612585565b915050611690565b50919050565b60055460009060ff61010090910481169083161061171d57604051632a71953160e01b815260040160405180910390fd5b600061172761168b565b9050806000036117535760055461174890610100900460ff16612710612564565b61ffff169392505050565b80600b8460ff168154811061176a5761176a6124b5565b9060005260206000200154612710611782919061250d565b610aa9919061253a565b60606006805480602002602001604051908101604052809291908181526020016000905b8282101561185c5783829060005260206000200180546117cf90612481565b80601f01602080910402602001604051908101604052809291908181526020018280546117fb90612481565b80156118485780601f1061181d57610100808354040283529160200191611848565b820191906000526020600020905b81548152906001019060200180831161182b57829003601f168201915b5050505050815260200190600101906117b0565b50505050905090565b600c5460ff1615611889576040516345f5ce8b60e11b815260040160405180910390fd5b600c805460ff1916600190811790915560055460ff1660028111156118b0576118b0612128565b146118ce5760405163174b639360e11b815260040160405180910390fd5b336000908152600a602052604090205460ff16156118ff57604051630c8d9eab60e31b815260040160405180910390fd5b60008060005b60055460ff610100909104811690821610156119c15760078160ff1681548110611931576119316124b5565b90600052602060002090602091828204019190069054906101000a900460ff16156119af5733600090815260096020908152604080832060ff8516845290915290205461197e90846124e1565b9250600b8160ff1681548110611996576119966124b5565b9060005260206000200154826119ac91906124e1565b91505b806119b981612585565b915050611905565b50816000036119e3576040516312d37ee560e31b815260040160405180910390fd5b60006119ed61168b565b90506000826119fc838661250d565b611a06919061253a565b336000908152600a60205260408120805460ff191660011790559091505b60055460ff61010090910481169082161015611a6a5733600090815260096020908152604080832060ff8516845290915281205580611a6281612585565b915050611a24565b50604051600090339083908381818185875af1925050503d8060008114611aad576040519150601f19603f3d011682016040523d82523d6000602084013e611ab2565b606091505b5050905080611ad4576040516312171d8360e31b815260040160405180910390fd5b60405182815233907fd8138f8a3f377c5259ca548e70e4c2de94f129f5a11036a15b69513cba2b426a906020015b60405180910390a25050600c805460ff19169055505050565b600c5460ff1615611b3f576040516345f5ce8b60e11b815260040160405180910390fd5b600c805460ff19166001179055600260055460ff166002811115611b6557611b65612128565b14611b8357604051630a5a0fc560e31b815260040160405180910390fd5b6000805b60055460ff61010090910481169082161015611bf75733600090815260096020908152604080832060ff85168452909152902054611bc590836124e1565b33600090815260096020908152604080832060ff86168452909152812055915080611bef81612585565b915050611b87565b5080600003611c195760405163f76aef6560e01b815260040160405180910390fd5b604051600090339083908381818185875af1925050503d8060008114611c5b576040519150601f19603f3d011682016040523d82523d6000602084013e611c60565b606091505b5050905080611c82576040516312171d8360e31b815260040160405180910390fd5b60405182815233907fd7dee2702d63ad89917b6a4da9981c90c4d24f8c2bdfd64c604ecae57d8d06519060200160405180910390a25050600c805460ff19169055565b60055460009060ff610100909104811690831610611ce557506000610fb9565b506001600160a01b038216600090815260096020908152604080832060ff8516845290915290205492915050565b6060600b805480602002602001604051908101604052809291908181526020018280548015610b1e57602002820191906000526020600020905b815481526020019060010190808311611d4d575050505050905090565b60006003544210611d7b5750600090565b426003546106e391906125f2565b60068181548110611d9957600080fd5b906000526020600020016000915090508054610da290612481565b600060055460ff166002811115611dcd57611dcd612128565b14611deb57604051635a90bb8d60e11b815260040160405180910390fd5b6003544210611e0d5760405163262b753160e21b815260040160405180910390fd5b600c5460ff1615611e31576040516345f5ce8b60e11b815260040160405180910390fd5b600c805460ff19166001179055600554610100900460ff90811690831610611e6c57604051632a71953160e01b815260040160405180910390fd5b80600003611e8d5760405163162908e360e11b815260040160405180910390fd5b33600090815260096020908152604080832060ff86168452909152902054811115611ecb57604051633999656760e01b815260040160405180910390fd5b6000611ed561168b565b905080600003611ef85760405163bb55fd2760e01b815260040160405180910390fd5b600081600b8560ff1681548110611f1157611f116124b5565b906000526020600020015484611f27919061250d565b611f31919061253a565b905080471015611f545760405163bb55fd2760e01b815260040160405180910390fd5b33600090815260096020908152604080832060ff8816845290915281208054859290611f819084906125f2565b9250508190555082600b8560ff1681548110611f9f57611f9f6124b5565b906000526020600020016000828254611fb891906125f2565b9091555050604051600090339083908381818185875af1925050503d8060008114611fff576040519150601f19603f3d011682016040523d82523d6000602084013e612004565b606091505b5050905080612026576040516312171d8360e31b815260040160405180910390fd5b6040805160ff871681526020810186905290810183905233907faa68026cba73386b81aaef0208a11ad1c3f8d1306cf0734631f076b7baea05ba90606001611b02565b80356001600160a01b038116811461208057600080fd5b919050565b803560ff8116811461208057600080fd5b600080604083850312156120a957600080fd5b6120b283612069565b91506120c060208401612085565b90509250929050565b6000602082840312156120db57600080fd5b5035919050565b6000815180845260005b81811015612108576020818501810151868301820152016120ec565b506000602082860101526020601f19601f83011685010191505092915050565b634e487b7160e01b600052602160045260246000fd5b6003811061215c57634e487b7160e01b600052602160045260246000fd5b9052565b600082825180855260208086019550808260051b84010181860160005b848110156121ab57601f198684030189526121998383516120e2565b9884019892509083019060010161217d565b5090979650505050505050565b600081518084526020808501945080840160005b838110156121e8578151875295820195908201906001016121cc565b509495945050505050565b600081518084526020808501945080840160005b838110156121e8578151151587529582019590820190600101612207565b6001600160a01b038b1681526101406020820181905260009061224a8382018d6120e2565b90508a6040840152896060840152612265608084018a61213e565b60ff881660a084015282810360c08401526122808188612160565b905082810360e084015261229481876121b8565b90508281036101008401526122a981866121f3565b915050826101208301529b9a5050505050505050505050565b60008083601f8401126122d457600080fd5b50813567ffffffffffffffff8111156122ec57600080fd5b6020830191508360208260051b850101111561230757600080fd5b9250929050565b60008060006040848603121561232357600080fd5b61232c84612069565b9250602084013567ffffffffffffffff81111561234857600080fd5b612354868287016122c2565b9497909650939450505050565b602081526000610aa960208301846121f3565b60006020828403121561238657600080fd5b610aa982612085565b602081526000610aa960208301846120e2565b602081526000610aa960208301846121b8565b6000602082840312156123c757600080fd5b610aa982612069565b600080604083850312156123e357600080fd5b6123ec83612085565b946020939093013593505050565b60408152600061240d60408301856121b8565b905082151560208301529392505050565b6000806020838503121561243157600080fd5b823567ffffffffffffffff81111561244857600080fd5b612454858286016122c2565b90969095509350505050565b602081526000610aa96020830184612160565b60208101610fb9828461213e565b600181811c9082168061249557607f821691505b6020821081036116e657634e487b7160e01b600052602260045260246000fd5b634e487b7160e01b600052603260045260246000fd5b634e487b7160e01b600052601160045260246000fd5b80820180821115610fb957610fb96124cb565b600060018201612506576125066124cb565b5060010190565b8082028115828204841417610fb957610fb96124cb565b634e487b7160e01b600052601260045260246000fd5b60008261254957612549612524565b500490565b634e487b7160e01b600052604160045260246000fd5b600061ffff8084168061257957612579612524565b92169190910492915050565b600060ff821660ff810361259b5761259b6124cb565b60010192915050565b6040808252810183905260008460608301825b868110156125df5760ff6125ca84612085565b168252602092830192909101906001016125b7565b5060209390930193909352509392505050565b81810381811115610fb957610fb96124cb56fea2646970667358221220ba59d84f01ae88b78da828e06c30fbdee5f04625b5816dce761703751fb09ce364736f6c63430008140033",
  "linkReferences": {},
  "deployedLinkReferences": {}
}