{
  "_format": "hh-sol-artifact-1",
  "contractName": "BatchPrediction",
  "sourceName": "contracts/BatchPrediction.sol",
  "abi": [
    {
      "inputs": [],
      "stateMutability": "nonpayable",
      "type": "constructor"
    },
    {
      "anonymous": false,
      "inputs": [
        {
          "indexed": true,
          "internalType": "address",
          "name": "user",
          "type": "address"
        },
        {
          "indexed": false,
          "internalType": "uint256",
          "name": "totalAmount",
          "type": "uint256"
        },
        {
          "indexed": false,
          "internalType": "uint256",
          "name": "marketsCount",
          "type": "uint256"
        }
      ],
      "name": "BatchPredictionExecuted",
      "type": "event"
    },
    {
      "anonymous": false,
      "inputs": [
        {
          "indexed": true,
          "internalType": "address",
          "name": "user",
          "type": "address"
        },
        {
          "indexed": true,
          "internalType": "address",
          "name": "market",
          "type": "address"
        },
        {
          "indexed": false,
          "internalType": "uint8",
          "name": "optionIndex",
          "type": "uint8"
        },
        {
          "indexed": false,
          "internalType": "uint256",
          "name": "amount",
          "type": "uint256"
        },
        {
          "indexed": false,
          "internalType": "string",
          "name": "reason",
          "type": "string"
        }
      ],
      "name": "PredictionFailed",
      "type": "event"
    },
    {
      "anonymous": false,
      "inputs": [
        {
          "indexed": true,
          "internalType": "address",
          "name": "user",
          "type": "address"
        },
        {
          "indexed": true,
          "internalType": "address",
          "name": "market",
          "type": "address"
        },
        {
          "indexed": false,
          "internalType": "uint8",
          "name": "optionIndex",
          "type": "uint8"
        },
        {
          "indexed": false,
          "internalType": "uint256",
          "name": "amount",
          "type": "uint256"
        }
      ],
      "name": "PredictionPlaced",
      "type": "event"
    },
    {
      "inputs": [
        {
          "components": [
            {
              "internalType": "address",
              "name": "market",
              "type": "address"
            },
            {
              "internalType": "uint8",
              "name": "optionIndex",
              "type": "uint8"
            },
            {
              "internalType": "uint256",
              "name": "amount",
              "type": "uint256"
            }
          ],
          "internalType": "struct BatchPrediction.Prediction[]",
          "name": "predictions",
          "type": "tuple[]"
        }
      ],
      "name": "batchPredict",
      "outputs": [],
      "stateMutability": "payable",
      "type": "function"
    },
    {
      "inputs": [
        {
          "internalType": "address[]",
          "name": "markets",
          "type": "address[]"
        },
        {
          "internalType": "uint8[]",
          "name": "optionIndices",
          "type": "uint8[]"
        },
        {
          "internalType": "uint256[]",
          "name": "amounts",
          "type": "uint256[]"
        }
      ],
      "name": "batchPredictSimple",
      "outputs": [],
      "stateMutability": "payable",
      "type": "function"
    },
    {
      "inputs": [],
      "name": "emergencyWithdraw",
      "outputs": [],
      "stateMutability": "nonpayable",
      "type": "function"
    },
    {
      "inputs": [],
      "name": "owner",
      "outputs": [
        {
          "internalType": "address",
          "name": "",
          "type": "address"
        }
      ],
      "stateMutability": "view",
      "type": "function"
    },
    {
      "inputs": [
        {
          "internalType": "address",
          "name": "newOwner",
          "type": "address"
        }
      ],
      "name": "transferOwnership",
      "outputs": [],
      "stateMutability": "nonpayable",
      "type": "function"
    },
    {
      "inputs": [
        {
          "internalType": "address[]",
          "name": "markets",
          "type": "address[]"
        },
        {
          "internalType": "uint256[]",
          "name": "amounts",
          "type": "uint256[]"
        }
      ],
      "name": "validatePredictions",
      "outputs": [
        {
          "internalType": "bool[]",
          "name": "valid",
          "type": "bool[]"
        },
        {
          "internalType": "uint256",
          "name": "totalAmount",
          "type": "uint256"
        }
      ],
      "stateMutability": "view",
      "type": "function"
    },
    {
      "stateMutability": "payable",
      "type": "receive"
    }
  ],
  "bytecode": "0x608060405234801561001057600080fd5b50600080546001600160a01b031916331790556116a4806100326000396000f3fe6080604052600436106100595760003560e01c806309a456d1146100655780635c3708401461009c5780638da5cb5b146100b1578063a5ba8f3d146100e9578063db2e21bc146100fc578063f2fde38b1461011157600080fd5b3661006057005b600080fd5b34801561007157600080fd5b506100856100803660046111a1565b610131565b60405161009392919061120d565b60405180910390f35b6100af6100aa366004611257565b61030c565b005b3480156100bd57600080fd5b506000546100d1906001600160a01b031681565b6040516001600160a01b039091168152602001610093565b6100af6100f73660046112cc565b6108a7565b34801561010857600080fd5b506100af610f8b565b34801561011d57600080fd5b506100af61012c366004611366565b6110a5565b606060008483146101815760405162461bcd60e51b8152602060048201526015602482015274082e4e4c2f240d8cadccee8d040dad2e6dac2e8c6d605b1b60448201526064015b60405180910390fd5b8467ffffffffffffffff81111561019a5761019a611396565b6040519080825280602002602001820160405280156101c3578160200160208202803683370190505b5091506000905060005b85811015610302578686828181106101e7576101e76113ac565b90506020020160208101906101fc9190611366565b6001600160a01b03166280cb826040518163ffffffff1660e01b8152600401602060405180830381865afa925050508015610254575060408051601f3d908101601f19168201909252610251918101906113c2565b60015b61028157600083828151811061026c5761026c6113ac565b911515602092830291909101909101526102ca565b8080156102a65750600086868481811061029d5761029d6113ac565b90506020020135115b8483815181106102b8576102b86113ac565b91151560209283029190910190910152505b8484828181106102dc576102dc6113ac565b90506020020135826102ee91906113fa565b9150806102fa81611413565b9150506101cd565b5094509492505050565b806103535760405162461bcd60e51b8152602060048201526017602482015276139bc81c1c99591a58dd1a5bdb9cc81c1c9bdd9a591959604a1b6044820152606401610178565b60148111156103a45760405162461bcd60e51b815260206004820152601d60248201527f546f6f206d616e792070726564696374696f6e7320286d6178203230290000006044820152606401610178565b6000805b828110156103eb578383828181106103c2576103c26113ac565b90506060020160400135826103d791906113fa565b9150806103e381611413565b9150506103a8565b50803410156104345760405162461bcd60e51b8152602060048201526015602482015274125b9cdd59999a58da595b9d08135395081cd95b9d605a1b6044820152606401610178565b60008060005b8481101561077c5736868683818110610455576104556113ac565b9050606002019050806040013560000361046f575061076a565b61047c6020820182611366565b6001600160a01b03166280cb826040518163ffffffff1660e01b8152600401602060405180830381865afa9250505080156104d4575060408051601f3d908101601f191682019092526104d1918101906113c2565b60015b61052f576104e56020820182611366565b6001600160a01b03163360008051602061164f83398151915261050e604085016020860161142c565b846040013560405161052192919061144f565b60405180910390a35061076a565b8061058c576105416020830183611366565b6001600160a01b03163360008051602061164f83398151915261056a604086016020870161142c565b856040013560405161057d929190611488565b60405180910390a3505061076a565b5061059a6020820182611366565b6001600160a01b03166334f5e9f9604083018035906105bc906020860161142c565b6040516001600160e01b031960e085901b16815260ff90911660048201526024016000604051808303818588803b1580156105f657600080fd5b505af193505050508015610608575060015b6106e4576106146114c2565b806308c379a00361068c5750610628611519565b80610633575061068e565b6106406020830183611366565b6001600160a01b03163360008051602061164f833981519152610669604086016020870161142c565b85604001358560405161067e939291906115a3565b60405180910390a350610768565b505b61069b6020820182611366565b6001600160a01b03163360008051602061164f8339815191526106c4604085016020860161142c565b84604001356040516106d7929190611603565b60405180910390a3610768565b6106f16020820182611366565b6001600160a01b0316337fec8f68f6e626bee2111ea756bc6eb802491f00831828ef7b1034fdfa94fe65d961072c604085016020860161142c565b6040805160ff90921682528086013560208301520160405180910390a38361075381611413565b945061076590506040820135846113fa565b92505b505b8061077481611413565b91505061043a565b50600082116107c65760405162461bcd60e51b8152602060048201526016602482015275105b1b081c1c99591a58dd1a5bdb9cc819985a5b195960521b6044820152606401610178565b604080518281526020810184905233917fe5e7e5911f47e9468f18a24e088393cdf63159247f5065466c34a6cfeb41068e910160405180910390a2600061080d823461163b565b9050801561089f57604051600090339083908381818185875af1925050503d8060008114610857576040519150601f19603f3d011682016040523d82523d6000602084013e61085c565b606091505b505090508061089d5760405162461bcd60e51b815260206004820152600d60248201526c1499599d5b990819985a5b1959609a1b6044820152606401610178565b505b505050505050565b84831480156108b557508481145b6108f95760405162461bcd60e51b8152602060048201526015602482015274082e4e4c2f240d8cadccee8d040dad2e6dac2e8c6d605b1b6044820152606401610178565b846109405760405162461bcd60e51b8152602060048201526017602482015276139bc81c1c99591a58dd1a5bdb9cc81c1c9bdd9a591959604a1b6044820152606401610178565b60148511156109915760405162461bcd60e51b815260206004820152601d60248201527f546f6f206d616e792070726564696374696f6e7320286d6178203230290000006044820152606401610178565b60008567ffffffffffffffff8111156109ac576109ac611396565b6040519080825280602002602001820160405280156109f757816020015b60408051606081018252600080825260208083018290529282015282526000199092019101816109ca5790505b50905060005b86811015610ac0576040518060600160405280898984818110610a2257610a226113ac565b9050602002016020810190610a379190611366565b6001600160a01b03168152602001878784818110610a5757610a576113ac565b9050602002016020810190610a6c919061142c565b60ff168152602001858584818110610a8657610a866113ac565b90506020020135815250828281518110610aa257610aa26113ac565b60200260200101819052508080610ab890611413565b9150506109fd565b506000805b8251811015610b0b57828181518110610ae057610ae06113ac565b60200260200101516040015182610af791906113fa565b915080610b0381611413565b915050610ac5565b5080341015610b545760405162461bcd60e51b8152602060048201526015602482015274125b9cdd59999a58da595b9d08135395081cd95b9d605a1b6044820152606401610178565b60008060005b8451811015610e5b576000858281518110610b7757610b776113ac565b602002602001015190508060400151600003610b935750610e49565b80600001516001600160a01b03166280cb826040518163ffffffff1660e01b8152600401602060405180830381865afa925050508015610bf0575060408051601f3d908101601f19168201909252610bed918101906113c2565b60015b610c415780600001516001600160a01b0316336001600160a01b031660008051602061164f83398151915283602001518460400151604051610c3392919061144f565b60405180910390a350610e49565b80610c945781600001516001600160a01b0316336001600160a01b031660008051602061164f83398151915284602001518560400151604051610c85929190611488565b60405180910390a35050610e49565b508051604080830151602084015191516334f5e9f960e01b815260ff90921660048301526001600160a01b03909216916334f5e9f9916024016000604051808303818588803b158015610ce657600080fd5b505af193505050508015610cf8575060015b610dc057610d046114c2565b806308c379a003610d725750610d18611519565b80610d235750610d74565b81600001516001600160a01b0316336001600160a01b031660008051602061164f8339815191528460200151856040015185604051610d64939291906115a3565b60405180910390a350610e47565b505b80600001516001600160a01b0316336001600160a01b031660008051602061164f83398151915283602001518460400151604051610db3929190611603565b60405180910390a3610e47565b80600001516001600160a01b0316336001600160a01b03167fec8f68f6e626bee2111ea756bc6eb802491f00831828ef7b1034fdfa94fe65d983602001518460400151604051610e1f92919060ff929092168252602082015260400190565b60405180910390a383610e3181611413565b945050806040015183610e4491906113fa565b92505b505b80610e5381611413565b915050610b5a565b5060008211610ea55760405162461bcd60e51b8152602060048201526016602482015275105b1b081c1c99591a58dd1a5bdb9cc819985a5b195960521b6044820152606401610178565b604080518281526020810184905233917fe5e7e5911f47e9468f18a24e088393cdf63159247f5065466c34a6cfeb41068e910160405180910390a26000610eec823461163b565b90508015610f7e57604051600090339083908381818185875af1925050503d8060008114610f36576040519150601f19603f3d011682016040523d82523d6000602084013e610f3b565b606091505b5050905080610f7c5760405162461bcd60e51b815260206004820152600d60248201526c1499599d5b990819985a5b1959609a1b6044820152606401610178565b505b5050505050505050505050565b6000546001600160a01b03163314610fd15760405162461bcd60e51b81526020600482015260096024820152682737ba1037bbb732b960b91b6044820152606401610178565b478061100c5760405162461bcd60e51b815260206004820152600a6024820152694e6f2062616c616e636560b01b6044820152606401610178565b600080546040516001600160a01b039091169083908381818185875af1925050503d8060008114611059576040519150601f19603f3d011682016040523d82523d6000602084013e61105e565b606091505b50509050806110a15760405162461bcd60e51b815260206004820152600f60248201526e15da5d1a191c985dc819985a5b1959608a1b6044820152606401610178565b5050565b6000546001600160a01b031633146110eb5760405162461bcd60e51b81526020600482015260096024820152682737ba1037bbb732b960b91b6044820152606401610178565b6001600160a01b0381166111335760405162461bcd60e51b815260206004820152600f60248201526e496e76616c6964206164647265737360881b6044820152606401610178565b600080546001600160a01b0319166001600160a01b0392909216919091179055565b60008083601f84011261116757600080fd5b50813567ffffffffffffffff81111561117f57600080fd5b6020830191508360208260051b850101111561119a57600080fd5b9250929050565b600080600080604085870312156111b757600080fd5b843567ffffffffffffffff808211156111cf57600080fd5b6111db88838901611155565b909650945060208701359150808211156111f457600080fd5b5061120187828801611155565b95989497509550505050565b604080825283519082018190526000906020906060840190828701845b8281101561124857815115158452928401929084019060010161122a565b50505092019290925292915050565b6000806020838503121561126a57600080fd5b823567ffffffffffffffff8082111561128257600080fd5b818501915085601f83011261129657600080fd5b8135818111156112a557600080fd5b8660206060830285010111156112ba57600080fd5b60209290920196919550909350505050565b600080600080600080606087890312156112e557600080fd5b863567ffffffffffffffff808211156112fd57600080fd5b6113098a838b01611155565b9098509650602089013591508082111561132257600080fd5b61132e8a838b01611155565b9096509450604089013591508082111561134757600080fd5b5061135489828a01611155565b979a9699509497509295939492505050565b60006020828403121561137857600080fd5b81356001600160a01b038116811461138f57600080fd5b9392505050565b634e487b7160e01b600052604160045260246000fd5b634e487b7160e01b600052603260045260246000fd5b6000602082840312156113d457600080fd5b8151801515811461138f57600080fd5b634e487b7160e01b600052601160045260246000fd5b8082018082111561140d5761140d6113e4565b92915050565b600060018201611425576114256113e4565b5060010190565b60006020828403121561143e57600080fd5b813560ff8116811461138f57600080fd5b60ff9290921682526020820152606060408201819052600e908201526d125b9d985b1a59081b585c9ad95d60921b608082015260a00190565b60ff9290921682526020820152606060408201819052600f908201526e26b0b935b2ba103737ba1037b832b760891b608082015260a00190565b600060033d11156114db5760046000803e5060005160e01c5b90565b601f8201601f1916810167ffffffffffffffff8111828210171561151257634e487b7160e01b600052604160045260246000fd5b6040525050565b600060443d10156115275790565b6040516003193d81016004833e81513d67ffffffffffffffff816024840111818411171561155757505050505090565b828501915081518181111561156f5750505050505090565b843d87010160208285010111156115895750505050505090565b611598602082860101876114de565b509095945050505050565b60ff8416815260006020848184015260606040840152835180606085015260005b818110156115e0578581018301518582016080015282016115c4565b506000608082860101526080601f19601f83011685010192505050949350505050565b60ff9290921682526020820152606060408201819052600d908201526c2ab735b737bbb71032b93937b960991b608082015260a00190565b8181038181111561140d5761140d6113e456feea9e6abf71a11cd21d9db5ab5f834c7b53f6a765b0b5b4ef1e45e70fbdd92748a26469706673582212206dc4fa0738fbd75f15a43d6f3fe35be072bb9983734f435d0d8f25e64ad898bf64736f6c63430008140033",
  "linkReferences": {},
  "deployedLinkReferences": {}
}